{
    "contractName": "AccessControlConfig",
    "abi": [
        {
            "anonymous": false,
            "inputs": [
                {
                    "indexed": false,
                    "internalType": "uint8",
                    "name": "version",
                    "type": "uint8"
                }
            ],
            "name": "Initialized",
            "type": "event"
        },
        {
            "anonymous": false,
            "inputs": [
                {
                    "indexed": true,
                    "internalType": "bytes32",
                    "name": "role",
                    "type": "bytes32"
                },
                {
                    "indexed": true,
                    "internalType": "bytes32",
                    "name": "previousAdminRole",
                    "type": "bytes32"
                },
                {
                    "indexed": true,
                    "internalType": "bytes32",
                    "name": "newAdminRole",
                    "type": "bytes32"
                }
            ],
            "name": "RoleAdminChanged",
            "type": "event"
        },
        {
            "anonymous": false,
            "inputs": [
                {
                    "indexed": true,
                    "internalType": "bytes32",
                    "name": "role",
                    "type": "bytes32"
                },
                {
                    "indexed": true,
                    "internalType": "address",
                    "name": "account",
                    "type": "address"
                },
                {
                    "indexed": true,
                    "internalType": "address",
                    "name": "sender",
                    "type": "address"
                }
            ],
            "name": "RoleGranted",
            "type": "event"
        },
        {
            "anonymous": false,
            "inputs": [
                {
                    "indexed": true,
                    "internalType": "bytes32",
                    "name": "role",
                    "type": "bytes32"
                },
                {
                    "indexed": true,
                    "internalType": "address",
                    "name": "account",
                    "type": "address"
                },
                {
                    "indexed": true,
                    "internalType": "address",
                    "name": "sender",
                    "type": "address"
                }
            ],
            "name": "RoleRevoked",
            "type": "event"
        },
        {
            "inputs": [],
            "name": "ADAPTER_ROLE",
            "outputs": [
                {
                    "internalType": "bytes32",
                    "name": "",
                    "type": "bytes32"
                }
            ],
            "stateMutability": "view",
            "type": "function"
        },
        {
            "inputs": [],
            "name": "BOOK_KEEPER_ROLE",
            "outputs": [
                {
                    "internalType": "bytes32",
                    "name": "",
                    "type": "bytes32"
                }
            ],
            "stateMutability": "view",
            "type": "function"
        },
        {
            "inputs": [],
            "name": "COLLATERAL_MANAGER_ROLE",
            "outputs": [
                {
                    "internalType": "bytes32",
                    "name": "",
                    "type": "bytes32"
                }
            ],
            "stateMutability": "view",
            "type": "function"
        },
        {
            "inputs": [],
            "name": "DEFAULT_ADMIN_ROLE",
            "outputs": [
                {
                    "internalType": "bytes32",
                    "name": "",
                    "type": "bytes32"
                }
            ],
            "stateMutability": "view",
            "type": "function"
        },
        {
            "inputs": [],
            "name": "GOV_ROLE",
            "outputs": [
                {
                    "internalType": "bytes32",
                    "name": "",
                    "type": "bytes32"
                }
            ],
            "stateMutability": "view",
            "type": "function"
        },
        {
            "inputs": [],
            "name": "LIQUIDATION_ENGINE_ROLE",
            "outputs": [
                {
                    "internalType": "bytes32",
                    "name": "",
                    "type": "bytes32"
                }
            ],
            "stateMutability": "view",
            "type": "function"
        },
        {
            "inputs": [],
            "name": "MINTABLE_ROLE",
            "outputs": [
                {
                    "internalType": "bytes32",
                    "name": "",
                    "type": "bytes32"
                }
            ],
            "stateMutability": "view",
            "type": "function"
        },
        {
            "inputs": [],
            "name": "OWNER_ROLE",
            "outputs": [
                {
                    "internalType": "bytes32",
                    "name": "",
                    "type": "bytes32"
                }
            ],
            "stateMutability": "view",
            "type": "function"
        },
        {
            "inputs": [],
            "name": "POSITION_MANAGER_ROLE",
            "outputs": [
                {
                    "internalType": "bytes32",
                    "name": "",
                    "type": "bytes32"
                }
            ],
            "stateMutability": "view",
            "type": "function"
        },
        {
            "inputs": [],
            "name": "PRICE_ORACLE_ROLE",
            "outputs": [
                {
                    "internalType": "bytes32",
                    "name": "",
                    "type": "bytes32"
                }
            ],
            "stateMutability": "view",
            "type": "function"
        },
        {
            "inputs": [],
            "name": "SHOW_STOPPER_ROLE",
            "outputs": [
                {
                    "internalType": "bytes32",
                    "name": "",
                    "type": "bytes32"
                }
            ],
            "stateMutability": "view",
            "type": "function"
        },
        {
            "inputs": [],
            "name": "STABILITY_FEE_COLLECTOR_ROLE",
            "outputs": [
                {
                    "internalType": "bytes32",
                    "name": "",
                    "type": "bytes32"
                }
            ],
            "stateMutability": "view",
            "type": "function"
        },
        {
            "inputs": [
                {
                    "internalType": "bytes32",
                    "name": "role",
                    "type": "bytes32"
                }
            ],
            "name": "getRoleAdmin",
            "outputs": [
                {
                    "internalType": "bytes32",
                    "name": "",
                    "type": "bytes32"
                }
            ],
            "stateMutability": "view",
            "type": "function"
        },
        {
            "inputs": [
                {
                    "internalType": "bytes32",
                    "name": "role",
                    "type": "bytes32"
                },
                {
                    "internalType": "address",
                    "name": "account",
                    "type": "address"
                }
            ],
            "name": "grantRole",
            "outputs": [],
            "stateMutability": "nonpayable",
            "type": "function"
        },
        {
            "inputs": [
                {
                    "internalType": "bytes32",
                    "name": "role",
                    "type": "bytes32"
                },
                {
                    "internalType": "address",
                    "name": "account",
                    "type": "address"
                }
            ],
            "name": "hasRole",
            "outputs": [
                {
                    "internalType": "bool",
                    "name": "",
                    "type": "bool"
                }
            ],
            "stateMutability": "view",
            "type": "function"
        },
        {
            "inputs": [
                {
                    "internalType": "bytes32",
                    "name": "role",
                    "type": "bytes32"
                },
                {
                    "internalType": "address",
                    "name": "account",
                    "type": "address"
                }
            ],
            "name": "renounceRole",
            "outputs": [],
            "stateMutability": "nonpayable",
            "type": "function"
        },
        {
            "inputs": [
                {
                    "internalType": "bytes32",
                    "name": "role",
                    "type": "bytes32"
                },
                {
                    "internalType": "address",
                    "name": "account",
                    "type": "address"
                }
            ],
            "name": "revokeRole",
            "outputs": [],
            "stateMutability": "nonpayable",
            "type": "function"
        },
        {
            "inputs": [
                {
                    "internalType": "bytes4",
                    "name": "interfaceId",
                    "type": "bytes4"
                }
            ],
            "name": "supportsInterface",
            "outputs": [
                {
                    "internalType": "bool",
                    "name": "",
                    "type": "bool"
                }
            ],
            "stateMutability": "view",
            "type": "function"
        },
        {
            "inputs": [],
            "name": "initialize",
            "outputs": [],
            "stateMutability": "nonpayable",
            "type": "function"
        }
    ],
    "bytecode": "0x6101e060405260006080527f0603f2636f0ca34ae3ea5a23bb826e2bd2ffd59fb1c01edc1ba10fba2899d1ba60a0527f1337d7d57528a8879766fdf2d0456253114c66c4fc263c97168bfdb007c64c6660c0527fdbeb657137b1822b3d5418bea6fd641226d964b4c3871ef23546db262225887160e0527f73cc1824a5ac1764c2e141cf3615a9dcb73677c4e5be5154addc88d3e0cc1480610100527f515cd6857d3fa5ea767894c7605f2a1266baaf48168f41fb0ae14a219567d6a4610120527fa5b93761cdcf4730aa6f4ed2fccea400435617d3fb902128f8d4cf7f6265b306610140527f6af7a8f7f9ca95b722bc4d8832aeefb2b4e004a3a488a8f38b84605fa58e809b610160527f79dc86561fc62d7eb9a727d180af689d208d86aa03e0931051e770b97b8f8fac610180527f1cf2b81dce95f0e7b91e95903f9b70bc58c33207c55b6b0bc3ba3d0522942e316101a0527f85e8f2d6819d6b24108062d87ea08f54651bcb8960d98062d3faf96e7873b8b96101c05234801561018557600080fd5b5060805160a05160c05160e05161010051610120516101405161016051610180516101a0516101c051610b7961021360003960006101f901526000610248015260006101880152600061026f0152600061031a015260006101af0152600061036801526000610153015260006102e0015260006102b9015260008181610341015261053b0152610b796000f3fe608060405234801561001057600080fd5b50600436106101215760003560e01c80636e19aa59116100ad578063b998902f11610071578063b998902f146102db578063d547741f14610302578063d7a47a6914610315578063e58378bb1461033c578063e8ff193d1461036357600080fd5b80636e19aa591461026a5780638129fc1c1461029157806391d1485414610299578063a217fddf146102ac578063b536818a146102b457600080fd5b8063248a9ca3116100f4578063248a9ca3146101d15780632e718ab7146101f45780632f2ff15d1461021b57806336568abe146102305780636792166f1461024357600080fd5b806301ffc9a71461012657806302a882e61461014e57806308e45bc51461018357806323868800146101aa575b600080fd5b610139610134366004610975565b61038a565b60405190151581526020015b60405180910390f35b6101757f000000000000000000000000000000000000000000000000000000000000000081565b604051908152602001610145565b6101757f000000000000000000000000000000000000000000000000000000000000000081565b6101757f000000000000000000000000000000000000000000000000000000000000000081565b6101756101df36600461099f565b60009081526065602052604090206001015490565b6101757f000000000000000000000000000000000000000000000000000000000000000081565b61022e6102293660046109b8565b6103c1565b005b61022e61023e3660046109b8565b6103eb565b6101757f000000000000000000000000000000000000000000000000000000000000000081565b6101757f000000000000000000000000000000000000000000000000000000000000000081565b61022e61046e565b6101396102a73660046109b8565b6105a9565b610175600081565b6101757f000000000000000000000000000000000000000000000000000000000000000081565b6101757f000000000000000000000000000000000000000000000000000000000000000081565b61022e6103103660046109b8565b6105d4565b6101757f000000000000000000000000000000000000000000000000000000000000000081565b6101757f000000000000000000000000000000000000000000000000000000000000000081565b6101757f000000000000000000000000000000000000000000000000000000000000000081565b60006001600160e01b03198216637965db0b60e01b14806103bb57506301ffc9a760e01b6001600160e01b03198316145b92915050565b6000828152606560205260409020600101546103dc816105f9565b6103e68383610603565b505050565b6001600160a01b03811633146104605760405162461bcd60e51b815260206004820152602f60248201527f416363657373436f6e74726f6c3a2063616e206f6e6c792072656e6f756e636560448201526e103937b632b9903337b91039b2b63360891b60648201526084015b60405180910390fd5b61046a8282610689565b5050565b600054610100900460ff161580801561048e5750600054600160ff909116105b806104a85750303b1580156104a8575060005460ff166001145b61050b5760405162461bcd60e51b815260206004820152602e60248201527f496e697469616c697a61626c653a20636f6e747261637420697320616c72656160448201526d191e481a5b9a5d1a585b1a5e995960921b6064820152608401610457565b6000805460ff19166001179055801561052e576000805461ff0019166101001790555b6105366106f0565b6105607f00000000000000000000000000000000000000000000000000000000000000003361075d565b80156105a6576000805461ff0019169055604051600181527f7f26b83ff96e1f2b6a682f133852f6798a09c465da95921460cefb38474024989060200160405180910390a15b50565b60009182526065602090815260408084206001600160a01b0393909316845291905290205460ff1690565b6000828152606560205260409020600101546105ef816105f9565b6103e68383610689565b6105a68133610767565b61060d82826105a9565b61046a5760008281526065602090815260408083206001600160a01b03851684529091529020805460ff191660011790556106453390565b6001600160a01b0316816001600160a01b0316837f2f8788117e7eff1d82e926ec794901d17c78024a50270940304540a733656f0d60405160405180910390a45050565b61069382826105a9565b1561046a5760008281526065602090815260408083206001600160a01b0385168085529252808320805460ff1916905551339285917ff6391f5c32d9c69d2a47ea670b442974b53935d1edc7fd64eb21e047a839171b9190a45050565b600054610100900460ff1661075b5760405162461bcd60e51b815260206004820152602b60248201527f496e697469616c697a61626c653a20636f6e7472616374206973206e6f74206960448201526a6e697469616c697a696e6760a81b6064820152608401610457565b565b61046a8282610603565b61077182826105a9565b61046a5761077e816107c0565b6107898360206107d2565b60405160200161079a929190610a18565b60408051601f198184030181529082905262461bcd60e51b825261045791600401610a8d565b60606103bb6001600160a01b03831660145b606060006107e1836002610ad6565b6107ec906002610aed565b67ffffffffffffffff81111561080457610804610b00565b6040519080825280601f01601f19166020018201604052801561082e576020820181803683370190505b509050600360fc1b8160008151811061084957610849610b16565b60200101906001600160f81b031916908160001a905350600f60fb1b8160018151811061087857610878610b16565b60200101906001600160f81b031916908160001a905350600061089c846002610ad6565b6108a7906001610aed565b90505b600181111561091f576f181899199a1a9b1b9c1cb0b131b232b360811b85600f16601081106108db576108db610b16565b1a60f81b8282815181106108f1576108f1610b16565b60200101906001600160f81b031916908160001a90535060049490941c9361091881610b2c565b90506108aa565b50831561096e5760405162461bcd60e51b815260206004820181905260248201527f537472696e67733a20686578206c656e67746820696e73756666696369656e746044820152606401610457565b9392505050565b60006020828403121561098757600080fd5b81356001600160e01b03198116811461096e57600080fd5b6000602082840312156109b157600080fd5b5035919050565b600080604083850312156109cb57600080fd5b8235915060208301356001600160a01b03811681146109e957600080fd5b809150509250929050565b60005b83811015610a0f5781810151838201526020016109f7565b50506000910152565b7f416363657373436f6e74726f6c3a206163636f756e7420000000000000000000815260008351610a508160178501602088016109f4565b7001034b99036b4b9b9b4b733903937b6329607d1b6017918401918201528351610a818160288401602088016109f4565b01602801949350505050565b6020815260008251806020840152610aac8160408501602087016109f4565b601f01601f19169190910160400192915050565b634e487b7160e01b600052601160045260246000fd5b80820281158282048414176103bb576103bb610ac0565b808201808211156103bb576103bb610ac0565b634e487b7160e01b600052604160045260246000fd5b634e487b7160e01b600052603260045260246000fd5b600081610b3b57610b3b610ac0565b50600019019056fea2646970667358221220c7c1f40ac556d5b0f250c1dc6d88d2865082b91ad92d36dd4e33c1b51e9a2a1d64736f6c63430008110033",
    "immutableReferences": {
        "24156": [
            {
                "length": 32,
                "start": 833
            },
            {
                "length": 32,
                "start": 1339
            }
        ],
        "24162": [
            {
                "length": 32,
                "start": 697
            }
        ],
        "24168": [
            {
                "length": 32,
                "start": 736
            }
        ],
        "24174": [
            {
                "length": 32,
                "start": 339
            }
        ],
        "24180": [
            {
                "length": 32,
                "start": 872
            }
        ],
        "24186": [
            {
                "length": 32,
                "start": 431
            }
        ],
        "24192": [
            {
                "length": 32,
                "start": 794
            }
        ],
        "24198": [
            {
                "length": 32,
                "start": 623
            }
        ],
        "24204": [
            {
                "length": 32,
                "start": 392
            }
        ],
        "24210": [
            {
                "length": 32,
                "start": 584
            }
        ],
        "24216": [
            {
                "length": 32,
                "start": 505
            }
        ]
    },
    "source": "// SPDX-License-Identifier: AGPL-3.0-or-later\npragma solidity 0.8.17;\n\nimport \"@openzeppelin/contracts-upgradeable/access/AccessControlUpgradeable.sol\";\n\nimport \"../../interfaces/IAccessControlConfig.sol\";\n\ncontract AccessControlConfig is IAccessControlConfig, AccessControlUpgradeable {\n    // solhint-disable var-name-mixedcase\n    bytes32 public override immutable OWNER_ROLE = DEFAULT_ADMIN_ROLE;\n    bytes32 public override immutable GOV_ROLE = keccak256(\"GOV_ROLE\");\n    bytes32 public override immutable PRICE_ORACLE_ROLE = keccak256(\"PRICE_ORACLE_ROLE\");\n    bytes32 public override immutable ADAPTER_ROLE = keccak256(\"ADAPTER_ROLE\");\n    bytes32 public override immutable LIQUIDATION_ENGINE_ROLE = keccak256(\"LIQUIDATION_ENGINE_ROLE\");\n    bytes32 public override immutable STABILITY_FEE_COLLECTOR_ROLE = keccak256(\"STABILITY_FEE_COLLECTOR_ROLE\");\n    bytes32 public override immutable SHOW_STOPPER_ROLE = keccak256(\"SHOW_STOPPER_ROLE\");\n    bytes32 public override immutable POSITION_MANAGER_ROLE = keccak256(\"POSITION_MANAGER_ROLE\");\n    bytes32 public override immutable MINTABLE_ROLE = keccak256(\"MINTABLE_ROLE\");\n    bytes32 public override immutable BOOK_KEEPER_ROLE = keccak256(\"BOOK_KEEPER_ROLE\");\n    bytes32 public override immutable COLLATERAL_MANAGER_ROLE = keccak256(\"COLLATERAL_MANAGER_ROLE\");\n\n    // solhint-enable var-name-mixedcase\n\n    function initialize() external initializer {\n        AccessControlUpgradeable.__AccessControl_init();\n\n        _setupRole(OWNER_ROLE, msg.sender);\n    }\n\n\n}\n",
    "sourcePath": "/Users/aleksey/SolidityProjects2/fathom-stablecoin-smart-contracts/contracts/main/stablecoin-core/config/AccessControlConfig.sol",
    "compiler": {
        "name": "solc",
        "version": "0.8.17+commit.8df45f5f.Emscripten.clang"
    },
    "schemaVersion": "3.4.15",
    "updatedAt": "2023-08-10T12:55:05.746Z",
    "devdoc": {
        "kind": "dev",
        "methods": {
            "getRoleAdmin(bytes32)": {
                "details": "Returns the admin role that controls `role`. See {grantRole} and {revokeRole}. To change a role's admin, use {_setRoleAdmin}."
            },
            "grantRole(bytes32,address)": {
                "details": "Grants `role` to `account`. If `account` had not been already granted `role`, emits a {RoleGranted} event. Requirements: - the caller must have ``role``'s admin role. May emit a {RoleGranted} event."
            },
            "hasRole(bytes32,address)": {
                "details": "Returns `true` if `account` has been granted `role`."
            },
            "renounceRole(bytes32,address)": {
                "details": "Revokes `role` from the calling account. Roles are often managed via {grantRole} and {revokeRole}: this function's purpose is to provide a mechanism for accounts to lose their privileges if they are compromised (such as when a trusted device is misplaced). If the calling account had been revoked `role`, emits a {RoleRevoked} event. Requirements: - the caller must be `account`. May emit a {RoleRevoked} event."
            },
            "revokeRole(bytes32,address)": {
                "details": "Revokes `role` from `account`. If `account` had been granted `role`, emits a {RoleRevoked} event. Requirements: - the caller must have ``role``'s admin role. May emit a {RoleRevoked} event."
            },
            "supportsInterface(bytes4)": {
                "details": "See {IERC165-supportsInterface}."
            }
        },
        "version": 1
    },
    "userdoc": {
        "kind": "user",
        "methods": {},
        "version": 1
    }
}