{
    "contractName": "AdminControls",
    "abi": [
        {
            "anonymous": false,
            "inputs": [
                {
                    "indexed": false,
                    "internalType": "uint8",
                    "name": "version",
                    "type": "uint8"
                }
            ],
            "name": "Initialized",
            "type": "event"
        },
        {
            "anonymous": false,
            "inputs": [],
            "name": "LogPauseProtocol",
            "type": "event"
        },
        {
            "anonymous": false,
            "inputs": [
                {
                    "indexed": true,
                    "internalType": "address",
                    "name": "newAddress",
                    "type": "address"
                }
            ],
            "name": "LogSetBookKeeper",
            "type": "event"
        },
        {
            "anonymous": false,
            "inputs": [
                {
                    "indexed": true,
                    "internalType": "address",
                    "name": "newAddress",
                    "type": "address"
                }
            ],
            "name": "LogSetFlashMintModule",
            "type": "event"
        },
        {
            "anonymous": false,
            "inputs": [
                {
                    "indexed": true,
                    "internalType": "address",
                    "name": "newAddress",
                    "type": "address"
                }
            ],
            "name": "LogSetLiquidationEngine",
            "type": "event"
        },
        {
            "anonymous": false,
            "inputs": [
                {
                    "indexed": true,
                    "internalType": "address",
                    "name": "newAddress",
                    "type": "address"
                }
            ],
            "name": "LogSetPositionManager",
            "type": "event"
        },
        {
            "anonymous": false,
            "inputs": [
                {
                    "indexed": true,
                    "internalType": "address",
                    "name": "newAddress",
                    "type": "address"
                }
            ],
            "name": "LogSetPriceOracle",
            "type": "event"
        },
        {
            "anonymous": false,
            "inputs": [
                {
                    "indexed": true,
                    "internalType": "address",
                    "name": "newAddress",
                    "type": "address"
                }
            ],
            "name": "LogSetStablecoinAdapter",
            "type": "event"
        },
        {
            "anonymous": false,
            "inputs": [
                {
                    "indexed": true,
                    "internalType": "address",
                    "name": "newAddress",
                    "type": "address"
                }
            ],
            "name": "LogSetSystemDebtEngine",
            "type": "event"
        },
        {
            "anonymous": false,
            "inputs": [],
            "name": "LogUnpauseProtocol",
            "type": "event"
        },
        {
            "anonymous": false,
            "inputs": [
                {
                    "indexed": true,
                    "internalType": "address",
                    "name": "previousOwner",
                    "type": "address"
                },
                {
                    "indexed": true,
                    "internalType": "address",
                    "name": "newOwner",
                    "type": "address"
                }
            ],
            "name": "OwnershipTransferred",
            "type": "event"
        },
        {
            "inputs": [],
            "name": "bookKeeper",
            "outputs": [
                {
                    "internalType": "address",
                    "name": "",
                    "type": "address"
                }
            ],
            "stateMutability": "view",
            "type": "function"
        },
        {
            "inputs": [],
            "name": "flashMintModule",
            "outputs": [
                {
                    "internalType": "address",
                    "name": "",
                    "type": "address"
                }
            ],
            "stateMutability": "view",
            "type": "function"
        },
        {
            "inputs": [],
            "name": "liquidationEngine",
            "outputs": [
                {
                    "internalType": "address",
                    "name": "",
                    "type": "address"
                }
            ],
            "stateMutability": "view",
            "type": "function"
        },
        {
            "inputs": [],
            "name": "owner",
            "outputs": [
                {
                    "internalType": "address",
                    "name": "",
                    "type": "address"
                }
            ],
            "stateMutability": "view",
            "type": "function"
        },
        {
            "inputs": [],
            "name": "positionManager",
            "outputs": [
                {
                    "internalType": "address",
                    "name": "",
                    "type": "address"
                }
            ],
            "stateMutability": "view",
            "type": "function"
        },
        {
            "inputs": [],
            "name": "priceOracle",
            "outputs": [
                {
                    "internalType": "address",
                    "name": "",
                    "type": "address"
                }
            ],
            "stateMutability": "view",
            "type": "function"
        },
        {
            "inputs": [],
            "name": "renounceOwnership",
            "outputs": [],
            "stateMutability": "nonpayable",
            "type": "function"
        },
        {
            "inputs": [],
            "name": "stablecoinAdapter",
            "outputs": [
                {
                    "internalType": "address",
                    "name": "",
                    "type": "address"
                }
            ],
            "stateMutability": "view",
            "type": "function"
        },
        {
            "inputs": [],
            "name": "systemDebtEngine",
            "outputs": [
                {
                    "internalType": "address",
                    "name": "",
                    "type": "address"
                }
            ],
            "stateMutability": "view",
            "type": "function"
        },
        {
            "inputs": [
                {
                    "internalType": "address",
                    "name": "newOwner",
                    "type": "address"
                }
            ],
            "name": "transferOwnership",
            "outputs": [],
            "stateMutability": "nonpayable",
            "type": "function"
        },
        {
            "inputs": [
                {
                    "internalType": "address",
                    "name": "_bookKeeper",
                    "type": "address"
                },
                {
                    "internalType": "address",
                    "name": "_liquidationEngine",
                    "type": "address"
                },
                {
                    "internalType": "address",
                    "name": "_priceOracle",
                    "type": "address"
                },
                {
                    "internalType": "address",
                    "name": "_positionManager",
                    "type": "address"
                },
                {
                    "internalType": "address",
                    "name": "_systemDebtEngine",
                    "type": "address"
                },
                {
                    "internalType": "address",
                    "name": "_flashMintModule",
                    "type": "address"
                },
                {
                    "internalType": "address",
                    "name": "_stablecoinAdapter",
                    "type": "address"
                }
            ],
            "name": "initialize",
            "outputs": [],
            "stateMutability": "nonpayable",
            "type": "function"
        },
        {
            "inputs": [],
            "name": "pauseProtocol",
            "outputs": [],
            "stateMutability": "nonpayable",
            "type": "function"
        },
        {
            "inputs": [],
            "name": "unpauseProtocol",
            "outputs": [],
            "stateMutability": "nonpayable",
            "type": "function"
        },
        {
            "inputs": [
                {
                    "internalType": "address",
                    "name": "_bookKeeper",
                    "type": "address"
                }
            ],
            "name": "setBookKeeper",
            "outputs": [],
            "stateMutability": "nonpayable",
            "type": "function"
        },
        {
            "inputs": [
                {
                    "internalType": "address",
                    "name": "_positionManager",
                    "type": "address"
                }
            ],
            "name": "setPositionManager",
            "outputs": [],
            "stateMutability": "nonpayable",
            "type": "function"
        },
        {
            "inputs": [
                {
                    "internalType": "address",
                    "name": "_liquidationEngine",
                    "type": "address"
                }
            ],
            "name": "setLiquidationEngine",
            "outputs": [],
            "stateMutability": "nonpayable",
            "type": "function"
        },
        {
            "inputs": [
                {
                    "internalType": "address",
                    "name": "_systemDebtEngine",
                    "type": "address"
                }
            ],
            "name": "setSystemDebtEngine",
            "outputs": [],
            "stateMutability": "nonpayable",
            "type": "function"
        },
        {
            "inputs": [
                {
                    "internalType": "address",
                    "name": "_flashMintModule",
                    "type": "address"
                }
            ],
            "name": "setFlashMintModule",
            "outputs": [],
            "stateMutability": "nonpayable",
            "type": "function"
        },
        {
            "inputs": [
                {
                    "internalType": "address",
                    "name": "_priceOracle",
                    "type": "address"
                }
            ],
            "name": "setPriceOracle",
            "outputs": [],
            "stateMutability": "nonpayable",
            "type": "function"
        },
        {
            "inputs": [
                {
                    "internalType": "address",
                    "name": "_stablecoinAdapter",
                    "type": "address"
                }
            ],
            "name": "setStablecoinAdapter",
            "outputs": [],
            "stateMutability": "nonpayable",
            "type": "function"
        }
    ],
    "bytecode": "0x608060405234801561001057600080fd5b50612779806100206000396000f3fe608060405234801561001057600080fd5b506004361061012c5760003560e01c80635760f2e3116100ad578063995c07cd11610071578063995c07cd1461025f578063dbf6248914610272578063e3b3932a1461027a578063f2fde38b1461028d578063f93b6be5146102a057600080fd5b80635760f2e31461020d578063715018a614610220578063791b98bc146102285780637e0972f51461023b5780638da5cb5b1461024e57600080fd5b806335876476116100f457806335876476146101ae57806344bf3c72146101c157806346a311d3146101d45780634d298abd146101e7578063530e784f146101fa57600080fd5b806302f965af1461013157806307d8bd88146101465780632630c12f1461015957806328e49a42146101885780632e6d7c7f1461019b575b600080fd5b61014461013f366004612561565b6102a8565b005b610144610154366004612561565b610554565b60675461016c906001600160a01b031681565b6040516001600160a01b03909116815260200160405180910390f35b60695461016c906001600160a01b031681565b6101446101a9366004612561565b6107f7565b6101446101bc366004612585565b610a9a565b60665461016c906001600160a01b031681565b606b5461016c906001600160a01b031681565b6101446101f5366004612561565b610ebc565b610144610208366004612561565b61115f565b61014461021b366004612561565b611402565b6101446116a5565b60685461016c906001600160a01b031681565b610144610249366004612561565b6116b9565b6033546001600160a01b031661016c565b606a5461016c906001600160a01b031681565b61014461195c565b60655461016c906001600160a01b031681565b61014461029b366004612561565b611e92565b610144611f0b565b6065546040805163c8cc243f60e01b815290516000926001600160a01b03169163c8cc243f9160048083019260209291908290030181865afa1580156102f2573d6000803e3d6000fd5b505050506040513d601f19601f82011682018060405250810190610316919061261b565b9050806001600160a01b03166391d14854826001600160a01b031663e58378bb6040518163ffffffff1660e01b8152600401602060405180830381865afa158015610365573d6000803e3d6000fd5b505050506040513d601f19601f820116820180604052508101906103899190612638565b336040518363ffffffff1660e01b81526004016103a7929190612651565b602060405180830381865afa1580156103c4573d6000803e3d6000fd5b505050506040513d601f19601f820116820180604052508101906103e89190612668565b806104be5750806001600160a01b03166391d14854826001600160a01b031663b536818a6040518163ffffffff1660e01b8152600401602060405180830381865afa15801561043b573d6000803e3d6000fd5b505050506040513d601f19601f8201168201806040525081019061045f9190612638565b336040518363ffffffff1660e01b815260040161047d929190612651565b602060405180830381865afa15801561049a573d6000803e3d6000fd5b505050506040513d601f19601f820116820180604052508101906104be9190612668565b6104e35760405162461bcd60e51b81526004016104da9061268a565b60405180910390fd5b6001600160a01b0382166105095760405162461bcd60e51b81526004016104da906126c1565b606a80546001600160a01b0319166001600160a01b0384169081179091556040517fb7aeacfd6d1c7e0952dcbce82c1fdca5674006ca5d2c46cd0887c6dc8bc9763690600090a25050565b6065546040805163c8cc243f60e01b815290516000926001600160a01b03169163c8cc243f9160048083019260209291908290030181865afa15801561059e573d6000803e3d6000fd5b505050506040513d601f19601f820116820180604052508101906105c2919061261b565b9050806001600160a01b03166391d14854826001600160a01b031663e58378bb6040518163ffffffff1660e01b8152600401602060405180830381865afa158015610611573d6000803e3d6000fd5b505050506040513d601f19601f820116820180604052508101906106359190612638565b336040518363ffffffff1660e01b8152600401610653929190612651565b602060405180830381865afa158015610670573d6000803e3d6000fd5b505050506040513d601f19601f820116820180604052508101906106949190612668565b8061076a5750806001600160a01b03166391d14854826001600160a01b031663b536818a6040518163ffffffff1660e01b8152600401602060405180830381865afa1580156106e7573d6000803e3d6000fd5b505050506040513d601f19601f8201168201806040525081019061070b9190612638565b336040518363ffffffff1660e01b8152600401610729929190612651565b602060405180830381865afa158015610746573d6000803e3d6000fd5b505050506040513d601f19601f8201168201806040525081019061076a9190612668565b6107865760405162461bcd60e51b81526004016104da9061268a565b6001600160a01b0382166107ac5760405162461bcd60e51b81526004016104da906126c1565b606580546001600160a01b0319166001600160a01b0384169081179091556040517f7a8340164c528a427c59f24f72b03b1a5fb97d097abd77c96f4ff13a668e5be990600090a25050565b6065546040805163c8cc243f60e01b815290516000926001600160a01b03169163c8cc243f9160048083019260209291908290030181865afa158015610841573d6000803e3d6000fd5b505050506040513d601f19601f82011682018060405250810190610865919061261b565b9050806001600160a01b03166391d14854826001600160a01b031663e58378bb6040518163ffffffff1660e01b8152600401602060405180830381865afa1580156108b4573d6000803e3d6000fd5b505050506040513d601f19601f820116820180604052508101906108d89190612638565b336040518363ffffffff1660e01b81526004016108f6929190612651565b602060405180830381865afa158015610913573d6000803e3d6000fd5b505050506040513d601f19601f820116820180604052508101906109379190612668565b80610a0d5750806001600160a01b03166391d14854826001600160a01b031663b536818a6040518163ffffffff1660e01b8152600401602060405180830381865afa15801561098a573d6000803e3d6000fd5b505050506040513d601f19601f820116820180604052508101906109ae9190612638565b336040518363ffffffff1660e01b81526004016109cc929190612651565b602060405180830381865afa1580156109e9573d6000803e3d6000fd5b505050506040513d601f19601f82011682018060405250810190610a0d9190612668565b610a295760405162461bcd60e51b81526004016104da9061268a565b6001600160a01b038216610a4f5760405162461bcd60e51b81526004016104da906126c1565b606b80546001600160a01b0319166001600160a01b0384169081179091556040517faa0a85c87fd44a8f58b75829c5394f235f0817565aadf1e16d73c2fc4cf4bf3590600090a25050565b600054610100900460ff1615808015610aba5750600054600160ff909116105b80610ad45750303b158015610ad4575060005460ff166001145b610b375760405162461bcd60e51b815260206004820152602e60248201527f496e697469616c697a61626c653a20636f6e747261637420697320616c72656160448201526d191e481a5b9a5d1a585b1a5e995960921b60648201526084016104da565b6000805460ff191660011790558015610b5a576000805461ff0019166101001790555b610b62612441565b6001600160a01b038816610bb85760405162461bcd60e51b815260206004820152601e60248201527f41646d696e436f6e74726f6c732f7a65726f2d626f6f6b2d6b6565706572000060448201526064016104da565b6001600160a01b038716610c1c5760405162461bcd60e51b815260206004820152602560248201527f41646d696e436f6e74726f6c732f7a65726f2d6c69717569646174696f6e2d656044820152646e67696e6560d81b60648201526084016104da565b6001600160a01b038616610c725760405162461bcd60e51b815260206004820152601f60248201527f41646d696e436f6e74726f6c732f7a65726f2d70726963652d6f7261636c650060448201526064016104da565b6001600160a01b038316610cd45760405162461bcd60e51b8152602060048201526024808201527f41646d696e436f6e74726f6c732f7a65726f2d666c6173682d6d696e742d6d6f60448201526364756c6560e01b60648201526084016104da565b6001600160a01b038416610d385760405162461bcd60e51b815260206004820152602560248201527f41646d696e436f6e74726f6c732f7a65726f2d73797374656d2d646562742d656044820152646e67696e6560d81b60648201526084016104da565b6001600160a01b038216610d9c5760405162461bcd60e51b815260206004820152602560248201527f41646d696e436f6e74726f6c732f7a65726f2d737461626c65636f696e2d616460448201526430b83a32b960d91b60648201526084016104da565b6001600160a01b038516610dfe5760405162461bcd60e51b815260206004820152602360248201527f41646d696e436f6e74726f6c732f7a65726f2d706f736974696f6e2d6d616e6160448201526233b2b960e91b60648201526084016104da565b606580546001600160a01b03199081166001600160a01b038b8116919091179092556066805482168a8416179055606780548216898416179055606880548216888416179055606a80548216868416179055606980548216878416179055606b80549091169184169190911790558015610eb2576000805461ff0019169055604051600181527f7f26b83ff96e1f2b6a682f133852f6798a09c465da95921460cefb38474024989060200160405180910390a15b5050505050505050565b6065546040805163c8cc243f60e01b815290516000926001600160a01b03169163c8cc243f9160048083019260209291908290030181865afa158015610f06573d6000803e3d6000fd5b505050506040513d601f19601f82011682018060405250810190610f2a919061261b565b9050806001600160a01b03166391d14854826001600160a01b031663e58378bb6040518163ffffffff1660e01b8152600401602060405180830381865afa158015610f79573d6000803e3d6000fd5b505050506040513d601f19601f82011682018060405250810190610f9d9190612638565b336040518363ffffffff1660e01b8152600401610fbb929190612651565b602060405180830381865afa158015610fd8573d6000803e3d6000fd5b505050506040513d601f19601f82011682018060405250810190610ffc9190612668565b806110d25750806001600160a01b03166391d14854826001600160a01b031663b536818a6040518163ffffffff1660e01b8152600401602060405180830381865afa15801561104f573d6000803e3d6000fd5b505050506040513d601f19601f820116820180604052508101906110739190612638565b336040518363ffffffff1660e01b8152600401611091929190612651565b602060405180830381865afa1580156110ae573d6000803e3d6000fd5b505050506040513d601f19601f820116820180604052508101906110d29190612668565b6110ee5760405162461bcd60e51b81526004016104da9061268a565b6001600160a01b0382166111145760405162461bcd60e51b81526004016104da906126c1565b606680546001600160a01b0319166001600160a01b0384169081179091556040517fc39f5392f8b9d4137b305b8f490c230d9a8abe557daad28e224366b1844e0eef90600090a25050565b6065546040805163c8cc243f60e01b815290516000926001600160a01b03169163c8cc243f9160048083019260209291908290030181865afa1580156111a9573d6000803e3d6000fd5b505050506040513d601f19601f820116820180604052508101906111cd919061261b565b9050806001600160a01b03166391d14854826001600160a01b031663e58378bb6040518163ffffffff1660e01b8152600401602060405180830381865afa15801561121c573d6000803e3d6000fd5b505050506040513d601f19601f820116820180604052508101906112409190612638565b336040518363ffffffff1660e01b815260040161125e929190612651565b602060405180830381865afa15801561127b573d6000803e3d6000fd5b505050506040513d601f19601f8201168201806040525081019061129f9190612668565b806113755750806001600160a01b03166391d14854826001600160a01b031663b536818a6040518163ffffffff1660e01b8152600401602060405180830381865afa1580156112f2573d6000803e3d6000fd5b505050506040513d601f19601f820116820180604052508101906113169190612638565b336040518363ffffffff1660e01b8152600401611334929190612651565b602060405180830381865afa158015611351573d6000803e3d6000fd5b505050506040513d601f19601f820116820180604052508101906113759190612668565b6113915760405162461bcd60e51b81526004016104da9061268a565b6001600160a01b0382166113b75760405162461bcd60e51b81526004016104da906126c1565b606780546001600160a01b0319166001600160a01b0384169081179091556040517fd947ed79fa4b7815270089797d0676472bb441954bf14585c8841ba3075076bc90600090a25050565b6065546040805163c8cc243f60e01b815290516000926001600160a01b03169163c8cc243f9160048083019260209291908290030181865afa15801561144c573d6000803e3d6000fd5b505050506040513d601f19601f82011682018060405250810190611470919061261b565b9050806001600160a01b03166391d14854826001600160a01b031663e58378bb6040518163ffffffff1660e01b8152600401602060405180830381865afa1580156114bf573d6000803e3d6000fd5b505050506040513d601f19601f820116820180604052508101906114e39190612638565b336040518363ffffffff1660e01b8152600401611501929190612651565b602060405180830381865afa15801561151e573d6000803e3d6000fd5b505050506040513d601f19601f820116820180604052508101906115429190612668565b806116185750806001600160a01b03166391d14854826001600160a01b031663b536818a6040518163ffffffff1660e01b8152600401602060405180830381865afa158015611595573d6000803e3d6000fd5b505050506040513d601f19601f820116820180604052508101906115b99190612638565b336040518363ffffffff1660e01b81526004016115d7929190612651565b602060405180830381865afa1580156115f4573d6000803e3d6000fd5b505050506040513d601f19601f820116820180604052508101906116189190612668565b6116345760405162461bcd60e51b81526004016104da9061268a565b6001600160a01b03821661165a5760405162461bcd60e51b81526004016104da906126c1565b606880546001600160a01b0319166001600160a01b0384169081179091556040517ff5dfd34dc04c423f0a8f6b1efbac2d0c8d72a025cecd037469b9bf20de41614e90600090a25050565b6116ad612470565b6116b760006124ca565b565b6065546040805163c8cc243f60e01b815290516000926001600160a01b03169163c8cc243f9160048083019260209291908290030181865afa158015611703573d6000803e3d6000fd5b505050506040513d601f19601f82011682018060405250810190611727919061261b565b9050806001600160a01b03166391d14854826001600160a01b031663e58378bb6040518163ffffffff1660e01b8152600401602060405180830381865afa158015611776573d6000803e3d6000fd5b505050506040513d601f19601f8201168201806040525081019061179a9190612638565b336040518363ffffffff1660e01b81526004016117b8929190612651565b602060405180830381865afa1580156117d5573d6000803e3d6000fd5b505050506040513d601f19601f820116820180604052508101906117f99190612668565b806118cf5750806001600160a01b03166391d14854826001600160a01b031663b536818a6040518163ffffffff1660e01b8152600401602060405180830381865afa15801561184c573d6000803e3d6000fd5b505050506040513d601f19601f820116820180604052508101906118709190612638565b336040518363ffffffff1660e01b815260040161188e929190612651565b602060405180830381865afa1580156118ab573d6000803e3d6000fd5b505050506040513d601f19601f820116820180604052508101906118cf9190612668565b6118eb5760405162461bcd60e51b81526004016104da9061268a565b6001600160a01b0382166119115760405162461bcd60e51b81526004016104da906126c1565b606980546001600160a01b0319166001600160a01b0384169081179091556040517faf511b2db985fee87e3b43b5647e41c2b7291d18be88ced7bc31666de2b936c190600090a25050565b6065546040805163c8cc243f60e01b815290516000926001600160a01b03169163c8cc243f9160048083019260209291908290030181865afa1580156119a6573d6000803e3d6000fd5b505050506040513d601f19601f820116820180604052508101906119ca919061261b565b9050806001600160a01b03166391d14854826001600160a01b031663e58378bb6040518163ffffffff1660e01b8152600401602060405180830381865afa158015611a19573d6000803e3d6000fd5b505050506040513d601f19601f82011682018060405250810190611a3d9190612638565b336040518363ffffffff1660e01b8152600401611a5b929190612651565b602060405180830381865afa158015611a78573d6000803e3d6000fd5b505050506040513d601f19601f82011682018060405250810190611a9c9190612668565b80611b725750806001600160a01b03166391d14854826001600160a01b031663b536818a6040518163ffffffff1660e01b8152600401602060405180830381865afa158015611aef573d6000803e3d6000fd5b505050506040513d601f19601f82011682018060405250810190611b139190612638565b336040518363ffffffff1660e01b8152600401611b31929190612651565b602060405180830381865afa158015611b4e573d6000803e3d6000fd5b505050506040513d601f19601f82011682018060405250810190611b729190612668565b611b8e5760405162461bcd60e51b81526004016104da9061268a565b606560009054906101000a90046001600160a01b03166001600160a01b0316638456cb596040518163ffffffff1660e01b8152600401600060405180830381600087803b158015611bde57600080fd5b505af1158015611bf2573d6000803e3d6000fd5b50505050606860009054906101000a90046001600160a01b03166001600160a01b0316638456cb596040518163ffffffff1660e01b8152600401600060405180830381600087803b158015611c4657600080fd5b505af1158015611c5a573d6000803e3d6000fd5b50505050606660009054906101000a90046001600160a01b03166001600160a01b0316638456cb596040518163ffffffff1660e01b8152600401600060405180830381600087803b158015611cae57600080fd5b505af1158015611cc2573d6000803e3d6000fd5b50505050606960009054906101000a90046001600160a01b03166001600160a01b0316638456cb596040518163ffffffff1660e01b8152600401600060405180830381600087803b158015611d1657600080fd5b505af1158015611d2a573d6000803e3d6000fd5b50505050606a60009054906101000a90046001600160a01b03166001600160a01b0316638456cb596040518163ffffffff1660e01b8152600401600060405180830381600087803b158015611d7e57600080fd5b505af1158015611d92573d6000803e3d6000fd5b50505050606760009054906101000a90046001600160a01b03166001600160a01b0316638456cb596040518163ffffffff1660e01b8152600401600060405180830381600087803b158015611de657600080fd5b505af1158015611dfa573d6000803e3d6000fd5b50505050606b60009054906101000a90046001600160a01b03166001600160a01b0316638456cb596040518163ffffffff1660e01b8152600401600060405180830381600087803b158015611e4e57600080fd5b505af1158015611e62573d6000803e3d6000fd5b50506040517f10006615fb7b185b005173d6662da302f1db8753ca31e7e6b93ff20b8571899b925060009150a150565b611e9a612470565b6001600160a01b038116611eff5760405162461bcd60e51b815260206004820152602660248201527f4f776e61626c653a206e6577206f776e657220697320746865207a65726f206160448201526564647265737360d01b60648201526084016104da565b611f08816124ca565b50565b6065546040805163c8cc243f60e01b815290516000926001600160a01b03169163c8cc243f9160048083019260209291908290030181865afa158015611f55573d6000803e3d6000fd5b505050506040513d601f19601f82011682018060405250810190611f79919061261b565b9050806001600160a01b03166391d14854826001600160a01b031663e58378bb6040518163ffffffff1660e01b8152600401602060405180830381865afa158015611fc8573d6000803e3d6000fd5b505050506040513d601f19601f82011682018060405250810190611fec9190612638565b336040518363ffffffff1660e01b815260040161200a929190612651565b602060405180830381865afa158015612027573d6000803e3d6000fd5b505050506040513d601f19601f8201168201806040525081019061204b9190612668565b806121215750806001600160a01b03166391d14854826001600160a01b031663b536818a6040518163ffffffff1660e01b8152600401602060405180830381865afa15801561209e573d6000803e3d6000fd5b505050506040513d601f19601f820116820180604052508101906120c29190612638565b336040518363ffffffff1660e01b81526004016120e0929190612651565b602060405180830381865afa1580156120fd573d6000803e3d6000fd5b505050506040513d601f19601f820116820180604052508101906121219190612668565b61213d5760405162461bcd60e51b81526004016104da9061268a565b606560009054906101000a90046001600160a01b03166001600160a01b0316633f4ba83a6040518163ffffffff1660e01b8152600401600060405180830381600087803b15801561218d57600080fd5b505af11580156121a1573d6000803e3d6000fd5b50505050606860009054906101000a90046001600160a01b03166001600160a01b0316633f4ba83a6040518163ffffffff1660e01b8152600401600060405180830381600087803b1580156121f557600080fd5b505af1158015612209573d6000803e3d6000fd5b50505050606660009054906101000a90046001600160a01b03166001600160a01b0316633f4ba83a6040518163ffffffff1660e01b8152600401600060405180830381600087803b15801561225d57600080fd5b505af1158015612271573d6000803e3d6000fd5b50505050606960009054906101000a90046001600160a01b03166001600160a01b0316633f4ba83a6040518163ffffffff1660e01b8152600401600060405180830381600087803b1580156122c557600080fd5b505af11580156122d9573d6000803e3d6000fd5b50505050606a60009054906101000a90046001600160a01b03166001600160a01b0316633f4ba83a6040518163ffffffff1660e01b8152600401600060405180830381600087803b15801561232d57600080fd5b505af1158015612341573d6000803e3d6000fd5b50505050606760009054906101000a90046001600160a01b03166001600160a01b0316633f4ba83a6040518163ffffffff1660e01b8152600401600060405180830381600087803b15801561239557600080fd5b505af11580156123a9573d6000803e3d6000fd5b50505050606b60009054906101000a90046001600160a01b03166001600160a01b0316633f4ba83a6040518163ffffffff1660e01b8152600401600060405180830381600087803b1580156123fd57600080fd5b505af1158015612411573d6000803e3d6000fd5b50506040517f0f7da708dc5a39d62134808e2f06913eb5d89f6c5ddc17f04686519df6de0526925060009150a150565b600054610100900460ff166124685760405162461bcd60e51b81526004016104da906126f8565b6116b761251c565b6033546001600160a01b031633146116b75760405162461bcd60e51b815260206004820181905260248201527f4f776e61626c653a2063616c6c6572206973206e6f7420746865206f776e657260448201526064016104da565b603380546001600160a01b038381166001600160a01b0319831681179093556040519116919082907f8be0079c531659141344cd1fd0a4f28419497f9722a3daafe3b4186f6b6457e090600090a35050565b600054610100900460ff166125435760405162461bcd60e51b81526004016104da906126f8565b6116b7336124ca565b6001600160a01b0381168114611f0857600080fd5b60006020828403121561257357600080fd5b813561257e8161254c565b9392505050565b600080600080600080600060e0888a0312156125a057600080fd5b87356125ab8161254c565b965060208801356125bb8161254c565b955060408801356125cb8161254c565b945060608801356125db8161254c565b935060808801356125eb8161254c565b925060a08801356125fb8161254c565b915060c088013561260b8161254c565b8091505092959891949750929550565b60006020828403121561262d57600080fd5b815161257e8161254c565b60006020828403121561264a57600080fd5b5051919050565b9182526001600160a01b0316602082015260400190565b60006020828403121561267a57600080fd5b8151801515811461257e57600080fd5b60208082526017908201527f21286f776e6572526f6c65206f7220676f76526f6c6529000000000000000000604082015260600190565b6020808252601a908201527f41646d696e436f6e74726f6c732f7a65726f2d61646472657373000000000000604082015260600190565b6020808252602b908201527f496e697469616c697a61626c653a20636f6e7472616374206973206e6f74206960408201526a6e697469616c697a696e6760a81b60608201526080019056fea26469706673582212201a2308a09519d64bd488b95ed17ad802df2d998f3cd23e45d77f067f8b5d1c3764736f6c63430008110033",
    "immutableReferences": {},
    "source": "// SPDX-License-Identifier: AGPL-3.0-or-later\npragma solidity 0.8.17;\n\nimport \"@openzeppelin/contracts-upgradeable/access/OwnableUpgradeable.sol\";\n\nimport \"../interfaces/IAccessControlConfig.sol\";\nimport \"../interfaces/ICollateralPoolConfig.sol\";\nimport \"../interfaces/IPausable.sol\";\nimport \"../interfaces/IBookKeeper.sol\";\n\ncontract AdminControls is OwnableUpgradeable {\n    address public bookKeeper;\n    address public liquidationEngine;\n    address public priceOracle;\n    address public positionManager;\n    address public systemDebtEngine;\n    address public flashMintModule;\n    address public stablecoinAdapter;\n\n    event LogPauseProtocol();\n    event LogUnpauseProtocol();\n\n    event LogSetBookKeeper(address indexed newAddress);\n    event LogSetPositionManager(address indexed newAddress);\n    event LogSetLiquidationEngine(address indexed newAddress);\n    event LogSetSystemDebtEngine(address indexed newAddress);\n    event LogSetFlashMintModule(address indexed newAddress);\n    event LogSetPriceOracle(address indexed newAddress);\n    event LogSetStablecoinAdapter(address indexed newAddress);\n\n    modifier onlyOwnerOrGov() {\n        IAccessControlConfig _accessControlConfig = IAccessControlConfig(IBookKeeper(bookKeeper).accessControlConfig());\n        require(\n            _accessControlConfig.hasRole(_accessControlConfig.OWNER_ROLE(), msg.sender) ||\n                _accessControlConfig.hasRole(_accessControlConfig.GOV_ROLE(), msg.sender),\n            \"!(ownerRole or govRole)\"\n        );\n        _;\n    }\n\n    function initialize(\n        address _bookKeeper,\n        address _liquidationEngine,\n        address _priceOracle,\n        address _positionManager,\n        address _systemDebtEngine,\n        address _flashMintModule,\n        address _stablecoinAdapter\n    ) external initializer {\n        OwnableUpgradeable.__Ownable_init();\n\n        require(_bookKeeper != address(0), \"AdminControls/zero-book-keeper\");\n        require(_liquidationEngine != address(0), \"AdminControls/zero-liquidation-engine\");\n        require(_priceOracle != address(0), \"AdminControls/zero-price-oracle\");\n        require(_flashMintModule != address(0), \"AdminControls/zero-flash-mint-module\");\n        require(_systemDebtEngine != address(0), \"AdminControls/zero-system-debt-engine\");\n        require(_stablecoinAdapter != address(0), \"AdminControls/zero-stablecoin-adapter\");\n        require(_positionManager != address(0), \"AdminControls/zero-position-manager\");\n\n        bookKeeper = _bookKeeper;\n        liquidationEngine = _liquidationEngine;\n        priceOracle = _priceOracle;\n        positionManager = _positionManager;\n        flashMintModule = _flashMintModule;\n        systemDebtEngine = _systemDebtEngine;\n        stablecoinAdapter = _stablecoinAdapter;\n    }\n    /**\n    * @notice Pause all core modules of the protocol.\n    * @dev This function can only be called by owner or governance role. All related contracts implementing IPausable interface are paused.\n    */\n    function pauseProtocol() external onlyOwnerOrGov {\n        IPausable(bookKeeper).pause();\n        IPausable(positionManager).pause();\n        IPausable(liquidationEngine).pause();\n        IPausable(systemDebtEngine).pause();\n        IPausable(flashMintModule).pause();\n        IPausable(priceOracle).pause();\n        IPausable(stablecoinAdapter).pause();\n        emit LogPauseProtocol();\n    }\n    /**\n    * @notice Unpause all core modules of the protocol.\n    * @dev This function can only be called by owner or governance role. All related contracts implementing IPausable interface are unpaused.\n    */\n    function unpauseProtocol() external onlyOwnerOrGov {\n        IPausable(bookKeeper).unpause();\n        IPausable(positionManager).unpause();\n        IPausable(liquidationEngine).unpause();\n        IPausable(systemDebtEngine).unpause();\n        IPausable(flashMintModule).unpause();\n        IPausable(priceOracle).unpause();\n        IPausable(stablecoinAdapter).unpause();\n        emit LogUnpauseProtocol();\n    }\n\n    function setBookKeeper(address _bookKeeper) external onlyOwnerOrGov {\n        require(_bookKeeper != address(0), \"AdminControls/zero-address\");\n        bookKeeper = _bookKeeper;\n        emit LogSetBookKeeper(_bookKeeper);\n    }\n\n    function setPositionManager(address _positionManager) external onlyOwnerOrGov {\n        require(_positionManager != address(0), \"AdminControls/zero-address\");\n        positionManager = _positionManager;\n        emit LogSetPositionManager(_positionManager);\n    }\n\n    function setLiquidationEngine(address _liquidationEngine) external onlyOwnerOrGov {\n        require(_liquidationEngine != address(0), \"AdminControls/zero-address\");\n        liquidationEngine = _liquidationEngine;\n        emit LogSetLiquidationEngine(_liquidationEngine);\n    }\n\n    function setSystemDebtEngine(address _systemDebtEngine) external onlyOwnerOrGov {\n        require(_systemDebtEngine != address(0), \"AdminControls/zero-address\");\n        systemDebtEngine = _systemDebtEngine;\n        emit LogSetSystemDebtEngine(_systemDebtEngine);\n    }\n\n    function setFlashMintModule(address _flashMintModule) external onlyOwnerOrGov {\n        require(_flashMintModule != address(0), \"AdminControls/zero-address\");\n        flashMintModule = _flashMintModule;\n        emit LogSetFlashMintModule(_flashMintModule);\n    }\n \n    function setPriceOracle(address _priceOracle) external onlyOwnerOrGov {\n        require(_priceOracle != address(0), \"AdminControls/zero-address\");\n        priceOracle = _priceOracle;\n        emit LogSetPriceOracle(_priceOracle);\n    }\n\n    function setStablecoinAdapter(address _stablecoinAdapter) external onlyOwnerOrGov {\n        require(_stablecoinAdapter != address(0), \"AdminControls/zero-address\");\n        stablecoinAdapter = _stablecoinAdapter;\n        emit LogSetStablecoinAdapter(_stablecoinAdapter);\n    }\n}\n",
    "sourcePath": "/Users/aleksey/SolidityProjects2/fathom-stablecoin-smart-contracts/contracts/main/stablecoin-core/AdminControls.sol",
    "compiler": {
        "name": "solc",
        "version": "0.8.17+commit.8df45f5f.Emscripten.clang"
    },
    "schemaVersion": "3.4.15",
    "updatedAt": "2023-08-10T12:55:05.663Z",
    "devdoc": {
        "kind": "dev",
        "methods": {
            "owner()": {
                "details": "Returns the address of the current owner."
            },
            "pauseProtocol()": {
                "details": "This function can only be called by owner or governance role. All related contracts implementing IPausable interface are paused."
            },
            "renounceOwnership()": {
                "details": "Leaves the contract without owner. It will not be possible to call `onlyOwner` functions. Can only be called by the current owner. NOTE: Renouncing ownership will leave the contract without an owner, thereby disabling any functionality that is only available to the owner."
            },
            "transferOwnership(address)": {
                "details": "Transfers ownership of the contract to a new account (`newOwner`). Can only be called by the current owner."
            },
            "unpauseProtocol()": {
                "details": "This function can only be called by owner or governance role. All related contracts implementing IPausable interface are unpaused."
            }
        },
        "version": 1
    },
    "userdoc": {
        "kind": "user",
        "methods": {
            "pauseProtocol()": {
                "notice": "Pause all core modules of the protocol."
            },
            "unpauseProtocol()": {
                "notice": "Unpause all core modules of the protocol."
            }
        },
        "version": 1
    }
}