{
    "contractName": "BookKeeperFlashMintArbitrager",
    "abi": [
        {
            "anonymous": false,
            "inputs": [
                {
                    "indexed": false,
                    "internalType": "uint8",
                    "name": "version",
                    "type": "uint8"
                }
            ],
            "name": "Initialized",
            "type": "event"
        },
        {
            "anonymous": false,
            "inputs": [
                {
                    "indexed": true,
                    "internalType": "address",
                    "name": "previousOwner",
                    "type": "address"
                },
                {
                    "indexed": true,
                    "internalType": "address",
                    "name": "newOwner",
                    "type": "address"
                }
            ],
            "name": "OwnershipTransferred",
            "type": "event"
        },
        {
            "inputs": [],
            "name": "owner",
            "outputs": [
                {
                    "internalType": "address",
                    "name": "",
                    "type": "address"
                }
            ],
            "stateMutability": "view",
            "type": "function"
        },
        {
            "inputs": [],
            "name": "renounceOwnership",
            "outputs": [],
            "stateMutability": "nonpayable",
            "type": "function"
        },
        {
            "inputs": [],
            "name": "stablecoin",
            "outputs": [
                {
                    "internalType": "address",
                    "name": "",
                    "type": "address"
                }
            ],
            "stateMutability": "view",
            "type": "function"
        },
        {
            "inputs": [
                {
                    "internalType": "address",
                    "name": "newOwner",
                    "type": "address"
                }
            ],
            "name": "transferOwnership",
            "outputs": [],
            "stateMutability": "nonpayable",
            "type": "function"
        },
        {
            "inputs": [
                {
                    "internalType": "address",
                    "name": "_stablecoin",
                    "type": "address"
                }
            ],
            "name": "initialize",
            "outputs": [],
            "stateMutability": "nonpayable",
            "type": "function"
        },
        {
            "inputs": [
                {
                    "internalType": "address",
                    "name": "",
                    "type": "address"
                },
                {
                    "internalType": "uint256",
                    "name": "loanValue",
                    "type": "uint256"
                },
                {
                    "internalType": "uint256",
                    "name": "",
                    "type": "uint256"
                },
                {
                    "internalType": "bytes",
                    "name": "data",
                    "type": "bytes"
                }
            ],
            "name": "onBookKeeperFlashLoan",
            "outputs": [
                {
                    "internalType": "bytes32",
                    "name": "",
                    "type": "bytes32"
                }
            ],
            "stateMutability": "nonpayable",
            "type": "function"
        }
    ],
    "bytecode": "0x608060405234801561001057600080fd5b50610bdc806100206000396000f3fe608060405234801561001057600080fd5b50600436106100625760003560e01c8063715018a6146100675780638da5cb5b14610071578063acb554681461009b578063c4d66de8146100bc578063e9cbd822146100cf578063f2fde38b146100e2575b600080fd5b61006f6100f5565b005b6033546001600160a01b03165b6040516001600160a01b0390911681526020015b60405180910390f35b6100ae6100a9366004610855565b610109565b604051908152602001610092565b61006f6100ca3660046108eb565b6103a0565b60655461007e906001600160a01b031681565b61006f6100f03660046108eb565b6104d2565b6100fd61054b565b61010760006105a5565b565b6040805160608101825260008082526020820181905291810182905261013183850185610908565b6001600160a01b039081166040850152908116602084015216815260006002604051908082528060200260200182016040528015610179578160200160208202803683370190505b5060655481519192506001600160a01b031690829060009061019d5761019d610969565b60200260200101906001600160a01b031690816001600160a01b0316815250508160200151816001815181106101d5576101d5610969565b6001600160a01b039092166020928302919091019091015260006102056b033b2e3c9fd0803ce80000008961097f565b9050600061021f84602001516001600160a01b03166105f7565b845160655491925061023d916001600160a01b031690600019610668565b83516040516338ed173960e01b81526001600160a01b03909116906338ed1739906102759085906000908890309042906004016109a1565b6000604051808303816000875af1158015610294573d6000803e3d6000fd5b505050506040513d6000823e601f3d908101601f191682016040526102bc9190810190610a12565b5083516065546102d9916001600160a01b03909116906000610668565b60006102f185602001516001600160a01b03166105f7565b60408601519091506001600160a01b03166340853dce3061031284866107d3565b6040516001600160e01b031960e085901b1681526001600160a01b0390921660048301526024820152604401600060405180830381600087803b15801561035857600080fd5b505af115801561036c573d6000803e3d6000fd5b507f0a749ded14b97653a44d6e6b0b8342c23ed955e329d919b01a4ee7ef7907f64c9e9d5050505050505050505050505050565b600054610100900460ff16158080156103c05750600054600160ff909116105b806103da5750303b1580156103da575060005460ff166001145b6104425760405162461bcd60e51b815260206004820152602e60248201527f496e697469616c697a61626c653a20636f6e747261637420697320616c72656160448201526d191e481a5b9a5d1a585b1a5e995960921b60648201526084015b60405180910390fd5b6000805460ff191660011790558015610465576000805461ff0019166101001790555b61046d6107e6565b606580546001600160a01b0319166001600160a01b03841617905580156104ce576000805461ff0019169055604051600181527f7f26b83ff96e1f2b6a682f133852f6798a09c465da95921460cefb38474024989060200160405180910390a15b5050565b6104da61054b565b6001600160a01b03811661053f5760405162461bcd60e51b815260206004820152602660248201527f4f776e61626c653a206e6577206f776e657220697320746865207a65726f206160448201526564647265737360d01b6064820152608401610439565b610548816105a5565b50565b6033546001600160a01b031633146101075760405162461bcd60e51b815260206004820181905260248201527f4f776e61626c653a2063616c6c6572206973206e6f7420746865206f776e65726044820152606401610439565b603380546001600160a01b038381166001600160a01b0319831681179093556040519116919082907f8be0079c531659141344cd1fd0a4f28419497f9722a3daafe3b4186f6b6457e090600090a35050565b6040516370a0823160e01b81523060048201526000906001600160a01b038316906370a0823190602401602060405180830381865afa15801561063e573d6000803e3d6000fd5b505050506040513d601f19601f820116820180604052508101906106629190610ad0565b92915050565b6001600160a01b0383163b6106c95760405162461bcd60e51b815260206004820152602160248201527f73616665417070726f76653a206e6f6e2d636f6e7472616374206164647265736044820152607360f81b6064820152608401610439565b604080516001600160a01b038481166024830152604480830185905283518084039091018152606490920183526020820180516001600160e01b031663095ea7b360e01b17905291516000928392908716916107259190610ae9565b6000604051808303816000865af19150503d8060008114610762576040519150601f19603f3d011682016040523d82523d6000602084013e610767565b606091505b50915091508180156107915750805115806107915750808060200190518101906107919190610b18565b6107cc5760405162461bcd60e51b815260206004820152600c60248201526b2173616665417070726f766560a01b6044820152606401610439565b5050505050565b60006107df8284610b3a565b9392505050565b600054610100900460ff1661080d5760405162461bcd60e51b815260040161043990610b5b565b610107600054610100900460ff166108375760405162461bcd60e51b815260040161043990610b5b565b610107336105a5565b6001600160a01b038116811461054857600080fd5b60008060008060006080868803121561086d57600080fd5b853561087881610840565b94506020860135935060408601359250606086013567ffffffffffffffff808211156108a357600080fd5b818801915088601f8301126108b757600080fd5b8135818111156108c657600080fd5b8960208285010111156108d857600080fd5b9699959850939650602001949392505050565b6000602082840312156108fd57600080fd5b81356107df81610840565b60008060006060848603121561091d57600080fd5b833561092881610840565b9250602084013561093881610840565b9150604084013561094881610840565b809150509250925092565b634e487b7160e01b600052604160045260246000fd5b634e487b7160e01b600052603260045260246000fd5b60008261099c57634e487b7160e01b600052601260045260246000fd5b500490565b600060a082018783526020878185015260a0604085015281875180845260c086019150828901935060005b818110156109f15784516001600160a01b0316835293830193918301916001016109cc565b50506001600160a01b03969096166060850152505050608001529392505050565b60006020808385031215610a2557600080fd5b825167ffffffffffffffff80821115610a3d57600080fd5b818501915085601f830112610a5157600080fd5b815181811115610a6357610a63610953565b8060051b604051601f19603f83011681018181108582111715610a8857610a88610953565b604052918252848201925083810185019188831115610aa657600080fd5b938501935b82851015610ac457845184529385019392850192610aab565b98975050505050505050565b600060208284031215610ae257600080fd5b5051919050565b6000825160005b81811015610b0a5760208186018101518583015201610af0565b506000920191825250919050565b600060208284031215610b2a57600080fd5b815180151581146107df57600080fd5b8181038181111561066257634e487b7160e01b600052601160045260246000fd5b6020808252602b908201527f496e697469616c697a61626c653a20636f6e7472616374206973206e6f74206960408201526a6e697469616c697a696e6760a81b60608201526080019056fea2646970667358221220b4e60002a9263e51bc447ca8d597282bdf57bc4cc7141e5e06b826f04088abb064736f6c63430008110033",
    "immutableReferences": {},
    "source": "// SPDX-License-Identifier: MIT\npragma solidity 0.8.17;\n\nimport \"@openzeppelin/contracts-upgradeable/access/OwnableUpgradeable.sol\";\nimport \"@openzeppelin/contracts-upgradeable/utils/math/SafeMathUpgradeable.sol\";\n\nimport \"../../main/interfaces/IBookKeeperFlashBorrower.sol\";\nimport \"../../main/interfaces/IStableSwapModule.sol\";\nimport \"../../main/interfaces/IStablecoinAdapter.sol\";\nimport \"../../main/utils/SafeToken.sol\";\nimport \"../../main/apis/interfaces/IFathomSwapRouter.sol\";\n\ncontract BookKeeperFlashMintArbitrager is OwnableUpgradeable, IBookKeeperFlashBorrower {\n    using SafeMathUpgradeable for uint256;\n    using SafeToken for address;\n    address public stablecoin;\n\n    struct LocalVars {\n        address router;\n        address stableSwapToken;\n        IStableSwapModule stableSwapModule;\n    }\n\n    function initialize(address _stablecoin) external initializer {\n        OwnableUpgradeable.__Ownable_init();\n\n        stablecoin = _stablecoin;\n    }\n\n    uint256 constant RAY = 10 ** 27;\n\n    function onBookKeeperFlashLoan(\n        address, // initiator\n        uint256 loanValue, // [rad]\n        uint256, // fee\n        bytes calldata data\n    ) external override returns (bytes32) {\n        LocalVars memory vars;\n        (vars.router, vars.stableSwapToken, vars.stableSwapModule) = abi.decode(data, (address, address, IStableSwapModule));\n        address[] memory path = new address[](2);\n        path[0] = stablecoin;\n        path[1] = vars.stableSwapToken;\n\n        uint256 loanAmount = loanValue / RAY;\n\n        // 1. Swap AUSD to BUSD at a DEX\n        //    vars.stableSwapModule.stablecoinAdapter().bookKeeper().whitelist(address(vars.stableSwapModule.stablecoinAdapter()));\n        //  vars.stableSwapModule.stablecoinAdapter().withdraw(address(this), loanAmount, abi.encode(0));\n        uint256 balanceBefore = vars.stableSwapToken.myBalance();\n        stablecoin.safeApprove(vars.router, type(uint).max);\n        IFathomSwapRouter(vars.router).swapExactTokensForTokens(loanAmount, 0, path, address(this), block.timestamp);\n        stablecoin.safeApprove(vars.router, 0);\n        uint256 balanceAfter = vars.stableSwapToken.myBalance();\n\n        // 2. Swap BUSD to AUSD at StableSwapModule\n        //   vars.stableSwapToken.safeApprove(address(vars.stableSwapModule.authTokenAdapter()), type(uint).max);\n        vars.stableSwapModule.swapTokenToStablecoin(address(this), balanceAfter.sub(balanceBefore));\n        // vars.stableSwapToken.safeApprove(address(vars.stableSwapModule.authTokenAdapter()), 0);\n\n        // 3. Approve AUSD for FlashMintModule\n        //  stablecoin.safeApprove(address(vars.stableSwapModule.stablecoinAdapter()), loanAmount.add(fee.div(RAY)));\n        //vars.stableSwapModule.stablecoinAdapter().deposit(msg.sender, loanAmount.add(fee.div(RAY)), abi.encode(0));\n\n        return keccak256(\"BookKeeperFlashBorrower.onBookKeeperFlashLoan\");\n    }\n}\n",
    "sourcePath": "/Users/aleksey/SolidityProjects2/fathom-stablecoin-smart-contracts/contracts/tests/mocks/BookKeeperFlashMintArbitrager.sol",
    "compiler": {
        "name": "solc",
        "version": "0.8.17+commit.8df45f5f.Emscripten.clang"
    },
    "schemaVersion": "3.4.15",
    "updatedAt": "2023-08-10T12:55:05.801Z",
    "devdoc": {
        "kind": "dev",
        "methods": {
            "owner()": {
                "details": "Returns the address of the current owner."
            },
            "renounceOwnership()": {
                "details": "Leaves the contract without owner. It will not be possible to call `onlyOwner` functions. Can only be called by the current owner. NOTE: Renouncing ownership will leave the contract without an owner, thereby disabling any functionality that is only available to the owner."
            },
            "transferOwnership(address)": {
                "details": "Transfers ownership of the contract to a new account (`newOwner`). Can only be called by the current owner."
            }
        },
        "version": 1
    },
    "userdoc": {
        "kind": "user",
        "methods": {},
        "version": 1
    }
}