{
    "contractName": "CentralizedOraclePriceFeed",
    "abi": [
        {
            "anonymous": false,
            "inputs": [
                {
                    "indexed": false,
                    "internalType": "uint8",
                    "name": "version",
                    "type": "uint8"
                }
            ],
            "name": "Initialized",
            "type": "event"
        },
        {
            "anonymous": false,
            "inputs": [
                {
                    "indexed": true,
                    "internalType": "address",
                    "name": "_caller",
                    "type": "address"
                },
                {
                    "indexed": false,
                    "internalType": "string",
                    "name": "_reason",
                    "type": "string"
                }
            ],
            "name": "LogPeekPriceFailed",
            "type": "event"
        },
        {
            "anonymous": false,
            "inputs": [
                {
                    "indexed": true,
                    "internalType": "address",
                    "name": "_caller",
                    "type": "address"
                },
                {
                    "indexed": false,
                    "internalType": "uint256",
                    "name": "_second",
                    "type": "uint256"
                }
            ],
            "name": "LogSetPriceLife",
            "type": "event"
        },
        {
            "anonymous": false,
            "inputs": [
                {
                    "indexed": true,
                    "internalType": "address",
                    "name": "_caller",
                    "type": "address"
                },
                {
                    "indexed": false,
                    "internalType": "uint256",
                    "name": "_second",
                    "type": "uint256"
                }
            ],
            "name": "LogSetTimeDelay",
            "type": "event"
        },
        {
            "anonymous": false,
            "inputs": [
                {
                    "indexed": false,
                    "internalType": "address",
                    "name": "account",
                    "type": "address"
                }
            ],
            "name": "Paused",
            "type": "event"
        },
        {
            "anonymous": false,
            "inputs": [
                {
                    "indexed": false,
                    "internalType": "address",
                    "name": "account",
                    "type": "address"
                }
            ],
            "name": "Unpaused",
            "type": "event"
        },
        {
            "inputs": [],
            "name": "accessControlConfig",
            "outputs": [
                {
                    "internalType": "contract IAccessControlConfig",
                    "name": "",
                    "type": "address"
                }
            ],
            "stateMutability": "view",
            "type": "function"
        },
        {
            "inputs": [],
            "name": "delayedPrice",
            "outputs": [
                {
                    "internalType": "uint256",
                    "name": "price",
                    "type": "uint256"
                },
                {
                    "internalType": "uint256",
                    "name": "lastUpdate",
                    "type": "uint256"
                }
            ],
            "stateMutability": "view",
            "type": "function"
        },
        {
            "inputs": [],
            "name": "isPriceFresh",
            "outputs": [
                {
                    "internalType": "bool",
                    "name": "",
                    "type": "bool"
                }
            ],
            "stateMutability": "view",
            "type": "function"
        },
        {
            "inputs": [],
            "name": "isPriceOk",
            "outputs": [
                {
                    "internalType": "bool",
                    "name": "",
                    "type": "bool"
                }
            ],
            "stateMutability": "view",
            "type": "function"
        },
        {
            "inputs": [],
            "name": "lastUpdateTS",
            "outputs": [
                {
                    "internalType": "uint256",
                    "name": "",
                    "type": "uint256"
                }
            ],
            "stateMutability": "view",
            "type": "function"
        },
        {
            "inputs": [],
            "name": "latestPrice",
            "outputs": [
                {
                    "internalType": "uint256",
                    "name": "price",
                    "type": "uint256"
                },
                {
                    "internalType": "uint256",
                    "name": "lastUpdate",
                    "type": "uint256"
                }
            ],
            "stateMutability": "view",
            "type": "function"
        },
        {
            "inputs": [],
            "name": "nextPrice",
            "outputs": [
                {
                    "internalType": "uint256",
                    "name": "",
                    "type": "uint256"
                }
            ],
            "stateMutability": "view",
            "type": "function"
        },
        {
            "inputs": [],
            "name": "oracle",
            "outputs": [
                {
                    "internalType": "contract IFathomCentralizedOracle",
                    "name": "",
                    "type": "address"
                }
            ],
            "stateMutability": "view",
            "type": "function"
        },
        {
            "inputs": [],
            "name": "pause",
            "outputs": [],
            "stateMutability": "nonpayable",
            "type": "function"
        },
        {
            "inputs": [],
            "name": "paused",
            "outputs": [
                {
                    "internalType": "bool",
                    "name": "",
                    "type": "bool"
                }
            ],
            "stateMutability": "view",
            "type": "function"
        },
        {
            "inputs": [],
            "name": "peekPrice",
            "outputs": [
                {
                    "internalType": "uint256",
                    "name": "",
                    "type": "uint256"
                },
                {
                    "internalType": "bool",
                    "name": "",
                    "type": "bool"
                }
            ],
            "stateMutability": "nonpayable",
            "type": "function"
        },
        {
            "inputs": [],
            "name": "poolId",
            "outputs": [
                {
                    "internalType": "bytes32",
                    "name": "",
                    "type": "bytes32"
                }
            ],
            "stateMutability": "view",
            "type": "function"
        },
        {
            "inputs": [],
            "name": "priceLife",
            "outputs": [
                {
                    "internalType": "uint256",
                    "name": "",
                    "type": "uint256"
                }
            ],
            "stateMutability": "view",
            "type": "function"
        },
        {
            "inputs": [],
            "name": "readPrice",
            "outputs": [
                {
                    "internalType": "uint256",
                    "name": "",
                    "type": "uint256"
                }
            ],
            "stateMutability": "view",
            "type": "function"
        },
        {
            "inputs": [
                {
                    "internalType": "address",
                    "name": "_accessControlConfig",
                    "type": "address"
                }
            ],
            "name": "setAccessControlConfig",
            "outputs": [],
            "stateMutability": "nonpayable",
            "type": "function"
        },
        {
            "inputs": [
                {
                    "internalType": "bytes32",
                    "name": "_poolId",
                    "type": "bytes32"
                }
            ],
            "name": "setPoolId",
            "outputs": [],
            "stateMutability": "nonpayable",
            "type": "function"
        },
        {
            "inputs": [
                {
                    "internalType": "uint256",
                    "name": "_second",
                    "type": "uint256"
                }
            ],
            "name": "setPriceLife",
            "outputs": [],
            "stateMutability": "nonpayable",
            "type": "function"
        },
        {
            "inputs": [
                {
                    "internalType": "uint256",
                    "name": "_second",
                    "type": "uint256"
                }
            ],
            "name": "setTimeDelay",
            "outputs": [],
            "stateMutability": "nonpayable",
            "type": "function"
        },
        {
            "inputs": [],
            "name": "timeDelay",
            "outputs": [
                {
                    "internalType": "uint256",
                    "name": "",
                    "type": "uint256"
                }
            ],
            "stateMutability": "view",
            "type": "function"
        },
        {
            "inputs": [],
            "name": "unpause",
            "outputs": [],
            "stateMutability": "nonpayable",
            "type": "function"
        },
        {
            "inputs": [
                {
                    "internalType": "address",
                    "name": "_oracle",
                    "type": "address"
                },
                {
                    "internalType": "address",
                    "name": "_accessControlConfig",
                    "type": "address"
                },
                {
                    "internalType": "bytes32",
                    "name": "_poolId",
                    "type": "bytes32"
                }
            ],
            "name": "initialize",
            "outputs": [],
            "stateMutability": "nonpayable",
            "type": "function"
        },
        {
            "inputs": [
                {
                    "internalType": "address",
                    "name": "_oracle",
                    "type": "address"
                }
            ],
            "name": "setOracle",
            "outputs": [],
            "stateMutability": "nonpayable",
            "type": "function"
        },
        {
            "inputs": [],
            "name": "retrivePrice",
            "outputs": [
                {
                    "components": [
                        {
                            "internalType": "uint256",
                            "name": "price",
                            "type": "uint256"
                        },
                        {
                            "internalType": "uint256",
                            "name": "lastUpdate",
                            "type": "uint256"
                        }
                    ],
                    "internalType": "struct IDelayPriceFeed.PriceInfo",
                    "name": "",
                    "type": "tuple"
                }
            ],
            "stateMutability": "view",
            "type": "function"
        }
    ],
    "bytecode": "0x608060405234801561001057600080fd5b50611bab806100206000396000f3fe608060405234801561001057600080fd5b506004361061014d5760003560e01c8063688effa2116100c3578063c8cc243f1161007c578063c8cc243f1461029a578063c9dec361146102ad578063d51a786b146102b6578063ec500099146102c9578063ef36ee47146102dc578063ef9089d6146102ef57600080fd5b8063688effa21461021b5780637adbf9731461023e5780637dc0d1d0146102515780637e91400f1461027c5780638456cb5914610284578063a3e6ba941461028c57600080fd5b80633f4ba83a116101155780633f4ba83a146101c15780634779db56146101c95780635a0e1bd9146101d15780635af639c3146101f45780635c975abb146101fd5780636133f9851461020857600080fd5b80630184a92a14610152578063140d27201461016f5780632d68e3b41461018c57806339af6ba9146101a35780633e0dc34e146101b8575b600080fd5b61015a6102f7565b60405190151581526020015b60405180910390f35b61017761036f565b60408051928352901515602083015201610166565b61019560695481565b604051908152602001610166565b6101b66101b1366004611783565b610625565b005b610195606c5481565b6101b661083b565b61015a610aae565b6101d9610ac8565b60408051825181526020928301519281019290925201610166565b610195606b5481565b60335460ff1661015a565b6101b66102163660046117b8565b610b63565b606554606654610229919082565b60408051928352602083019190915201610166565b6101b661024c3660046117f4565b610d07565b606e54610264906001600160a01b031681565b6040516001600160a01b039091168152602001610166565b606554610195565b6101b6610ea2565b606754606854610229919082565b606d54610264906001600160a01b031681565b610195606a5481565b6101b66102c4366004611783565b6110b0565b6101b66102d73660046117f4565b6111ad565b6101b66102ea366004611783565b6113f5565b606754610195565b6000306001600160a01b0316634779db566040518163ffffffff1660e01b8152600401602060405180830381865afa158015610337573d6000803e3d6000fd5b505050506040513d601f19601f8201168201806040525081019061035b9190611826565b801561036a575060335460ff16155b905090565b600080606a546069546103829190611857565b421015806103ef5750306001600160a01b0316634779db566040518163ffffffff1660e01b8152600401602060405180830381865afa1580156103c9573d6000803e3d6000fd5b505050506040513d601f19601f820116820180604052508101906103ed9190611826565b155b156105b557306001600160a01b0316635a0e1bd96040518163ffffffff1660e01b81526004016040805180830381865afa92505050801561044d575060408051601f3d908101601f1916820190925261044a918101906118ab565b60015b6104cb57610459611908565b806308c379a0036104bf575061046d611924565b8061047857506104c1565b336001600160a01b03167f1dad06f9b840665ab0cfae3caef238945679f3e2123bdcc11b1612a94c22d470826040516104b191906119ae565b60405180910390a2506105b5565b505b3d6000803e3d6000fd5b805161051e5760405162461bcd60e51b815260206004820152601a60248201527f44656c61795072696365466565642f77726f6e672d707269636500000000000060448201526064015b60405180910390fd5b42816020015111156105725760405162461bcd60e51b815260206004820152601f60248201527f44656c61795072696365466565642f77726f6e672d6c617374557064617465006044820152606401610515565b60655415610596576040805180820190915260675481526068546020820152610598565b805b805160655560209081015160665581516067550151606855426069555b606560000154306001600160a01b0316630184a92a6040518163ffffffff1660e01b8152600401602060405180830381865afa1580156105f9573d6000803e3d6000fd5b505050506040513d601f19601f8201168201806040525081019061061d9190611826565b915091509091565b606d546040805163e58378bb60e01b815290516001600160a01b03909216916391d1485491839163e58378bb916004808201926020929091908290030181865afa158015610677573d6000803e3d6000fd5b505050506040513d601f19601f8201168201806040525081019061069b91906119fc565b6040516001600160e01b031960e084901b1681526004810191909152336024820152604401602060405180830381865afa1580156106dd573d6000803e3d6000fd5b505050506040513d601f19601f820116820180604052508101906107019190611826565b61071d5760405162461bcd60e51b815260040161051590611a15565b6002606b5461072c9190611a39565b811115801561073d575061012c8110155b801561074c5750620151808111155b6107985760405162461bcd60e51b815260206004820152601d60248201527f44656c61795072696365466565642f6261642d64656c61792d74696d650000006044820152606401610515565b306001600160a01b031663140d27206040518163ffffffff1660e01b815260040160408051808303816000875af11580156107d7573d6000803e3d6000fd5b505050506040513d601f19601f820116820180604052508101906107fb9190611a5b565b5050606a81905560405181815233907f8c7220e16b36c16980047cfd2faf359f5a489e40edbb55fc4818907c9dde734a906020015b60405180910390a250565b606d546040805163e58378bb60e01b815290516001600160a01b03909216916391d1485491839163e58378bb916004808201926020929091908290030181865afa15801561088d573d6000803e3d6000fd5b505050506040513d601f19601f820116820180604052508101906108b191906119fc565b6040516001600160e01b031960e084901b1681526004810191909152336024820152604401602060405180830381865afa1580156108f3573d6000803e3d6000fd5b505050506040513d601f19601f820116820180604052508101906109179190611826565b806109f95750606d5460408051635a9b40c560e11b815290516001600160a01b03909216916391d1485491839163b536818a916004808201926020929091908290030181865afa15801561096f573d6000803e3d6000fd5b505050506040513d601f19601f8201168201806040525081019061099391906119fc565b6040516001600160e01b031960e084901b1681526004810191909152336024820152604401602060405180830381865afa1580156109d5573d6000803e3d6000fd5b505050506040513d601f19601f820116820180604052508101906109f99190611826565b610a3f5760405162461bcd60e51b815260206004820152601760248201527621286f776e6572526f6c65206f7220676f76526f6c652960481b6044820152606401610515565b610a47611603565b306001600160a01b031663140d27206040518163ffffffff1660e01b815260040160408051808303816000875af1158015610a86573d6000803e3d6000fd5b505050506040513d601f19601f82011682018060405250810190610aaa9190611a5b565b5050565b6000606b5442610abe9190611a87565b6066541015919050565b6040805180820190915260008082526020820152606e5460408051634c6afee560e11b8152815160009384936001600160a01b03909116926398d5fdca92600480830193928290030181865afa158015610b26573d6000803e3d6000fd5b505050506040513d601f19601f82011682018060405250810190610b4a9190611a9a565b6040805180820190915291825260208201529392505050565b600054610100900460ff1615808015610b835750600054600160ff909116105b80610b9d5750303b158015610b9d575060005460ff166001145b610c005760405162461bcd60e51b815260206004820152602e60248201527f496e697469616c697a61626c653a20636f6e747261637420697320616c72656160448201526d191e481a5b9a5d1a585b1a5e995960921b6064820152608401610515565b6000805460ff191660011790558015610c23576000805461ff0019166101001790555b610c2b611655565b6001600160a01b038316610c515760405162461bcd60e51b815260040161051590611abe565b606d80546001600160a01b0319166001600160a01b03858116919091179091558416610c8f5760405162461bcd60e51b815260040161051590611abe565b606e80546001600160a01b0319166001600160a01b038616179055610708606b55610384606a55606c8290558015610d01576000805461ff0019169055604051600181527f7f26b83ff96e1f2b6a682f133852f6798a09c465da95921460cefb38474024989060200160405180910390a15b50505050565b606d546040805163e58378bb60e01b815290516001600160a01b03909216916391d1485491839163e58378bb916004808201926020929091908290030181865afa158015610d59573d6000803e3d6000fd5b505050506040513d601f19601f82011682018060405250810190610d7d91906119fc565b6040516001600160e01b031960e084901b1681526004810191909152336024820152604401602060405180830381865afa158015610dbf573d6000803e3d6000fd5b505050506040513d601f19601f82011682018060405250810190610de39190611826565b610dff5760405162461bcd60e51b815260040161051590611a15565b6001600160a01b038116610e255760405162461bcd60e51b815260040161051590611abe565b606e80546001600160a01b0319166001600160a01b0383161790556040805162a0693960e51b81528151309263140d2720926004808201939182900301816000875af1158015610e79573d6000803e3d6000fd5b505050506040513d601f19601f82011682018060405250810190610e9d9190611a5b565b505050565b606d546040805163e58378bb60e01b815290516001600160a01b03909216916391d1485491839163e58378bb916004808201926020929091908290030181865afa158015610ef4573d6000803e3d6000fd5b505050506040513d601f19601f82011682018060405250810190610f1891906119fc565b6040516001600160e01b031960e084901b1681526004810191909152336024820152604401602060405180830381865afa158015610f5a573d6000803e3d6000fd5b505050506040513d601f19601f82011682018060405250810190610f7e9190611826565b806110605750606d5460408051635a9b40c560e11b815290516001600160a01b03909216916391d1485491839163b536818a916004808201926020929091908290030181865afa158015610fd6573d6000803e3d6000fd5b505050506040513d601f19601f82011682018060405250810190610ffa91906119fc565b6040516001600160e01b031960e084901b1681526004810191909152336024820152604401602060405180830381865afa15801561103c573d6000803e3d6000fd5b505050506040513d601f19601f820116820180604052508101906110609190611826565b6110a65760405162461bcd60e51b815260206004820152601760248201527621286f776e6572526f6c65206f7220676f76526f6c652960481b6044820152606401610515565b6110ae611684565b565b606d546040805163e58378bb60e01b815290516001600160a01b03909216916391d1485491839163e58378bb916004808201926020929091908290030181865afa158015611102573d6000803e3d6000fd5b505050506040513d601f19601f8201168201806040525081019061112691906119fc565b6040516001600160e01b031960e084901b1681526004810191909152336024820152604401602060405180830381865afa158015611168573d6000803e3d6000fd5b505050506040513d601f19601f8201168201806040525081019061118c9190611826565b6111a85760405162461bcd60e51b815260040161051590611a15565b606c55565b606d546040805163e58378bb60e01b815290516001600160a01b03909216916391d1485491839163e58378bb916004808201926020929091908290030181865afa1580156111ff573d6000803e3d6000fd5b505050506040513d601f19601f8201168201806040525081019061122391906119fc565b6040516001600160e01b031960e084901b1681526004810191909152336024820152604401602060405180830381865afa158015611265573d6000803e3d6000fd5b505050506040513d601f19601f820116820180604052508101906112899190611826565b6112a55760405162461bcd60e51b815260040161051590611a15565b806001600160a01b03166391d14854826001600160a01b031663e58378bb6040518163ffffffff1660e01b8152600401602060405180830381865afa1580156112f2573d6000803e3d6000fd5b505050506040513d601f19601f8201168201806040525081019061131691906119fc565b6040516001600160e01b031960e084901b1681526004810191909152336024820152604401602060405180830381865afa158015611358573d6000803e3d6000fd5b505050506040513d601f19601f8201168201806040525081019061137c9190611826565b6113d35760405162461bcd60e51b815260206004820152602260248201527f44656c61795072696365466565642f6d736773656e6465722d6e6f742d6f776e60448201526132b960f11b6064820152608401610515565b606d80546001600160a01b0319166001600160a01b0392909216919091179055565b606d546040805163e58378bb60e01b815290516001600160a01b03909216916391d1485491839163e58378bb916004808201926020929091908290030181865afa158015611447573d6000803e3d6000fd5b505050506040513d601f19601f8201168201806040525081019061146b91906119fc565b6040516001600160e01b031960e084901b1681526004810191909152336024820152604401602060405180830381865afa1580156114ad573d6000803e3d6000fd5b505050506040513d601f19601f820116820180604052508101906114d19190611826565b6114ed5760405162461bcd60e51b815260040161051590611a15565b606a546114fb906002611b13565b811015801561150c575061012c8110155b801561151b5750620151808111155b6115675760405162461bcd60e51b815260206004820152601d60248201527f44656c61795072696365466565642f6261642d70726963652d6c6966650000006044820152606401610515565b306001600160a01b031663140d27206040518163ffffffff1660e01b815260040160408051808303816000875af11580156115a6573d6000803e3d6000fd5b505050506040513d601f19601f820116820180604052508101906115ca9190611a5b565b5050606b81905560405181815233907f472c5e14bb804bd7b201c5c27f2ea820980b37ef7611806e7b3f6db6758f32e090602001610830565b61160b6116c1565b6033805460ff191690557f5db9ee0a495bf2e6ff9c91a7834c1ba4fdd244a5e8aa4e537bd38aeae4b073aa335b6040516001600160a01b03909116815260200160405180910390a1565b600054610100900460ff1661167c5760405162461bcd60e51b815260040161051590611b2a565b6110ae61170a565b61168c61173d565b6033805460ff191660011790557f62e78cea01bee320cd4e420270b5ea74000d11b0c9f74754ebdbfc544b05a2586116383390565b60335460ff166110ae5760405162461bcd60e51b815260206004820152601460248201527314185d5cd8589b194e881b9bdd081c185d5cd95960621b6044820152606401610515565b600054610100900460ff166117315760405162461bcd60e51b815260040161051590611b2a565b6033805460ff19169055565b60335460ff16156110ae5760405162461bcd60e51b815260206004820152601060248201526f14185d5cd8589b194e881c185d5cd95960821b6044820152606401610515565b60006020828403121561179557600080fd5b5035919050565b80356001600160a01b03811681146117b357600080fd5b919050565b6000806000606084860312156117cd57600080fd5b6117d68461179c565b92506117e46020850161179c565b9150604084013590509250925092565b60006020828403121561180657600080fd5b61180f8261179c565b9392505050565b805180151581146117b357600080fd5b60006020828403121561183857600080fd5b61180f82611816565b634e487b7160e01b600052601160045260246000fd5b8082018082111561186a5761186a611841565b92915050565b601f8201601f1916810167ffffffffffffffff811182821017156118a457634e487b7160e01b600052604160045260246000fd5b6040525050565b6000604082840312156118bd57600080fd5b6040516040810181811067ffffffffffffffff821117156118ee57634e487b7160e01b600052604160045260246000fd5b604052825181526020928301519281019290925250919050565b600060033d11156119215760046000803e5060005160e01c5b90565b600060443d10156119325790565b6040516003193d81016004833e81513d67ffffffffffffffff816024840111818411171561196257505050505090565b828501915081518181111561197a5750505050505090565b843d87010160208285010111156119945750505050505090565b6119a360208286010187611870565b509095945050505050565b600060208083528351808285015260005b818110156119db578581018301518582016040015282016119bf565b506000604082860101526040601f19601f8301168501019250505092915050565b600060208284031215611a0e57600080fd5b5051919050565b6020808252600a9082015269216f776e6572526f6c6560b01b604082015260600190565b600082611a5657634e487b7160e01b600052601260045260246000fd5b500490565b60008060408385031215611a6e57600080fd5b82519150611a7e60208401611816565b90509250929050565b8181038181111561186a5761186a611841565b60008060408385031215611aad57600080fd5b505080516020909101519092909150565b60208082526035908201527f43656e7472616c697a65644f7261636c655072696365466565642f7a65726f2d6040820152746163636573732d636f6e74726f6c2d636f6e66696760581b606082015260800190565b808202811582820484141761186a5761186a611841565b6020808252602b908201527f496e697469616c697a61626c653a20636f6e7472616374206973206e6f74206960408201526a6e697469616c697a696e6760a81b60608201526080019056fea26469706673582212200bbf4fac85118d632367acccd9991de02f516db20cc465762e353dac99fc198e64736f6c63430008110033",
    "immutableReferences": {},
    "source": "// SPDX-License-Identifier: AGPL-3.0-or-later\npragma solidity 0.8.17;\n\nimport \"@openzeppelin/contracts-upgradeable/security/PausableUpgradeable.sol\";\n\nimport \"../interfaces/IDelayPriceFeed.sol\";\nimport \"../interfaces/IFathomCentralizedOracle.sol\";\nimport \"../interfaces/IAccessControlConfig.sol\";\nimport \"./DelayPriceFeedBase.sol\";\n\ncontract CentralizedOraclePriceFeed is DelayPriceFeedBase {\n    IFathomCentralizedOracle public oracle;\n\n    function initialize(address _oracle, address _accessControlConfig, bytes32 _poolId) external initializer {\n        PausableUpgradeable.__Pausable_init();\n\n        require(_accessControlConfig != address(0), \"CentralizedOraclePriceFeed/zero-access-control-config\");\n        accessControlConfig = IAccessControlConfig(_accessControlConfig);\n\n        require(_oracle != address(0), \"CentralizedOraclePriceFeed/zero-access-control-config\");\n        oracle = IFathomCentralizedOracle(_oracle);\n        priceLife = 30 minutes;\n        timeDelay = 15 minutes;\n        poolId = _poolId;\n    }\n\n    function setOracle(address _oracle) external onlyOwner {\n        require(_oracle != address(0), \"CentralizedOraclePriceFeed/zero-access-control-config\");\n        oracle = IFathomCentralizedOracle(_oracle);\n        this.peekPrice();\n    }\n\n    function retrivePrice() external view override returns (PriceInfo memory) {\n        (uint256 _price, uint256 _lastUpdate) = oracle.getPrice();\n        return PriceInfo(_price, _lastUpdate);\n    }\n}\n",
    "sourcePath": "/Users/aleksey/SolidityProjects2/fathom-stablecoin-smart-contracts/contracts/main/price-feeders/CentralizedOraclePriceFeed.sol",
    "compiler": {
        "name": "solc",
        "version": "0.8.17+commit.8df45f5f.Emscripten.clang"
    },
    "schemaVersion": "3.4.15",
    "updatedAt": "2023-08-10T12:55:05.423Z",
    "devdoc": {
        "kind": "dev",
        "methods": {
            "pause()": {
                "details": "access: OWNER_ROLE, GOV_ROLE"
            },
            "paused()": {
                "details": "Returns true if the contract is paused, and false otherwise."
            },
            "unpause()": {
                "details": "access: OWNER_ROLE, GOV_ROLE"
            }
        },
        "version": 1
    },
    "userdoc": {
        "kind": "user",
        "methods": {},
        "version": 1
    }
}