{
    "contractName": "CollateralTokenAdapter",
    "abi": [
        {
            "anonymous": false,
            "inputs": [
                {
                    "indexed": false,
                    "internalType": "uint8",
                    "name": "version",
                    "type": "uint8"
                }
            ],
            "name": "Initialized",
            "type": "event"
        },
        {
            "anonymous": false,
            "inputs": [],
            "name": "LogCage",
            "type": "event"
        },
        {
            "anonymous": false,
            "inputs": [
                {
                    "indexed": false,
                    "internalType": "uint256",
                    "name": "_val",
                    "type": "uint256"
                }
            ],
            "name": "LogDeposit",
            "type": "event"
        },
        {
            "anonymous": false,
            "inputs": [
                {
                    "indexed": true,
                    "internalType": "address",
                    "name": "_caller",
                    "type": "address"
                },
                {
                    "indexed": false,
                    "internalType": "address",
                    "name": "_to",
                    "type": "address"
                }
            ],
            "name": "LogEmergencyWithdraw",
            "type": "event"
        },
        {
            "anonymous": false,
            "inputs": [
                {
                    "indexed": true,
                    "internalType": "address",
                    "name": "user",
                    "type": "address"
                },
                {
                    "indexed": false,
                    "internalType": "bool",
                    "name": "isWhitelisted",
                    "type": "bool"
                }
            ],
            "name": "LogWhitelisted",
            "type": "event"
        },
        {
            "anonymous": false,
            "inputs": [
                {
                    "indexed": false,
                    "internalType": "uint256",
                    "name": "_val",
                    "type": "uint256"
                }
            ],
            "name": "LogWithdraw",
            "type": "event"
        },
        {
            "anonymous": false,
            "inputs": [
                {
                    "indexed": false,
                    "internalType": "address",
                    "name": "account",
                    "type": "address"
                }
            ],
            "name": "Paused",
            "type": "event"
        },
        {
            "anonymous": false,
            "inputs": [
                {
                    "indexed": false,
                    "internalType": "address",
                    "name": "account",
                    "type": "address"
                }
            ],
            "name": "Unpaused",
            "type": "event"
        },
        {
            "inputs": [],
            "name": "bookKeeper",
            "outputs": [
                {
                    "internalType": "contract IBookKeeper",
                    "name": "",
                    "type": "address"
                }
            ],
            "stateMutability": "view",
            "type": "function"
        },
        {
            "inputs": [],
            "name": "collateralPoolId",
            "outputs": [
                {
                    "internalType": "bytes32",
                    "name": "",
                    "type": "bytes32"
                }
            ],
            "stateMutability": "view",
            "type": "function"
        },
        {
            "inputs": [],
            "name": "collateralToken",
            "outputs": [
                {
                    "internalType": "address",
                    "name": "",
                    "type": "address"
                }
            ],
            "stateMutability": "view",
            "type": "function"
        },
        {
            "inputs": [],
            "name": "live",
            "outputs": [
                {
                    "internalType": "uint256",
                    "name": "",
                    "type": "uint256"
                }
            ],
            "stateMutability": "view",
            "type": "function"
        },
        {
            "inputs": [],
            "name": "paused",
            "outputs": [
                {
                    "internalType": "bool",
                    "name": "",
                    "type": "bool"
                }
            ],
            "stateMutability": "view",
            "type": "function"
        },
        {
            "inputs": [],
            "name": "proxyWalletFactory",
            "outputs": [
                {
                    "internalType": "contract IProxyRegistry",
                    "name": "",
                    "type": "address"
                }
            ],
            "stateMutability": "view",
            "type": "function"
        },
        {
            "inputs": [],
            "name": "totalShare",
            "outputs": [
                {
                    "internalType": "uint256",
                    "name": "",
                    "type": "uint256"
                }
            ],
            "stateMutability": "view",
            "type": "function"
        },
        {
            "inputs": [],
            "name": "vault",
            "outputs": [
                {
                    "internalType": "contract IVault",
                    "name": "",
                    "type": "address"
                }
            ],
            "stateMutability": "view",
            "type": "function"
        },
        {
            "inputs": [
                {
                    "internalType": "address",
                    "name": "",
                    "type": "address"
                }
            ],
            "name": "whiteListed",
            "outputs": [
                {
                    "internalType": "bool",
                    "name": "",
                    "type": "bool"
                }
            ],
            "stateMutability": "view",
            "type": "function"
        },
        {
            "inputs": [
                {
                    "internalType": "address",
                    "name": "_bookKeeper",
                    "type": "address"
                },
                {
                    "internalType": "bytes32",
                    "name": "_collateralPoolId",
                    "type": "bytes32"
                },
                {
                    "internalType": "address",
                    "name": "_collateralToken",
                    "type": "address"
                },
                {
                    "internalType": "address",
                    "name": "_proxyWalletFactory",
                    "type": "address"
                }
            ],
            "name": "initialize",
            "outputs": [],
            "stateMutability": "nonpayable",
            "type": "function"
        },
        {
            "inputs": [
                {
                    "internalType": "address",
                    "name": "toBeWhitelisted",
                    "type": "address"
                }
            ],
            "name": "whitelist",
            "outputs": [],
            "stateMutability": "nonpayable",
            "type": "function"
        },
        {
            "inputs": [
                {
                    "internalType": "address",
                    "name": "toBeRemoved",
                    "type": "address"
                }
            ],
            "name": "blacklist",
            "outputs": [],
            "stateMutability": "nonpayable",
            "type": "function"
        },
        {
            "inputs": [],
            "name": "cage",
            "outputs": [],
            "stateMutability": "nonpayable",
            "type": "function"
        },
        {
            "inputs": [],
            "name": "pause",
            "outputs": [],
            "stateMutability": "nonpayable",
            "type": "function"
        },
        {
            "inputs": [],
            "name": "unpause",
            "outputs": [],
            "stateMutability": "nonpayable",
            "type": "function"
        },
        {
            "inputs": [
                {
                    "internalType": "address",
                    "name": "_vault",
                    "type": "address"
                }
            ],
            "name": "setVault",
            "outputs": [],
            "stateMutability": "nonpayable",
            "type": "function"
        },
        {
            "inputs": [
                {
                    "internalType": "address",
                    "name": "_positionAddress",
                    "type": "address"
                },
                {
                    "internalType": "uint256",
                    "name": "_amount",
                    "type": "uint256"
                },
                {
                    "internalType": "bytes",
                    "name": "_data",
                    "type": "bytes"
                }
            ],
            "name": "deposit",
            "outputs": [],
            "stateMutability": "nonpayable",
            "type": "function"
        },
        {
            "inputs": [
                {
                    "internalType": "address",
                    "name": "_usr",
                    "type": "address"
                },
                {
                    "internalType": "uint256",
                    "name": "_amount",
                    "type": "uint256"
                },
                {
                    "internalType": "bytes",
                    "name": "",
                    "type": "bytes"
                }
            ],
            "name": "withdraw",
            "outputs": [],
            "stateMutability": "nonpayable",
            "type": "function"
        },
        {
            "inputs": [
                {
                    "internalType": "address",
                    "name": "_to",
                    "type": "address"
                }
            ],
            "name": "emergencyWithdraw",
            "outputs": [],
            "stateMutability": "nonpayable",
            "type": "function"
        }
    ],
    "bytecode": "0x608060405234801561001057600080fd5b50612581806100206000396000f3fe608060405234801561001057600080fd5b50600436106101215760003560e01c80638456cb59116100ad578063dca07dc511610071578063dca07dc514610231578063e3b3932a1461023a578063f9f92be41461024d578063fa0fca8414610260578063fbfa77cf1461028357600080fd5b80638456cb59146101e2578063957aa58c146101ea57806396c9f17e146101f35780639b19251a14610206578063b2016bd41461021957600080fd5b806349bdc2b8116100f457806349bdc2b81461018a5780635c975abb1461019d5780636817031b146101b457806369245009146101c75780636ff1c9bc146101cf57600080fd5b8063026c4207146101265780631704edb41461014257806331f092651461016d5780633f4ba83a14610182575b600080fd5b61012f609e5481565b6040519081526020015b60405180910390f35b609d54610155906001600160a01b031681565b6040516001600160a01b039091168152602001610139565b61018061017b36600461229f565b610296565b005b61018061038b565b61018061019836600461229f565b6105d6565b60335460ff165b6040519015158152602001610139565b6101806101c2366004612328565b6106b8565b610180610914565b6101806101dd366004612328565b610ac5565b610180610d1b565b61012f60975481565b61018061020136600461234c565b610f63565b610180610214366004612328565b61127d565b6098546101559061010090046001600160a01b031681565b61012f609a5481565b609954610155906001600160a01b031681565b61018061025b366004612328565b611587565b6101a461026e366004612328565b60a06020526000908152604090205460ff1681565b609b54610155906001600160a01b031681565b61029e611816565b6102a661186f565b609d5460405163052e207160e31b81523360048201526001600160a01b0390911690632971038890602401602060405180830381865afa1580156102ee573d6000803e3d6000fd5b505050506040513d601f19601f82011682018060405250810190610312919061239f565b8061032c575033600090815260a0602052604090205460ff165b6103715760405162461bcd60e51b815260206004820152601160248201527008541c9bde1e53dc95da1a5d19531a5cdd607a1b60448201526064015b60405180910390fd5b61037b84846118b5565b6103856001606555565b50505050565b6099546040805163c8cc243f60e01b815290516000926001600160a01b03169163c8cc243f9160048083019260209291908290030181865afa1580156103d5573d6000803e3d6000fd5b505050506040513d601f19601f820116820180604052508101906103f991906123c1565b9050806001600160a01b03166391d14854826001600160a01b031663e58378bb6040518163ffffffff1660e01b8152600401602060405180830381865afa158015610448573d6000803e3d6000fd5b505050506040513d601f19601f8201168201806040525081019061046c91906123de565b6040516001600160e01b031960e084901b1681526004810191909152336024820152604401602060405180830381865afa1580156104ae573d6000803e3d6000fd5b505050506040513d601f19601f820116820180604052508101906104d2919061239f565b806105af5750806001600160a01b03166391d14854826001600160a01b031663b536818a6040518163ffffffff1660e01b8152600401602060405180830381865afa158015610525573d6000803e3d6000fd5b505050506040513d601f19601f8201168201806040525081019061054991906123de565b6040516001600160e01b031960e084901b1681526004810191909152336024820152604401602060405180830381865afa15801561058b573d6000803e3d6000fd5b505050506040513d601f19601f820116820180604052508101906105af919061239f565b6105cb5760405162461bcd60e51b8152600401610368906123f7565b6105d3611af6565b50565b6105de611816565b6105e661186f565b609d5460405163052e207160e31b81523360048201526001600160a01b0390911690632971038890602401602060405180830381865afa15801561062e573d6000803e3d6000fd5b505050506040513d601f19601f82011682018060405250810190610652919061239f565b8061066c575033600090815260a0602052604090205460ff165b6106ac5760405162461bcd60e51b815260206004820152601160248201527008541c9bde1e53dc95da1a5d19531a5cdd607a1b6044820152606401610368565b61037b84848484611b48565b6099546040805163c8cc243f60e01b815290516000926001600160a01b03169163c8cc243f9160048083019260209291908290030181865afa158015610702573d6000803e3d6000fd5b505050506040513d601f19601f8201168201806040525081019061072691906123c1565b9050806001600160a01b03166391d14854826001600160a01b031663e58378bb6040518163ffffffff1660e01b8152600401602060405180830381865afa158015610775573d6000803e3d6000fd5b505050506040513d601f19601f8201168201806040525081019061079991906123de565b6040516001600160e01b031960e084901b1681526004810191909152336024820152604401602060405180830381865afa1580156107db573d6000803e3d6000fd5b505050506040513d601f19601f820116820180604052508101906107ff919061239f565b61081b5760405162461bcd60e51b81526004016103689061242e565b60985460ff1615156001036108835760405162461bcd60e51b815260206004820152602860248201527f436f6c6c61746572616c546f6b656e416461707465722f5661756c742d7365746044820152672d616c726561647960c01b6064820152608401610368565b6001600160a01b0382166108e35760405162461bcd60e51b815260206004820152602160248201527f436f6c6c61746572616c546f6b656e416461707465722f7a65726f2d7661756c6044820152601d60fa1b6064820152608401610368565b506098805460ff19166001179055609b80546001600160a01b039092166001600160a01b0319909216919091179055565b61091c611816565b6099546040805163c8cc243f60e01b815290516000926001600160a01b03169163c8cc243f9160048083019260209291908290030181865afa158015610966573d6000803e3d6000fd5b505050506040513d601f19601f8201168201806040525081019061098a91906123c1565b9050806001600160a01b03166391d14854826001600160a01b031663e58378bb6040518163ffffffff1660e01b8152600401602060405180830381865afa1580156109d9573d6000803e3d6000fd5b505050506040513d601f19601f820116820180604052508101906109fd91906123de565b6040516001600160e01b031960e084901b1681526004810191909152336024820152604401602060405180830381865afa158015610a3f573d6000803e3d6000fd5b505050506040513d601f19601f82011682018060405250810190610a63919061239f565b610a7f5760405162461bcd60e51b81526004016103689061242e565b609754600103610ab857600060978190556040517fbf689b4aae670d200b1d2b971ace2e0c3bef88a9c5e93f36705c7b86eab630b99190a15b50610ac36001606555565b565b610acd611816565b609754600003610d1157609954609a54604051633e2f890b60e21b815260048101919091523360248201526000916001600160a01b03169063f8be242c90604401602060405180830381865afa158015610b2b573d6000803e3d6000fd5b505050506040513d601f19601f82011682018060405250810190610b4f91906123de565b9050600160ff1b8110610bb75760405162461bcd60e51b815260206004820152602a60248201527f436f6c6c61746572616c546f6b656e416461707465722f636f6c6c61746572616044820152696c2d6f766572666c6f7760b01b6064820152608401610368565b80609e6000828254610bc99190612489565b9091555050609954609a546001600160a01b039091169063d295927a9033610bf0856124a2565b6040516001600160e01b031960e086901b16815260048101939093526001600160a01b0390911660248301526044820152606401600060405180830381600087803b158015610c3e57600080fd5b505af1158015610c52573d6000803e3d6000fd5b5050609b54604051632e1a7d4d60e01b8152600481018590526001600160a01b039091169250632e1a7d4d9150602401600060405180830381600087803b158015610c9c57600080fd5b505af1158015610cb0573d6000803e3d6000fd5b5050609854610cd1925061010090046001600160a01b031690508383611d04565b6040516001600160a01b038316815233907f6ba7f365fdc489ae6b61ea2021626b6df9cff6f0280e8e1658e5d7f87794f0c89060200160405180910390a2505b6105d36001606555565b6099546040805163c8cc243f60e01b815290516000926001600160a01b03169163c8cc243f9160048083019260209291908290030181865afa158015610d65573d6000803e3d6000fd5b505050506040513d601f19601f82011682018060405250810190610d8991906123c1565b9050806001600160a01b03166391d14854826001600160a01b031663e58378bb6040518163ffffffff1660e01b8152600401602060405180830381865afa158015610dd8573d6000803e3d6000fd5b505050506040513d601f19601f82011682018060405250810190610dfc91906123de565b6040516001600160e01b031960e084901b1681526004810191909152336024820152604401602060405180830381865afa158015610e3e573d6000803e3d6000fd5b505050506040513d601f19601f82011682018060405250810190610e62919061239f565b80610f3f5750806001600160a01b03166391d14854826001600160a01b031663b536818a6040518163ffffffff1660e01b8152600401602060405180830381865afa158015610eb5573d6000803e3d6000fd5b505050506040513d601f19601f82011682018060405250810190610ed991906123de565b6040516001600160e01b031960e084901b1681526004810191909152336024820152604401602060405180830381865afa158015610f1b573d6000803e3d6000fd5b505050506040513d601f19601f82011682018060405250810190610f3f919061239f565b610f5b5760405162461bcd60e51b8152600401610368906123f7565b6105d3611e6a565b600054610100900460ff1615808015610f835750600054600160ff909116105b80610f9d5750303b158015610f9d575060005460ff166001145b6110005760405162461bcd60e51b815260206004820152602e60248201527f496e697469616c697a61626c653a20636f6e747261637420697320616c72656160448201526d191e481a5b9a5d1a585b1a5e995960921b6064820152608401610368565b6000805460ff191660011790558015611023576000805461ff0019166101001790555b61102b611ea7565b611033611ed6565b6001600160a01b0385166110995760405162461bcd60e51b815260206004820152602760248201527f436f6c6c61746572616c546f6b656e416461707465722f7a65726f2d626f6f6b60448201526616b5b2b2b832b960c91b6064820152608401610368565b836110fd5760405162461bcd60e51b815260206004820152602e60248201527f436f6c6c61746572616c546f6b656e416461707465722f7a65726f2d636f6c6c60448201526d185d195c985b0b5c1bdbdb0b5a5960921b6064820152608401610368565b6001600160a01b0383166111685760405162461bcd60e51b815260206004820152602c60248201527f436f6c6c61746572616c546f6b656e416461707465722f7a65726f2d636f6c6c60448201526b30ba32b930b616ba37b5b2b760a11b6064820152608401610368565b6001600160a01b0382166111d75760405162461bcd60e51b815260206004820152603060248201527f436f6c6c61746572616c546f6b656e416461707465722f7a65726f2d70726f7860448201526f792d77616c6c65742d666163746f727960801b6064820152608401610368565b6001609755609a849055609880546001600160a01b0380861661010002610100600160a81b031990921691909117909155609980548783166001600160a01b031991821617909155609d8054928516929091169190911790558015611276576000805461ff0019169055604051600181527f7f26b83ff96e1f2b6a682f133852f6798a09c465da95921460cefb38474024989060200160405180910390a15b5050505050565b6099546040805163c8cc243f60e01b815290516000926001600160a01b03169163c8cc243f9160048083019260209291908290030181865afa1580156112c7573d6000803e3d6000fd5b505050506040513d601f19601f820116820180604052508101906112eb91906123c1565b9050806001600160a01b03166391d14854826001600160a01b031663e58378bb6040518163ffffffff1660e01b8152600401602060405180830381865afa15801561133a573d6000803e3d6000fd5b505050506040513d601f19601f8201168201806040525081019061135e91906123de565b6040516001600160e01b031960e084901b1681526004810191909152336024820152604401602060405180830381865afa1580156113a0573d6000803e3d6000fd5b505050506040513d601f19601f820116820180604052508101906113c4919061239f565b806114a15750806001600160a01b03166391d14854826001600160a01b031663b536818a6040518163ffffffff1660e01b8152600401602060405180830381865afa158015611417573d6000803e3d6000fd5b505050506040513d601f19601f8201168201806040525081019061143b91906123de565b6040516001600160e01b031960e084901b1681526004810191909152336024820152604401602060405180830381865afa15801561147d573d6000803e3d6000fd5b505050506040513d601f19601f820116820180604052508101906114a1919061239f565b6114bd5760405162461bcd60e51b8152600401610368906123f7565b6001600160a01b0382166115285760405162461bcd60e51b815260206004820152602c60248201527f436f6c6c61746572616c546f6b656e416461707465722f77686974656c69737460448201526b2d696e76616c69644164647360a01b6064820152608401610368565b6001600160a01b038216600081815260a06020908152604091829020805460ff1916600190811790915591519182527f5442a42f9e7d49615f11c8e5ac1ecb959a604cf0346c9e7142940817a3de4bcb91015b60405180910390a25050565b6099546040805163c8cc243f60e01b815290516000926001600160a01b03169163c8cc243f9160048083019260209291908290030181865afa1580156115d1573d6000803e3d6000fd5b505050506040513d601f19601f820116820180604052508101906115f591906123c1565b9050806001600160a01b03166391d14854826001600160a01b031663e58378bb6040518163ffffffff1660e01b8152600401602060405180830381865afa158015611644573d6000803e3d6000fd5b505050506040513d601f19601f8201168201806040525081019061166891906123de565b6040516001600160e01b031960e084901b1681526004810191909152336024820152604401602060405180830381865afa1580156116aa573d6000803e3d6000fd5b505050506040513d601f19601f820116820180604052508101906116ce919061239f565b806117ab5750806001600160a01b03166391d14854826001600160a01b031663b536818a6040518163ffffffff1660e01b8152600401602060405180830381865afa158015611721573d6000803e3d6000fd5b505050506040513d601f19601f8201168201806040525081019061174591906123de565b6040516001600160e01b031960e084901b1681526004810191909152336024820152604401602060405180830381865afa158015611787573d6000803e3d6000fd5b505050506040513d601f19601f820116820180604052508101906117ab919061239f565b6117c75760405162461bcd60e51b8152600401610368906123f7565b6001600160a01b038216600081815260a060209081526040808320805460ff19169055519182527f5442a42f9e7d49615f11c8e5ac1ecb959a604cf0346c9e7142940817a3de4bcb910161157b565b6002606554036118685760405162461bcd60e51b815260206004820152601f60248201527f5265656e7472616e637947756172643a207265656e7472616e742063616c6c006044820152606401610368565b6002606555565b60335460ff1615610ac35760405162461bcd60e51b815260206004820152601060248201526f14185d5cd8589b194e881c185d5cd95960821b6044820152606401610368565b8015611ab857609954609a54604051633e2f890b60e21b8152600481019190915233602482015282916001600160a01b03169063f8be242c90604401602060405180830381865afa15801561190e573d6000803e3d6000fd5b505050506040513d601f19601f8201168201806040525081019061193291906123de565b101561199e5760405162461bcd60e51b815260206004820152603560248201527f436f6c6c61746572616c546f6b656e416461707465722f696e73756666696369604482015274195b9d0818dbdb1b185d195c985b08185b5bdd5b9d605a1b6064820152608401610368565b609954609a546001600160a01b039091169063d295927a90336119c0856124a2565b6040516001600160e01b031960e086901b16815260048101939093526001600160a01b0390911660248301526044820152606401600060405180830381600087803b158015611a0e57600080fd5b505af1158015611a22573d6000803e3d6000fd5b5050505080609e6000828254611a389190612489565b9091555050609b54604051632e1a7d4d60e01b8152600481018390526001600160a01b0390911690632e1a7d4d90602401600060405180830381600087803b158015611a8357600080fd5b505af1158015611a97573d6000803e3d6000fd5b5050609854611ab8925061010090046001600160a01b031690508383611d04565b6040518181527f879a83fc17750905b8aef4ef85e6701b84a50e15d4463dc3c2e7fb0f9dbcf75d9060200160405180910390a15050565b6001606555565b611afe611f05565b6033805460ff191690557f5db9ee0a495bf2e6ff9c91a7834c1ba4fdd244a5e8aa4e537bd38aeae4b073aa335b6040516001600160a01b03909116815260200160405180910390a1565b609754600114611b9a5760405162461bcd60e51b815260206004820152601f60248201527f436f6c6c61746572616c546f6b656e416461707465722f6e6f742d6c697665006044820152606401610368565b821561038557609854611bbd9061010090046001600160a01b0316333086611f4e565b609954609a5460405163694ac93d60e11b815260048101919091526001600160a01b038681166024830152604482018690529091169063d295927a90606401600060405180830381600087803b158015611c1657600080fd5b505af1158015611c2a573d6000803e3d6000fd5b5050505082609e6000828254611c4091906124be565b9091555050609b54609854611c67916001600160a01b0361010090920482169116856120cc565b609b5460405163b6b55f2560e01b8152600481018590526001600160a01b039091169063b6b55f2590602401600060405180830381600087803b158015611cad57600080fd5b505af1158015611cc1573d6000803e3d6000fd5b505050507ff641ad64267ca71156d13749ad746155df3095d9afeb604fe3b53016ce5fc8ba83604051611cf691815260200190565b60405180910390a150505050565b6001600160a01b0383163b611d665760405162461bcd60e51b815260206004820152602260248201527f736166655472616e736665723a206e6f6e2d636f6e7472616374206164647265604482015261737360f01b6064820152608401610368565b604080516001600160a01b038481166024830152604480830185905283518084039091018152606490920183526020820180516001600160e01b031663a9059cbb60e01b1790529151600092839290871691611dc291906124d1565b6000604051808303816000865af19150503d8060008114611dff576040519150601f19603f3d011682016040523d82523d6000602084013e611e04565b606091505b5091509150818015611e2e575080511580611e2e575080806020019051810190611e2e919061239f565b6112765760405162461bcd60e51b815260206004820152600d60248201526c10b9b0b332aa3930b739b332b960991b6044820152606401610368565b611e7261186f565b6033805460ff191660011790557f62e78cea01bee320cd4e420270b5ea74000d11b0c9f74754ebdbfc544b05a258611b2b3390565b600054610100900460ff16611ece5760405162461bcd60e51b815260040161036890612500565b610ac3612230565b600054610100900460ff16611efd5760405162461bcd60e51b815260040161036890612500565b610ac3612263565b60335460ff16610ac35760405162461bcd60e51b815260206004820152601460248201527314185d5cd8589b194e881b9bdd081c185d5cd95960621b6044820152606401610368565b6001600160a01b0384163b611fb45760405162461bcd60e51b815260206004820152602660248201527f736166655472616e7366657246726f6d3a206e6f6e2d636f6e7472616374206160448201526564647265737360d01b6064820152608401610368565b604080516001600160a01b0385811660248301528481166044830152606480830185905283518084039091018152608490920183526020820180516001600160e01b03166323b872dd60e01b179052915160009283929088169161201891906124d1565b6000604051808303816000865af19150503d8060008114612055576040519150601f19603f3d011682016040523d82523d6000602084013e61205a565b606091505b5091509150818015612084575080511580612084575080806020019051810190612084919061239f565b6120c45760405162461bcd60e51b815260206004820152601160248201527021736166655472616e7366657246726f6d60781b6044820152606401610368565b505050505050565b6001600160a01b0383163b61212d5760405162461bcd60e51b815260206004820152602160248201527f73616665417070726f76653a206e6f6e2d636f6e7472616374206164647265736044820152607360f81b6064820152608401610368565b604080516001600160a01b038481166024830152604480830185905283518084039091018152606490920183526020820180516001600160e01b031663095ea7b360e01b179052915160009283929087169161218991906124d1565b6000604051808303816000865af19150503d80600081146121c6576040519150601f19603f3d011682016040523d82523d6000602084013e6121cb565b606091505b50915091508180156121f55750805115806121f55750808060200190518101906121f5919061239f565b6112765760405162461bcd60e51b815260206004820152600c60248201526b2173616665417070726f766560a01b6044820152606401610368565b600054610100900460ff166122575760405162461bcd60e51b815260040161036890612500565b6033805460ff19169055565b600054610100900460ff16611aef5760405162461bcd60e51b815260040161036890612500565b6001600160a01b03811681146105d357600080fd5b600080600080606085870312156122b557600080fd5b84356122c08161228a565b935060208501359250604085013567ffffffffffffffff808211156122e457600080fd5b818701915087601f8301126122f857600080fd5b81358181111561230757600080fd5b88602082850101111561231957600080fd5b95989497505060200194505050565b60006020828403121561233a57600080fd5b81356123458161228a565b9392505050565b6000806000806080858703121561236257600080fd5b843561236d8161228a565b93506020850135925060408501356123848161228a565b915060608501356123948161228a565b939692955090935050565b6000602082840312156123b157600080fd5b8151801515811461234557600080fd5b6000602082840312156123d357600080fd5b81516123458161228a565b6000602082840312156123f057600080fd5b5051919050565b60208082526017908201527f21286f776e6572526f6c65206f7220676f76526f6c6529000000000000000000604082015260600190565b60208082526025908201527f436f6c6c61746572616c546f6b656e416461707465722f6e6f742d617574686f6040820152641c9a5e995960da1b606082015260800190565b634e487b7160e01b600052601160045260246000fd5b8181038181111561249c5761249c612473565b92915050565b6000600160ff1b82016124b7576124b7612473565b5060000390565b8082018082111561249c5761249c612473565b6000825160005b818110156124f257602081860181015185830152016124d8565b506000920191825250919050565b6020808252602b908201527f496e697469616c697a61626c653a20636f6e7472616374206973206e6f74206960408201526a6e697469616c697a696e6760a81b60608201526080019056fea2646970667358221220264075f132482e316930b2ac1b1aec2f522d8a7916b1bf0f313baba7a9da3c5464736f6c63430008110033",
    "immutableReferences": {},
    "source": "// NOTE: audit score\n\n// SPDX-License-Identifier: AGPL-3.0-or-later\npragma solidity 0.8.17;\n\nimport \"@openzeppelin/contracts-upgradeable/security/PausableUpgradeable.sol\";\nimport \"@openzeppelin/contracts-upgradeable/security/ReentrancyGuardUpgradeable.sol\";\n\nimport \"../../../interfaces/IBookKeeper.sol\";\nimport \"../../../interfaces/ICollateralAdapter.sol\";\nimport \"../../../interfaces/ICagable.sol\";\nimport \"../../../interfaces/IManager.sol\";\nimport \"../../../interfaces/IProxyRegistry.sol\";\nimport \"../../../interfaces/IVault.sol\";\nimport \"../../../utils/SafeToken.sol\";\nimport \"../../../utils/CommonMath.sol\";\n\n/// @title CollateralTokenAdapter\n/// @dev receives collateral from users and deposit in Vault.\ncontract CollateralTokenAdapter is CommonMath, ICollateralAdapter, PausableUpgradeable, ReentrancyGuardUpgradeable, ICagable {\n    using SafeToken for address;\n\n    // LOW: uint256 live -   bool?\n    uint256 public live;\n    bool internal flagVault;\n\n    address public collateralToken;\n    IBookKeeper public bookKeeper;\n    bytes32 public override collateralPoolId;\n\n    IVault public vault;\n    \n    /// @dev deprecated but needs to be kept to minimize storage layout confusion\n    bytes32 internal deprecated2;\n    IProxyRegistry public proxyWalletFactory;\n\n    /// @dev Total CollateralTokens that has been staked in WAD\n    uint256 public totalShare;\n\n    /// @dev deprecated but needs to be kept to minimize storage layout confusion\n    bytes32 internal deprecated;\n\n    mapping(address => bool) public whiteListed;\n\n    event LogDeposit(uint256 _val);\n    event LogWithdraw(uint256 _val);\n    event LogWhitelisted(address indexed user, bool isWhitelisted);\n    event LogEmergencyWithdraw(address indexed _caller, address _to);\n\n    modifier onlyOwner() {\n        IAccessControlConfig _accessControlConfig = IAccessControlConfig(bookKeeper.accessControlConfig());\n        require(_accessControlConfig.hasRole(_accessControlConfig.OWNER_ROLE(), msg.sender), \"CollateralTokenAdapter/not-authorized\");\n        _;\n    }\n\n    modifier onlyProxyWalletOrWhiteListed() {\n        require(IProxyRegistry(proxyWalletFactory).isProxy(msg.sender) || whiteListed[msg.sender], \"!ProxyOrWhiteList\");\n        _;\n    }\n\n    modifier onlyOwnerOrGov() {\n        IAccessControlConfig _accessControlConfig = IAccessControlConfig(bookKeeper.accessControlConfig());\n        require(\n            _accessControlConfig.hasRole(_accessControlConfig.OWNER_ROLE(), msg.sender) ||\n                _accessControlConfig.hasRole(_accessControlConfig.GOV_ROLE(), msg.sender),\n            \"!(ownerRole or govRole)\"\n        );\n        _;\n    }\n\n    // LOW:  \n    modifier onlyCollateralManager() {\n        IAccessControlConfig _accessControlConfig = IAccessControlConfig(bookKeeper.accessControlConfig());\n        require(_accessControlConfig.hasRole(_accessControlConfig.COLLATERAL_MANAGER_ROLE(), msg.sender), \"!collateralManager\");\n        _;\n    }\n\n    function initialize(\n        address _bookKeeper,\n        bytes32 _collateralPoolId,\n        address _collateralToken,\n        address _proxyWalletFactory\n    ) external initializer {\n        // 1. Initialized all dependencies\n        PausableUpgradeable.__Pausable_init();\n        ReentrancyGuardUpgradeable.__ReentrancyGuard_init();\n\n        require(_bookKeeper != address(0), \"CollateralTokenAdapter/zero-book-keeper\");\n        require(_collateralPoolId != bytes32(0), \"CollateralTokenAdapter/zero-collateral-pool-id\");\n        require(_collateralToken != address(0), \"CollateralTokenAdapter/zero-collateral-token\");\n        require(_proxyWalletFactory != address(0), \"CollateralTokenAdapter/zero-proxy-wallet-factory\");\n\n        live = 1;\n\n        collateralPoolId = _collateralPoolId;\n        collateralToken = _collateralToken;\n        bookKeeper = IBookKeeper(_bookKeeper);\n        proxyWalletFactory = IProxyRegistry(_proxyWalletFactory);\n    }\n    /// @notice Adds an address to the whitelist, allowing it to interact with the contract\n    /// @dev Only the contract owner or a governance address can execute this function. The provided address cannot be the zero address.\n    /// @param toBeWhitelisted The address to be added to the whitelist\n    function whitelist(address toBeWhitelisted) external onlyOwnerOrGov {\n        require(toBeWhitelisted != address(0), \"CollateralTokenAdapter/whitelist-invalidAdds\");\n        whiteListed[toBeWhitelisted] = true;\n        emit LogWhitelisted(toBeWhitelisted, true);\n    }\n    /// @notice Removes an address from the whitelist\n    /// @dev Only the contract owner or a governance address can execute this function.\n    /// @param toBeRemoved The address to be removed from the whitelist\n    function blacklist(address toBeRemoved) external onlyOwnerOrGov {\n        whiteListed[toBeRemoved] = false;\n        emit LogWhitelisted(toBeRemoved, false);\n    }\n\n    function cage() external override nonReentrant onlyOwner {\n        if (live == 1) {\n            live = 0;\n            emit LogCage();\n        }\n    }\n    /// @dev access: OWNER_ROLE, GOV_ROLE\n    function pause() external onlyOwnerOrGov {\n        _pause();\n    }\n    /// @dev access: OWNER_ROLE, GOV_ROLE\n    function unpause() external onlyOwnerOrGov {\n        _unpause();\n    }\n\n    function setVault(address _vault) external onlyOwner {\n        require(true != flagVault, \"CollateralTokenAdapter/Vault-set-already\");\n        require(_vault != address(0), \"CollateralTokenAdapter/zero-vault\");\n\n        flagVault = true;\n        vault = IVault(_vault);\n    }\n\n    /// @param _positionAddress The address that holding states of the position\n    /// @param _amount The collateral token amount that being used as a collateral and to be staked to AnkrStakingPool\n    /// @param _data The extra data that may needs to execute the deposit\n    function deposit(\n        address _positionAddress,\n        uint256 _amount,\n        bytes calldata _data\n    ) external override nonReentrant whenNotPaused onlyProxyWalletOrWhiteListed {\n        _deposit(_positionAddress, _amount, _data);\n    }\n\n    /// @dev Withdraw collateralToken from Vault\n    /// @param _usr The address that holding states of the position\n    /// @param _amount The collateralToken amount in Vault to be returned to proxyWallet and then to user\n    function withdraw(\n        address _usr,\n        uint256 _amount,\n        bytes calldata /* _data */\n    ) external override nonReentrant whenNotPaused onlyProxyWalletOrWhiteListed {\n        _withdraw(_usr, _amount);\n    }\n\n    /// @notice Withdraws the collateral from the Vault as the last step for emergency shutdown\n    /// @dev for excessCollateral withdraw flow of emergency shutdown, please call this fn via proxyWallet\n    /// @dev for flow that deposits FXD and then withdraw collateral, please call this fn from EOA.\n    /// @dev EMERGENCY WHEN COLLATERAL TOKEN ADAPTER CAGED ONLY. Withdraw COLLATERAL from VAULT A after redeemStablecoin\n    function emergencyWithdraw(address _to) external nonReentrant {\n        // LOW: _to    \n        if (live == 0) {\n            uint256 _amount = bookKeeper.collateralToken(collateralPoolId, msg.sender);\n            require(_amount < 2 ** 255, \"CollateralTokenAdapter/collateral-overflow\");\n            //deduct totalShare\n            totalShare -= _amount;\n\n            //deduct emergency withdrawl amount of FXD\n            bookKeeper.addCollateral(collateralPoolId, msg.sender, -int256(_amount));\n            //withdraw collateralToken from Vault\n            vault.withdraw(_amount);\n            //Transfer collateralToken to msg.sender\n            // LOW:     /     \n            address(collateralToken).safeTransfer(_to, _amount);\n            emit LogEmergencyWithdraw(msg.sender, _to);\n        }\n    }\n\n    /// @dev Lock collateral token in the vault\n    /// deposit collateral tokens to staking contract, and update BookKeeper\n    /// @param _positionAddress The position address to be updated\n    /// @param _amount The amount to be deposited\n    function _deposit(address _positionAddress, uint256 _amount, bytes calldata /* _data */) private {\n        require(live == 1, \"CollateralTokenAdapter/not-live\");\n\n        // NOTE: _positionAddress    (  / EOA / contract)\n\n        if (_amount > 0) {\n            // Overflow check for int256(wad) cast below\n            // Also enforces a non-zero wad\n            //transfer collateralToken from proxyWallet to adapter\n            // LOW:     /   fee  /     \n            address(collateralToken).safeTransferFrom(msg.sender, address(this), _amount);\n            //bookKeeping\n            bookKeeper.addCollateral(collateralPoolId, _positionAddress, int256(_amount));\n            totalShare += _amount;\n\n            // safeApprove to Vault\n            address(collateralToken).safeApprove(address(vault), _amount);\n            //deposit collateralToken to Vault\n            // NOTE:         \n            vault.deposit(_amount);\n            emit LogDeposit(_amount); // collateralToken\n        }\n    }\n\n    /// @dev withdraw collateral tokens from staking contract, and update BookKeeper\n    /// @param _usr The position address to be updated\n    /// @param _amount The amount to be withdrawn\n    function _withdraw(address _usr, uint256 _amount) private {\n        // LOW: _usr    \n\n        // LOW: ()  ? -- require(live == 1, \"CollateralTokenAdapter/not-live\");\n\n        // LOW:  deposit   ,   withdraw msg.sender --   ,   deposit   \n        // LOW:     _usr --  ?    ,   ,    \n        if (_amount > 0) {\n            require(bookKeeper.collateralToken(collateralPoolId, msg.sender) >= _amount, \"CollateralTokenAdapter/insufficient collateral amount\");\n            // LOW: addCollateral      removeCollateral\n            bookKeeper.addCollateral(collateralPoolId, msg.sender, -int256(_amount));\n            totalShare -= _amount;\n\n            //withdraw collateralToken from Vault\n            // NOTE:         \n            vault.withdraw(_amount);\n            //Transfer collateralToken to proxyWallet\n            // LOW:     /   fee  /     \n            address(collateralToken).safeTransfer(_usr, _amount);\n        }\n        // LOW:    if? --    \n        emit LogWithdraw(_amount);\n    }\n}\n",
    "sourcePath": "/Users/aleksey/SolidityProjects2/fathom-stablecoin-smart-contracts/contracts/main/stablecoin-core/adapters/CollateralTokenAdapter/CollateralTokenAdapter.sol",
    "compiler": {
        "name": "solc",
        "version": "0.8.17+commit.8df45f5f.Emscripten.clang"
    },
    "schemaVersion": "3.4.15",
    "updatedAt": "2023-08-10T12:55:05.737Z",
    "devdoc": {
        "details": "receives collateral from users and deposit in Vault.",
        "kind": "dev",
        "methods": {
            "blacklist(address)": {
                "details": "Only the contract owner or a governance address can execute this function.",
                "params": {
                    "toBeRemoved": "The address to be removed from the whitelist"
                }
            },
            "deposit(address,uint256,bytes)": {
                "params": {
                    "_amount": "The collateral token amount that being used as a collateral and to be staked to AnkrStakingPool",
                    "_data": "The extra data that may needs to execute the deposit",
                    "_positionAddress": "The address that holding states of the position"
                }
            },
            "emergencyWithdraw(address)": {
                "details": "for excessCollateral withdraw flow of emergency shutdown, please call this fn via proxyWalletfor flow that deposits FXD and then withdraw collateral, please call this fn from EOA.EMERGENCY WHEN COLLATERAL TOKEN ADAPTER CAGED ONLY. Withdraw COLLATERAL from VAULT A after redeemStablecoin"
            },
            "pause()": {
                "details": "access: OWNER_ROLE, GOV_ROLE"
            },
            "paused()": {
                "details": "Returns true if the contract is paused, and false otherwise."
            },
            "unpause()": {
                "details": "access: OWNER_ROLE, GOV_ROLE"
            },
            "whitelist(address)": {
                "details": "Only the contract owner or a governance address can execute this function. The provided address cannot be the zero address.",
                "params": {
                    "toBeWhitelisted": "The address to be added to the whitelist"
                }
            },
            "withdraw(address,uint256,bytes)": {
                "details": "Withdraw collateralToken from Vault",
                "params": {
                    "_amount": "The collateralToken amount in Vault to be returned to proxyWallet and then to user",
                    "_usr": "The address that holding states of the position"
                }
            }
        },
        "stateVariables": {
            "deprecated": {
                "details": "deprecated but needs to be kept to minimize storage layout confusion"
            },
            "deprecated2": {
                "details": "deprecated but needs to be kept to minimize storage layout confusion"
            },
            "totalShare": {
                "details": "Total CollateralTokens that has been staked in WAD"
            }
        },
        "title": "CollateralTokenAdapter",
        "version": 1
    },
    "userdoc": {
        "kind": "user",
        "methods": {
            "blacklist(address)": {
                "notice": "Removes an address from the whitelist"
            },
            "emergencyWithdraw(address)": {
                "notice": "Withdraws the collateral from the Vault as the last step for emergency shutdown"
            },
            "whitelist(address)": {
                "notice": "Adds an address to the whitelist, allowing it to interact with the contract"
            }
        },
        "version": 1
    }
}