{
    "contractName": "DelayFathomOraclePriceFeed",
    "abi": [
        {
            "anonymous": false,
            "inputs": [
                {
                    "indexed": false,
                    "internalType": "uint8",
                    "name": "version",
                    "type": "uint8"
                }
            ],
            "name": "Initialized",
            "type": "event"
        },
        {
            "anonymous": false,
            "inputs": [
                {
                    "indexed": true,
                    "internalType": "address",
                    "name": "_caller",
                    "type": "address"
                },
                {
                    "indexed": false,
                    "internalType": "string",
                    "name": "_reason",
                    "type": "string"
                }
            ],
            "name": "LogPeekPriceFailed",
            "type": "event"
        },
        {
            "anonymous": false,
            "inputs": [
                {
                    "indexed": true,
                    "internalType": "address",
                    "name": "fathomOracle",
                    "type": "address"
                }
            ],
            "name": "LogSetFathomOracle",
            "type": "event"
        },
        {
            "anonymous": false,
            "inputs": [
                {
                    "indexed": true,
                    "internalType": "address",
                    "name": "_caller",
                    "type": "address"
                },
                {
                    "indexed": false,
                    "internalType": "uint256",
                    "name": "_second",
                    "type": "uint256"
                }
            ],
            "name": "LogSetPriceLife",
            "type": "event"
        },
        {
            "anonymous": false,
            "inputs": [
                {
                    "indexed": true,
                    "internalType": "address",
                    "name": "_caller",
                    "type": "address"
                },
                {
                    "indexed": false,
                    "internalType": "uint256",
                    "name": "_second",
                    "type": "uint256"
                }
            ],
            "name": "LogSetTimeDelay",
            "type": "event"
        },
        {
            "anonymous": false,
            "inputs": [
                {
                    "indexed": true,
                    "internalType": "address",
                    "name": "token",
                    "type": "address"
                }
            ],
            "name": "LogSetToken0",
            "type": "event"
        },
        {
            "anonymous": false,
            "inputs": [
                {
                    "indexed": true,
                    "internalType": "address",
                    "name": "token",
                    "type": "address"
                }
            ],
            "name": "LogSetToken1",
            "type": "event"
        },
        {
            "anonymous": false,
            "inputs": [
                {
                    "indexed": false,
                    "internalType": "address",
                    "name": "account",
                    "type": "address"
                }
            ],
            "name": "Paused",
            "type": "event"
        },
        {
            "anonymous": false,
            "inputs": [
                {
                    "indexed": false,
                    "internalType": "address",
                    "name": "account",
                    "type": "address"
                }
            ],
            "name": "Unpaused",
            "type": "event"
        },
        {
            "inputs": [],
            "name": "accessControlConfig",
            "outputs": [
                {
                    "internalType": "contract IAccessControlConfig",
                    "name": "",
                    "type": "address"
                }
            ],
            "stateMutability": "view",
            "type": "function"
        },
        {
            "inputs": [],
            "name": "delayedPrice",
            "outputs": [
                {
                    "internalType": "uint256",
                    "name": "price",
                    "type": "uint256"
                },
                {
                    "internalType": "uint256",
                    "name": "lastUpdate",
                    "type": "uint256"
                }
            ],
            "stateMutability": "view",
            "type": "function"
        },
        {
            "inputs": [],
            "name": "fathomOracle",
            "outputs": [
                {
                    "internalType": "contract IFathomOracle",
                    "name": "",
                    "type": "address"
                }
            ],
            "stateMutability": "view",
            "type": "function"
        },
        {
            "inputs": [],
            "name": "isPriceFresh",
            "outputs": [
                {
                    "internalType": "bool",
                    "name": "",
                    "type": "bool"
                }
            ],
            "stateMutability": "view",
            "type": "function"
        },
        {
            "inputs": [],
            "name": "isPriceOk",
            "outputs": [
                {
                    "internalType": "bool",
                    "name": "",
                    "type": "bool"
                }
            ],
            "stateMutability": "view",
            "type": "function"
        },
        {
            "inputs": [],
            "name": "lastUpdateTS",
            "outputs": [
                {
                    "internalType": "uint256",
                    "name": "",
                    "type": "uint256"
                }
            ],
            "stateMutability": "view",
            "type": "function"
        },
        {
            "inputs": [],
            "name": "latestPrice",
            "outputs": [
                {
                    "internalType": "uint256",
                    "name": "price",
                    "type": "uint256"
                },
                {
                    "internalType": "uint256",
                    "name": "lastUpdate",
                    "type": "uint256"
                }
            ],
            "stateMutability": "view",
            "type": "function"
        },
        {
            "inputs": [],
            "name": "nextPrice",
            "outputs": [
                {
                    "internalType": "uint256",
                    "name": "",
                    "type": "uint256"
                }
            ],
            "stateMutability": "view",
            "type": "function"
        },
        {
            "inputs": [],
            "name": "pause",
            "outputs": [],
            "stateMutability": "nonpayable",
            "type": "function"
        },
        {
            "inputs": [],
            "name": "paused",
            "outputs": [
                {
                    "internalType": "bool",
                    "name": "",
                    "type": "bool"
                }
            ],
            "stateMutability": "view",
            "type": "function"
        },
        {
            "inputs": [],
            "name": "peekPrice",
            "outputs": [
                {
                    "internalType": "uint256",
                    "name": "",
                    "type": "uint256"
                },
                {
                    "internalType": "bool",
                    "name": "",
                    "type": "bool"
                }
            ],
            "stateMutability": "nonpayable",
            "type": "function"
        },
        {
            "inputs": [],
            "name": "poolId",
            "outputs": [
                {
                    "internalType": "bytes32",
                    "name": "",
                    "type": "bytes32"
                }
            ],
            "stateMutability": "view",
            "type": "function"
        },
        {
            "inputs": [],
            "name": "priceLife",
            "outputs": [
                {
                    "internalType": "uint256",
                    "name": "",
                    "type": "uint256"
                }
            ],
            "stateMutability": "view",
            "type": "function"
        },
        {
            "inputs": [],
            "name": "readPrice",
            "outputs": [
                {
                    "internalType": "uint256",
                    "name": "",
                    "type": "uint256"
                }
            ],
            "stateMutability": "view",
            "type": "function"
        },
        {
            "inputs": [
                {
                    "internalType": "address",
                    "name": "_accessControlConfig",
                    "type": "address"
                }
            ],
            "name": "setAccessControlConfig",
            "outputs": [],
            "stateMutability": "nonpayable",
            "type": "function"
        },
        {
            "inputs": [
                {
                    "internalType": "bytes32",
                    "name": "_poolId",
                    "type": "bytes32"
                }
            ],
            "name": "setPoolId",
            "outputs": [],
            "stateMutability": "nonpayable",
            "type": "function"
        },
        {
            "inputs": [
                {
                    "internalType": "uint256",
                    "name": "_second",
                    "type": "uint256"
                }
            ],
            "name": "setPriceLife",
            "outputs": [],
            "stateMutability": "nonpayable",
            "type": "function"
        },
        {
            "inputs": [
                {
                    "internalType": "uint256",
                    "name": "_second",
                    "type": "uint256"
                }
            ],
            "name": "setTimeDelay",
            "outputs": [],
            "stateMutability": "nonpayable",
            "type": "function"
        },
        {
            "inputs": [],
            "name": "timeDelay",
            "outputs": [
                {
                    "internalType": "uint256",
                    "name": "",
                    "type": "uint256"
                }
            ],
            "stateMutability": "view",
            "type": "function"
        },
        {
            "inputs": [],
            "name": "token0",
            "outputs": [
                {
                    "internalType": "address",
                    "name": "",
                    "type": "address"
                }
            ],
            "stateMutability": "view",
            "type": "function"
        },
        {
            "inputs": [],
            "name": "token1",
            "outputs": [
                {
                    "internalType": "address",
                    "name": "",
                    "type": "address"
                }
            ],
            "stateMutability": "view",
            "type": "function"
        },
        {
            "inputs": [],
            "name": "unpause",
            "outputs": [],
            "stateMutability": "nonpayable",
            "type": "function"
        },
        {
            "inputs": [
                {
                    "internalType": "address",
                    "name": "_fathomOracle",
                    "type": "address"
                },
                {
                    "internalType": "address",
                    "name": "_token0",
                    "type": "address"
                },
                {
                    "internalType": "address",
                    "name": "_token1",
                    "type": "address"
                },
                {
                    "internalType": "address",
                    "name": "_accessControlConfig",
                    "type": "address"
                },
                {
                    "internalType": "bytes32",
                    "name": "_poolId",
                    "type": "bytes32"
                }
            ],
            "name": "initialize",
            "outputs": [],
            "stateMutability": "nonpayable",
            "type": "function"
        },
        {
            "inputs": [
                {
                    "internalType": "address",
                    "name": "_token",
                    "type": "address"
                }
            ],
            "name": "setToken0",
            "outputs": [],
            "stateMutability": "nonpayable",
            "type": "function"
        },
        {
            "inputs": [
                {
                    "internalType": "address",
                    "name": "_token",
                    "type": "address"
                }
            ],
            "name": "setToken1",
            "outputs": [],
            "stateMutability": "nonpayable",
            "type": "function"
        },
        {
            "inputs": [
                {
                    "internalType": "address",
                    "name": "_oracle",
                    "type": "address"
                }
            ],
            "name": "setOracle",
            "outputs": [],
            "stateMutability": "nonpayable",
            "type": "function"
        },
        {
            "inputs": [],
            "name": "retrivePrice",
            "outputs": [
                {
                    "components": [
                        {
                            "internalType": "uint256",
                            "name": "price",
                            "type": "uint256"
                        },
                        {
                            "internalType": "uint256",
                            "name": "lastUpdate",
                            "type": "uint256"
                        }
                    ],
                    "internalType": "struct IDelayPriceFeed.PriceInfo",
                    "name": "",
                    "type": "tuple"
                }
            ],
            "stateMutability": "view",
            "type": "function"
        }
    ],
    "bytecode": "0x608060405234801561001057600080fd5b50612064806100206000396000f3fe608060405234801561001057600080fd5b50600436106101a95760003560e01c8063688effa2116100f9578063c8cc243f11610097578063d51a786b11610071578063d51a786b1461035e578063ec50009914610371578063ef36ee4714610384578063ef9089d61461039757600080fd5b8063c8cc243f1461032f578063c9dec36114610342578063d21220a71461034b57600080fd5b80638456cb59116100d35780638456cb59146102f3578063a3e6ba94146102fb578063b79ea88414610309578063c6e426bd1461031c57600080fd5b8063688effa2146102b55780637adbf973146102d85780637e91400f146102eb57600080fd5b806339af6ba9116101665780634779db56116101405780634779db56146102765780635a0e1bd91461027e5780635af639c3146102a15780635c975abb146102aa57600080fd5b806339af6ba9146102525780633e0dc34e146102655780633f4ba83a1461026e57600080fd5b80630184a92a146101ae5780630831bf42146101cb5780630dfe1681146101f6578063140d272014610209578063297a3e57146102265780632d68e3b41461023b575b600080fd5b6101b661039f565b60405190151581526020015b60405180910390f35b6070546101de906001600160a01b031681565b6040516001600160a01b0390911681526020016101c2565b606e546101de906001600160a01b031681565b610211610417565b604080519283529015156020830152016101c2565b610239610234366004611c46565b6106cd565b005b61024460695481565b6040519081526020016101c2565b610239610260366004611ca2565b610916565b610244606c5481565b610239610b2c565b6101b6610d9f565b610286610db9565b604080518251815260209283015192810192909252016101c2565b610244606b5481565b60335460ff166101b6565b6065546066546102c3919082565b604080519283526020830191909152016101c2565b6102396102e6366004611cbb565b610e64565b606554610244565b610239611081565b6067546068546102c3919082565b610239610317366004611cbb565b61128f565b61023961032a366004611cbb565b611424565b606d546101de906001600160a01b031681565b610244606a5481565b606f546101de906001600160a01b031681565b61023961036c366004611ca2565b6115b9565b61023961037f366004611cbb565b6116b6565b610239610392366004611ca2565b6118fe565b606754610244565b6000306001600160a01b0316634779db566040518163ffffffff1660e01b8152600401602060405180830381865afa1580156103df573d6000803e3d6000fd5b505050506040513d601f19601f820116820180604052508101906104039190611ced565b8015610412575060335460ff16155b905090565b600080606a5460695461042a9190611d1e565b421015806104975750306001600160a01b0316634779db566040518163ffffffff1660e01b8152600401602060405180830381865afa158015610471573d6000803e3d6000fd5b505050506040513d601f19601f820116820180604052508101906104959190611ced565b155b1561065d57306001600160a01b0316635a0e1bd96040518163ffffffff1660e01b81526004016040805180830381865afa9250505080156104f5575060408051601f3d908101601f191682019092526104f291810190611d72565b60015b61057357610501611dcf565b806308c379a0036105675750610515611deb565b806105205750610569565b336001600160a01b03167f1dad06f9b840665ab0cfae3caef238945679f3e2123bdcc11b1612a94c22d470826040516105599190611e75565b60405180910390a25061065d565b505b3d6000803e3d6000fd5b80516105c65760405162461bcd60e51b815260206004820152601a60248201527f44656c61795072696365466565642f77726f6e672d707269636500000000000060448201526064015b60405180910390fd5b428160200151111561061a5760405162461bcd60e51b815260206004820152601f60248201527f44656c61795072696365466565642f77726f6e672d6c6173745570646174650060448201526064016105bd565b6065541561063e576040805180820190915260675481526068546020820152610640565b805b805160655560209081015160665581516067550151606855426069555b606560000154306001600160a01b0316630184a92a6040518163ffffffff1660e01b8152600401602060405180830381865afa1580156106a1573d6000803e3d6000fd5b505050506040513d601f19601f820116820180604052508101906106c59190611ced565b915091509091565b600054610100900460ff16158080156106ed5750600054600160ff909116105b806107075750303b158015610707575060005460ff166001145b61076a5760405162461bcd60e51b815260206004820152602e60248201527f496e697469616c697a61626c653a20636f6e747261637420697320616c72656160448201526d191e481a5b9a5d1a585b1a5e995960921b60648201526084016105bd565b6000805460ff19166001179055801561078d576000805461ff0019166101001790555b6001600160a01b0383166107fa5760405162461bcd60e51b815260206004820152602e60248201527f44656c6179466174686f6d4f7261636c655072696365466565642f7a65726f2d60448201526d1858d8d95cdccb58dbdb9d1c9bdb60921b60648201526084016105bd565b606d80546001600160a01b038086166001600160a01b0319928316179092556070805489841692169190911790558481169086160361084b5760405162461bcd60e51b81526004016105bd90611ec3565b6001600160a01b0385161580159061086b57506001600160a01b03841615155b6108875760405162461bcd60e51b81526004016105bd90611f10565b606e80546001600160a01b038088166001600160a01b031992831617909255606f805492871692909116919091179055610708606b55610384606a55606c829055801561090e576000805461ff0019169055604051600181527f7f26b83ff96e1f2b6a682f133852f6798a09c465da95921460cefb38474024989060200160405180910390a15b505050505050565b606d546040805163e58378bb60e01b815290516001600160a01b03909216916391d1485491839163e58378bb916004808201926020929091908290030181865afa158015610968573d6000803e3d6000fd5b505050506040513d601f19601f8201168201806040525081019061098c9190611f55565b6040516001600160e01b031960e084901b1681526004810191909152336024820152604401602060405180830381865afa1580156109ce573d6000803e3d6000fd5b505050506040513d601f19601f820116820180604052508101906109f29190611ced565b610a0e5760405162461bcd60e51b81526004016105bd90611f6e565b6002606b54610a1d9190611f92565b8111158015610a2e575061012c8110155b8015610a3d5750620151808111155b610a895760405162461bcd60e51b815260206004820152601d60248201527f44656c61795072696365466565642f6261642d64656c61792d74696d6500000060448201526064016105bd565b306001600160a01b031663140d27206040518163ffffffff1660e01b815260040160408051808303816000875af1158015610ac8573d6000803e3d6000fd5b505050506040513d601f19601f82011682018060405250810190610aec9190611fb4565b5050606a81905560405181815233907f8c7220e16b36c16980047cfd2faf359f5a489e40edbb55fc4818907c9dde734a906020015b60405180910390a250565b606d546040805163e58378bb60e01b815290516001600160a01b03909216916391d1485491839163e58378bb916004808201926020929091908290030181865afa158015610b7e573d6000803e3d6000fd5b505050506040513d601f19601f82011682018060405250810190610ba29190611f55565b6040516001600160e01b031960e084901b1681526004810191909152336024820152604401602060405180830381865afa158015610be4573d6000803e3d6000fd5b505050506040513d601f19601f82011682018060405250810190610c089190611ced565b80610cea5750606d5460408051635a9b40c560e11b815290516001600160a01b03909216916391d1485491839163b536818a916004808201926020929091908290030181865afa158015610c60573d6000803e3d6000fd5b505050506040513d601f19601f82011682018060405250810190610c849190611f55565b6040516001600160e01b031960e084901b1681526004810191909152336024820152604401602060405180830381865afa158015610cc6573d6000803e3d6000fd5b505050506040513d601f19601f82011682018060405250810190610cea9190611ced565b610d305760405162461bcd60e51b815260206004820152601760248201527621286f776e6572526f6c65206f7220676f76526f6c652960481b60448201526064016105bd565b610d38611b0c565b306001600160a01b031663140d27206040518163ffffffff1660e01b815260040160408051808303816000875af1158015610d77573d6000803e3d6000fd5b505050506040513d601f19601f82011682018060405250810190610d9b9190611fb4565b5050565b6000606b5442610daf9190611fe0565b6066541015919050565b6040805180820190915260008082526020820152607054606e54606f54604051635620c32d60e11b81526001600160a01b03928316600482015290821660248201526000928392169063ac41865a906044016040805180830381865afa158015610e27573d6000803e3d6000fd5b505050506040513d601f19601f82011682018060405250810190610e4b9190611ff3565b6040805180820190915291825260208201529392505050565b606d546040805163e58378bb60e01b815290516001600160a01b03909216916391d1485491839163e58378bb916004808201926020929091908290030181865afa158015610eb6573d6000803e3d6000fd5b505050506040513d601f19601f82011682018060405250810190610eda9190611f55565b6040516001600160e01b031960e084901b1681526004810191909152336024820152604401602060405180830381865afa158015610f1c573d6000803e3d6000fd5b505050506040513d601f19601f82011682018060405250810190610f409190611ced565b610f5c5760405162461bcd60e51b81526004016105bd90611f6e565b6001600160a01b038116610fd05760405162461bcd60e51b815260206004820152603560248201527f44656c6179466174686f6d4f7261636c655072696365466565642f7a65726f2d6044820152746163636573732d636f6e74726f6c2d636f6e66696760581b60648201526084016105bd565b607080546001600160a01b0319166001600160a01b0383161790556040805162a0693960e51b81528151309263140d2720926004808201939182900301816000875af1158015611024573d6000803e3d6000fd5b505050506040513d601f19601f820116820180604052508101906110489190611fb4565b50506040516001600160a01b038216907f6cfebc60769cf818821602e6aedb8d592fa4f8936efecd2887932a8dd647973890600090a250565b606d546040805163e58378bb60e01b815290516001600160a01b03909216916391d1485491839163e58378bb916004808201926020929091908290030181865afa1580156110d3573d6000803e3d6000fd5b505050506040513d601f19601f820116820180604052508101906110f79190611f55565b6040516001600160e01b031960e084901b1681526004810191909152336024820152604401602060405180830381865afa158015611139573d6000803e3d6000fd5b505050506040513d601f19601f8201168201806040525081019061115d9190611ced565b8061123f5750606d5460408051635a9b40c560e11b815290516001600160a01b03909216916391d1485491839163b536818a916004808201926020929091908290030181865afa1580156111b5573d6000803e3d6000fd5b505050506040513d601f19601f820116820180604052508101906111d99190611f55565b6040516001600160e01b031960e084901b1681526004810191909152336024820152604401602060405180830381865afa15801561121b573d6000803e3d6000fd5b505050506040513d601f19601f8201168201806040525081019061123f9190611ced565b6112855760405162461bcd60e51b815260206004820152601760248201527621286f776e6572526f6c65206f7220676f76526f6c652960481b60448201526064016105bd565b61128d611b5e565b565b606d546040805163e58378bb60e01b815290516001600160a01b03909216916391d1485491839163e58378bb916004808201926020929091908290030181865afa1580156112e1573d6000803e3d6000fd5b505050506040513d601f19601f820116820180604052508101906113059190611f55565b6040516001600160e01b031960e084901b1681526004810191909152336024820152604401602060405180830381865afa158015611347573d6000803e3d6000fd5b505050506040513d601f19601f8201168201806040525081019061136b9190611ced565b6113875760405162461bcd60e51b81526004016105bd90611f6e565b6001600160a01b0381166113ad5760405162461bcd60e51b81526004016105bd90611f10565b606e546001600160a01b038083169116036113da5760405162461bcd60e51b81526004016105bd90611ec3565b606f80546001600160a01b0319166001600160a01b0383169081179091556040517f2efb96a6b132a5047aa1268d10f64f45a2ecb2bc3dc82e49c95422aa0097794f90600090a250565b606d546040805163e58378bb60e01b815290516001600160a01b03909216916391d1485491839163e58378bb916004808201926020929091908290030181865afa158015611476573d6000803e3d6000fd5b505050506040513d601f19601f8201168201806040525081019061149a9190611f55565b6040516001600160e01b031960e084901b1681526004810191909152336024820152604401602060405180830381865afa1580156114dc573d6000803e3d6000fd5b505050506040513d601f19601f820116820180604052508101906115009190611ced565b61151c5760405162461bcd60e51b81526004016105bd90611f6e565b6001600160a01b0381166115425760405162461bcd60e51b81526004016105bd90611f10565b606f546001600160a01b0380831691160361156f5760405162461bcd60e51b81526004016105bd90611ec3565b606e80546001600160a01b0319166001600160a01b0383169081179091556040517f57012a55efdac927e341169bdd134347f60165a6c890fb9780164078dee6cf8790600090a250565b606d546040805163e58378bb60e01b815290516001600160a01b03909216916391d1485491839163e58378bb916004808201926020929091908290030181865afa15801561160b573d6000803e3d6000fd5b505050506040513d601f19601f8201168201806040525081019061162f9190611f55565b6040516001600160e01b031960e084901b1681526004810191909152336024820152604401602060405180830381865afa158015611671573d6000803e3d6000fd5b505050506040513d601f19601f820116820180604052508101906116959190611ced565b6116b15760405162461bcd60e51b81526004016105bd90611f6e565b606c55565b606d546040805163e58378bb60e01b815290516001600160a01b03909216916391d1485491839163e58378bb916004808201926020929091908290030181865afa158015611708573d6000803e3d6000fd5b505050506040513d601f19601f8201168201806040525081019061172c9190611f55565b6040516001600160e01b031960e084901b1681526004810191909152336024820152604401602060405180830381865afa15801561176e573d6000803e3d6000fd5b505050506040513d601f19601f820116820180604052508101906117929190611ced565b6117ae5760405162461bcd60e51b81526004016105bd90611f6e565b806001600160a01b03166391d14854826001600160a01b031663e58378bb6040518163ffffffff1660e01b8152600401602060405180830381865afa1580156117fb573d6000803e3d6000fd5b505050506040513d601f19601f8201168201806040525081019061181f9190611f55565b6040516001600160e01b031960e084901b1681526004810191909152336024820152604401602060405180830381865afa158015611861573d6000803e3d6000fd5b505050506040513d601f19601f820116820180604052508101906118859190611ced565b6118dc5760405162461bcd60e51b815260206004820152602260248201527f44656c61795072696365466565642f6d736773656e6465722d6e6f742d6f776e60448201526132b960f11b60648201526084016105bd565b606d80546001600160a01b0319166001600160a01b0392909216919091179055565b606d546040805163e58378bb60e01b815290516001600160a01b03909216916391d1485491839163e58378bb916004808201926020929091908290030181865afa158015611950573d6000803e3d6000fd5b505050506040513d601f19601f820116820180604052508101906119749190611f55565b6040516001600160e01b031960e084901b1681526004810191909152336024820152604401602060405180830381865afa1580156119b6573d6000803e3d6000fd5b505050506040513d601f19601f820116820180604052508101906119da9190611ced565b6119f65760405162461bcd60e51b81526004016105bd90611f6e565b606a54611a04906002612017565b8110158015611a15575061012c8110155b8015611a245750620151808111155b611a705760405162461bcd60e51b815260206004820152601d60248201527f44656c61795072696365466565642f6261642d70726963652d6c69666500000060448201526064016105bd565b306001600160a01b031663140d27206040518163ffffffff1660e01b815260040160408051808303816000875af1158015611aaf573d6000803e3d6000fd5b505050506040513d601f19601f82011682018060405250810190611ad39190611fb4565b5050606b81905560405181815233907f472c5e14bb804bd7b201c5c27f2ea820980b37ef7611806e7b3f6db6758f32e090602001610b21565b611b14611b9b565b6033805460ff191690557f5db9ee0a495bf2e6ff9c91a7834c1ba4fdd244a5e8aa4e537bd38aeae4b073aa335b6040516001600160a01b03909116815260200160405180910390a1565b611b66611be4565b6033805460ff191660011790557f62e78cea01bee320cd4e420270b5ea74000d11b0c9f74754ebdbfc544b05a258611b413390565b60335460ff1661128d5760405162461bcd60e51b815260206004820152601460248201527314185d5cd8589b194e881b9bdd081c185d5cd95960621b60448201526064016105bd565b60335460ff161561128d5760405162461bcd60e51b815260206004820152601060248201526f14185d5cd8589b194e881c185d5cd95960821b60448201526064016105bd565b80356001600160a01b0381168114611c4157600080fd5b919050565b600080600080600060a08688031215611c5e57600080fd5b611c6786611c2a565b9450611c7560208701611c2a565b9350611c8360408701611c2a565b9250611c9160608701611c2a565b949793965091946080013592915050565b600060208284031215611cb457600080fd5b5035919050565b600060208284031215611ccd57600080fd5b611cd682611c2a565b9392505050565b80518015158114611c4157600080fd5b600060208284031215611cff57600080fd5b611cd682611cdd565b634e487b7160e01b600052601160045260246000fd5b80820180821115611d3157611d31611d08565b92915050565b601f8201601f1916810167ffffffffffffffff81118282101715611d6b57634e487b7160e01b600052604160045260246000fd5b6040525050565b600060408284031215611d8457600080fd5b6040516040810181811067ffffffffffffffff82111715611db557634e487b7160e01b600052604160045260246000fd5b604052825181526020928301519281019290925250919050565b600060033d1115611de85760046000803e5060005160e01c5b90565b600060443d1015611df95790565b6040516003193d81016004833e81513d67ffffffffffffffff8160248401118184111715611e2957505050505090565b8285019150815181811115611e415750505050505090565b843d8701016020828501011115611e5b5750505050505090565b611e6a60208286010187611d37565b509095945050505050565b600060208083528351808285015260005b81811015611ea257858101830151858201604001528201611e86565b506000604082860101526040601f19601f8301168501019250505092915050565b6020808252602d908201527f44656c6179466174686f6d4f7261636c655072696365466565642f73616d652d60408201526c746f6b656e302d746f6b656e3160981b606082015260800190565b60208082526025908201527f44656c6179466174686f6d4f7261636c655072696365466565642f7a65726f2d6040820152643a37b5b2b760d91b606082015260800190565b600060208284031215611f6757600080fd5b5051919050565b6020808252600a9082015269216f776e6572526f6c6560b01b604082015260600190565b600082611faf57634e487b7160e01b600052601260045260246000fd5b500490565b60008060408385031215611fc757600080fd5b82519150611fd760208401611cdd565b90509250929050565b81810381811115611d3157611d31611d08565b6000806040838503121561200657600080fd5b505080516020909101519092909150565b8082028115828204841417611d3157611d31611d0856fea264697066735822122080ed3bb90a1be38cff312b60fdf1832c3b6e5c170110231c9a3466935f5c149d64736f6c63430008110033",
    "immutableReferences": {},
    "source": "// SPDX-License-Identifier: AGPL-3.0-or-later\npragma solidity 0.8.17;\n\nimport \"../interfaces/IFathomOracle.sol\";\nimport \"../interfaces/IAccessControlConfig.sol\";\nimport \"./DelayPriceFeedBase.sol\";\n\ncontract DelayFathomOraclePriceFeed is DelayPriceFeedBase {\n    address public token0;\n    address public token1;\n    IFathomOracle public fathomOracle;\n\n    event LogSetToken0(address indexed token);\n    event LogSetToken1(address indexed token);\n    event LogSetFathomOracle(address indexed fathomOracle);\n\n    function initialize(address _fathomOracle, address _token0, address _token1, address _accessControlConfig, bytes32 _poolId) external initializer {\n        require(_accessControlConfig != address(0), \"DelayFathomOraclePriceFeed/zero-access-control\");\n        accessControlConfig = IAccessControlConfig(_accessControlConfig);\n\n        fathomOracle = IFathomOracle(_fathomOracle);\n        require(_token0 != _token1, \"DelayFathomOraclePriceFeed/same-token0-token1\");\n        require(_token0 != address(0) && _token1 != address(0), \"DelayFathomOraclePriceFeed/zero-token\");\n        token0 = _token0;\n        token1 = _token1;\n        priceLife = 30 minutes;\n        timeDelay = 15 minutes;\n        poolId = _poolId;\n    }\n\n    function setToken0(address _token) external onlyOwner {\n        require(_token != address(0), \"DelayFathomOraclePriceFeed/zero-token\");\n        require(token1 != _token, \"DelayFathomOraclePriceFeed/same-token0-token1\");\n\n        token0 = _token;\n        emit LogSetToken0(_token);\n    }\n\n    function setToken1(address _token) external onlyOwner {\n        require(_token != address(0), \"DelayFathomOraclePriceFeed/zero-token\");\n        require(token0 != _token, \"DelayFathomOraclePriceFeed/same-token0-token1\");\n\n        token1 = _token;\n        emit LogSetToken1(_token);\n    }\n\n    function setOracle(address _oracle) external onlyOwner {\n        require(_oracle != address(0), \"DelayFathomOraclePriceFeed/zero-access-control-config\");\n        fathomOracle = IFathomOracle(_oracle);\n        this.peekPrice();\n        emit LogSetFathomOracle(_oracle);\n    }\n\n    function retrivePrice() external view override returns (PriceInfo memory) {\n        (uint256 _price, uint256 _lastUpdate) = IFathomOracle(fathomOracle).getPrice(token0, token1);\n        return PriceInfo(_price, _lastUpdate);\n    }\n}\n",
    "sourcePath": "/Users/aleksey/SolidityProjects2/fathom-stablecoin-smart-contracts/contracts/main/price-feeders/DelayFathomOraclePriceFeed.sol",
    "compiler": {
        "name": "solc",
        "version": "0.8.17+commit.8df45f5f.Emscripten.clang"
    },
    "schemaVersion": "3.4.15",
    "updatedAt": "2023-08-10T12:55:05.425Z",
    "devdoc": {
        "kind": "dev",
        "methods": {
            "pause()": {
                "details": "access: OWNER_ROLE, GOV_ROLE"
            },
            "paused()": {
                "details": "Returns true if the contract is paused, and false otherwise."
            },
            "unpause()": {
                "details": "access: OWNER_ROLE, GOV_ROLE"
            }
        },
        "version": 1
    },
    "userdoc": {
        "kind": "user",
        "methods": {},
        "version": 1
    }
}