{
    "contractName": "DexPriceOracle",
    "abi": [
        {
            "anonymous": false,
            "inputs": [
                {
                    "indexed": false,
                    "internalType": "uint8",
                    "name": "version",
                    "type": "uint8"
                }
            ],
            "name": "Initialized",
            "type": "event"
        },
        {
            "inputs": [],
            "name": "dexFactory",
            "outputs": [
                {
                    "internalType": "address",
                    "name": "",
                    "type": "address"
                }
            ],
            "stateMutability": "view",
            "type": "function"
        },
        {
            "inputs": [
                {
                    "internalType": "address",
                    "name": "_dexFactory",
                    "type": "address"
                }
            ],
            "name": "initialize",
            "outputs": [],
            "stateMutability": "nonpayable",
            "type": "function"
        },
        {
            "inputs": [
                {
                    "internalType": "address",
                    "name": "token0",
                    "type": "address"
                },
                {
                    "internalType": "address",
                    "name": "token1",
                    "type": "address"
                }
            ],
            "name": "getPrice",
            "outputs": [
                {
                    "internalType": "uint256",
                    "name": "",
                    "type": "uint256"
                },
                {
                    "internalType": "uint256",
                    "name": "",
                    "type": "uint256"
                }
            ],
            "stateMutability": "view",
            "type": "function"
        }
    ],
    "bytecode": "0x608060405234801561001057600080fd5b506109b9806100206000396000f3fe608060405234801561001057600080fd5b50600436106100415760003560e01c8063ac41865a14610046578063b8d8fbb414610073578063c4d66de8146100a4575b600080fd5b610059610054366004610722565b6100b9565b604080519283526020830191909152015b60405180910390f35b60005461008c906201000090046001600160a01b031681565b6040516001600160a01b03909116815260200161006a565b6100b76100b236600461075b565b6103b5565b005b600080826001600160a01b0316846001600160a01b0316036101225760405162461bcd60e51b815260206004820152601a60248201527f44657850726963654f7261636c652f73616d652d746f6b656e7300000000000060448201526064015b60405180910390fd5b60008054610140906201000090046001600160a01b03168686610537565b9050600061014e8686610619565b509050600080826001600160a01b0316886001600160a01b0316036101e557836001600160a01b0316630902f1ac6040518163ffffffff1660e01b8152600401606060405180830381865afa1580156101ab573d6000803e3d6000fd5b505050506040513d601f19601f820116820180604052508101906101cf919061079b565b506001600160701b039182169350169050610259565b836001600160a01b0316630902f1ac6040518163ffffffff1660e01b8152600401606060405180830381865afa158015610223573d6000803e3d6000fd5b505050506040513d601f19601f82011682018060405250810190610247919061079b565b506001600160701b0390811693501690505b6000886001600160a01b031663313ce5676040518163ffffffff1660e01b8152600401602060405180830381865afa158015610299573d6000803e3d6000fd5b505050506040513d601f19601f820116820180604052508101906102bd91906107eb565b60ff1690506000886001600160a01b031663313ce5676040518163ffffffff1660e01b8152600401602060405180830381865afa158015610302573d6000803e3d6000fd5b505050506040513d601f19601f8201168201806040525081019061032691906107eb565b60ff1690506000808284101561035b576103408484610824565b61034b90600a610921565b610355908761092d565b8561037b565b856103668486610824565b61037190600a610921565b61037b908761092d565b909250905060008261039583670de0b6b3a764000061092d565b61039f9190610944565b9a504299505050505050505050505b9250929050565b600054610100900460ff16158080156103d55750600054600160ff909116105b806103ef5750303b1580156103ef575060005460ff166001145b6104525760405162461bcd60e51b815260206004820152602e60248201527f496e697469616c697a61626c653a20636f6e747261637420697320616c72656160448201526d191e481a5b9a5d1a585b1a5e995960921b6064820152608401610119565b6000805460ff191660011790558015610475576000805461ff0019166101001790555b6001600160a01b0382166104cb5760405162461bcd60e51b815260206004820152601b60248201527f44657850726963654f7261636c652f7a65726f2d666163746f727900000000006044820152606401610119565b6000805462010000600160b01b031916620100006001600160a01b038516021790558015610533576000805461ff0019169055604051600181527f7f26b83ff96e1f2b6a682f133852f6798a09c465da95921460cefb38474024989060200160405180910390a15b5050565b60405163e6a4390560e01b81526001600160a01b0383811660048301528281166024830152600091829186169063e6a4390590604401602060405180830381865afa15801561058a573d6000803e3d6000fd5b505050506040513d601f19601f820116820180604052508101906105ae9190610966565b90506001600160a01b0381166106115760405162461bcd60e51b815260206004820152602260248201527f466174686f6d537761704c6962726172793a20706169722d6e6f742d65786973604482015261747360f01b6064820152608401610119565b949350505050565b600080826001600160a01b0316846001600160a01b03160361068c5760405162461bcd60e51b815260206004820152602660248201527f466174686f6d537761704c6962726172793a204944454e544943414c5f41444460448201526552455353455360d01b6064820152608401610119565b826001600160a01b0316846001600160a01b0316106106ac5782846106af565b83835b90925090506001600160a01b0382166103ae5760405162461bcd60e51b815260206004820152601f60248201527f466174686f6d537761704c6962726172793a205a45524f5f41444452455353006044820152606401610119565b6001600160a01b038116811461071f57600080fd5b50565b6000806040838503121561073557600080fd5b82356107408161070a565b915060208301356107508161070a565b809150509250929050565b60006020828403121561076d57600080fd5b81356107788161070a565b9392505050565b80516001600160701b038116811461079657600080fd5b919050565b6000806000606084860312156107b057600080fd5b6107b98461077f565b92506107c76020850161077f565b9150604084015163ffffffff811681146107e057600080fd5b809150509250925092565b6000602082840312156107fd57600080fd5b815160ff8116811461077857600080fd5b634e487b7160e01b600052601160045260246000fd5b818103818111156108375761083761080e565b92915050565b600181815b8085111561087857816000190482111561085e5761085e61080e565b8085161561086b57918102915b93841c9390800290610842565b509250929050565b60008261088f57506001610837565b8161089c57506000610837565b81600181146108b257600281146108bc576108d8565b6001915050610837565b60ff8411156108cd576108cd61080e565b50506001821b610837565b5060208310610133831016604e8410600b84101617156108fb575081810a610837565b610905838361083d565b80600019048211156109195761091961080e565b029392505050565b60006107788383610880565b80820281158282048414176108375761083761080e565b60008261096157634e487b7160e01b600052601260045260246000fd5b500490565b60006020828403121561097857600080fd5b81516107788161070a56fea2646970667358221220e49e338694b739cb67add81f03284c57598fceb8b488f94e7b01e3161317c85b64736f6c63430008110033",
    "immutableReferences": {},
    "source": "// SPDX-License-Identifier: AGPL-3.0-or-later\npragma solidity 0.8.17;\n\nimport \"@openzeppelin/contracts-upgradeable/proxy/utils/Initializable.sol\";\n\nimport \"./lib/FathomSwapLibrary.sol\";\nimport \"../apis/interfaces/IFathomSwapPair.sol\";\nimport \"../interfaces/IFathomDEXOracle.sol\";\nimport \"../interfaces/IToken.sol\";\n\ncontract DexPriceOracle is Initializable, IFathomDEXOracle {\n    address public dexFactory;\n\n    function initialize(address _dexFactory) external initializer {\n        require(_dexFactory != address(0), \"DexPriceOracle/zero-factory\");\n\n        dexFactory = _dexFactory;\n    }\n\n    /// @dev Return the wad price of token0/token1, multiplied by 1e18 (if you have 1 token0 how much you can sell it for token1)\n    function getPrice(address token0, address token1) external view override returns (uint256, uint256) {\n        require(token0 != token1, \"DexPriceOracle/same-tokens\");\n\n        address pair = FathomSwapLibrary.pairFor(dexFactory, token0, token1);\n        (address tokenA, ) = FathomSwapLibrary.sortTokens(token0, token1);\n\n        uint256 r0;\n        uint256 r1;\n\n        if (token0 == tokenA) {\n            (r0, r1, ) = IFathomSwapPair(pair).getReserves();\n        } else {\n            (r1, r0, ) = IFathomSwapPair(pair).getReserves();\n        }\n\n        uint256 decimals0 = IToken(token0).decimals();\n        uint256 decimals1 = IToken(token1).decimals();\n\n        (uint256 normalized0, uint256 normalized1) = decimals0 >= decimals1\n            ? (r0, r1 * (10 ** (decimals0 - decimals1)))\n            : (r0 * (10 ** (decimals1 - decimals0)), r1);\n\n        uint price = (normalized1 * 1e18) / normalized0;\n        return (price, block.timestamp);\n    }\n}\n",
    "sourcePath": "/Users/aleksey/SolidityProjects2/fathom-stablecoin-smart-contracts/contracts/main/price-oracles/DexPriceOracle.sol",
    "compiler": {
        "name": "solc",
        "version": "0.8.17+commit.8df45f5f.Emscripten.clang"
    },
    "schemaVersion": "3.4.15",
    "updatedAt": "2023-08-10T12:55:05.434Z",
    "devdoc": {
        "kind": "dev",
        "methods": {
            "getPrice(address,address)": {
                "details": "Return the wad price of token0/token1, multiplied by 1e18 (if you have 1 token0 how much you can sell it for token1)"
            }
        },
        "version": 1
    },
    "userdoc": {
        "kind": "user",
        "methods": {},
        "version": 1
    }
}