{
    "contractName": "FathomProxyFactory",
    "abi": [
        {
            "anonymous": false,
            "inputs": [
                {
                    "indexed": true,
                    "internalType": "address",
                    "name": "previousOwner",
                    "type": "address"
                },
                {
                    "indexed": true,
                    "internalType": "address",
                    "name": "newOwner",
                    "type": "address"
                }
            ],
            "name": "OwnershipTransferred",
            "type": "event"
        },
        {
            "inputs": [],
            "name": "owner",
            "outputs": [
                {
                    "internalType": "address",
                    "name": "",
                    "type": "address"
                }
            ],
            "stateMutability": "view",
            "type": "function"
        },
        {
            "inputs": [
                {
                    "internalType": "bytes32",
                    "name": "",
                    "type": "bytes32"
                }
            ],
            "name": "proxies",
            "outputs": [
                {
                    "internalType": "address",
                    "name": "",
                    "type": "address"
                }
            ],
            "stateMutability": "view",
            "type": "function"
        },
        {
            "inputs": [],
            "name": "renounceOwnership",
            "outputs": [],
            "stateMutability": "nonpayable",
            "type": "function"
        },
        {
            "inputs": [
                {
                    "internalType": "address",
                    "name": "newOwner",
                    "type": "address"
                }
            ],
            "name": "transferOwnership",
            "outputs": [],
            "stateMutability": "nonpayable",
            "type": "function"
        },
        {
            "inputs": [
                {
                    "internalType": "bytes32",
                    "name": "proxyId",
                    "type": "bytes32"
                },
                {
                    "internalType": "address",
                    "name": "impl",
                    "type": "address"
                },
                {
                    "internalType": "address",
                    "name": "proxyAdmin",
                    "type": "address"
                },
                {
                    "internalType": "bytes",
                    "name": "data",
                    "type": "bytes"
                }
            ],
            "name": "createProxy",
            "outputs": [],
            "stateMutability": "nonpayable",
            "type": "function"
        }
    ],
    "bytecode": "0x608060405234801561001057600080fd5b5061001a3361001f565b61006f565b600080546001600160a01b038381166001600160a01b0319831681178455604051919092169283917f8be0079c531659141344cd1fd0a4f28419497f9722a3daafe3b4186f6b6457e09190a35050565b6113f78061007e6000396000f3fe60806040523480156200001157600080fd5b50600436106200005e5760003560e01c80636932af361462000063578063715018a614620000ab5780638da5cb5b14620000b7578063f032390f14620000c9578063f2fde38b14620000e0575b600080fd5b6200008f6200007436600462000326565b6001602052600090815260409020546001600160a01b031681565b6040516001600160a01b03909116815260200160405180910390f35b620000b5620000f7565b005b6000546001600160a01b03166200008f565b620000b5620000da36600462000373565b6200010f565b620000b5620000f13660046200045d565b620001ed565b620001016200026c565b6200010d6000620002c8565b565b620001196200026c565b6000848152600160205260409020546001600160a01b0316156200017b5760405162461bcd60e51b815260206004820152601460248201527350726f787920616c72656164792065786973747360601b60448201526064015b60405180910390fd5b60008383836040516200018e9062000318565b6200019c9392919062000482565b604051809103906000f080158015620001b9573d6000803e3d6000fd5b5060009586526001602052604090952080546001600160a01b0319166001600160a01b039096169590951790945550505050565b620001f76200026c565b6001600160a01b0381166200025e5760405162461bcd60e51b815260206004820152602660248201527f4f776e61626c653a206e6577206f776e657220697320746865207a65726f206160448201526564647265737360d01b606482015260840162000172565b6200026981620002c8565b50565b6000546001600160a01b031633146200010d5760405162461bcd60e51b815260206004820181905260248201527f4f776e61626c653a2063616c6c6572206973206e6f7420746865206f776e6572604482015260640162000172565b600080546001600160a01b038381166001600160a01b0319831681178455604051919092169283917f8be0079c531659141344cd1fd0a4f28419497f9722a3daafe3b4186f6b6457e09190a35050565b610ed380620004ef83390190565b6000602082840312156200033957600080fd5b5035919050565b80356001600160a01b03811681146200035857600080fd5b919050565b634e487b7160e01b600052604160045260246000fd5b600080600080608085870312156200038a57600080fd5b843593506200039c6020860162000340565b9250620003ac6040860162000340565b9150606085013567ffffffffffffffff80821115620003ca57600080fd5b818701915087601f830112620003df57600080fd5b813581811115620003f457620003f46200035d565b604051601f8201601f19908116603f011681019083821181831017156200041f576200041f6200035d565b816040528281528a60208487010111156200043957600080fd5b82602086016020830137600060208483010152809550505050505092959194509250565b6000602082840312156200047057600080fd5b6200047b8262000340565b9392505050565b600060018060a01b038086168352602081861681850152606060408501528451915081606085015260005b82811015620004cb57858101820151858201608001528101620004ad565b50506000608082850101526080601f19601f83011684010191505094935050505056fe60806040523480156200001157600080fd5b5060405162000ed338038062000ed38339810160408190526200003491620004ab565b8282828281620000478282600062000061565b50620000559050826200009e565b505050505050620005de565b6200006c83620000f9565b6000825111806200007a5750805b1562000099576200009783836200013b60201b620001691760201c565b505b505050565b7f7e644d79422f17c01e4894b5f4f588d331ebfa28653d42ae832dc59e38c9798f620000c96200016a565b604080516001600160a01b03928316815291841660208301520160405180910390a1620000f681620001a3565b50565b620001048162000258565b6040516001600160a01b038216907fbc7cd75a20ee27fd9adebab32041f755214dbc6bffa90cc0225b39da2e5c2d3b90600090a250565b606062000163838360405180606001604052806027815260200162000eac602791396200030c565b9392505050565b60006200019460008051602062000e8c83398151915260001b6200038b60201b620001951760201c565b546001600160a01b0316919050565b6001600160a01b0381166200020e5760405162461bcd60e51b815260206004820152602660248201527f455243313936373a206e65772061646d696e20697320746865207a65726f206160448201526564647265737360d01b60648201526084015b60405180910390fd5b806200023760008051602062000e8c83398151915260001b6200038b60201b620001951760201c565b80546001600160a01b0319166001600160a01b039290921691909117905550565b6200026e816200038e60201b620001981760201c565b620002d25760405162461bcd60e51b815260206004820152602d60248201527f455243313936373a206e657720696d706c656d656e746174696f6e206973206e60448201526c1bdd08184818dbdb9d1c9858dd609a1b606482015260840162000205565b80620002377f360894a13ba1a3210667c828492db98dca3e2076cc3735a920a3ca505d382bbc60001b6200038b60201b620001951760201c565b6060600080856001600160a01b0316856040516200032b91906200058b565b600060405180830381855af49150503d806000811462000368576040519150601f19603f3d011682016040523d82523d6000602084013e6200036d565b606091505b50909250905062000381868383876200039d565b9695505050505050565b90565b6001600160a01b03163b151590565b606083156200041157825160000362000409576001600160a01b0385163b620004095760405162461bcd60e51b815260206004820152601d60248201527f416464726573733a2063616c6c20746f206e6f6e2d636f6e7472616374000000604482015260640162000205565b50816200041d565b6200041d838362000425565b949350505050565b815115620004365781518083602001fd5b8060405162461bcd60e51b8152600401620002059190620005a9565b80516001600160a01b03811681146200046a57600080fd5b919050565b634e487b7160e01b600052604160045260246000fd5b60005b83811015620004a257818101518382015260200162000488565b50506000910152565b600080600060608486031215620004c157600080fd5b620004cc8462000452565b9250620004dc6020850162000452565b60408501519092506001600160401b0380821115620004fa57600080fd5b818601915086601f8301126200050f57600080fd5b8151818111156200052457620005246200046f565b604051601f8201601f19908116603f011681019083821181831017156200054f576200054f6200046f565b816040528281528960208487010111156200056957600080fd5b6200057c83602083016020880162000485565b80955050505050509250925092565b600082516200059f81846020870162000485565b9190910192915050565b6020815260008251806020840152620005ca81604085016020870162000485565b601f01601f19169190910160400192915050565b61089e80620005ee6000396000f3fe60806040523661001357610011610017565b005b6100115b61001f6101a7565b6001600160a01b0316330361015f5760606001600160e01b0319600035166364d3180d60e11b810161005a576100536101da565b9150610157565b63587086bd60e11b6001600160e01b031982160161007a57610053610231565b63070d7c6960e41b6001600160e01b031982160161009a57610053610277565b621eb96f60e61b6001600160e01b03198216016100b9576100536102a8565b63a39f25e560e01b6001600160e01b03198216016100d9576100536102e8565b60405162461bcd60e51b815260206004820152604260248201527f5472616e73706172656e745570677261646561626c6550726f78793a2061646d60448201527f696e2063616e6e6f742066616c6c6261636b20746f2070726f78792074617267606482015261195d60f21b608482015260a4015b60405180910390fd5b815160208301f35b6101676102fc565b565b606061018e83836040518060600160405280602781526020016108426027913961030c565b9392505050565b90565b6001600160a01b03163b151590565b60007fb53127684a568b3173ae13b9f8a6016e243e63b6e8ee1178d6a717850b5d61035b546001600160a01b0316919050565b60606101e4610384565b60006101f33660048184610695565b81019061020091906106db565b905061021d8160405180602001604052806000815250600061038f565b505060408051602081019091526000815290565b60606000806102433660048184610695565b810190610250919061070c565b915091506102608282600161038f565b604051806020016040528060008152509250505090565b6060610281610384565b60006102903660048184610695565b81019061029d91906106db565b905061021d816103bb565b60606102b2610384565b60006102bc6101a7565b604080516001600160a01b03831660208201529192500160405160208183030381529060405291505090565b60606102f2610384565b60006102bc610412565b610167610307610412565b610421565b6060600080856001600160a01b03168560405161032991906107f2565b600060405180830381855af49150503d8060008114610364576040519150601f19603f3d011682016040523d82523d6000602084013e610369565b606091505b509150915061037a86838387610445565b9695505050505050565b341561016757600080fd5b610398836104c6565b6000825111806103a55750805b156103b6576103b48383610169565b505b505050565b7f7e644d79422f17c01e4894b5f4f588d331ebfa28653d42ae832dc59e38c9798f6103e46101a7565b604080516001600160a01b03928316815291841660208301520160405180910390a161040f81610506565b50565b600061041c6105af565b905090565b3660008037600080366000845af43d6000803e808015610440573d6000f35b3d6000fd5b606083156104b45782516000036104ad576001600160a01b0385163b6104ad5760405162461bcd60e51b815260206004820152601d60248201527f416464726573733a2063616c6c20746f206e6f6e2d636f6e7472616374000000604482015260640161014e565b50816104be565b6104be83836105d7565b949350505050565b6104cf81610601565b6040516001600160a01b038216907fbc7cd75a20ee27fd9adebab32041f755214dbc6bffa90cc0225b39da2e5c2d3b90600090a250565b6001600160a01b03811661056b5760405162461bcd60e51b815260206004820152602660248201527f455243313936373a206e65772061646d696e20697320746865207a65726f206160448201526564647265737360d01b606482015260840161014e565b807fb53127684a568b3173ae13b9f8a6016e243e63b6e8ee1178d6a717850b5d61035b80546001600160a01b0319166001600160a01b039290921691909117905550565b60007f360894a13ba1a3210667c828492db98dca3e2076cc3735a920a3ca505d382bbc6101cb565b8151156105e75781518083602001fd5b8060405162461bcd60e51b815260040161014e919061080e565b6001600160a01b0381163b61066e5760405162461bcd60e51b815260206004820152602d60248201527f455243313936373a206e657720696d706c656d656e746174696f6e206973206e60448201526c1bdd08184818dbdb9d1c9858dd609a1b606482015260840161014e565b807f360894a13ba1a3210667c828492db98dca3e2076cc3735a920a3ca505d382bbc61058e565b600080858511156106a557600080fd5b838611156106b257600080fd5b5050820193919092039150565b80356001600160a01b03811681146106d657600080fd5b919050565b6000602082840312156106ed57600080fd5b61018e826106bf565b634e487b7160e01b600052604160045260246000fd5b6000806040838503121561071f57600080fd5b610728836106bf565b9150602083013567ffffffffffffffff8082111561074557600080fd5b818501915085601f83011261075957600080fd5b81358181111561076b5761076b6106f6565b604051601f8201601f19908116603f01168101908382118183101715610793576107936106f6565b816040528281528860208487010111156107ac57600080fd5b8260208601602083013760006020848301015280955050505050509250929050565b60005b838110156107e95781810151838201526020016107d1565b50506000910152565b600082516108048184602087016107ce565b9190910192915050565b602081526000825180602084015261082d8160408501602087016107ce565b601f01601f1916919091016040019291505056fe416464726573733a206c6f772d6c6576656c2064656c65676174652063616c6c206661696c6564a264697066735822122019028cca9931b09b5f438ae9a3c1440667b5583964625b5a4a90a269421bec9364736f6c63430008110033b53127684a568b3173ae13b9f8a6016e243e63b6e8ee1178d6a717850b5d6103416464726573733a206c6f772d6c6576656c2064656c65676174652063616c6c206661696c6564a2646970667358221220c3192784a82585a0155f38cbd2c0fd4c9302e3b0d5f16b026c5fa4240a87e3f864736f6c63430008110033",
    "immutableReferences": {},
    "source": "// SPDX-License-Identifier: AGPL-3.0-or-later\n\npragma solidity 0.8.17;\n\nimport \"./FathomProxy.sol\";\nimport \"@openzeppelin/contracts/access/Ownable.sol\";\n\ncontract FathomProxyFactory is Ownable {\n    mapping(bytes32 => address) public proxies;\n\n    function createProxy(bytes32 proxyId, address impl, address proxyAdmin, bytes memory data) external onlyOwner {\n        require(proxies[proxyId] == address(0), \"Proxy already exists\");\n        FathomProxy proxy = new FathomProxy(impl, proxyAdmin, data);\n        proxies[proxyId] = address(proxy);\n    }\n}\n",
    "sourcePath": "/Users/aleksey/SolidityProjects2/fathom-stablecoin-smart-contracts/contracts/main/proxy/FathomProxyFactory.sol",
    "compiler": {
        "name": "solc",
        "version": "0.8.17+commit.8df45f5f.Emscripten.clang"
    },
    "schemaVersion": "3.4.15",
    "updatedAt": "2023-08-10T12:55:05.662Z",
    "devdoc": {
        "kind": "dev",
        "methods": {
            "owner()": {
                "details": "Returns the address of the current owner."
            },
            "renounceOwnership()": {
                "details": "Leaves the contract without owner. It will not be possible to call `onlyOwner` functions. Can only be called by the current owner. NOTE: Renouncing ownership will leave the contract without an owner, thereby disabling any functionality that is only available to the owner."
            },
            "transferOwnership(address)": {
                "details": "Transfers ownership of the contract to a new account (`newOwner`). Can only be called by the current owner."
            }
        },
        "version": 1
    },
    "userdoc": {
        "kind": "user",
        "methods": {},
        "version": 1
    }
}