{
    "contractName": "FixedSpreadLiquidationStrategy",
    "abi": [
        {
            "anonymous": false,
            "inputs": [
                {
                    "indexed": false,
                    "internalType": "uint8",
                    "name": "version",
                    "type": "uint8"
                }
            ],
            "name": "Initialized",
            "type": "event"
        },
        {
            "anonymous": false,
            "inputs": [
                {
                    "indexed": true,
                    "internalType": "bytes32",
                    "name": "_collateralPoolId",
                    "type": "bytes32"
                },
                {
                    "indexed": false,
                    "internalType": "uint256",
                    "name": "_positionDebtShare",
                    "type": "uint256"
                },
                {
                    "indexed": false,
                    "internalType": "uint256",
                    "name": "_positionCollateralAmount",
                    "type": "uint256"
                },
                {
                    "indexed": true,
                    "internalType": "address",
                    "name": "_positionAddress",
                    "type": "address"
                },
                {
                    "indexed": false,
                    "internalType": "uint256",
                    "name": "_debtShareToBeLiquidated",
                    "type": "uint256"
                },
                {
                    "indexed": false,
                    "internalType": "uint256",
                    "name": "_maxDebtShareToBeLiquidated",
                    "type": "uint256"
                },
                {
                    "indexed": true,
                    "internalType": "address",
                    "name": "_liquidatorAddress",
                    "type": "address"
                },
                {
                    "indexed": false,
                    "internalType": "address",
                    "name": "_collateralRecipient",
                    "type": "address"
                },
                {
                    "indexed": false,
                    "internalType": "uint256",
                    "name": "_actualDebtShareToBeLiquidated",
                    "type": "uint256"
                },
                {
                    "indexed": false,
                    "internalType": "uint256",
                    "name": "_actualDebtValueToBeLiquidated",
                    "type": "uint256"
                },
                {
                    "indexed": false,
                    "internalType": "uint256",
                    "name": "_collateralAmountToBeLiquidated",
                    "type": "uint256"
                },
                {
                    "indexed": false,
                    "internalType": "uint256",
                    "name": "_treasuryFees",
                    "type": "uint256"
                }
            ],
            "name": "LogFixedSpreadLiquidate",
            "type": "event"
        },
        {
            "anonymous": false,
            "inputs": [
                {
                    "indexed": true,
                    "internalType": "address",
                    "name": "caller",
                    "type": "address"
                },
                {
                    "indexed": false,
                    "internalType": "uint256",
                    "name": "_flashLendingEnabled",
                    "type": "uint256"
                }
            ],
            "name": "LogSetFlashLendingEnabled",
            "type": "event"
        },
        {
            "anonymous": false,
            "inputs": [
                {
                    "indexed": false,
                    "internalType": "address",
                    "name": "account",
                    "type": "address"
                }
            ],
            "name": "Paused",
            "type": "event"
        },
        {
            "anonymous": false,
            "inputs": [
                {
                    "indexed": false,
                    "internalType": "address",
                    "name": "account",
                    "type": "address"
                }
            ],
            "name": "Unpaused",
            "type": "event"
        },
        {
            "inputs": [],
            "name": "bookKeeper",
            "outputs": [
                {
                    "internalType": "contract IBookKeeper",
                    "name": "",
                    "type": "address"
                }
            ],
            "stateMutability": "view",
            "type": "function"
        },
        {
            "inputs": [],
            "name": "flashLendingEnabled",
            "outputs": [
                {
                    "internalType": "uint256",
                    "name": "",
                    "type": "uint256"
                }
            ],
            "stateMutability": "view",
            "type": "function"
        },
        {
            "inputs": [],
            "name": "liquidationEngine",
            "outputs": [
                {
                    "internalType": "contract ILiquidationEngine",
                    "name": "",
                    "type": "address"
                }
            ],
            "stateMutability": "view",
            "type": "function"
        },
        {
            "inputs": [],
            "name": "paused",
            "outputs": [
                {
                    "internalType": "bool",
                    "name": "",
                    "type": "bool"
                }
            ],
            "stateMutability": "view",
            "type": "function"
        },
        {
            "inputs": [],
            "name": "priceOracle",
            "outputs": [
                {
                    "internalType": "contract IPriceOracle",
                    "name": "",
                    "type": "address"
                }
            ],
            "stateMutability": "view",
            "type": "function"
        },
        {
            "inputs": [],
            "name": "stablecoinAdapter",
            "outputs": [
                {
                    "internalType": "contract IStablecoinAdapter",
                    "name": "",
                    "type": "address"
                }
            ],
            "stateMutability": "view",
            "type": "function"
        },
        {
            "inputs": [],
            "name": "systemDebtEngine",
            "outputs": [
                {
                    "internalType": "contract ISystemDebtEngine",
                    "name": "",
                    "type": "address"
                }
            ],
            "stateMutability": "view",
            "type": "function"
        },
        {
            "inputs": [
                {
                    "internalType": "address",
                    "name": "_bookKeeper",
                    "type": "address"
                },
                {
                    "internalType": "address",
                    "name": "_priceOracle",
                    "type": "address"
                },
                {
                    "internalType": "address",
                    "name": "_liquidationEngine",
                    "type": "address"
                },
                {
                    "internalType": "address",
                    "name": "_systemDebtEngine",
                    "type": "address"
                },
                {
                    "internalType": "address",
                    "name": "_stablecoinAdapter",
                    "type": "address"
                }
            ],
            "name": "initialize",
            "outputs": [],
            "stateMutability": "nonpayable",
            "type": "function"
        },
        {
            "inputs": [],
            "name": "pause",
            "outputs": [],
            "stateMutability": "nonpayable",
            "type": "function"
        },
        {
            "inputs": [],
            "name": "unpause",
            "outputs": [],
            "stateMutability": "nonpayable",
            "type": "function"
        },
        {
            "inputs": [
                {
                    "internalType": "uint256",
                    "name": "_flashLendingEnabled",
                    "type": "uint256"
                }
            ],
            "name": "setFlashLendingEnabled",
            "outputs": [],
            "stateMutability": "nonpayable",
            "type": "function"
        },
        {
            "inputs": [
                {
                    "internalType": "bytes32",
                    "name": "_collateralPoolId",
                    "type": "bytes32"
                },
                {
                    "internalType": "uint256",
                    "name": "_positionDebtShare",
                    "type": "uint256"
                },
                {
                    "internalType": "uint256",
                    "name": "_positionCollateralAmount",
                    "type": "uint256"
                },
                {
                    "internalType": "address",
                    "name": "_positionAddress",
                    "type": "address"
                },
                {
                    "internalType": "uint256",
                    "name": "_debtShareToBeLiquidated",
                    "type": "uint256"
                },
                {
                    "internalType": "uint256",
                    "name": "_maxDebtShareToBeLiquidated",
                    "type": "uint256"
                },
                {
                    "internalType": "address",
                    "name": "_liquidatorAddress",
                    "type": "address"
                },
                {
                    "internalType": "address",
                    "name": "_collateralRecipient",
                    "type": "address"
                },
                {
                    "internalType": "bytes",
                    "name": "_data",
                    "type": "bytes"
                }
            ],
            "name": "execute",
            "outputs": [],
            "stateMutability": "nonpayable",
            "type": "function"
        },
        {
            "inputs": [
                {
                    "internalType": "address",
                    "name": "_priceOracle",
                    "type": "address"
                }
            ],
            "name": "setPriceOracle",
            "outputs": [],
            "stateMutability": "nonpayable",
            "type": "function"
        },
        {
            "inputs": [
                {
                    "internalType": "address",
                    "name": "_bookKeeper",
                    "type": "address"
                }
            ],
            "name": "setBookKeeper",
            "outputs": [],
            "stateMutability": "nonpayable",
            "type": "function"
        },
        {
            "inputs": [
                {
                    "internalType": "address",
                    "name": "_liquidationEngine",
                    "type": "address"
                }
            ],
            "name": "setLiquidationEngine",
            "outputs": [],
            "stateMutability": "nonpayable",
            "type": "function"
        }
    ],
    "bytecode": "0x608060405234801561001057600080fd5b50613541806100206000396000f3fe608060405234801561001057600080fd5b50600436106100f55760003560e01c806346a311d3116100975780638456cb59116100665780638456cb59146101e2578063df1a4b73146101ea578063e3b3932a14610201578063f79b9f4a1461021457600080fd5b806346a311d3146101935780634d298abd146101a6578063530e784f146101b95780635c975abb146101cc57600080fd5b80632630c12f116100d35780632630c12f1461013557806328e49a42146101655780633f4ba83a1461017857806344bf3c721461018057600080fd5b806307d8bd88146100fa5780631459457a1461010f57806316d8d29114610122575b600080fd5b61010d610108366004612fc8565b610227565b005b61010d61011d366004612fe5565b61043a565b61010d610130366004613056565b610935565b609a54610148906001600160a01b031681565b6040516001600160a01b0390911681526020015b60405180910390f35b609954610148906001600160a01b031681565b61010d6115cb565b609854610148906001600160a01b031681565b609b54610148906001600160a01b031681565b61010d6101b4366004612fc8565b611816565b61010d6101c7366004612fc8565b611a1d565b60335460ff16604051901515815260200161015c565b61010d611c25565b6101f3609c5481565b60405190815260200161015c565b609754610148906001600160a01b031681565b61010d610222366004613132565b611e6d565b6097546040805163c8cc243f60e01b815290516000926001600160a01b03169163c8cc243f9160048083019260209291908290030181865afa158015610271573d6000803e3d6000fd5b505050506040513d601f19601f82011682018060405250810190610295919061314b565b9050806001600160a01b03166391d14854826001600160a01b031663e58378bb6040518163ffffffff1660e01b8152600401602060405180830381865afa1580156102e4573d6000803e3d6000fd5b505050506040513d601f19601f820116820180604052508101906103089190613168565b6040516001600160e01b031960e084901b1681526004810191909152336024820152604401602060405180830381865afa15801561034a573d6000803e3d6000fd5b505050506040513d601f19601f8201168201806040525081019061036e9190613196565b6103935760405162461bcd60e51b815260040161038a906131b1565b60405180910390fd5b6000826001600160a01b0316636f3a3bfc6040518163ffffffff1660e01b81526004016020604051808303816000875af11580156103d5573d6000803e3d6000fd5b505050506040513d601f19601f820116820180604052508101906103f99190613168565b10156104175760405162461bcd60e51b815260040161038a906131d5565b50609780546001600160a01b0319166001600160a01b0392909216919091179055565b600054610100900460ff161580801561045a5750600054600160ff909116105b806104745750303b158015610474575060005460ff166001145b6104d75760405162461bcd60e51b815260206004820152602e60248201527f496e697469616c697a61626c653a20636f6e747261637420697320616c72656160448201526d191e481a5b9a5d1a585b1a5e995960921b606482015260840161038a565b6000805460ff1916600117905580156104fa576000805461ff0019166101001790555b6105026120eb565b61050a61211c565b6000866001600160a01b0316636f3a3bfc6040518163ffffffff1660e01b81526004016020604051808303816000875af115801561054c573d6000803e3d6000fd5b505050506040513d601f19601f820116820180604052508101906105709190613168565b101561058e5760405162461bcd60e51b815260040161038a906131d5565b85609760006101000a8154816001600160a01b0302191690836001600160a01b031602179055506000856001600160a01b0316639d1eea786040518163ffffffff1660e01b8152600401602060405180830381865afa1580156105f5573d6000803e3d6000fd5b505050506040513d601f19601f820116820180604052508101906106199190613168565b10156106375760405162461bcd60e51b815260040161038a90613214565b84609a60006101000a8154816001600160a01b0302191690836001600160a01b03160217905550836001600160a01b031663957aa58c6040518163ffffffff1660e01b8152600401602060405180830381865afa15801561069c573d6000803e3d6000fd5b505050506040513d601f19601f820116820180604052508101906106c09190613168565b6001146106df5760405162461bcd60e51b815260040161038a90613254565b83609860006101000a8154816001600160a01b0302191690836001600160a01b031602179055506000836001600160a01b0316632a608d5b6040518163ffffffff1660e01b8152600401602060405180830381865afa158015610746573d6000803e3d6000fd5b505050506040513d601f19601f8201168201806040525081019061076a9190613168565b10156107cc5760405162461bcd60e51b815260206004820152603760248201526000805160206134ec83398151915260448201527f6e76616c69642d73797374656d44656274456e67696e65000000000000000000606482015260840161038a565b82609960006101000a8154816001600160a01b0302191690836001600160a01b0316021790555060006001600160a01b0316826001600160a01b031663e9cbd8226040518163ffffffff1660e01b81526004016020604051808303816000875af115801561083e573d6000803e3d6000fd5b505050506040513d601f19601f82011682018060405250810190610862919061314b565b6001600160a01b0316036108cc5760405162461bcd60e51b815260206004820152603860248201526000805160206134ec83398151915260448201527f6e76616c69642d737461626c65636f696e416461707465720000000000000000606482015260840161038a565b609b80546001600160a01b0319166001600160a01b038416179055801561092d576000805461ff0019169055604051600181527f7f26b83ff96e1f2b6a682f133852f6798a09c465da95921460cefb38474024989060200160405180910390a15b505050505050565b61093d61214b565b6109456121a4565b609760009054906101000a90046001600160a01b03166001600160a01b031663c8cc243f6040518163ffffffff1660e01b8152600401602060405180830381865afa158015610998573d6000803e3d6000fd5b505050506040513d601f19601f820116820180604052508101906109bc919061314b565b6001600160a01b03166391d14854609760009054906101000a90046001600160a01b03166001600160a01b031663c8cc243f6040518163ffffffff1660e01b8152600401602060405180830381865afa158015610a1d573d6000803e3d6000fd5b505050506040513d601f19601f82011682018060405250810190610a41919061314b565b6001600160a01b031663e8ff193d6040518163ffffffff1660e01b8152600401602060405180830381865afa158015610a7e573d6000803e3d6000fd5b505050506040513d601f19601f82011682018060405250810190610aa29190613168565b6040516001600160e01b031960e084901b1681526004810191909152336024820152604401602060405180830381865afa158015610ae4573d6000803e3d6000fd5b505050506040513d601f19601f82011682018060405250810190610b089190613196565b610b4d5760405162461bcd60e51b8152602060048201526016602482015275216c69717569646174696f6e456e67696e67526f6c6560501b604482015260640161038a565b60008911610b9c5760405162461bcd60e51b815260206004820152602860248201526000805160206134cc833981519152604482015267195c9bcb5919589d60c21b606482015260840161038a565b60008811610bf85760405162461bcd60e51b815260206004820152603560248201526000805160206134cc833981519152604482015274195c9bcb58dbdb1b185d195c985b0b585b5bdd5b9d605a1b606482015260840161038a565b6001600160a01b038716610c595760405162461bcd60e51b815260206004820152603460248201526000805160206134cc83398151915260448201527365726f2d706f736974696f6e2d6164647265737360601b606482015260840161038a565b6000610c648b6121ea565b905060008111610cc15760405162461bcd60e51b815260206004820152603460248201526000805160206134cc83398151915260448201527365726f2d636f6c6c61746572616c2d707269636560601b606482015260840161038a565b6000610cd08c89848d8f61242a565b9050868160a001511115610d5a5760405162461bcd60e51b815260206004820152604560248201527f46697865645370726561644c69717569646174696f6e53747261746567792f6560448201527f78636565642d6d61782d646562742d76616c75652d746f2d62652d6c6971756960648201526419185d195960da1b608482015260a40161038a565b600160ff1b8160c00151108015610d785750600160ff1b8160a00151105b610dd45760405162461bcd60e51b815260206004820152602760248201527f46697865645370726561644c69717569646174696f6e53747261746567792f6f604482015266766572666c6f7760c81b606482015260840161038a565b609760009054906101000a90046001600160a01b03166001600160a01b031663b1df25948d8b30609960009054906101000a90046001600160a01b03168660c00151610e1f906132c7565b8760a00151610e2d906132c7565b6040516001600160e01b031960e089901b16815260048101969096526001600160a01b039485166024870152928416604486015292166064840152608483019190915260a482015260c401600060405180830381600087803b158015610e9257600080fd5b505af1158015610ea6573d6000803e3d6000fd5b505050506000609760009054906101000a90046001600160a01b03166001600160a01b031663d86824616040518163ffffffff1660e01b8152600401602060405180830381865afa158015610eff573d6000803e3d6000fd5b505050506040513d601f19601f82011682018060405250810190610f23919061314b565b6001600160a01b0316638272e1388e6040518263ffffffff1660e01b8152600401610f5091815260200190565b602060405180830381865afa158015610f6d573d6000803e3d6000fd5b505050506040513d601f19601f82011682018060405250810190610f91919061314b565b60e08301519091501561105157609760009054906101000a90046001600160a01b03166001600160a01b031663b5d993298e30609960009054906101000a90046001600160a01b03168660e001516040518563ffffffff1660e01b815260040161101e94939291909384526001600160a01b03928316602085015291166040830152606082015260800190565b600060405180830381600087803b15801561103857600080fd5b505af115801561104c573d6000803e3d6000fd5b505050505b609c54600114801561106257508315155b801561107c57506097546001600160a01b03878116911614155b801561109657506098546001600160a01b03878116911614155b801561110c57506040516301ffc9a760e01b81526357bde8a160e11b60048201526001600160a01b038716906301ffc9a790602401602060405180830381865afa1580156110e8573d6000803e3d6000fd5b505050506040513d601f19601f8201168201806040525081019061110c9190613196565b1561123b57609760009054906101000a90046001600160a01b03166001600160a01b031663b5d993298e30898660e001518760c0015161114c91906132e3565b6040516001600160e01b031960e087901b16815260048101949094526001600160a01b039283166024850152911660448301526064820152608401600060405180830381600087803b1580156111a157600080fd5b505af11580156111b5573d6000803e3d6000fd5b50505050856001600160a01b031663af7bd1423384608001518560e001518660c001516111e291906132e3565b89896040518663ffffffff1660e01b81526004016112049594939291906132fc565b600060405180830381600087803b15801561121e57600080fd5b505af1158015611232573d6000803e3d6000fd5b50505050611455565b806001600160a01b03166331f09265878460e001518560c0015161125f91906132e3565b6040805160006020820152016040516020818303038152906040526040518463ffffffff1660e01b81526004016112989392919061336c565b600060405180830381600087803b1580156112b257600080fd5b505af11580156112c6573d6000803e3d6000fd5b505050506000609b60009054906101000a90046001600160a01b03166001600160a01b031663e9cbd8226040518163ffffffff1660e01b81526004016020604051808303816000875af1158015611321573d6000803e3d6000fd5b505050506040513d601f19601f82011682018060405250810190611345919061314b565b905061138588306b033b2e3c9fd0803ce8000000866080015161136891906133b5565b6113739060016133d7565b6001600160a01b038516929190612b6f565b609b5460808401516113ce916001600160a01b0316906113b2906b033b2e3c9fd0803ce8000000906133b5565b6113bd9060016133d7565b6001600160a01b0384169190612ce5565b609b546080840151604080516000602080830191909152825180830390910181528183019283905263653623ab60e01b9092526001600160a01b039093169263653623ab92611421928d9260440161336c565b600060405180830381600087803b15801561143b57600080fd5b505af115801561144f573d6000803e3d6000fd5b50505050505b60975460995460808401516040516323055e1560e21b81526001600160a01b038b8116600483015292831660248201526044810191909152911690638c15785490606401600060405180830381600087803b1580156114b357600080fd5b505af11580156114c7573d6000803e3d6000fd5b505050508b8260000181815250508a8260200181815250508882604001818152505087826060018181525050866001600160a01b03168a6001600160a01b03168e7f498293dc3e787b3f04a320f39b6d8853b395dbbccb2abadfb92ec74a01f1338185600001518660200151876040015188606001518d8a60a001518b608001518c60c001518d60e001516040516115aa999897969594939291909889526020890197909752604088019590955260608701939093526001600160a01b0391909116608086015260a085015260c084015260e08301526101008201526101200190565b60405180910390a45050506115bf6001606555565b50505050505050505050565b6097546040805163c8cc243f60e01b815290516000926001600160a01b03169163c8cc243f9160048083019260209291908290030181865afa158015611615573d6000803e3d6000fd5b505050506040513d601f19601f82011682018060405250810190611639919061314b565b9050806001600160a01b03166391d14854826001600160a01b031663e58378bb6040518163ffffffff1660e01b8152600401602060405180830381865afa158015611688573d6000803e3d6000fd5b505050506040513d601f19601f820116820180604052508101906116ac9190613168565b6040516001600160e01b031960e084901b1681526004810191909152336024820152604401602060405180830381865afa1580156116ee573d6000803e3d6000fd5b505050506040513d601f19601f820116820180604052508101906117129190613196565b806117ef5750806001600160a01b03166391d14854826001600160a01b031663b536818a6040518163ffffffff1660e01b8152600401602060405180830381865afa158015611765573d6000803e3d6000fd5b505050506040513d601f19601f820116820180604052508101906117899190613168565b6040516001600160e01b031960e084901b1681526004810191909152336024820152604401602060405180830381865afa1580156117cb573d6000803e3d6000fd5b505050506040513d601f19601f820116820180604052508101906117ef9190613196565b61180b5760405162461bcd60e51b815260040161038a906133ea565b611813612e57565b50565b6097546040805163c8cc243f60e01b815290516000926001600160a01b03169163c8cc243f9160048083019260209291908290030181865afa158015611860573d6000803e3d6000fd5b505050506040513d601f19601f82011682018060405250810190611884919061314b565b9050806001600160a01b03166391d14854826001600160a01b031663e58378bb6040518163ffffffff1660e01b8152600401602060405180830381865afa1580156118d3573d6000803e3d6000fd5b505050506040513d601f19601f820116820180604052508101906118f79190613168565b6040516001600160e01b031960e084901b1681526004810191909152336024820152604401602060405180830381865afa158015611939573d6000803e3d6000fd5b505050506040513d601f19601f8201168201806040525081019061195d9190613196565b6119795760405162461bcd60e51b815260040161038a906131b1565b816001600160a01b031663957aa58c6040518163ffffffff1660e01b8152600401602060405180830381865afa1580156119b7573d6000803e3d6000fd5b505050506040513d601f19601f820116820180604052508101906119db9190613168565b6001146119fa5760405162461bcd60e51b815260040161038a90613254565b50609880546001600160a01b0319166001600160a01b0392909216919091179055565b6097546040805163c8cc243f60e01b815290516000926001600160a01b03169163c8cc243f9160048083019260209291908290030181865afa158015611a67573d6000803e3d6000fd5b505050506040513d601f19601f82011682018060405250810190611a8b919061314b565b9050806001600160a01b03166391d14854826001600160a01b031663e58378bb6040518163ffffffff1660e01b8152600401602060405180830381865afa158015611ada573d6000803e3d6000fd5b505050506040513d601f19601f82011682018060405250810190611afe9190613168565b6040516001600160e01b031960e084901b1681526004810191909152336024820152604401602060405180830381865afa158015611b40573d6000803e3d6000fd5b505050506040513d601f19601f82011682018060405250810190611b649190613196565b611b805760405162461bcd60e51b815260040161038a906131b1565b6000826001600160a01b0316639d1eea786040518163ffffffff1660e01b8152600401602060405180830381865afa158015611bc0573d6000803e3d6000fd5b505050506040513d601f19601f82011682018060405250810190611be49190613168565b1015611c025760405162461bcd60e51b815260040161038a90613214565b50609a80546001600160a01b0319166001600160a01b0392909216919091179055565b6097546040805163c8cc243f60e01b815290516000926001600160a01b03169163c8cc243f9160048083019260209291908290030181865afa158015611c6f573d6000803e3d6000fd5b505050506040513d601f19601f82011682018060405250810190611c93919061314b565b9050806001600160a01b03166391d14854826001600160a01b031663e58378bb6040518163ffffffff1660e01b8152600401602060405180830381865afa158015611ce2573d6000803e3d6000fd5b505050506040513d601f19601f82011682018060405250810190611d069190613168565b6040516001600160e01b031960e084901b1681526004810191909152336024820152604401602060405180830381865afa158015611d48573d6000803e3d6000fd5b505050506040513d601f19601f82011682018060405250810190611d6c9190613196565b80611e495750806001600160a01b03166391d14854826001600160a01b031663b536818a6040518163ffffffff1660e01b8152600401602060405180830381865afa158015611dbf573d6000803e3d6000fd5b505050506040513d601f19601f82011682018060405250810190611de39190613168565b6040516001600160e01b031960e084901b1681526004810191909152336024820152604401602060405180830381865afa158015611e25573d6000803e3d6000fd5b505050506040513d601f19601f82011682018060405250810190611e499190613196565b611e655760405162461bcd60e51b815260040161038a906133ea565b611813612ea9565b6097546040805163c8cc243f60e01b815290516000926001600160a01b03169163c8cc243f9160048083019260209291908290030181865afa158015611eb7573d6000803e3d6000fd5b505050506040513d601f19601f82011682018060405250810190611edb919061314b565b9050806001600160a01b03166391d14854826001600160a01b031663e58378bb6040518163ffffffff1660e01b8152600401602060405180830381865afa158015611f2a573d6000803e3d6000fd5b505050506040513d601f19601f82011682018060405250810190611f4e9190613168565b6040516001600160e01b031960e084901b1681526004810191909152336024820152604401602060405180830381865afa158015611f90573d6000803e3d6000fd5b505050506040513d601f19601f82011682018060405250810190611fb49190613196565b806120915750806001600160a01b03166391d14854826001600160a01b031663b536818a6040518163ffffffff1660e01b8152600401602060405180830381865afa158015612007573d6000803e3d6000fd5b505050506040513d601f19601f8201168201806040525081019061202b9190613168565b6040516001600160e01b031960e084901b1681526004810191909152336024820152604401602060405180830381865afa15801561206d573d6000803e3d6000fd5b505050506040513d601f19601f820116820180604052508101906120919190613196565b6120ad5760405162461bcd60e51b815260040161038a906133ea565b609c82905560405182815233907f684f8e172a780a0039365d294d89561032ab348a858ed68283e8f531a22981079060200160405180910390a25050565b600054610100900460ff166121125760405162461bcd60e51b815260040161038a90613421565b61211a612ee6565b565b600054610100900460ff166121435760405162461bcd60e51b815260040161038a90613421565b61211a612f19565b60026065540361219d5760405162461bcd60e51b815260206004820152601f60248201527f5265656e7472616e637947756172643a207265656e7472616e742063616c6c00604482015260640161038a565b6002606555565b60335460ff161561211a5760405162461bcd60e51b815260206004820152601060248201526f14185d5cd8589b194e881c185d5cd95960821b604482015260640161038a565b600080609760009054906101000a90046001600160a01b03166001600160a01b031663d86824616040518163ffffffff1660e01b8152600401602060405180830381865afa158015612240573d6000803e3d6000fd5b505050506040513d601f19601f82011682018060405250810190612264919061314b565b6001600160a01b0316638c0adf62846040518263ffffffff1660e01b815260040161229191815260200190565b602060405180830381865afa1580156122ae573d6000803e3d6000fd5b505050506040513d601f19601f820116820180604052508101906122d2919061314b565b90506000819050600080826001600160a01b031663140d27206040518163ffffffff1660e01b815260040160408051808303816000875af115801561231b573d6000803e3d6000fd5b505050506040513d601f19601f8201168201806040525081019061233f919061346c565b91509150806123935760405162461bcd60e51b815260206004820152602c60248201526000805160206134ec83398151915260448201526b6e76616c69642d707269636560a01b606482015260840161038a565b6124206123a4633b9aca0084613498565b609a60009054906101000a90046001600160a01b03166001600160a01b0316639d1eea786040518163ffffffff1660e01b8152600401602060405180830381865afa1580156123f7573d6000803e3d6000fd5b505050506040513d601f19601f8201168201806040525081019061241b9190613168565b612f40565b9695505050505050565b6124796040518061012001604052806000815260200160008152602001600081526020016000815260200160008152602001600081526020016000815260200160008152602001600081525090565b6124ab6040518060a0016040528060008152602001600081526020016000815260200160008152602001600081525090565b609760009054906101000a90046001600160a01b03166001600160a01b031663d86824616040518163ffffffff1660e01b8152600401602060405180830381865afa1580156124fe573d6000803e3d6000fd5b505050506040513d601f19601f82011682018060405250810190612522919061314b565b6001600160a01b031663a09b0fe0886040518263ffffffff1660e01b815260040161254f91815260200190565b602060405180830381865afa15801561256c573d6000803e3d6000fd5b505050506040513d601f19601f820116820180604052508101906125909190613168565b81526097546040805163d868246160e01b815290516001600160a01b039092169163d8682461916004808201926020929091908290030181865afa1580156125dc573d6000803e3d6000fd5b505050506040513d601f19601f82011682018060405250810190612600919061314b565b6001600160a01b031663e73bbc79886040518263ffffffff1660e01b815260040161262d91815260200190565b602060405180830381865afa15801561264a573d6000803e3d6000fd5b505050506040513d601f19601f8201168201806040525081019061266e9190613168565b6020808301919091526097546040805163d868246160e01b815290516001600160a01b039092169263d8682461926004808401938290030181865afa1580156126bb573d6000803e3d6000fd5b505050506040513d601f19601f820116820180604052508101906126df919061314b565b6001600160a01b0316630ec057e5886040518263ffffffff1660e01b815260040161270c91815260200190565b602060405180830381865afa158015612729573d6000803e3d6000fd5b505050506040513d601f19601f8201168201806040525081019061274d9190613168565b604080830191909152609754815163d868246160e01b815291516001600160a01b039091169163d86824619160048083019260209291908290030181865afa15801561279d573d6000803e3d6000fd5b505050506040513d601f19601f820116820180604052508101906127c1919061314b565b6001600160a01b0316639c1985d5886040518263ffffffff1660e01b81526004016127ee91815260200190565b602060405180830381865afa15801561280b573d6000803e3d6000fd5b505050506040513d601f19601f8201168201806040525081019061282f9190613168565b60608201526097546040805163d868246160e01b815290516001600160a01b039092169163d8682461916004808201926020929091908290030181865afa15801561287e573d6000803e3d6000fd5b505050506040513d601f19601f820116820180604052508101906128a2919061314b565b6001600160a01b03166373a4f962886040518263ffffffff1660e01b81526004016128cf91815260200190565b602060405180830381865afa1580156128ec573d6000803e3d6000fd5b505050506040513d601f19601f820116820180604052508101906129109190613168565b608082015280516000906129249085613498565b905060008260200151116129a05760405162461bcd60e51b815260206004820152603760248201527f46697865645370726561644c69717569646174696f6e53747261746567792f6360448201527f6c6f73652d666163746f722d6270732d6e6f742d736574000000000000000000606482015260840161038a565b6127108260200151856129b39190613498565b6129bd91906133b5565b610100840181905287116129d157866129d8565b8261010001515b60a0840181905282516129ea91613498565b608084018190526040830151600091889161271091612a099190613498565b612a1391906133b5565b612a1d91906133b5565b905085811180612a4e57506080840151612a3790836132e3565b87612a4283896132e3565b612a4c9190613498565b105b15612a895760c084018690526040830151612a698789613498565b612a7590612710613498565b612a7f91906133b5565b6080850152612af4565b836080015182118015612aad575060608301516080850151612aab90846132e3565b105b15612aec57608084018290526040830151879061271090612ace9085613498565b612ad891906133b5565b612ae291906133b5565b60c0850152612af4565b60c084018190525b82516080850151612b0591906133b5565b60a0850152604083015160c085015160009190612b2490612710613498565b612b2e91906133b5565b8560c00151612b3d91906132e3565b9050612710846080015182612b529190613498565b612b5c91906133b5565b60e0860152509298975050505050505050565b6001600160a01b0384163b612bd55760405162461bcd60e51b815260206004820152602660248201527f736166655472616e7366657246726f6d3a206e6f6e2d636f6e7472616374206160448201526564647265737360d01b606482015260840161038a565b604080516001600160a01b0385811660248301528481166044830152606480830185905283518084039091018152608490920183526020820180516001600160e01b03166323b872dd60e01b1790529151600092839290881691612c3991906134af565b6000604051808303816000865af19150503d8060008114612c76576040519150601f19603f3d011682016040523d82523d6000602084013e612c7b565b606091505b5091509150818015612ca5575080511580612ca5575080806020019051810190612ca59190613196565b61092d5760405162461bcd60e51b815260206004820152601160248201527021736166655472616e7366657246726f6d60781b604482015260640161038a565b6001600160a01b0383163b612d465760405162461bcd60e51b815260206004820152602160248201527f73616665417070726f76653a206e6f6e2d636f6e7472616374206164647265736044820152607360f81b606482015260840161038a565b604080516001600160a01b038481166024830152604480830185905283518084039091018152606490920183526020820180516001600160e01b031663095ea7b360e01b1790529151600092839290871691612da291906134af565b6000604051808303816000865af19150503d8060008114612ddf576040519150601f19603f3d011682016040523d82523d6000602084013e612de4565b606091505b5091509150818015612e0e575080511580612e0e575080806020019051810190612e0e9190613196565b612e495760405162461bcd60e51b815260206004820152600c60248201526b2173616665417070726f766560a01b604482015260640161038a565b5050505050565b6001606555565b612e5f612f6a565b6033805460ff191690557f5db9ee0a495bf2e6ff9c91a7834c1ba4fdd244a5e8aa4e537bd38aeae4b073aa335b6040516001600160a01b03909116815260200160405180910390a1565b612eb16121a4565b6033805460ff191660011790557f62e78cea01bee320cd4e420270b5ea74000d11b0c9f74754ebdbfc544b05a258612e8c3390565b600054610100900460ff16612f0d5760405162461bcd60e51b815260040161038a90613421565b6033805460ff19169055565b600054610100900460ff16612e505760405162461bcd60e51b815260040161038a90613421565b600081612f596b033b2e3c9fd0803ce800000085613498565b612f6391906133b5565b9392505050565b60335460ff1661211a5760405162461bcd60e51b815260206004820152601460248201527314185d5cd8589b194e881b9bdd081c185d5cd95960621b604482015260640161038a565b6001600160a01b038116811461181357600080fd5b600060208284031215612fda57600080fd5b8135612f6381612fb3565b600080600080600060a08688031215612ffd57600080fd5b853561300881612fb3565b9450602086013561301881612fb3565b9350604086013561302881612fb3565b9250606086013561303881612fb3565b9150608086013561304881612fb3565b809150509295509295909350565b6000806000806000806000806000806101208b8d03121561307657600080fd5b8a35995060208b0135985060408b0135975060608b013561309681612fb3565b965060808b0135955060a08b0135945060c08b01356130b481612fb3565b935060e08b01356130c481612fb3565b92506101008b013567ffffffffffffffff808211156130e257600080fd5b818d0191508d601f8301126130f657600080fd5b81358181111561310557600080fd5b8e602082850101111561311757600080fd5b6020830194508093505050509295989b9194979a5092959850565b60006020828403121561314457600080fd5b5035919050565b60006020828403121561315d57600080fd5b8151612f6381612fb3565b60006020828403121561317a57600080fd5b5051919050565b8051801515811461319157600080fd5b919050565b6000602082840312156131a857600080fd5b612f6382613181565b6020808252600a9082015269216f776e6572526f6c6560b01b604082015260600190565b60208082526031908201526000805160206134ec833981519152604082015270373b30b634b216b137b7b5a5b2b2b832b960791b606082015260800190565b60208082526032908201526000805160206134ec8339815191526040820152716e76616c69642d70726963654f7261636c6560701b606082015260800190565b60208082526039908201527f46697865645370726561644c69717569646174696f6e53747261746567792f6c60408201527f69717569646174696f6e456e67696e652d6e6f742d6c69766500000000000000606082015260800190565b634e487b7160e01b600052601160045260246000fd5b6000600160ff1b82016132dc576132dc6132b1565b5060000390565b818103818111156132f6576132f66132b1565b92915050565b60018060a01b038616815284602082015283604082015260806060820152816080820152818360a0830137600081830160a090810191909152601f909201601f19160101949350505050565b60005b8381101561336357818101518382015260200161334b565b50506000910152565b60018060a01b0384168152826020820152606060408201526000825180606084015261339f816080850160208701613348565b601f01601f191691909101608001949350505050565b6000826133d257634e487b7160e01b600052601260045260246000fd5b500490565b808201808211156132f6576132f66132b1565b60208082526017908201527f21286f776e6572526f6c65206f7220676f76526f6c6529000000000000000000604082015260600190565b6020808252602b908201527f496e697469616c697a61626c653a20636f6e7472616374206973206e6f74206960408201526a6e697469616c697a696e6760a81b606082015260800190565b6000806040838503121561347f57600080fd5b8251915061348f60208401613181565b90509250929050565b80820281158282048414176132f6576132f66132b1565b600082516134c1818460208701613348565b919091019291505056fe46697865645370726561644c69717569646174696f6e53747261746567792f7a46697865645370726561644c69717569646174696f6e53747261746567792f69a2646970667358221220efc5f9f4836d77aa60ddef2f16328385b55cd51f2a6fe998cd001b98d266edce64736f6c63430008110033",
    "immutableReferences": {},
    "source": "// SPDX-License-Identifier: AGPL-3.0-or-later\npragma solidity 0.8.17;\n\nimport \"@openzeppelin/contracts-upgradeable/security/PausableUpgradeable.sol\";\nimport \"@openzeppelin/contracts-upgradeable/security/ReentrancyGuardUpgradeable.sol\";\n\nimport \"../../interfaces/IBookKeeper.sol\";\nimport \"../../interfaces/IPriceFeed.sol\";\nimport \"../../interfaces/IPriceOracle.sol\";\nimport \"../../interfaces/ILiquidationEngine.sol\";\nimport \"../../interfaces/ILiquidationStrategy.sol\";\nimport \"../../interfaces/ISystemDebtEngine.sol\";\nimport \"../../interfaces/IFlashLendingCallee.sol\";\nimport \"../../interfaces/IGenericTokenAdapter.sol\";\nimport \"../../interfaces/IStablecoinAdapter.sol\";\nimport \"../../interfaces/IERC165.sol\";\nimport \"../../utils/SafeToken.sol\";\nimport \"../../utils/CommonMath.sol\";\n\n/**\n * @title FixedSpreadLiquidationStrategy\n * @notice A contract representing a fixed spread liquidation strategy.\n * This strategy is used for liquidating undercollateralized positions in a collateral pool.\n * The strategy calculates the amount of debt and collateral to be liquidated based on current market conditions.\n * @dev The FixedSpreadLiquidationStrategy contract implements the ILiquidationStrategy interface.\n */\ncontract FixedSpreadLiquidationStrategy is CommonMath, PausableUpgradeable, ReentrancyGuardUpgradeable, ILiquidationStrategy {\n    using SafeToken for address;\n\n    struct LiquidationInfo {\n        uint256 positionDebtShare; // [wad]\n        uint256 positionCollateralAmount; // [wad]\n        uint256 debtShareToBeLiquidated; // [wad]\n        uint256 maxDebtShareToBeLiquidated; // [wad]\n        uint256 actualDebtValueToBeLiquidated; // [rad]\n        uint256 actualDebtShareToBeLiquidated; // [wad]\n        uint256 collateralAmountToBeLiquidated; // [wad]\n        uint256 treasuryFees; // [wad]\n        uint256 maxLiquidatableDebtShare; // [wad]\n    }\n\n    struct LocalVars {\n        uint256 debtAccumulatedRate; // [ray]\n        uint256 closeFactorBps;\n        uint256 liquidatorIncentiveBps;\n        uint256 debtFloor; // [rad]\n        uint256 treasuryFeesBps;\n    }\n\n    IBookKeeper public bookKeeper; // Core CDP Engine\n    ILiquidationEngine public liquidationEngine; // Liquidation module\n    ISystemDebtEngine public systemDebtEngine; // Recipient of FUSD raised in auctions\n    IPriceOracle public priceOracle; // Collateral price module\n    IStablecoinAdapter public stablecoinAdapter; //StablecoinAdapter to deposit FXD to bookKeeper\n\n    uint256 public flashLendingEnabled;\n\n    bytes4 internal constant FLASH_LENDING_ID = 0xaf7bd142;\n\n    event LogFixedSpreadLiquidate(\n        bytes32 indexed _collateralPoolId,\n        uint256 _positionDebtShare,\n        uint256 _positionCollateralAmount,\n        address indexed _positionAddress,\n        uint256 _debtShareToBeLiquidated,\n        uint256 _maxDebtShareToBeLiquidated,\n        address indexed _liquidatorAddress,\n        address _collateralRecipient,\n        uint256 _actualDebtShareToBeLiquidated,\n        uint256 _actualDebtValueToBeLiquidated,\n        uint256 _collateralAmountToBeLiquidated,\n        uint256 _treasuryFees\n    );\n    event LogSetFlashLendingEnabled(address indexed caller, uint256 _flashLendingEnabled);\n\n    modifier onlyOwnerOrGov() {\n        IAccessControlConfig _accessControlConfig = IAccessControlConfig(bookKeeper.accessControlConfig());\n        require(\n            _accessControlConfig.hasRole(_accessControlConfig.OWNER_ROLE(), msg.sender) ||\n                _accessControlConfig.hasRole(_accessControlConfig.GOV_ROLE(), msg.sender),\n            \"!(ownerRole or govRole)\"\n        );\n        _;\n    }\n\n    modifier onlyOwner() {\n        IAccessControlConfig _accessControlConfig = IAccessControlConfig(bookKeeper.accessControlConfig());\n        require(_accessControlConfig.hasRole(_accessControlConfig.OWNER_ROLE(), msg.sender), \"!ownerRole\");\n        _;\n    }\n    /**\n     * @notice Initializes the FixedSpreadLiquidationStrategy contract with required dependencies.\n     * @param _bookKeeper The address of the BookKeeper contract.\n     * @param _priceOracle The address of the PriceOracle contract.\n     * @param _liquidationEngine The address of the LiquidationEngine contract.\n     * @param _systemDebtEngine The address of the SystemDebtEngine contract.\n     * @param _stablecoinAdapter The address of the StablecoinAdapter contract used for depositing FXD to the BookKeeper.\n     * @dev Reverts if any of the input parameters are the zero address or invalid.\n     */\n    function initialize(\n        address _bookKeeper,\n        address _priceOracle,\n        address _liquidationEngine,\n        address _systemDebtEngine,\n        address _stablecoinAdapter\n    ) external initializer {\n        PausableUpgradeable.__Pausable_init();\n        ReentrancyGuardUpgradeable.__ReentrancyGuard_init();\n\n        require(IBookKeeper(_bookKeeper).totalStablecoinIssued() >= 0, \"FixedSpreadLiquidationStrategy/invalid-bookKeeper\"); // Sanity Check Call\n        bookKeeper = IBookKeeper(_bookKeeper);\n\n        require(IPriceOracle(_priceOracle).stableCoinReferencePrice() >= 0, \"FixedSpreadLiquidationStrategy/invalid-priceOracle\"); // Sanity Check Call\n        priceOracle = IPriceOracle(_priceOracle);\n\n        require(ILiquidationEngine(_liquidationEngine).live() == 1, \"FixedSpreadLiquidationStrategy/liquidationEngine-not-live\"); // Sanity Check Call\n        liquidationEngine = ILiquidationEngine(_liquidationEngine);\n\n        require(ISystemDebtEngine(_systemDebtEngine).surplusBuffer() >= 0, \"FixedSpreadLiquidationStrategy/invalid-systemDebtEngine\"); // Sanity Check Call\n        systemDebtEngine = ISystemDebtEngine(_systemDebtEngine);\n\n        require(\n            address(IStablecoinAdapter(_stablecoinAdapter).stablecoin()) != address(0),\n            \"FixedSpreadLiquidationStrategy/invalid-stablecoinAdapter\"\n        ); // Sanity Check Call\n        stablecoinAdapter = IStablecoinAdapter(_stablecoinAdapter); //StablecoinAdapter to deposit FXD to bookKeeper\n    }\n    /// @dev access: OWNER_ROLE, GOV_ROLE\n    function pause() external onlyOwnerOrGov {\n        _pause();\n    }\n    /// @dev access: OWNER_ROLE, GOV_ROLE\n    function unpause() external onlyOwnerOrGov {\n        _unpause();\n    }\n    /**\n     * @notice Sets the flash lending feature to enabled or disabled.\n     * @param _flashLendingEnabled The value indicating whether flash lending should be enabled (1) or disabled (0).\n     * @dev This function can only be called by the contract owner or governance.\n     * @dev Emits a LogSetFlashLendingEnabled event upon a successful update.\n     */\n    function setFlashLendingEnabled(uint256 _flashLendingEnabled) external onlyOwnerOrGov {\n        flashLendingEnabled = _flashLendingEnabled;\n        emit LogSetFlashLendingEnabled(msg.sender, _flashLendingEnabled);\n    }\n\n    // solhint-disable function-max-lines\n    function execute(\n        bytes32 _collateralPoolId,\n        uint256 _positionDebtShare, // positionDebtShare                  [wad]\n        uint256 _positionCollateralAmount, // positionLockedCollateral           [wad]\n        address _positionAddress, // Address that will receive any leftover collateral\n        uint256 _debtShareToBeLiquidated, // The value of debt to be liquidated as specified by the liquidator [wad]\n        uint256 _maxDebtShareToBeLiquidated, // The maximum value of debt to be liquidated as specified by the liquidator in case of full liquidation for slippage control [wad]\n        address _liquidatorAddress,\n        address _collateralRecipient,\n        bytes calldata _data // Data to pass in external call; if length 0, no call is done\n    ) external override nonReentrant whenNotPaused {\n        require(\n            IAccessControlConfig(bookKeeper.accessControlConfig()).hasRole(\n                IAccessControlConfig(bookKeeper.accessControlConfig()).LIQUIDATION_ENGINE_ROLE(),\n                msg.sender\n            ),\n            \"!liquidationEngingRole\"\n        );\n\n        require(_positionDebtShare > 0, \"FixedSpreadLiquidationStrategy/zero-debt\");\n        require(_positionCollateralAmount > 0, \"FixedSpreadLiquidationStrategy/zero-collateral-amount\");\n        require(_positionAddress != address(0), \"FixedSpreadLiquidationStrategy/zero-position-address\");\n\n        uint256 _currentCollateralPrice = getFeedPrice(_collateralPoolId); // [ray]\n        require(_currentCollateralPrice > 0, \"FixedSpreadLiquidationStrategy/zero-collateral-price\");\n\n        LiquidationInfo memory info = _calculateLiquidationInfo(\n            _collateralPoolId,\n            _debtShareToBeLiquidated,\n            _currentCollateralPrice,\n            _positionCollateralAmount,\n            _positionDebtShare\n        );\n\n        require(\n            info.actualDebtShareToBeLiquidated <= _maxDebtShareToBeLiquidated,\n            \"FixedSpreadLiquidationStrategy/exceed-max-debt-value-to-be-liquidated\"\n        );\n        require(\n            info.collateralAmountToBeLiquidated < 2 ** 255 && info.actualDebtShareToBeLiquidated < 2 ** 255,\n            \"FixedSpreadLiquidationStrategy/overflow\"\n        );\n\n        bookKeeper.confiscatePosition(\n            _collateralPoolId,\n            _positionAddress,\n            address(this),\n            address(systemDebtEngine),\n            -int256(info.collateralAmountToBeLiquidated),\n            -int256(info.actualDebtShareToBeLiquidated)\n        );\n        IGenericTokenAdapter _adapter = IGenericTokenAdapter(ICollateralPoolConfig(bookKeeper.collateralPoolConfig()).getAdapter(_collateralPoolId));\n\n        if (info.treasuryFees > 0) {\n            bookKeeper.moveCollateral(_collateralPoolId, address(this), address(systemDebtEngine), info.treasuryFees);\n        }\n\n        if (\n            flashLendingEnabled == 1 &&\n            _data.length > 0 &&\n            _collateralRecipient != address(bookKeeper) &&\n            _collateralRecipient != address(liquidationEngine) &&\n            IERC165(_collateralRecipient).supportsInterface(FLASH_LENDING_ID)\n        ) {\n            //there should be ERC165 function selector check added to above condition\n            bookKeeper.moveCollateral(\n                _collateralPoolId,\n                address(this),\n                _collateralRecipient,\n                info.collateralAmountToBeLiquidated - info.treasuryFees\n            );\n\n            IFlashLendingCallee(_collateralRecipient).flashLendingCall(\n                msg.sender,\n                info.actualDebtValueToBeLiquidated,\n                info.collateralAmountToBeLiquidated - info.treasuryFees,\n                _data\n            );\n        } else {\n            _adapter.withdraw(_collateralRecipient, info.collateralAmountToBeLiquidated - info.treasuryFees, abi.encode(0));\n            address _stablecoin = address(stablecoinAdapter.stablecoin());\n            _stablecoin.safeTransferFrom(_liquidatorAddress, address(this), ((info.actualDebtValueToBeLiquidated / RAY) + 1));\n            _stablecoin.safeApprove(address(stablecoinAdapter), ((info.actualDebtValueToBeLiquidated / RAY) + 1));\n            stablecoinAdapter.depositRAD(_liquidatorAddress, info.actualDebtValueToBeLiquidated, abi.encode(0));\n        }\n\n        bookKeeper.moveStablecoin(_liquidatorAddress, address(systemDebtEngine), info.actualDebtValueToBeLiquidated);\n\n        info.positionDebtShare = _positionDebtShare;\n        info.positionCollateralAmount = _positionCollateralAmount;\n        info.debtShareToBeLiquidated = _debtShareToBeLiquidated;\n        info.maxDebtShareToBeLiquidated = _maxDebtShareToBeLiquidated;\n        emit LogFixedSpreadLiquidate(\n            _collateralPoolId,\n            info.positionDebtShare,\n            info.positionCollateralAmount,\n            _positionAddress,\n            info.debtShareToBeLiquidated,\n            info.maxDebtShareToBeLiquidated,\n            _liquidatorAddress,\n            _collateralRecipient,\n            info.actualDebtShareToBeLiquidated,\n            info.actualDebtValueToBeLiquidated,\n            info.collateralAmountToBeLiquidated,\n            info.treasuryFees\n        );\n    }\n\n    // solhint-enable function-max-lines\n\n    function setPriceOracle(address _priceOracle) external onlyOwner {\n        require(IPriceOracle(_priceOracle).stableCoinReferencePrice() >= 0, \"FixedSpreadLiquidationStrategy/invalid-priceOracle\"); // Sanity Check Call\n        priceOracle = IPriceOracle(_priceOracle);\n    }\n\n    function setBookKeeper(address _bookKeeper) external onlyOwner {\n        require(IBookKeeper(_bookKeeper).totalStablecoinIssued() >= 0, \"FixedSpreadLiquidationStrategy/invalid-bookKeeper\"); // Sanity Check Call\n        bookKeeper = IBookKeeper(_bookKeeper);\n    }\n\n    function setLiquidationEngine(address _liquidationEngine) external onlyOwner {\n        require(ILiquidationEngine(_liquidationEngine).live() == 1, \"FixedSpreadLiquidationStrategy/liquidationEngine-not-live\"); // Sanity Check Call\n        liquidationEngine = ILiquidationEngine(_liquidationEngine);\n    }\n\n    function getFeedPrice(bytes32 collateralPoolId) internal returns (uint256 feedPrice) {\n        address _priceFeedAddress = ICollateralPoolConfig(bookKeeper.collateralPoolConfig()).getPriceFeed(collateralPoolId);\n        IPriceFeed _priceFeed = IPriceFeed(_priceFeedAddress);\n        (uint256 price, bool priceOk) = _priceFeed.peekPrice();\n        require(priceOk, \"FixedSpreadLiquidationStrategy/invalid-price\");\n        // (price [wad] * BLN [10 ** 9] ) [ray] / priceOracle.stableCoinReferencePrice [ray]\n        feedPrice = rdiv(price * BLN, priceOracle.stableCoinReferencePrice()); // [ray]\n    }\n\n    // solhint-disable function-max-lines\n    function _calculateLiquidationInfo(\n        bytes32 _collateralPoolId,\n        uint256 _debtShareToBeLiquidated,\n        uint256 _currentCollateralPrice,\n        uint256 _positionCollateralAmount,\n        uint256 _positionDebtShare\n    ) internal view returns (LiquidationInfo memory info) {\n        LocalVars memory _vars;\n        _vars.debtAccumulatedRate = ICollateralPoolConfig(bookKeeper.collateralPoolConfig()).getDebtAccumulatedRate(_collateralPoolId); // [ray]\n        _vars.closeFactorBps = ICollateralPoolConfig(bookKeeper.collateralPoolConfig()).getCloseFactorBps(_collateralPoolId);\n        _vars.liquidatorIncentiveBps = ICollateralPoolConfig(bookKeeper.collateralPoolConfig()).getLiquidatorIncentiveBps(_collateralPoolId);\n        _vars.debtFloor = ICollateralPoolConfig(bookKeeper.collateralPoolConfig()).getDebtFloor(_collateralPoolId); // [rad]\n        _vars.treasuryFeesBps = ICollateralPoolConfig(bookKeeper.collateralPoolConfig()).getTreasuryFeesBps(_collateralPoolId);\n\n        uint256 _positionDebtValue = _positionDebtShare * _vars.debtAccumulatedRate;\n\n        require(_vars.closeFactorBps > 0, \"FixedSpreadLiquidationStrategy/close-factor-bps-not-set\");\n        info.maxLiquidatableDebtShare = (_positionDebtShare * _vars.closeFactorBps) / 10000; // [wad]\n\n        info.actualDebtShareToBeLiquidated = _debtShareToBeLiquidated > info.maxLiquidatableDebtShare\n            ? info.maxLiquidatableDebtShare\n            : _debtShareToBeLiquidated; // [wad]\n        info.actualDebtValueToBeLiquidated = info.actualDebtShareToBeLiquidated * _vars.debtAccumulatedRate; // [rad]\n\n        uint256 _maxCollateralAmountToBeLiquidated = \n            ((info.actualDebtValueToBeLiquidated * _vars.liquidatorIncentiveBps) / 10000) / _currentCollateralPrice; // [wad]\n\n        if (\n            _maxCollateralAmountToBeLiquidated > _positionCollateralAmount ||\n            (_positionCollateralAmount - _maxCollateralAmountToBeLiquidated) * _currentCollateralPrice <\n            _positionDebtValue - info.actualDebtValueToBeLiquidated\n        ) {\n            info.collateralAmountToBeLiquidated = _positionCollateralAmount;\n            info.actualDebtValueToBeLiquidated = (_currentCollateralPrice * _positionCollateralAmount * 10000) / _vars.liquidatorIncentiveBps; // [rad]\n        } else {\n            if (\n                _positionDebtValue > info.actualDebtValueToBeLiquidated &&\n                _positionDebtValue - info.actualDebtValueToBeLiquidated < _vars.debtFloor\n            ) {\n                info.actualDebtValueToBeLiquidated = _positionDebtValue; // [rad]\n                info.collateralAmountToBeLiquidated = \n                ((info.actualDebtValueToBeLiquidated * _vars.liquidatorIncentiveBps) / 10000) / _currentCollateralPrice; // [wad]\n            } else {\n                info.collateralAmountToBeLiquidated = _maxCollateralAmountToBeLiquidated; // [wad]\n            }\n        }\n\n        info.actualDebtShareToBeLiquidated = info.actualDebtValueToBeLiquidated / _vars.debtAccumulatedRate; // [wad]\n\n        // collateralAmountToBeLiquidated - (collateralAmountToBeLiquidated * 10000 / liquidatorIncentiveBps)\n        // 1 - (1 * 10000 / 10500) = 0.047619048 which is roughly around 0.05\n        uint256 liquidatorIncentiveCollectedFromPosition = \n            info.collateralAmountToBeLiquidated - (info.collateralAmountToBeLiquidated * 10000 / _vars.liquidatorIncentiveBps); // [wad]\n\n        // liquidatorIncentiveCollectedFromPosition * (treasuryFeesBps) / 10000\n        // 0.047619048 * 5000 / 10000\n        info.treasuryFees = (liquidatorIncentiveCollectedFromPosition * _vars.treasuryFeesBps) / 10000; // [wad]\n    }\n    // solhint-enable function-max-lines\n}\n",
    "sourcePath": "/Users/aleksey/SolidityProjects2/fathom-stablecoin-smart-contracts/contracts/main/stablecoin-core/liquidation-strategies/FixedSpreadLiquidationStrategy.sol",
    "compiler": {
        "name": "solc",
        "version": "0.8.17+commit.8df45f5f.Emscripten.clang"
    },
    "schemaVersion": "3.4.15",
    "updatedAt": "2023-08-10T12:55:05.764Z",
    "devdoc": {
        "details": "The FixedSpreadLiquidationStrategy contract implements the ILiquidationStrategy interface.",
        "kind": "dev",
        "methods": {
            "initialize(address,address,address,address,address)": {
                "details": "Reverts if any of the input parameters are the zero address or invalid.",
                "params": {
                    "_bookKeeper": "The address of the BookKeeper contract.",
                    "_liquidationEngine": "The address of the LiquidationEngine contract.",
                    "_priceOracle": "The address of the PriceOracle contract.",
                    "_stablecoinAdapter": "The address of the StablecoinAdapter contract used for depositing FXD to the BookKeeper.",
                    "_systemDebtEngine": "The address of the SystemDebtEngine contract."
                }
            },
            "pause()": {
                "details": "access: OWNER_ROLE, GOV_ROLE"
            },
            "paused()": {
                "details": "Returns true if the contract is paused, and false otherwise."
            },
            "setFlashLendingEnabled(uint256)": {
                "details": "This function can only be called by the contract owner or governance.Emits a LogSetFlashLendingEnabled event upon a successful update.",
                "params": {
                    "_flashLendingEnabled": "The value indicating whether flash lending should be enabled (1) or disabled (0)."
                }
            },
            "unpause()": {
                "details": "access: OWNER_ROLE, GOV_ROLE"
            }
        },
        "title": "FixedSpreadLiquidationStrategy",
        "version": 1
    },
    "userdoc": {
        "kind": "user",
        "methods": {
            "initialize(address,address,address,address,address)": {
                "notice": "Initializes the FixedSpreadLiquidationStrategy contract with required dependencies."
            },
            "setFlashLendingEnabled(uint256)": {
                "notice": "Sets the flash lending feature to enabled or disabled."
            }
        },
        "notice": "A contract representing a fixed spread liquidation strategy. This strategy is used for liquidating undercollateralized positions in a collateral pool. The strategy calculates the amount of debt and collateral to be liquidated based on current market conditions.",
        "version": 1
    }
}