{
    "contractName": "FlashMintArbitrager",
    "abi": [
        {
            "anonymous": false,
            "inputs": [
                {
                    "indexed": false,
                    "internalType": "uint8",
                    "name": "version",
                    "type": "uint8"
                }
            ],
            "name": "Initialized",
            "type": "event"
        },
        {
            "anonymous": false,
            "inputs": [
                {
                    "indexed": true,
                    "internalType": "address",
                    "name": "previousOwner",
                    "type": "address"
                },
                {
                    "indexed": true,
                    "internalType": "address",
                    "name": "newOwner",
                    "type": "address"
                }
            ],
            "name": "OwnershipTransferred",
            "type": "event"
        },
        {
            "inputs": [],
            "name": "owner",
            "outputs": [
                {
                    "internalType": "address",
                    "name": "",
                    "type": "address"
                }
            ],
            "stateMutability": "view",
            "type": "function"
        },
        {
            "inputs": [],
            "name": "renounceOwnership",
            "outputs": [],
            "stateMutability": "nonpayable",
            "type": "function"
        },
        {
            "inputs": [
                {
                    "internalType": "address",
                    "name": "newOwner",
                    "type": "address"
                }
            ],
            "name": "transferOwnership",
            "outputs": [],
            "stateMutability": "nonpayable",
            "type": "function"
        },
        {
            "inputs": [],
            "name": "initialize",
            "outputs": [],
            "stateMutability": "nonpayable",
            "type": "function"
        },
        {
            "inputs": [
                {
                    "internalType": "address",
                    "name": "",
                    "type": "address"
                },
                {
                    "internalType": "address",
                    "name": "token",
                    "type": "address"
                },
                {
                    "internalType": "uint256",
                    "name": "amount",
                    "type": "uint256"
                },
                {
                    "internalType": "uint256",
                    "name": "fee",
                    "type": "uint256"
                },
                {
                    "internalType": "bytes",
                    "name": "data",
                    "type": "bytes"
                }
            ],
            "name": "onFlashLoan",
            "outputs": [
                {
                    "internalType": "bytes32",
                    "name": "",
                    "type": "bytes32"
                }
            ],
            "stateMutability": "nonpayable",
            "type": "function"
        }
    ],
    "bytecode": "0x608060405234801561001057600080fd5b50610b46806100206000396000f3fe608060405234801561001057600080fd5b50600436106100575760003560e01c806323e30c8b1461005c578063715018a6146100825780638129fc1c1461008c5780638da5cb5b14610094578063f2fde38b146100af575b600080fd5b61006f61006a3660046107b2565b6100c2565b6040519081526020015b60405180910390f35b61008a6102fc565b005b61008a610310565b6033546040516001600160a01b039091168152602001610079565b61008a6100bd36600461085c565b610426565b60008080806100d385870187610879565b604080516002808252606082018352949750929550909350600092906020830190803683370190505090508981600081518110610112576101126108da565b60200260200101906001600160a01b031690816001600160a01b0316815250508281600181518110610146576101466108da565b6001600160a01b03928316602091820292909201015260009061016a90851661049c565b90506101826001600160a01b038c168660001961050d565b6040516338ed173960e01b81526001600160a01b038616906338ed1739906101b7908d906000908790309042906004016108f0565b6000604051808303816000875af11580156101d6573d6000803e3d6000fd5b505050506040513d6000823e601f3d908101601f191682016040526101fe9190810190610961565b506102146001600160a01b038c1686600061050d565b6000610228856001600160a01b031661049c565b90506001600160a01b0384166340853dce306102448486610678565b6040516001600160e01b031960e085901b1681526001600160a01b0390921660048301526024820152604401600060405180830381600087803b15801561028a57600080fd5b505af115801561029e573d6000803e3d6000fd5b505050506102ca336102b98c8e61068b90919063ffffffff16565b6001600160a01b038f16919061050d565b507f439148f0bbc682ca079e46d6e2c2f0c1e3b820f1a291b069d8882abf8cf18dd99c9b505050505050505050505050565b610304610697565b61030e60006106f1565b565b600054610100900460ff16158080156103305750600054600160ff909116105b8061034a5750303b15801561034a575060005460ff166001145b6103b25760405162461bcd60e51b815260206004820152602e60248201527f496e697469616c697a61626c653a20636f6e747261637420697320616c72656160448201526d191e481a5b9a5d1a585b1a5e995960921b60648201526084015b60405180910390fd5b6000805460ff1916600117905580156103d5576000805461ff0019166101001790555b6103dd610743565b8015610423576000805461ff0019169055604051600181527f7f26b83ff96e1f2b6a682f133852f6798a09c465da95921460cefb38474024989060200160405180910390a15b50565b61042e610697565b6001600160a01b0381166104935760405162461bcd60e51b815260206004820152602660248201527f4f776e61626c653a206e6577206f776e657220697320746865207a65726f206160448201526564647265737360d01b60648201526084016103a9565b610423816106f1565b6040516370a0823160e01b81523060048201526000906001600160a01b038316906370a0823190602401602060405180830381865afa1580156104e3573d6000803e3d6000fd5b505050506040513d601f19601f820116820180604052508101906105079190610a1f565b92915050565b6001600160a01b0383163b61056e5760405162461bcd60e51b815260206004820152602160248201527f73616665417070726f76653a206e6f6e2d636f6e7472616374206164647265736044820152607360f81b60648201526084016103a9565b604080516001600160a01b038481166024830152604480830185905283518084039091018152606490920183526020820180516001600160e01b031663095ea7b360e01b17905291516000928392908716916105ca9190610a38565b6000604051808303816000865af19150503d8060008114610607576040519150601f19603f3d011682016040523d82523d6000602084013e61060c565b606091505b50915091508180156106365750805115806106365750808060200190518101906106369190610a67565b6106715760405162461bcd60e51b815260206004820152600c60248201526b2173616665417070726f766560a01b60448201526064016103a9565b5050505050565b60006106848284610a9f565b9392505050565b60006106848284610ab2565b6033546001600160a01b0316331461030e5760405162461bcd60e51b815260206004820181905260248201527f4f776e61626c653a2063616c6c6572206973206e6f7420746865206f776e657260448201526064016103a9565b603380546001600160a01b038381166001600160a01b0319831681179093556040519116919082907f8be0079c531659141344cd1fd0a4f28419497f9722a3daafe3b4186f6b6457e090600090a35050565b600054610100900460ff1661076a5760405162461bcd60e51b81526004016103a990610ac5565b61030e600054610100900460ff166107945760405162461bcd60e51b81526004016103a990610ac5565b61030e336106f1565b6001600160a01b038116811461042357600080fd5b60008060008060008060a087890312156107cb57600080fd5b86356107d68161079d565b955060208701356107e68161079d565b94506040870135935060608701359250608087013567ffffffffffffffff8082111561081157600080fd5b818901915089601f83011261082557600080fd5b81358181111561083457600080fd5b8a602082850101111561084657600080fd5b6020830194508093505050509295509295509295565b60006020828403121561086e57600080fd5b81356106848161079d565b60008060006060848603121561088e57600080fd5b83356108998161079d565b925060208401356108a98161079d565b915060408401356108b98161079d565b809150509250925092565b634e487b7160e01b600052604160045260246000fd5b634e487b7160e01b600052603260045260246000fd5b600060a082018783526020878185015260a0604085015281875180845260c086019150828901935060005b818110156109405784516001600160a01b03168352938301939183019160010161091b565b50506001600160a01b03969096166060850152505050608001529392505050565b6000602080838503121561097457600080fd5b825167ffffffffffffffff8082111561098c57600080fd5b818501915085601f8301126109a057600080fd5b8151818111156109b2576109b26108c4565b8060051b604051601f19603f830116810181811085821117156109d7576109d76108c4565b6040529182528482019250838101850191888311156109f557600080fd5b938501935b82851015610a13578451845293850193928501926109fa565b98975050505050505050565b600060208284031215610a3157600080fd5b5051919050565b6000825160005b81811015610a595760208186018101518583015201610a3f565b506000920191825250919050565b600060208284031215610a7957600080fd5b8151801515811461068457600080fd5b634e487b7160e01b600052601160045260246000fd5b8181038181111561050757610507610a89565b8082018082111561050757610507610a89565b6020808252602b908201527f496e697469616c697a61626c653a20636f6e7472616374206973206e6f74206960408201526a6e697469616c697a696e6760a81b60608201526080019056fea2646970667358221220f0b0cc82f245cd8e4b55b69d3961ff5bedd19f5f0a48021eef5fb4193c15632664736f6c63430008110033",
    "immutableReferences": {},
    "source": "// SPDX-License-Identifier: MIT\npragma solidity 0.8.17;\n\nimport \"@openzeppelin/contracts-upgradeable/access/OwnableUpgradeable.sol\";\nimport \"@openzeppelin/contracts-upgradeable/utils/math/SafeMathUpgradeable.sol\";\n\nimport \"../../main/interfaces/IERC3156FlashBorrower.sol\";\nimport \"../../main/interfaces/IStableSwapModule.sol\";\nimport \"../../main/interfaces/IStablecoinAdapter.sol\";\nimport \"../../main/utils/SafeToken.sol\";\nimport \"../../main/apis/interfaces/IFathomSwapRouter.sol\";\n\ncontract FlashMintArbitrager is OwnableUpgradeable, IERC3156FlashBorrower {\n    using SafeMathUpgradeable for uint256;\n    using SafeToken for address;\n\n    function initialize() external initializer {\n        OwnableUpgradeable.__Ownable_init();\n    }\n\n    function onFlashLoan(address, address token, uint256 amount, uint256 fee, bytes calldata data) external override returns (bytes32) {\n        (address router, address stableSwapToken, address stableSwapModule) = abi.decode(data, (address, address, address));\n        address[] memory path = new address[](2);\n        path[0] = token;\n        path[1] = stableSwapToken;\n\n        // 1. Swap AUSD to BUSD at a DEX\n        uint256 balanceBefore = stableSwapToken.myBalance();\n        token.safeApprove(router, type(uint).max);\n        IFathomSwapRouter(router).swapExactTokensForTokens(amount, 0, path, address(this), block.timestamp);\n        token.safeApprove(router, 0);\n        uint256 balanceAfter = stableSwapToken.myBalance();\n        // 2. Swap BUSD to AUSD at StableSwapModule\n        //stableSwapToken.safeApprove(address(IStableSwapModule(stableSwapModule).authTokenAdapter()), type(uint).max);\n        IStableSwapModule(stableSwapModule).swapTokenToStablecoin(address(this), balanceAfter.sub(balanceBefore));\n        //stableSwapToken.safeApprove(address(IStableSwapModule(stableSwapModule).authTokenAdapter()), 0);\n\n        // 3. Approve AUSD for FlashMintModule\n        token.safeApprove(msg.sender, amount.add(fee));\n\n        return keccak256(\"ERC3156FlashBorrower.onFlashLoan\");\n    }\n}\n",
    "sourcePath": "/Users/aleksey/SolidityProjects2/fathom-stablecoin-smart-contracts/contracts/tests/mocks/FlashMintArbitrager.sol",
    "compiler": {
        "name": "solc",
        "version": "0.8.17+commit.8df45f5f.Emscripten.clang"
    },
    "schemaVersion": "3.4.15",
    "updatedAt": "2023-08-10T12:55:05.810Z",
    "devdoc": {
        "kind": "dev",
        "methods": {
            "owner()": {
                "details": "Returns the address of the current owner."
            },
            "renounceOwnership()": {
                "details": "Leaves the contract without owner. It will not be possible to call `onlyOwner` functions. Can only be called by the current owner. NOTE: Renouncing ownership will leave the contract without an owner, thereby disabling any functionality that is only available to the owner."
            },
            "transferOwnership(address)": {
                "details": "Transfers ownership of the contract to a new account (`newOwner`). Can only be called by the current owner."
            }
        },
        "version": 1
    },
    "userdoc": {
        "kind": "user",
        "methods": {},
        "version": 1
    }
}