{
    "contractName": "FlashMintModule",
    "abi": [
        {
            "anonymous": false,
            "inputs": [
                {
                    "indexed": false,
                    "internalType": "uint8",
                    "name": "version",
                    "type": "uint8"
                }
            ],
            "name": "Initialized",
            "type": "event"
        },
        {
            "anonymous": false,
            "inputs": [
                {
                    "indexed": true,
                    "internalType": "address",
                    "name": "_receiver",
                    "type": "address"
                },
                {
                    "indexed": false,
                    "internalType": "uint256",
                    "name": "_amount",
                    "type": "uint256"
                },
                {
                    "indexed": false,
                    "internalType": "uint256",
                    "name": "_fee",
                    "type": "uint256"
                }
            ],
            "name": "LogBookKeeperFlashLoan",
            "type": "event"
        },
        {
            "anonymous": false,
            "inputs": [
                {
                    "indexed": true,
                    "internalType": "address",
                    "name": "_receiver",
                    "type": "address"
                },
                {
                    "indexed": true,
                    "internalType": "address",
                    "name": "_token",
                    "type": "address"
                },
                {
                    "indexed": false,
                    "internalType": "uint256",
                    "name": "_amount",
                    "type": "uint256"
                },
                {
                    "indexed": false,
                    "internalType": "uint256",
                    "name": "_fee",
                    "type": "uint256"
                }
            ],
            "name": "LogFlashLoan",
            "type": "event"
        },
        {
            "anonymous": false,
            "inputs": [
                {
                    "indexed": false,
                    "internalType": "uint256",
                    "name": "_data",
                    "type": "uint256"
                }
            ],
            "name": "LogSetFeeRate",
            "type": "event"
        },
        {
            "anonymous": false,
            "inputs": [
                {
                    "indexed": false,
                    "internalType": "uint256",
                    "name": "_data",
                    "type": "uint256"
                }
            ],
            "name": "LogSetMax",
            "type": "event"
        },
        {
            "anonymous": false,
            "inputs": [
                {
                    "indexed": false,
                    "internalType": "address",
                    "name": "account",
                    "type": "address"
                }
            ],
            "name": "Paused",
            "type": "event"
        },
        {
            "anonymous": false,
            "inputs": [
                {
                    "indexed": false,
                    "internalType": "address",
                    "name": "account",
                    "type": "address"
                }
            ],
            "name": "Unpaused",
            "type": "event"
        },
        {
            "inputs": [],
            "name": "CALLBACK_SUCCESS",
            "outputs": [
                {
                    "internalType": "bytes32",
                    "name": "",
                    "type": "bytes32"
                }
            ],
            "stateMutability": "view",
            "type": "function"
        },
        {
            "inputs": [],
            "name": "CALLBACK_SUCCESS_BOOK_KEEPER_STABLE_COIN",
            "outputs": [
                {
                    "internalType": "bytes32",
                    "name": "",
                    "type": "bytes32"
                }
            ],
            "stateMutability": "view",
            "type": "function"
        },
        {
            "inputs": [],
            "name": "bookKeeper",
            "outputs": [
                {
                    "internalType": "contract IBookKeeper",
                    "name": "",
                    "type": "address"
                }
            ],
            "stateMutability": "view",
            "type": "function"
        },
        {
            "inputs": [],
            "name": "feeRate",
            "outputs": [
                {
                    "internalType": "uint256",
                    "name": "",
                    "type": "uint256"
                }
            ],
            "stateMutability": "view",
            "type": "function"
        },
        {
            "inputs": [],
            "name": "max",
            "outputs": [
                {
                    "internalType": "uint256",
                    "name": "",
                    "type": "uint256"
                }
            ],
            "stateMutability": "view",
            "type": "function"
        },
        {
            "inputs": [],
            "name": "paused",
            "outputs": [
                {
                    "internalType": "bool",
                    "name": "",
                    "type": "bool"
                }
            ],
            "stateMutability": "view",
            "type": "function"
        },
        {
            "inputs": [],
            "name": "stablecoin",
            "outputs": [
                {
                    "internalType": "contract IStablecoin",
                    "name": "",
                    "type": "address"
                }
            ],
            "stateMutability": "view",
            "type": "function"
        },
        {
            "inputs": [],
            "name": "stablecoinAdapter",
            "outputs": [
                {
                    "internalType": "contract IStablecoinAdapter",
                    "name": "",
                    "type": "address"
                }
            ],
            "stateMutability": "view",
            "type": "function"
        },
        {
            "inputs": [],
            "name": "systemDebtEngine",
            "outputs": [
                {
                    "internalType": "address",
                    "name": "",
                    "type": "address"
                }
            ],
            "stateMutability": "view",
            "type": "function"
        },
        {
            "inputs": [
                {
                    "internalType": "address",
                    "name": "_stablecoinAdapter",
                    "type": "address"
                },
                {
                    "internalType": "address",
                    "name": "_systemDebtEngine",
                    "type": "address"
                }
            ],
            "name": "initialize",
            "outputs": [],
            "stateMutability": "nonpayable",
            "type": "function"
        },
        {
            "inputs": [],
            "name": "pause",
            "outputs": [],
            "stateMutability": "nonpayable",
            "type": "function"
        },
        {
            "inputs": [],
            "name": "unpause",
            "outputs": [],
            "stateMutability": "nonpayable",
            "type": "function"
        },
        {
            "inputs": [
                {
                    "internalType": "uint256",
                    "name": "_data",
                    "type": "uint256"
                }
            ],
            "name": "setMax",
            "outputs": [],
            "stateMutability": "nonpayable",
            "type": "function"
        },
        {
            "inputs": [
                {
                    "internalType": "uint256",
                    "name": "_data",
                    "type": "uint256"
                }
            ],
            "name": "setFeeRate",
            "outputs": [],
            "stateMutability": "nonpayable",
            "type": "function"
        },
        {
            "inputs": [
                {
                    "internalType": "contract IERC3156FlashBorrower",
                    "name": "_receiver",
                    "type": "address"
                },
                {
                    "internalType": "address",
                    "name": "_token",
                    "type": "address"
                },
                {
                    "internalType": "uint256",
                    "name": "_amount",
                    "type": "uint256"
                },
                {
                    "internalType": "bytes",
                    "name": "_data",
                    "type": "bytes"
                }
            ],
            "name": "flashLoan",
            "outputs": [
                {
                    "internalType": "bool",
                    "name": "",
                    "type": "bool"
                }
            ],
            "stateMutability": "nonpayable",
            "type": "function"
        },
        {
            "inputs": [
                {
                    "internalType": "contract IBookKeeperFlashBorrower",
                    "name": "_receiver",
                    "type": "address"
                },
                {
                    "internalType": "uint256",
                    "name": "_amount",
                    "type": "uint256"
                },
                {
                    "internalType": "bytes",
                    "name": "_data",
                    "type": "bytes"
                }
            ],
            "name": "bookKeeperFlashLoan",
            "outputs": [
                {
                    "internalType": "bool",
                    "name": "",
                    "type": "bool"
                }
            ],
            "stateMutability": "nonpayable",
            "type": "function"
        },
        {
            "inputs": [],
            "name": "convert",
            "outputs": [],
            "stateMutability": "nonpayable",
            "type": "function"
        },
        {
            "inputs": [],
            "name": "accrue",
            "outputs": [],
            "stateMutability": "nonpayable",
            "type": "function"
        },
        {
            "inputs": [],
            "name": "refreshApproval",
            "outputs": [],
            "stateMutability": "nonpayable",
            "type": "function"
        },
        {
            "inputs": [
                {
                    "internalType": "address",
                    "name": "_token",
                    "type": "address"
                }
            ],
            "name": "maxFlashLoan",
            "outputs": [
                {
                    "internalType": "uint256",
                    "name": "",
                    "type": "uint256"
                }
            ],
            "stateMutability": "view",
            "type": "function"
        },
        {
            "inputs": [
                {
                    "internalType": "address",
                    "name": "_token",
                    "type": "address"
                },
                {
                    "internalType": "uint256",
                    "name": "_amount",
                    "type": "uint256"
                }
            ],
            "name": "flashFee",
            "outputs": [
                {
                    "internalType": "uint256",
                    "name": "",
                    "type": "uint256"
                }
            ],
            "stateMutability": "view",
            "type": "function"
        }
    ],
    "bytecode": "0x608060405234801561001057600080fd5b50612415806100206000396000f3fe608060405234801561001057600080fd5b50600436106101375760003560e01c80638237e538116100b8578063c3bd28491161007c578063c3bd28491461025e578063d9d98ce414610271578063e3b3932a14610284578063e4d25b6a14610297578063e9cbd822146102be578063f8ba4cff146102d157600080fd5b80638237e538146102165780638456cb591461023d57806391bbdcc714610245578063978bbdb91461024d578063bf33a1f51461025657600080fd5b8063485cc955116100ff578063485cc955146101af5780635c975abb146101c25780635cffe9de146101d9578063613255ab146101ec5780636ac5db191461020d57600080fd5b80631fe9eabc1461013c57806328e49a42146101515780633f4ba83a1461018157806345596e2e1461018957806346a311d31461019c575b600080fd5b61014f61014a366004611f1b565b6102d9565b005b606854610164906001600160a01b031681565b6040516001600160a01b0390911681526020015b60405180910390f35b61014f6104e5565b61014f610197366004611f1b565b61075a565b606654610164906001600160a01b031681565b61014f6101bd366004611f49565b6108f2565b60335460ff165b6040519015158152602001610178565b6101c96101e7366004611fcb565b610c09565b6101ff6101fa36600461203e565b61102d565b604051908152602001610178565b6101ff60695481565b6101ff7f439148f0bbc682ca079e46d6e2c2f0c1e3b820f1a291b069d8882abf8cf18dd981565b61014f611062565b61014f6112d4565b6101ff606a5481565b61014f6113ef565b6101c961026c366004612062565b61159e565b6101ff61027f3660046120be565b611991565b606554610164906001600160a01b031681565b6101ff7f0a749ded14b97653a44d6e6b0b8342c23ed955e329d919b01a4ee7ef7907f64c81565b606754610164906001600160a01b031681565b61014f6119eb565b6065546040805163c8cc243f60e01b815290516000926001600160a01b03169163c8cc243f9160048083019260209291908290030181865afa158015610323573d6000803e3d6000fd5b505050506040513d601f19601f8201168201806040525081019061034791906120ea565b9050806001600160a01b03166391d14854826001600160a01b031663e58378bb6040518163ffffffff1660e01b8152600401602060405180830381865afa158015610396573d6000803e3d6000fd5b505050506040513d601f19601f820116820180604052508101906103ba9190612107565b6040516001600160e01b031960e084901b1681526004810191909152336024820152604401602060405180830381865afa1580156103fc573d6000803e3d6000fd5b505050506040513d601f19601f820116820180604052508101906104209190612120565b6104455760405162461bcd60e51b815260040161043c90612142565b60405180910390fd5b722cd76fe086b93ce2f768a00b22a0000000000082606981905511156104ad5760405162461bcd60e51b815260206004820181905260248201527f466c6173684d696e744d6f64756c652f6365696c696e672d746f6f2d68696768604482015260640161043c565b6040518281527fb47210f61fd67d0b135076271cd36095371fb8b518cf6ce72df1ccb44adfa7dd906020015b60405180910390a15050565b6065546040805163c8cc243f60e01b815290516000926001600160a01b03169163c8cc243f9160048083019260209291908290030181865afa15801561052f573d6000803e3d6000fd5b505050506040513d601f19601f8201168201806040525081019061055391906120ea565b9050806001600160a01b03166391d14854826001600160a01b031663e58378bb6040518163ffffffff1660e01b8152600401602060405180830381865afa1580156105a2573d6000803e3d6000fd5b505050506040513d601f19601f820116820180604052508101906105c69190612107565b6040516001600160e01b031960e084901b1681526004810191909152336024820152604401602060405180830381865afa158015610608573d6000803e3d6000fd5b505050506040513d601f19601f8201168201806040525081019061062c9190612120565b806107095750806001600160a01b03166391d14854826001600160a01b031663b536818a6040518163ffffffff1660e01b8152600401602060405180830381865afa15801561067f573d6000803e3d6000fd5b505050506040513d601f19601f820116820180604052508101906106a39190612107565b6040516001600160e01b031960e084901b1681526004810191909152336024820152604401602060405180830381865afa1580156106e5573d6000803e3d6000fd5b505050506040513d601f19601f820116820180604052508101906107099190612120565b61074f5760405162461bcd60e51b815260206004820152601760248201527621286f776e6572526f6c65206f7220676f76526f6c652960481b604482015260640161043c565b610757611ab4565b50565b6065546040805163c8cc243f60e01b815290516000926001600160a01b03169163c8cc243f9160048083019260209291908290030181865afa1580156107a4573d6000803e3d6000fd5b505050506040513d601f19601f820116820180604052508101906107c891906120ea565b9050806001600160a01b03166391d14854826001600160a01b031663e58378bb6040518163ffffffff1660e01b8152600401602060405180830381865afa158015610817573d6000803e3d6000fd5b505050506040513d601f19601f8201168201806040525081019061083b9190612107565b6040516001600160e01b031960e084901b1681526004810191909152336024820152604401602060405180830381865afa15801561087d573d6000803e3d6000fd5b505050506040513d601f19601f820116820180604052508101906108a19190612120565b6108bd5760405162461bcd60e51b815260040161043c90612142565b606a8290556040518281527f051e0af931842372a862a69a47843d7dd4bca2f1298058b45839d9c0a96949e3906020016104d9565b600054610100900460ff16158080156109125750600054600160ff909116105b8061092c5750303b15801561092c575060005460ff166001145b61098f5760405162461bcd60e51b815260206004820152602e60248201527f496e697469616c697a61626c653a20636f6e747261637420697320616c72656160448201526d191e481a5b9a5d1a585b1a5e995960921b606482015260840161043c565b6000805460ff1916600117905580156109b2576000805461ff0019166101001790555b6109ba611b06565b826001600160a01b031663e3b3932a6040518163ffffffff1660e01b81526004016020604051808303816000875af11580156109fa573d6000803e3d6000fd5b505050506040513d601f19601f82011682018060405250810190610a1e91906120ea565b606580546001600160a01b039283166001600160a01b031991821617909155606680549286169290911682179055604080516374e5ec1160e11b8152905163e9cbd8229160048082019260209290919082900301816000875af1158015610a89573d6000803e3d6000fd5b505050506040513d601f19601f82011682018060405250810190610aad91906120ea565b606780546001600160a01b0319166001600160a01b039283161790558216610b2e5760405162461bcd60e51b815260206004820152602e60248201527f466c6173684d696e744d6f64756c652f6261642d73797374656d2d646562742d60448201526d656e67696e652d6164647265737360901b606482015260840161043c565b606880546001600160a01b0319166001600160a01b0384811691909117909155606554604051634d8c928d60e11b81528583166004820152911690639b19251a90602401600060405180830381600087803b158015610b8c57600080fd5b505af1158015610ba0573d6000803e3d6000fd5b5050606754610bbe92506001600160a01b0316905084600019611b37565b8015610c04576000805461ff0019169055604051600181527f7f26b83ff96e1f2b6a682f133852f6798a09c465da95921460cefb38474024989060200160405180910390a15b505050565b6000606b54600014610c2d5760405162461bcd60e51b815260040161043c90612166565b6001606b55610c3a611ca2565b6067546001600160a01b03868116911614610c675760405162461bcd60e51b815260040161043c9061219b565b606954841115610cb95760405162461bcd60e51b815260206004820181905260248201527f466c6173684d696e744d6f64756c652f6365696c696e672d6578636565646564604482015260640161043c565b6000610cd16b033b2e3c9fd0803ce8000000866121f2565b90506000670de0b6b3a7640000606a5487610cec91906121f2565b610cf69190612209565b90506000610d04828861222b565b606554604051636a32115160e01b81529192506001600160a01b031690636a32115190610d399030908190889060040161223e565b600060405180830381600087803b158015610d5357600080fd5b505af1158015610d67573d6000803e3d6000fd5b505060665460408051600060208201526001600160a01b0390921693506331f0926592508c918b91016040516020818303038152906040526040518463ffffffff1660e01b8152600401610dbd93929190612286565b600060405180830381600087803b158015610dd757600080fd5b505af1158015610deb573d6000803e3d6000fd5b5050604080518a8152602081018690526001600160a01b03808d1694508d1692507fd4b73b1eb5368aa51ca6d75d7e5971b37e1dd58a72650f866c4f97018f836d5e910160405180910390a36040516323e30c8b60e01b81527f439148f0bbc682ca079e46d6e2c2f0c1e3b820f1a291b069d8882abf8cf18dd9906001600160a01b038b16906323e30c8b90610e8f9033908d908d9089908e908e906004016122f8565b6020604051808303816000875af1158015610eae573d6000803e3d6000fd5b505050506040513d601f19601f82011682018060405250810190610ed29190612107565b14610f1f5760405162461bcd60e51b815260206004820152601f60248201527f466c6173684d696e744d6f64756c652f63616c6c6261636b2d6661696c656400604482015260640161043c565b606754610f37906001600160a01b03168a3084611ce8565b60665460408051600060208201526001600160a01b03909216916349bdc2b89130918591016040516020818303038152906040526040518463ffffffff1660e01b8152600401610f8993929190612286565b600060405180830381600087803b158015610fa357600080fd5b505af1158015610fb7573d6000803e3d6000fd5b5050606554604051632054443b60e21b8152600481018790526001600160a01b03909116925063815110ec9150602401600060405180830381600087803b15801561100157600080fd5b505af1158015611015573d6000803e3d6000fd5b50506000606b555060019a9950505050505050505050565b6067546000906001600160a01b03838116911614801561104d5750606b54155b1561105a57505060695490565b506000919050565b6065546040805163c8cc243f60e01b815290516000926001600160a01b03169163c8cc243f9160048083019260209291908290030181865afa1580156110ac573d6000803e3d6000fd5b505050506040513d601f19601f820116820180604052508101906110d091906120ea565b9050806001600160a01b03166391d14854826001600160a01b031663e58378bb6040518163ffffffff1660e01b8152600401602060405180830381865afa15801561111f573d6000803e3d6000fd5b505050506040513d601f19601f820116820180604052508101906111439190612107565b6040516001600160e01b031960e084901b1681526004810191909152336024820152604401602060405180830381865afa158015611185573d6000803e3d6000fd5b505050506040513d601f19601f820116820180604052508101906111a99190612120565b806112865750806001600160a01b03166391d14854826001600160a01b031663b536818a6040518163ffffffff1660e01b8152600401602060405180830381865afa1580156111fc573d6000803e3d6000fd5b505050506040513d601f19601f820116820180604052508101906112209190612107565b6040516001600160e01b031960e084901b1681526004810191909152336024820152604401602060405180830381865afa158015611262573d6000803e3d6000fd5b505050506040513d601f19601f820116820180604052508101906112869190612120565b6112cc5760405162461bcd60e51b815260206004820152601760248201527621286f776e6572526f6c65206f7220676f76526f6c652960481b604482015260640161043c565b610757611e62565b606b54156112f45760405162461bcd60e51b815260040161043c90612166565b6001606b55611301611ca2565b6066546067546040516370a0823160e01b815230600482018190526001600160a01b03938416936349bdc2b89391929116906370a0823190602401602060405180830381865afa158015611359573d6000803e3d6000fd5b505050506040513d601f19601f8201168201806040525081019061137d9190612107565b6040805160006020820152016040516020818303038152906040526040518463ffffffff1660e01b81526004016113b693929190612286565b600060405180830381600087803b1580156113d057600080fd5b505af11580156113e4573d6000803e3d6000fd5b50506000606b555050565b606b541561140f5760405162461bcd60e51b815260040161043c90612166565b6001606b556065546040805163c8cc243f60e01b815290516000926001600160a01b03169163c8cc243f9160048083019260209291908290030181865afa15801561145e573d6000803e3d6000fd5b505050506040513d601f19601f8201168201806040525081019061148291906120ea565b9050806001600160a01b03166391d14854826001600160a01b031663e58378bb6040518163ffffffff1660e01b8152600401602060405180830381865afa1580156114d1573d6000803e3d6000fd5b505050506040513d601f19601f820116820180604052508101906114f59190612107565b6040516001600160e01b031960e084901b1681526004810191909152336024820152604401602060405180830381865afa158015611537573d6000803e3d6000fd5b505050506040513d601f19601f8201168201806040525081019061155b9190612120565b6115775760405162461bcd60e51b815260040161043c90612142565b606654606754611596916001600160a01b039182169116600019611b37565b506000606b55565b6000606b546000146115c25760405162461bcd60e51b815260040161043c90612166565b6001606b556115cf611ca2565b6b033b2e3c9fd0803ce80000006069546115e991906121f2565b8411156116385760405162461bcd60e51b815260206004820181905260248201527f466c6173684d696e744d6f64756c652f6365696c696e672d6578636565646564604482015260640161043c565b60655460405163b4ac08bb60e01b81523060048201526000916001600160a01b03169063b4ac08bb90602401602060405180830381865afa158015611681573d6000803e3d6000fd5b505050506040513d601f19601f820116820180604052508101906116a59190612107565b90506000670de0b6b3a7640000606a54876116c091906121f2565b6116ca9190612209565b606554604051636a32115160e01b81529192506001600160a01b031690636a321151906116ff9030908b908b9060040161223e565b600060405180830381600087803b15801561171957600080fd5b505af115801561172d573d6000803e3d6000fd5b505060408051898152602081018590526001600160a01b038b1693507f01f9095585cb155b3e18f715ec33e0b6924266ed39f29ab63907c677d635d15192500160405180910390a2604051631596aa8d60e31b81527f0a749ded14b97653a44d6e6b0b8342c23ed955e329d919b01a4ee7ef7907f64c906001600160a01b0389169063acb55468906117cb9033908b9087908c908c9060040161233f565b6020604051808303816000875af11580156117ea573d6000803e3d6000fd5b505050506040513d601f19601f8201168201806040525081019061180e9190612107565b1461185b5760405162461bcd60e51b815260206004820152601f60248201527f466c6173684d696e744d6f64756c652f63616c6c6261636b2d6661696c656400604482015260640161043c565b606554604051632054443b60e21b8152600481018890526001600160a01b039091169063815110ec90602401600060405180830381600087803b1580156118a157600080fd5b505af11580156118b5573d6000803e3d6000fd5b5050505080826118c5919061222b565b60655460405163b4ac08bb60e01b81523060048201526001600160a01b039091169063b4ac08bb90602401602060405180830381865afa15801561190d573d6000803e3d6000fd5b505050506040513d601f19601f820116820180604052508101906119319190612107565b101561197f5760405162461bcd60e51b815260206004820181905260248201527f466c6173684d696e744d6f64756c652f696e73756666696369656e742d666565604482015260640161043c565b50506000606b55506001949350505050565b6067546000906001600160a01b038481169116146119c15760405162461bcd60e51b815260040161043c9061219b565b670de0b6b3a7640000606a54836119d891906121f2565b6119e29190612209565b90505b92915050565b606b5415611a0b5760405162461bcd60e51b815260040161043c90612166565b6001606b55611a18611ca2565b60655460685460405163b4ac08bb60e01b815230600482018190526001600160a01b0393841693638c157854939192911690849063b4ac08bb90602401602060405180830381865afa158015611a72573d6000803e3d6000fd5b505050506040513d601f19601f82011682018060405250810190611a969190612107565b6040518463ffffffff1660e01b81526004016113b69392919061223e565b611abc611e9f565b6033805460ff191690557f5db9ee0a495bf2e6ff9c91a7834c1ba4fdd244a5e8aa4e537bd38aeae4b073aa335b6040516001600160a01b03909116815260200160405180910390a1565b600054610100900460ff16611b2d5760405162461bcd60e51b815260040161043c90612378565b611b35611ee8565b565b6001600160a01b0383163b611b985760405162461bcd60e51b815260206004820152602160248201527f73616665417070726f76653a206e6f6e2d636f6e7472616374206164647265736044820152607360f81b606482015260840161043c565b604080516001600160a01b038481166024830152604480830185905283518084039091018152606490920183526020820180516001600160e01b031663095ea7b360e01b1790529151600092839290871691611bf491906123c3565b6000604051808303816000865af19150503d8060008114611c31576040519150601f19603f3d011682016040523d82523d6000602084013e611c36565b606091505b5091509150818015611c60575080511580611c60575080806020019051810190611c609190612120565b611c9b5760405162461bcd60e51b815260206004820152600c60248201526b2173616665417070726f766560a01b604482015260640161043c565b5050505050565b60335460ff1615611b355760405162461bcd60e51b815260206004820152601060248201526f14185d5cd8589b194e881c185d5cd95960821b604482015260640161043c565b6001600160a01b0384163b611d4e5760405162461bcd60e51b815260206004820152602660248201527f736166655472616e7366657246726f6d3a206e6f6e2d636f6e7472616374206160448201526564647265737360d01b606482015260840161043c565b600080856001600160a01b03166323b872dd868686604051602401611d759392919061223e565b6040516020818303038152906040529060e01b6020820180516001600160e01b038381831617835250505050604051611dae91906123c3565b6000604051808303816000865af19150503d8060008114611deb576040519150601f19603f3d011682016040523d82523d6000602084013e611df0565b606091505b5091509150818015611e1a575080511580611e1a575080806020019051810190611e1a9190612120565b611e5a5760405162461bcd60e51b815260206004820152601160248201527021736166655472616e7366657246726f6d60781b604482015260640161043c565b505050505050565b611e6a611ca2565b6033805460ff191660011790557f62e78cea01bee320cd4e420270b5ea74000d11b0c9f74754ebdbfc544b05a258611ae93390565b60335460ff16611b355760405162461bcd60e51b815260206004820152601460248201527314185d5cd8589b194e881b9bdd081c185d5cd95960621b604482015260640161043c565b600054610100900460ff16611f0f5760405162461bcd60e51b815260040161043c90612378565b6033805460ff19169055565b600060208284031215611f2d57600080fd5b5035919050565b6001600160a01b038116811461075757600080fd5b60008060408385031215611f5c57600080fd5b8235611f6781611f34565b91506020830135611f7781611f34565b809150509250929050565b60008083601f840112611f9457600080fd5b50813567ffffffffffffffff811115611fac57600080fd5b602083019150836020828501011115611fc457600080fd5b9250929050565b600080600080600060808688031215611fe357600080fd5b8535611fee81611f34565b94506020860135611ffe81611f34565b935060408601359250606086013567ffffffffffffffff81111561202157600080fd5b61202d88828901611f82565b969995985093965092949392505050565b60006020828403121561205057600080fd5b813561205b81611f34565b9392505050565b6000806000806060858703121561207857600080fd5b843561208381611f34565b935060208501359250604085013567ffffffffffffffff8111156120a657600080fd5b6120b287828801611f82565b95989497509550505050565b600080604083850312156120d157600080fd5b82356120dc81611f34565b946020939093013593505050565b6000602082840312156120fc57600080fd5b815161205b81611f34565b60006020828403121561211957600080fd5b5051919050565b60006020828403121561213257600080fd5b8151801515811461205b57600080fd5b6020808252600a9082015269216f776e6572526f6c6560b01b604082015260600190565b6020808252818101527f466c6173684d696e744d6f64756c652f7265656e7472616e63792d6775617264604082015260600190565b60208082526021908201527f466c6173684d696e744d6f64756c652f746f6b656e2d756e737570706f7274656040820152601960fa1b606082015260800190565b634e487b7160e01b600052601160045260246000fd5b80820281158282048414176119e5576119e56121dc565b60008261222657634e487b7160e01b600052601260045260246000fd5b500490565b808201808211156119e5576119e56121dc565b6001600160a01b039384168152919092166020820152604081019190915260600190565b60005b8381101561227d578181015183820152602001612265565b50506000910152565b60018060a01b038416815282602082015260606040820152600082518060608401526122b9816080850160208701612262565b601f01601f191691909101608001949350505050565b81835281816020850137506000828201602090810191909152601f909101601f19169091010190565b6001600160a01b03878116825286166020820152604081018590526060810184905260a06080820181905260009061233390830184866122cf565b98975050505050505050565b60018060a01b038616815284602082015283604082015260806060820152600061236d6080830184866122cf565b979650505050505050565b6020808252602b908201527f496e697469616c697a61626c653a20636f6e7472616374206973206e6f74206960408201526a6e697469616c697a696e6760a81b606082015260800190565b600082516123d5818460208701612262565b919091019291505056fea2646970667358221220b897107f0d819f719edbdb93fad9a86902629f926dcbecf382266b8d02863d5764736f6c63430008110033",
    "immutableReferences": {},
    "source": "// SPDX-License-Identifier: AGPL-3.0-or-later\npragma solidity 0.8.17;\n\nimport \"@openzeppelin/contracts-upgradeable/security/PausableUpgradeable.sol\";\n\nimport \"../interfaces/IERC3156FlashLender.sol\";\nimport \"../interfaces/IERC3156FlashBorrower.sol\";\nimport \"../interfaces/IBookKeeperFlashLender.sol\";\nimport \"../interfaces/IStablecoin.sol\";\nimport \"../interfaces/IStablecoinAdapter.sol\";\nimport \"../interfaces/IBookKeeper.sol\";\nimport \"../interfaces/IPausable.sol\";\nimport \"../utils/SafeToken.sol\";\nimport \"../utils/CommonMath.sol\";\n\ncontract FlashMintModule is CommonMath, PausableUpgradeable, IERC3156FlashLender, IBookKeeperFlashLender, IPausable {\n    using SafeToken for address;\n\n    IBookKeeper public bookKeeper;\n    IStablecoinAdapter public stablecoinAdapter;\n    IStablecoin public stablecoin;\n    address public systemDebtEngine; // systemDebtEngine intentionally set immutable to save gas\n\n    uint256 public max; // Maximum borrowable stablecoin  [wad]\n    uint256 public feeRate; // Fee                     [wad = 100%]\n    uint256 private locked; // Reentrancy guard\n\n    bytes32 public constant CALLBACK_SUCCESS = keccak256(\"ERC3156FlashBorrower.onFlashLoan\");\n    bytes32 public constant CALLBACK_SUCCESS_BOOK_KEEPER_STABLE_COIN = keccak256(\"BookKeeperFlashBorrower.onBookKeeperFlashLoan\");\n\n    event LogSetMax(uint256 _data);\n    event LogSetFeeRate(uint256 _data);\n    event LogFlashLoan(address indexed _receiver, address indexed _token, uint256 _amount, uint256 _fee);\n    event LogBookKeeperFlashLoan(address indexed _receiver, uint256 _amount, uint256 _fee);\n\n    modifier onlyOwner() {\n        IAccessControlConfig _accessControlConfig = IAccessControlConfig(bookKeeper.accessControlConfig());\n        require(_accessControlConfig.hasRole(_accessControlConfig.OWNER_ROLE(), msg.sender), \"!ownerRole\");\n        _;\n    }\n\n    modifier onlyOwnerOrGov() {\n        IAccessControlConfig _accessControlConfig = IAccessControlConfig(bookKeeper.accessControlConfig());\n        require(\n            _accessControlConfig.hasRole(_accessControlConfig.OWNER_ROLE(), msg.sender) ||\n                _accessControlConfig.hasRole(_accessControlConfig.GOV_ROLE(), msg.sender),\n            \"!(ownerRole or govRole)\"\n        );\n        _;\n    }\n\n    modifier lock() {\n        require(locked == 0, \"FlashMintModule/reentrancy-guard\");\n        locked = 1;\n        _;\n        locked = 0;\n    }\n\n    function initialize(address _stablecoinAdapter, address _systemDebtEngine) external initializer {\n        // 1. Initialized all dependencies\n        PausableUpgradeable.__Pausable_init();\n\n        bookKeeper = IBookKeeper(IStablecoinAdapter(_stablecoinAdapter).bookKeeper());\n        stablecoinAdapter = IStablecoinAdapter(_stablecoinAdapter);\n        stablecoin = IStablecoin(IStablecoinAdapter(_stablecoinAdapter).stablecoin());\n        require(_systemDebtEngine != address(0), \"FlashMintModule/bad-system-debt-engine-address\");\n        systemDebtEngine = _systemDebtEngine;\n\n        bookKeeper.whitelist(_stablecoinAdapter);\n        address(stablecoin).safeApprove(_stablecoinAdapter, type(uint256).max);\n    }\n\n    /// @dev access: OWNER_ROLE, GOV_ROLE\n    function pause() external override onlyOwnerOrGov {\n        _pause();\n    }\n\n    /// @dev access: OWNER_ROLE, GOV_ROLE\n    function unpause() external override onlyOwnerOrGov {\n        _unpause();\n    }\n\n    function setMax(uint256 _data) external onlyOwner {\n        // Add an upper limit of 10^27 Stablecoin to avoid breaking technical assumptions of Stablecoin << 2^256 - 1\n        require((max = _data) <= RAD, \"FlashMintModule/ceiling-too-high\");\n        emit LogSetMax(_data);\n    }\n\n    function setFeeRate(uint256 _data) external onlyOwner {\n        feeRate = _data;\n        emit LogSetFeeRate(_data);\n    }\n\n    // --- ERC 3156 Spec ---\n\n    function flashLoan(IERC3156FlashBorrower _receiver, address _token, uint256 _amount, bytes calldata _data) external override lock whenNotPaused returns (bool) {\n        require(_token == address(stablecoin), \"FlashMintModule/token-unsupported\");\n        require(_amount <= max, \"FlashMintModule/ceiling-exceeded\");\n\n        uint256 _amt = _amount * RAY;\n        uint256 _fee = (_amount * feeRate) / WAD;\n        uint256 _total = _amount + _fee;\n\n        //_amt is in RAD, to calculate internal balance of stablecoin\n        bookKeeper.mintUnbackedStablecoin(address(this), address(this), _amt);\n        //minting requested amount to flashMint receiver\n        stablecoinAdapter.withdraw(address(_receiver), _amount, abi.encode(0));\n\n        emit LogFlashLoan(address(_receiver), _token, _amount, _fee);\n\n        require(_receiver.onFlashLoan(msg.sender, _token, _amount, _fee, _data) == CALLBACK_SUCCESS, \"FlashMintModule/callback-failed\");\n        address(stablecoin).safeTransferFrom(address(_receiver), address(this), _total); // The fee is also enforced here\n        stablecoinAdapter.deposit(address(this), _total, abi.encode(0));\n        bookKeeper.settleSystemBadDebt(_amt);\n\n        return true;\n    }\n\n    function bookKeeperFlashLoan(\n        IBookKeeperFlashBorrower _receiver, // address of conformant IBookKeeperFlashBorrower\n        uint256 _amount, // amount to flash loan [rad]\n        bytes calldata _data // arbitrary data to pass to the receiver\n    ) external override lock whenNotPaused returns (bool) {\n        require(_amount <= max * RAY, \"FlashMintModule/ceiling-exceeded\");\n\n        uint256 _prev = bookKeeper.stablecoin(address(this));\n        uint256 _fee = (_amount * feeRate) / WAD;\n\n        bookKeeper.mintUnbackedStablecoin(address(this), address(_receiver), _amount);\n\n        emit LogBookKeeperFlashLoan(address(_receiver), _amount, _fee);\n\n        require(\n            _receiver.onBookKeeperFlashLoan(msg.sender, _amount, _fee, _data) == CALLBACK_SUCCESS_BOOK_KEEPER_STABLE_COIN,\n            \"FlashMintModule/callback-failed\"\n        );\n\n        bookKeeper.settleSystemBadDebt(_amount);\n        require(bookKeeper.stablecoin(address(this)) >= _prev + _fee, \"FlashMintModule/insufficient-fee\");\n\n        return true;\n    }\n\n    function convert() external lock whenNotPaused {\n        stablecoinAdapter.deposit(address(this), stablecoin.balanceOf(address(this)), abi.encode(0));\n    }\n\n    function accrue() external lock whenNotPaused {\n        bookKeeper.moveStablecoin(address(this), systemDebtEngine, bookKeeper.stablecoin(address(this)));\n    }\n\n    function refreshApproval() external lock onlyOwner {\n        address(stablecoin).safeApprove(address(stablecoinAdapter), type(uint256).max);\n    }\n\n    function maxFlashLoan(address _token) external view override returns (uint256) {\n        if (_token == address(stablecoin) && locked == 0) {\n            return max;\n        } else {\n            return 0;\n        }\n    }\n\n    function flashFee(address _token, uint256 _amount) external view override returns (uint256) {\n        require(_token == address(stablecoin), \"FlashMintModule/token-unsupported\");\n\n        return (_amount * feeRate) / WAD;\n    }\n}\n",
    "sourcePath": "/Users/aleksey/SolidityProjects2/fathom-stablecoin-smart-contracts/contracts/main/flash-mint/FlashMintModule.sol",
    "compiler": {
        "name": "solc",
        "version": "0.8.17+commit.8df45f5f.Emscripten.clang"
    },
    "schemaVersion": "3.4.15",
    "updatedAt": "2023-08-10T12:55:05.399Z",
    "devdoc": {
        "kind": "dev",
        "methods": {
            "pause()": {
                "details": "access: OWNER_ROLE, GOV_ROLE"
            },
            "paused()": {
                "details": "Returns true if the contract is paused, and false otherwise."
            },
            "unpause()": {
                "details": "access: OWNER_ROLE, GOV_ROLE"
            }
        },
        "version": 1
    },
    "userdoc": {
        "kind": "user",
        "methods": {},
        "version": 1
    }
}