{
    "contractName": "LiquidationEngine",
    "abi": [
        {
            "anonymous": false,
            "inputs": [
                {
                    "indexed": false,
                    "internalType": "uint8",
                    "name": "version",
                    "type": "uint8"
                }
            ],
            "name": "Initialized",
            "type": "event"
        },
        {
            "anonymous": false,
            "inputs": [
                {
                    "indexed": false,
                    "internalType": "bytes32",
                    "name": "_collateralPoolIds",
                    "type": "bytes32"
                },
                {
                    "indexed": false,
                    "internalType": "address",
                    "name": "_positionAddresses",
                    "type": "address"
                },
                {
                    "indexed": false,
                    "internalType": "address",
                    "name": "_liquidator",
                    "type": "address"
                },
                {
                    "indexed": false,
                    "internalType": "string",
                    "name": "reason",
                    "type": "string"
                }
            ],
            "name": "LiquidationFail",
            "type": "event"
        },
        {
            "anonymous": false,
            "inputs": [],
            "name": "LogCage",
            "type": "event"
        },
        {
            "anonymous": false,
            "inputs": [
                {
                    "indexed": false,
                    "internalType": "address",
                    "name": "account",
                    "type": "address"
                }
            ],
            "name": "Paused",
            "type": "event"
        },
        {
            "anonymous": false,
            "inputs": [
                {
                    "indexed": false,
                    "internalType": "address",
                    "name": "account",
                    "type": "address"
                }
            ],
            "name": "Unpaused",
            "type": "event"
        },
        {
            "inputs": [],
            "name": "bookKeeper",
            "outputs": [
                {
                    "internalType": "contract IBookKeeper",
                    "name": "",
                    "type": "address"
                }
            ],
            "stateMutability": "view",
            "type": "function"
        },
        {
            "inputs": [
                {
                    "internalType": "address",
                    "name": "",
                    "type": "address"
                }
            ],
            "name": "liquidatorsWhitelist",
            "outputs": [
                {
                    "internalType": "uint256",
                    "name": "",
                    "type": "uint256"
                }
            ],
            "stateMutability": "view",
            "type": "function"
        },
        {
            "inputs": [],
            "name": "live",
            "outputs": [
                {
                    "internalType": "uint256",
                    "name": "",
                    "type": "uint256"
                }
            ],
            "stateMutability": "view",
            "type": "function"
        },
        {
            "inputs": [],
            "name": "paused",
            "outputs": [
                {
                    "internalType": "bool",
                    "name": "",
                    "type": "bool"
                }
            ],
            "stateMutability": "view",
            "type": "function"
        },
        {
            "inputs": [],
            "name": "systemDebtEngine",
            "outputs": [
                {
                    "internalType": "contract ISystemDebtEngine",
                    "name": "",
                    "type": "address"
                }
            ],
            "stateMutability": "view",
            "type": "function"
        },
        {
            "inputs": [
                {
                    "internalType": "address",
                    "name": "_bookKeeper",
                    "type": "address"
                },
                {
                    "internalType": "address",
                    "name": "_systemDebtEngine",
                    "type": "address"
                }
            ],
            "name": "initialize",
            "outputs": [],
            "stateMutability": "nonpayable",
            "type": "function"
        },
        {
            "inputs": [
                {
                    "internalType": "address",
                    "name": "toBeWhitelisted",
                    "type": "address"
                }
            ],
            "name": "whitelist",
            "outputs": [],
            "stateMutability": "nonpayable",
            "type": "function"
        },
        {
            "inputs": [
                {
                    "internalType": "address",
                    "name": "toBeRemoved",
                    "type": "address"
                }
            ],
            "name": "blacklist",
            "outputs": [],
            "stateMutability": "nonpayable",
            "type": "function"
        },
        {
            "inputs": [
                {
                    "internalType": "bytes32[]",
                    "name": "_collateralPoolIds",
                    "type": "bytes32[]"
                },
                {
                    "internalType": "address[]",
                    "name": "_positionAddresses",
                    "type": "address[]"
                },
                {
                    "internalType": "uint256[]",
                    "name": "_debtShareToBeLiquidateds",
                    "type": "uint256[]"
                },
                {
                    "internalType": "uint256[]",
                    "name": "_maxDebtShareToBeLiquidateds",
                    "type": "uint256[]"
                },
                {
                    "internalType": "address[]",
                    "name": "_collateralRecipients",
                    "type": "address[]"
                },
                {
                    "internalType": "bytes[]",
                    "name": "datas",
                    "type": "bytes[]"
                }
            ],
            "name": "batchLiquidate",
            "outputs": [],
            "stateMutability": "nonpayable",
            "type": "function"
        },
        {
            "inputs": [
                {
                    "internalType": "bytes32",
                    "name": "_collateralPoolId",
                    "type": "bytes32"
                },
                {
                    "internalType": "address",
                    "name": "_positionAddress",
                    "type": "address"
                },
                {
                    "internalType": "uint256",
                    "name": "_debtShareToBeLiquidated",
                    "type": "uint256"
                },
                {
                    "internalType": "uint256",
                    "name": "_maxDebtShareToBeLiquidated",
                    "type": "uint256"
                },
                {
                    "internalType": "address",
                    "name": "_collateralRecipient",
                    "type": "address"
                },
                {
                    "internalType": "bytes",
                    "name": "_data",
                    "type": "bytes"
                },
                {
                    "internalType": "address",
                    "name": "sender",
                    "type": "address"
                }
            ],
            "name": "liquidateForBatch",
            "outputs": [],
            "stateMutability": "nonpayable",
            "type": "function"
        },
        {
            "inputs": [
                {
                    "internalType": "bytes32",
                    "name": "_collateralPoolId",
                    "type": "bytes32"
                },
                {
                    "internalType": "address",
                    "name": "_positionAddress",
                    "type": "address"
                },
                {
                    "internalType": "uint256",
                    "name": "_debtShareToBeLiquidated",
                    "type": "uint256"
                },
                {
                    "internalType": "uint256",
                    "name": "_maxDebtShareToBeLiquidated",
                    "type": "uint256"
                },
                {
                    "internalType": "address",
                    "name": "_collateralRecipient",
                    "type": "address"
                },
                {
                    "internalType": "bytes",
                    "name": "_data",
                    "type": "bytes"
                }
            ],
            "name": "liquidate",
            "outputs": [],
            "stateMutability": "nonpayable",
            "type": "function"
        },
        {
            "inputs": [
                {
                    "internalType": "address",
                    "name": "_bookKeeper",
                    "type": "address"
                }
            ],
            "name": "setBookKeeper",
            "outputs": [],
            "stateMutability": "nonpayable",
            "type": "function"
        },
        {
            "inputs": [],
            "name": "cage",
            "outputs": [],
            "stateMutability": "nonpayable",
            "type": "function"
        },
        {
            "inputs": [],
            "name": "pause",
            "outputs": [],
            "stateMutability": "nonpayable",
            "type": "function"
        },
        {
            "inputs": [],
            "name": "unpause",
            "outputs": [],
            "stateMutability": "nonpayable",
            "type": "function"
        }
    ],
    "bytecode": "0x608060405234801561001057600080fd5b50612e7a806100206000396000f3fe608060405234801561001057600080fd5b50600436106100f55760003560e01c806369245009116100975780639b19251a116100665780639b19251a146101d0578063c23fdbc7146101e3578063e3b3932a14610203578063f9f92be41461021657600080fd5b8063692450091461019657806369a5038a1461019e5780638456cb59146101b1578063957aa58c146101b957600080fd5b806328e49a42116100d357806328e49a42146101355780633f4ba83a14610165578063485cc9551461016d5780635c975abb1461018057600080fd5b806307d8bd88146100fa5780631cc0353c1461010f5780631ebce59314610122575b600080fd5b61010d610108366004612651565b610229565b005b61010d61011d3660046126b6565b6104a7565b61010d61013036600461274e565b610518565b609954610148906001600160a01b031681565b6040516001600160a01b0390911681526020015b60405180910390f35b61010d61057a565b61010d61017b3660046127d3565b6107c5565b60335460ff16604051901515815260200161015c565b61010d610a70565b61010d6101ac366004612850565b610d1b565b61010d611150565b6101c2609a5481565b60405190815260200161015c565b61010d6101de366004612651565b611398565b6101c26101f1366004612651565b609b6020526000908152604090205481565b609854610148906001600160a01b031681565b61010d610224366004612651565b61165f565b6098546040805163c8cc243f60e01b815290516000926001600160a01b03169163c8cc243f9160048083019260209291908290030181865afa158015610273573d6000803e3d6000fd5b505050506040513d601f19601f82011682018060405250810190610297919061298d565b9050806001600160a01b03166391d14854826001600160a01b031663e58378bb6040518163ffffffff1660e01b8152600401602060405180830381865afa1580156102e6573d6000803e3d6000fd5b505050506040513d601f19601f8201168201806040525081019061030a91906129aa565b6040516001600160e01b031960e084901b1681526004810191909152336024820152604401602060405180830381865afa15801561034c573d6000803e3d6000fd5b505050506040513d601f19601f8201168201806040525081019061037091906129c3565b6103ae5760405162461bcd60e51b815260206004820152600a602482015269216f776e6572526f6c6560b01b60448201526064015b60405180910390fd5b609a546001146104005760405162461bcd60e51b815260206004820152601a60248201527f4c69717569646174696f6e456e67696e652f6e6f742d6c69766500000000000060448201526064016103a5565b6000826001600160a01b0316636f3a3bfc6040518163ffffffff1660e01b81526004016020604051808303816000875af1158015610442573d6000803e3d6000fd5b505050506040513d601f19601f8201168201806040525081019061046691906129aa565b10156104845760405162461bcd60e51b81526004016103a5906129e5565b50609880546001600160a01b0319166001600160a01b0392909216919091179055565b6104af6118ba565b3330146104fe5760405162461bcd60e51b815260206004820181905260248201527f4c69717569646174696f6e456e67696e652f696e76616c69642d73656e64657260448201526064016103a5565b61050e8888888888888888611902565b5050505050505050565b6105206122f9565b6105286118ba565b336000908152609b60205260409020546001146105575760405162461bcd60e51b81526004016103a590612a29565b6105678787878787878733611902565b6105716001606555565b50505050505050565b6098546040805163c8cc243f60e01b815290516000926001600160a01b03169163c8cc243f9160048083019260209291908290030181865afa1580156105c4573d6000803e3d6000fd5b505050506040513d601f19601f820116820180604052508101906105e8919061298d565b9050806001600160a01b03166391d14854826001600160a01b031663e58378bb6040518163ffffffff1660e01b8152600401602060405180830381865afa158015610637573d6000803e3d6000fd5b505050506040513d601f19601f8201168201806040525081019061065b91906129aa565b6040516001600160e01b031960e084901b1681526004810191909152336024820152604401602060405180830381865afa15801561069d573d6000803e3d6000fd5b505050506040513d601f19601f820116820180604052508101906106c191906129c3565b8061079e5750806001600160a01b03166391d14854826001600160a01b031663b536818a6040518163ffffffff1660e01b8152600401602060405180830381865afa158015610714573d6000803e3d6000fd5b505050506040513d601f19601f8201168201806040525081019061073891906129aa565b6040516001600160e01b031960e084901b1681526004810191909152336024820152604401602060405180830381865afa15801561077a573d6000803e3d6000fd5b505050506040513d601f19601f8201168201806040525081019061079e91906129c3565b6107ba5760405162461bcd60e51b81526004016103a590612a75565b6107c2612359565b50565b600054610100900460ff16158080156107e55750600054600160ff909116105b806107ff5750303b1580156107ff575060005460ff166001145b6108625760405162461bcd60e51b815260206004820152602e60248201527f496e697469616c697a61626c653a20636f6e747261637420697320616c72656160448201526d191e481a5b9a5d1a585b1a5e995960921b60648201526084016103a5565b6000805460ff191660011790558015610885576000805461ff0019166101001790555b61088d6123ab565b6108956123da565b6000836001600160a01b0316636f3a3bfc6040518163ffffffff1660e01b81526004016020604051808303816000875af11580156108d7573d6000803e3d6000fd5b505050506040513d601f19601f820116820180604052508101906108fb91906129aa565b10156109195760405162461bcd60e51b81526004016103a5906129e5565b82609860006101000a8154816001600160a01b0302191690836001600160a01b031602179055506000826001600160a01b0316632a608d5b6040518163ffffffff1660e01b8152600401602060405180830381865afa158015610980573d6000803e3d6000fd5b505050506040513d601f19601f820116820180604052508101906109a491906129aa565b1015610a055760405162461bcd60e51b815260206004820152602a60248201527f4c69717569646174696f6e456e67696e652f696e76616c69642d73797374656d60448201526944656274456e67696e6560b01b60648201526084016103a5565b609980546001600160a01b0319166001600160a01b0384161790556001609a558015610a6b576000805461ff0019169055604051600181527f7f26b83ff96e1f2b6a682f133852f6798a09c465da95921460cefb38474024989060200160405180910390a15b505050565b6098546040805163c8cc243f60e01b815290516000926001600160a01b03169163c8cc243f9160048083019260209291908290030181865afa158015610aba573d6000803e3d6000fd5b505050506040513d601f19601f82011682018060405250810190610ade919061298d565b9050806001600160a01b03166391d14854826001600160a01b031663e58378bb6040518163ffffffff1660e01b8152600401602060405180830381865afa158015610b2d573d6000803e3d6000fd5b505050506040513d601f19601f82011682018060405250810190610b5191906129aa565b6040516001600160e01b031960e084901b1681526004810191909152336024820152604401602060405180830381865afa158015610b93573d6000803e3d6000fd5b505050506040513d601f19601f82011682018060405250810190610bb791906129c3565b80610c945750806001600160a01b03166391d14854826001600160a01b031663d7a47a696040518163ffffffff1660e01b8152600401602060405180830381865afa158015610c0a573d6000803e3d6000fd5b505050506040513d601f19601f82011682018060405250810190610c2e91906129aa565b6040516001600160e01b031960e084901b1681526004810191909152336024820152604401602060405180830381865afa158015610c70573d6000803e3d6000fd5b505050506040513d601f19601f82011682018060405250810190610c9491906129c3565b610ce05760405162461bcd60e51b815260206004820152601f60248201527f21286f776e6572526f6c65206f722073686f7753746f70706572526f6c65290060448201526064016103a5565b609a546001036107c2576000609a8190556040517fbf689b4aae670d200b1d2b971ace2e0c3bef88a9c5e93f36705c7b86eab630b99190a150565b610d236122f9565b336000908152609b6020526040902054600114610d525760405162461bcd60e51b81526004016103a590612a29565b8a89148015610d6057508a87145b8015610d6b57508a85145b8015610d7657508a83145b8015610d8157508a81145b610de85760405162461bcd60e51b815260206004820152603260248201527f4c69717569646174696f6e456e67696e652f62617463684c69717569646174656044820152712d696e76616c69642d617267756d656e747360701b60648201526084016103a5565b60005b8b8110156111375730631cc0353c8e8e84818110610e0b57610e0b612aac565b905060200201358d8d85818110610e2457610e24612aac565b9050602002016020810190610e399190612651565b8c8c86818110610e4b57610e4b612aac565b905060200201358b8b87818110610e6457610e64612aac565b905060200201358a8a88818110610e7d57610e7d612aac565b9050602002016020810190610e929190612651565b898989818110610ea457610ea4612aac565b9050602002810190610eb69190612ac2565b336040518963ffffffff1660e01b8152600401610eda989796959493929190612b31565b600060405180830381600087803b158015610ef457600080fd5b505af1925050508015610f05575060015b61112557610f11612b86565b806308c379a003610fb15750610f25612bdc565b80610f305750611076565b7f3124ec396126035055c8fd11bb0fec0ecf617636253ea71590eb014448176d208e8e84818110610f6357610f63612aac565b905060200201358d8d85818110610f7c57610f7c612aac565b9050602002016020810190610f919190612651565b3384604051610fa39493929190612c65565b60405180910390a150611125565b634e487b710361107657610fc3612cd5565b90610fce5750611076565b7f3124ec396126035055c8fd11bb0fec0ecf617636253ea71590eb014448176d208e8e8481811061100157611001612aac565b905060200201358d8d8581811061101a5761101a612aac565b905060200201602081019061102f9190612651565b604080519283526001600160a01b0390911660208301523390820152608060608201819052600b908201526a3830b734b19032b93937b960a91b60a082015260c001610fa3565b3d8080156110a0576040519150601f19603f3d011682016040523d82523d6000602084013e6110a5565b606091505b50807f3124ec396126035055c8fd11bb0fec0ecf617636253ea71590eb014448176d208f8f858181106110da576110da612aac565b905060200201358e8e868181106110f3576110f3612aac565b90506020020160208101906111089190612651565b338460405161111a9493929190612c65565b60405180910390a150505b8061112f81612d0b565b915050610deb565b506111426001606555565b505050505050505050505050565b6098546040805163c8cc243f60e01b815290516000926001600160a01b03169163c8cc243f9160048083019260209291908290030181865afa15801561119a573d6000803e3d6000fd5b505050506040513d601f19601f820116820180604052508101906111be919061298d565b9050806001600160a01b03166391d14854826001600160a01b031663e58378bb6040518163ffffffff1660e01b8152600401602060405180830381865afa15801561120d573d6000803e3d6000fd5b505050506040513d601f19601f8201168201806040525081019061123191906129aa565b6040516001600160e01b031960e084901b1681526004810191909152336024820152604401602060405180830381865afa158015611273573d6000803e3d6000fd5b505050506040513d601f19601f8201168201806040525081019061129791906129c3565b806113745750806001600160a01b03166391d14854826001600160a01b031663b536818a6040518163ffffffff1660e01b8152600401602060405180830381865afa1580156112ea573d6000803e3d6000fd5b505050506040513d601f19601f8201168201806040525081019061130e91906129aa565b6040516001600160e01b031960e084901b1681526004810191909152336024820152604401602060405180830381865afa158015611350573d6000803e3d6000fd5b505050506040513d601f19601f8201168201806040525081019061137491906129c3565b6113905760405162461bcd60e51b81526004016103a590612a75565b6107c2612409565b6098546040805163c8cc243f60e01b815290516000926001600160a01b03169163c8cc243f9160048083019260209291908290030181865afa1580156113e2573d6000803e3d6000fd5b505050506040513d601f19601f82011682018060405250810190611406919061298d565b9050806001600160a01b03166391d14854826001600160a01b031663e58378bb6040518163ffffffff1660e01b8152600401602060405180830381865afa158015611455573d6000803e3d6000fd5b505050506040513d601f19601f8201168201806040525081019061147991906129aa565b6040516001600160e01b031960e084901b1681526004810191909152336024820152604401602060405180830381865afa1580156114bb573d6000803e3d6000fd5b505050506040513d601f19601f820116820180604052508101906114df91906129c3565b806115bc5750806001600160a01b03166391d14854826001600160a01b031663b536818a6040518163ffffffff1660e01b8152600401602060405180830381865afa158015611532573d6000803e3d6000fd5b505050506040513d601f19601f8201168201806040525081019061155691906129aa565b6040516001600160e01b031960e084901b1681526004810191909152336024820152604401602060405180830381865afa158015611598573d6000803e3d6000fd5b505050506040513d601f19601f820116820180604052508101906115bc91906129c3565b6115d85760405162461bcd60e51b81526004016103a590612a75565b6001600160a01b0382166116415760405162461bcd60e51b815260206004820152602a60248201527f4c69717569646174696f6e456e67696e652f77686974656c6973742d696e76616044820152696c69644164647265737360b01b60648201526084016103a5565b506001600160a01b03166000908152609b6020526040902060019055565b6098546040805163c8cc243f60e01b815290516000926001600160a01b03169163c8cc243f9160048083019260209291908290030181865afa1580156116a9573d6000803e3d6000fd5b505050506040513d601f19601f820116820180604052508101906116cd919061298d565b9050806001600160a01b03166391d14854826001600160a01b031663e58378bb6040518163ffffffff1660e01b8152600401602060405180830381865afa15801561171c573d6000803e3d6000fd5b505050506040513d601f19601f8201168201806040525081019061174091906129aa565b6040516001600160e01b031960e084901b1681526004810191909152336024820152604401602060405180830381865afa158015611782573d6000803e3d6000fd5b505050506040513d601f19601f820116820180604052508101906117a691906129c3565b806118835750806001600160a01b03166391d14854826001600160a01b031663b536818a6040518163ffffffff1660e01b8152600401602060405180830381865afa1580156117f9573d6000803e3d6000fd5b505050506040513d601f19601f8201168201806040525081019061181d91906129aa565b6040516001600160e01b031960e084901b1681526004810191909152336024820152604401602060405180830381865afa15801561185f573d6000803e3d6000fd5b505050506040513d601f19601f8201168201806040525081019061188391906129c3565b61189f5760405162461bcd60e51b81526004016103a590612a75565b506001600160a01b03166000908152609b6020526040812055565b60335460ff16156119005760405162461bcd60e51b815260206004820152601060248201526f14185d5cd8589b194e881c185d5cd95960821b60448201526064016103a5565b565b609a546001146119545760405162461bcd60e51b815260206004820152601a60248201527f4c69717569646174696f6e456e67696e652f6e6f742d6c69766500000000000060448201526064016103a5565b856000036119bf5760405162461bcd60e51b815260206004820152603260248201527f4c69717569646174696f6e456e67696e652f7a65726f2d646562742d76616c75604482015271194b5d1bcb58994b5b1a5c5d5a59185d195960721b60648201526084016103a5565b84600003611a2e5760405162461bcd60e51b815260206004820152603660248201527f4c69717569646174696f6e456e67696e652f7a65726f2d6d61782d646562742d6044820152751d985b1d594b5d1bcb58994b5b1a5c5d5a59185d195960521b60648201526084016103a5565b611a3788612446565b611a925760405162461bcd60e51b815260206004820152602660248201527f4c69717569646174696f6e456e67696e652f70726963652d69732d6e6f742d6860448201526565616c74687960d01b60648201526084016103a5565b611acb6040518060c001604052806000815260200160008152602001600081526020016000815260200160008152602001600081525090565b609854604051630a76216560e21b8152600481018b90526001600160a01b038a81166024830152909116906329d88594906044016040805180830381865afa158015611b1b573d6000803e3d6000fd5b505050506040513d601f19601f82011682018060405250810190611b3f9190612d24565b60208381019190915290825260408051606081018252600080825281840181905281830152609854825163d868246160e01b8152925191936001600160a01b039091169263d868246192600480830193928290030181865afa158015611ba9573d6000803e3d6000fd5b505050506040513d601f19601f82011682018060405250810190611bcd919061298d565b6001600160a01b03166328c84bbd8b6040518263ffffffff1660e01b8152600401611bfa91815260200190565b602060405180830381865afa158015611c17573d6000803e3d6000fd5b505050506040513d601f19601f82011682018060405250810190611c3b919061298d565b6001600160a01b0390811682526098546040805163d868246160e01b81529051919092169163d86824619160048083019260209291908290030181865afa158015611c8a573d6000803e3d6000fd5b505050506040513d601f19601f82011682018060405250810190611cae919061298d565b6001600160a01b0316638c492d078b6040518263ffffffff1660e01b8152600401611cdb91815260200190565b602060405180830381865afa158015611cf8573d6000803e3d6000fd5b505050506040513d601f19601f82011682018060405250810190611d1c91906129aa565b6020808301919091526098546040805163d868246160e01b815290516001600160a01b039092169263d8682461926004808401938290030181865afa158015611d69573d6000803e3d6000fd5b505050506040513d601f19601f82011682018060405250810190611d8d919061298d565b6001600160a01b031663a09b0fe08b6040518263ffffffff1660e01b8152600401611dba91815260200190565b602060405180830381865afa158015611dd7573d6000803e3d6000fd5b505050506040513d601f19601f82011682018060405250810190611dfb91906129aa565b604082015280516001600160a01b038116611e635760405162461bcd60e51b815260206004820152602260248201527f4c69717569646174696f6e456e67696e652f6e6f742d7365742d737472617465604482015261677960f01b60648201526084016103a5565b60008260200151118015611e99575081604001518360200151611e869190612d48565b60208301518451611e979190612d48565b105b611ef05760405162461bcd60e51b815260206004820152602260248201527f4c69717569646174696f6e456e67696e652f706f736974696f6e2d69732d7361604482015261666560f01b60648201526084016103a5565b60985460995460405163b4ac08bb60e01b81526001600160a01b03918216600482015291169063b4ac08bb90602401602060405180830381865afa158015611f3c573d6000803e3d6000fd5b505050506040513d601f19601f82011682018060405250810190611f6091906129aa565b836040018181525050806001600160a01b03166316d8d2918c856020015186600001518e8e8e8b8f8f8f6040518b63ffffffff1660e01b8152600401611faf9a99989796959493929190612d65565b600060405180830381600087803b158015611fc957600080fd5b505af1158015611fdd573d6000803e3d6000fd5b5050609854604051630a76216560e21b8152600481018f90526001600160a01b038e8116602483015290911692506329d8859491506044016040805180830381865afa158015612031573d6000803e3d6000fd5b505050506040513d601f19601f820116820180604052508101906120559190612d24565b6080850181905260608501919091526020840151116120c45760405162461bcd60e51b815260206004820152602560248201527f4c69717569646174696f6e456e67696e652f646562742d6e6f742d6c6971756960448201526419185d195960da1b60648201526084016103a5565b8160400151836080015184602001516120dd9190612dca565b6120e79190612d48565b60a08401819052604080850151609854609954925163b4ac08bb60e01b81526001600160a01b0393841660048201529192169063b4ac08bb90602401602060405180830381865afa158015612140573d6000803e3d6000fd5b505050506040513d601f19601f8201168201806040525081019061216491906129aa565b61216e9190612dca565b10156121cb5760405162461bcd60e51b815260206004820152602660248201527f4c69717569646174696f6e456e67696e652f7061796d656e742d6e6f742d726560448201526518d95a5d995960d21b60648201526084016103a5565b60608301511580156121e1575060008360800151115b156122ec57600160ff1b83608001511061223d5760405162461bcd60e51b815260206004820152601a60248201527f4c69717569646174696f6e456e67696e652f6f766572666c6f7700000000000060448201526064016103a5565b60985460995460808501516001600160a01b039283169263b1df2594928f928f928392169060009061226e90612ddd565b6040516001600160e01b031960e089901b16815260048101969096526001600160a01b039485166024870152928416604486015292166064840152608483019190915260a482015260c401600060405180830381600087803b1580156122d357600080fd5b505af11580156122e7573d6000803e3d6000fd5b505050505b5050505050505050505050565b60026065540361234b5760405162461bcd60e51b815260206004820152601f60248201527f5265656e7472616e637947756172643a207265656e7472616e742063616c6c0060448201526064016103a5565b6002606555565b6001606555565b612361612599565b6033805460ff191690557f5db9ee0a495bf2e6ff9c91a7834c1ba4fdd244a5e8aa4e537bd38aeae4b073aa335b6040516001600160a01b03909116815260200160405180910390a1565b600054610100900460ff166123d25760405162461bcd60e51b81526004016103a590612df9565b6119006125e2565b600054610100900460ff166124015760405162461bcd60e51b81526004016103a590612df9565b611900612615565b6124116118ba565b6033805460ff191660011790557f62e78cea01bee320cd4e420270b5ea74000d11b0c9f74754ebdbfc544b05a25861238e3390565b600080609860009054906101000a90046001600160a01b03166001600160a01b031663d86824616040518163ffffffff1660e01b8152600401602060405180830381865afa15801561249c573d6000803e3d6000fd5b505050506040513d601f19601f820116820180604052508101906124c0919061298d565b6001600160a01b0316638c0adf62846040518263ffffffff1660e01b81526004016124ed91815260200190565b602060405180830381865afa15801561250a573d6000803e3d6000fd5b505050506040513d601f19601f8201168201806040525081019061252e919061298d565b9050806001600160a01b0316630184a92a6040518163ffffffff1660e01b8152600401602060405180830381865afa15801561256e573d6000803e3d6000fd5b505050506040513d601f19601f8201168201806040525081019061259291906129c3565b9392505050565b60335460ff166119005760405162461bcd60e51b815260206004820152601460248201527314185d5cd8589b194e881b9bdd081c185d5cd95960621b60448201526064016103a5565b600054610100900460ff166126095760405162461bcd60e51b81526004016103a590612df9565b6033805460ff19169055565b600054610100900460ff166123525760405162461bcd60e51b81526004016103a590612df9565b6001600160a01b03811681146107c257600080fd5b60006020828403121561266357600080fd5b81356125928161263c565b60008083601f84011261268057600080fd5b5081356001600160401b0381111561269757600080fd5b6020830191508360208285010111156126af57600080fd5b9250929050565b60008060008060008060008060e0898b0312156126d257600080fd5b8835975060208901356126e48161263c565b9650604089013595506060890135945060808901356127028161263c565b935060a08901356001600160401b0381111561271d57600080fd5b6127298b828c0161266e565b90945092505060c089013561273d8161263c565b809150509295985092959890939650565b600080600080600080600060c0888a03121561276957600080fd5b87359650602088013561277b8161263c565b9550604088013594506060880135935060808801356127998161263c565b925060a08801356001600160401b038111156127b457600080fd5b6127c08a828b0161266e565b989b979a50959850939692959293505050565b600080604083850312156127e657600080fd5b82356127f18161263c565b915060208301356128018161263c565b809150509250929050565b60008083601f84011261281e57600080fd5b5081356001600160401b0381111561283557600080fd5b6020830191508360208260051b85010111156126af57600080fd5b60008060008060008060008060008060008060c08d8f03121561287257600080fd5b6001600160401b038d35111561288757600080fd5b6128948e8e358f0161280c565b909c509a506001600160401b0360208e013511156128b157600080fd5b6128c18e60208f01358f0161280c565b909a5098506001600160401b0360408e013511156128de57600080fd5b6128ee8e60408f01358f0161280c565b90985096506001600160401b0360608e0135111561290b57600080fd5b61291b8e60608f01358f0161280c565b90965094506001600160401b0360808e0135111561293857600080fd5b6129488e60808f01358f0161280c565b90945092506001600160401b0360a08e0135111561296557600080fd5b6129758e60a08f01358f0161280c565b81935080925050509295989b509295989b509295989b565b60006020828403121561299f57600080fd5b81516125928161263c565b6000602082840312156129bc57600080fd5b5051919050565b6000602082840312156129d557600080fd5b8151801515811461259257600080fd5b60208082526024908201527f4c69717569646174696f6e456e67696e652f696e76616c69642d626f6f6b4b6560408201526332b832b960e11b606082015260800190565b6020808252602c908201527f4c69717569646174696f6e456e67696e652f6c697175696461746f722d6e6f7460408201526b0b5dda1a5d195b1a5cdd195960a21b606082015260800190565b60208082526017908201527f21286f776e6572526f6c65206f7220676f76526f6c6529000000000000000000604082015260600190565b634e487b7160e01b600052603260045260246000fd5b6000808335601e19843603018112612ad957600080fd5b8301803591506001600160401b03821115612af357600080fd5b6020019150368190038213156126af57600080fd5b81835281816020850137506000828201602090810191909152601f909101601f19169091010190565b888152600060018060a01b03808a166020840152886040840152876060840152808716608084015260e060a0840152612b6e60e084018688612b08565b915080841660c0840152509998505050505050505050565b600060033d1115612b9f5760046000803e5060005160e01c5b90565b601f8201601f191681016001600160401b0381118282101715612bd557634e487b7160e01b600052604160045260246000fd5b6040525050565b600060443d1015612bea5790565b6040516003193d81016004833e81513d6001600160401b038160248401118184111715612c1957505050505090565b8285019150815181811115612c315750505050505090565b843d8701016020828501011115612c4b5750505050505090565b612c5a60208286010187612ba2565b509095945050505050565b8481526000602060018060a01b038087168285015280861660408501525060806060840152835180608085015260005b81811015612cb15785810183015185820160a001528201612c95565b50600060a0828601015260a0601f19601f8301168501019250505095945050505050565b60008060233d1115612cf1576020600460003e50506000516001905b9091565b634e487b7160e01b600052601160045260246000fd5b600060018201612d1d57612d1d612cf5565b5060010190565b60008060408385031215612d3757600080fd5b505080516020909101519092909150565b8082028115828204841417612d5f57612d5f612cf5565b92915050565b60006101208c83528b60208401528a604084015260018060a01b03808b1660608501528960808501528860a085015280881660c085015280871660e08501525080610100840152612db98184018587612b08565b9d9c50505050505050505050505050565b81810381811115612d5f57612d5f612cf5565b6000600160ff1b8201612df257612df2612cf5565b5060000390565b6020808252602b908201527f496e697469616c697a61626c653a20636f6e7472616374206973206e6f74206960408201526a6e697469616c697a696e6760a81b60608201526080019056fea2646970667358221220fb3dcd9fd5c94534ce98860753418d479f7d19ff094d44bbfc50b5c280c339b864736f6c63430008110033",
    "immutableReferences": {},
    "source": "// SPDX-License-Identifier: AGPL-3.0-or-later\n\npragma solidity 0.8.17;\n\nimport \"@openzeppelin/contracts-upgradeable/security/PausableUpgradeable.sol\";\nimport \"@openzeppelin/contracts-upgradeable/security/ReentrancyGuardUpgradeable.sol\";\n\nimport \"../interfaces/IBookKeeper.sol\";\nimport \"../interfaces/ISystemDebtEngine.sol\";\nimport \"../interfaces/ILiquidationEngine.sol\";\nimport \"../interfaces/ILiquidationStrategy.sol\";\nimport \"../interfaces/ICagable.sol\";\nimport \"../interfaces/ISetPrice.sol\";\nimport \"../interfaces/IPausable.sol\";\nimport \"../interfaces/IPriceFeed.sol\";\n\n/// @title LiquidationEngine\n/** @notice A contract which is the manager for all of the liquidations of the protocol.\n    LiquidationEngine will be the interface for the liquidator to trigger any positions into the liquidation process.\n*/\n\ncontract LiquidationEngine is PausableUpgradeable, ReentrancyGuardUpgradeable, ICagable, ILiquidationEngine, IPausable {\n    struct LocalVars {\n        uint256 positionLockedCollateral;\n        uint256 positionDebtShare;\n        uint256 systemDebtEngineStablecoinBefore;\n        uint256 newPositionLockedCollateral;\n        uint256 newPositionDebtShare;\n        uint256 wantStablecoinValueFromLiquidation;\n    }\n\n    struct CollateralPoolLocalVars {\n        address strategy;\n        uint256 priceWithSafetyMargin; // [ray]\n        uint256 debtAccumulatedRate; // [ray]\n    }\n\n    // --- Math ---\n    uint256 internal constant WAD = 10 ** 18;\n\n    bytes32 internal deprecated;\n\n    IBookKeeper public bookKeeper; // CDP Engine\n    ISystemDebtEngine public systemDebtEngine; // Debt Engine\n    uint256 public override live; // Active Flag\n    mapping(address => uint256) public liquidatorsWhitelist;\n\n    event LiquidationFail(bytes32 _collateralPoolIds, address _positionAddresses, address _liquidator, string reason);\n\n    modifier onlyOwnerOrShowStopper() {\n        IAccessControlConfig _accessControlConfig = IAccessControlConfig(bookKeeper.accessControlConfig());\n        require(\n            _accessControlConfig.hasRole(_accessControlConfig.OWNER_ROLE(), msg.sender) ||\n                _accessControlConfig.hasRole(_accessControlConfig.SHOW_STOPPER_ROLE(), msg.sender),\n            \"!(ownerRole or showStopperRole)\"\n        );\n        _;\n    }\n\n    modifier onlyOwnerOrGov() {\n        IAccessControlConfig _accessControlConfig = IAccessControlConfig(bookKeeper.accessControlConfig());\n        require(\n            _accessControlConfig.hasRole(_accessControlConfig.OWNER_ROLE(), msg.sender) ||\n                _accessControlConfig.hasRole(_accessControlConfig.GOV_ROLE(), msg.sender),\n            \"!(ownerRole or govRole)\"\n        );\n        _;\n    }\n\n    modifier onlyOwner() {\n        IAccessControlConfig _accessControlConfig = IAccessControlConfig(bookKeeper.accessControlConfig());\n        require(_accessControlConfig.hasRole(_accessControlConfig.OWNER_ROLE(), msg.sender), \"!ownerRole\");\n        _;\n    }\n\n    modifier onlyWhitelisted() {\n        require(liquidatorsWhitelist[msg.sender] == 1, \"LiquidationEngine/liquidator-not-whitelisted\");\n        _;\n    }\n\n    modifier isLive() {\n        require(live == 1, \"LiquidationEngine/not-live\");\n        _;\n    }\n    /**\n    * @notice Initialize the contract\n    * @param _bookKeeper The address of the BookKeeper contract\n    * @param _systemDebtEngine The address of the SystemDebtEngine contract\n    * @dev The function can only be called once after contract deployment\n    */\n    // --- Init ---\n    function initialize(address _bookKeeper, address _systemDebtEngine) external initializer {\n        PausableUpgradeable.__Pausable_init();\n        ReentrancyGuardUpgradeable.__ReentrancyGuard_init();\n        require(IBookKeeper(_bookKeeper).totalStablecoinIssued() >= 0, \"LiquidationEngine/invalid-bookKeeper\"); // Sanity Check Call\n        bookKeeper = IBookKeeper(_bookKeeper);\n        require(ISystemDebtEngine(_systemDebtEngine).surplusBuffer() >= 0, \"LiquidationEngine/invalid-systemDebtEngine\"); // Sanity Check Call\n        systemDebtEngine = ISystemDebtEngine(_systemDebtEngine);\n\n        live = 1;\n    }\n    /**\n    * @notice Add a new liquidator to the whitelist\n    * @param toBeWhitelisted The address to be whitelisted\n    * @dev Can only be called by the contract owner or the governance system\n    */\n    function whitelist(address toBeWhitelisted) external onlyOwnerOrGov {\n        require(toBeWhitelisted != address(0), \"LiquidationEngine/whitelist-invalidAddress\");\n        liquidatorsWhitelist[toBeWhitelisted] = 1;\n    }\n    /**\n    * @notice Remove a liquidator from the whitelist\n    * @param toBeRemoved The address to be removed from the whitelist\n    * @dev Can only be called by the contract owner or the governance system\n    */    \n    function blacklist(address toBeRemoved) external onlyOwnerOrGov {\n        liquidatorsWhitelist[toBeRemoved] = 0;\n    }\n    /**\n    * @notice Batch liquidate multiple positions\n    * @param _collateralPoolIds The ids of the collateral pools for the positions to be liquidated\n    * @param _positionAddresses The addresses of the positions to be liquidated\n    * @param _debtShareToBeLiquidateds The amount of debt to be liquidated for each position\n    * @param _maxDebtShareToBeLiquidateds The maximum amount of debt that can be liquidated for each position\n    * @param _collateralRecipients The addresses to receive the liquidated collateral\n    * @param datas Extra data to be passed to each liquidation call\n    * @dev Can only be called by a whitelisted liquidator\n    */\n    function batchLiquidate(\n        bytes32[] calldata _collateralPoolIds,\n        address[] calldata _positionAddresses,\n        uint256[] calldata _debtShareToBeLiquidateds, // [wad]\n        uint256[] calldata _maxDebtShareToBeLiquidateds, // [rad]\n        address[] calldata _collateralRecipients,\n        bytes[] calldata datas\n    ) external override nonReentrant onlyWhitelisted {\n        require(\n            _collateralPoolIds.length == _positionAddresses.length &&\n                _collateralPoolIds.length == _debtShareToBeLiquidateds.length &&\n                _collateralPoolIds.length == _maxDebtShareToBeLiquidateds.length &&\n                _collateralPoolIds.length == _collateralRecipients.length &&\n                _collateralPoolIds.length == datas.length,\n            \"LiquidationEngine/batchLiquidate-invalid-arguments\"\n        );\n\n        for (uint i = 0; i < _collateralPoolIds.length; i++) {\n            try\n                this.liquidateForBatch(\n                    _collateralPoolIds[i],\n                    _positionAddresses[i],\n                    _debtShareToBeLiquidateds[i],\n                    _maxDebtShareToBeLiquidateds[i],\n                    _collateralRecipients[i],\n                    datas[i],\n                    msg.sender\n                )\n            {} catch Error(string memory reason) {\n                emit LiquidationFail(_collateralPoolIds[i], _positionAddresses[i], msg.sender, reason);\n                continue;\n            } catch Panic(uint) {\n                emit LiquidationFail(_collateralPoolIds[i], _positionAddresses[i], msg.sender, \"panic error\");\n                continue;\n            } catch (bytes memory lowLevelData) {\n                string memory errorData = string(lowLevelData);\n                emit LiquidationFail(_collateralPoolIds[i], _positionAddresses[i], msg.sender, errorData);\n                continue;\n            }\n        }\n    }\n\n    //This function is overload implementation of liquidate() and will only be called from LiquidationEngine contract to support batch liquidation,\n    function liquidateForBatch(\n        bytes32 _collateralPoolId,\n        address _positionAddress,\n        uint256 _debtShareToBeLiquidated, // [wad]\n        uint256 _maxDebtShareToBeLiquidated, // [wad]\n        address _collateralRecipient,\n        bytes calldata _data,\n        address sender\n    ) external override whenNotPaused {\n        require(msg.sender == address(this), \"LiquidationEngine/invalid-sender\");\n        _liquidate(_collateralPoolId, _positionAddress, _debtShareToBeLiquidated, _maxDebtShareToBeLiquidated, _collateralRecipient, _data, sender);\n    }\n    /**\n    * @notice Liquidate a position\n    * @param _collateralPoolId The id of the collateral pool for the position to be liquidated\n    * @param _positionAddress The address of the position to be liquidated\n    * @param _debtShareToBeLiquidated The amount of debt to be liquidated\n    * @param _maxDebtShareToBeLiquidated The maximum amount of debt that can be liquidated\n    * @param _collateralRecipient The address to receive the liquidated collateral\n    * @param _data Extra data to be passed to the liquidation call\n    * @dev Can only be called by a whitelisted liquidator\n    */\n    function liquidate(\n        bytes32 _collateralPoolId,\n        address _positionAddress,\n        uint256 _debtShareToBeLiquidated, // [wad]\n        uint256 _maxDebtShareToBeLiquidated, // [wad]\n        address _collateralRecipient,\n        bytes calldata _data\n    ) external override nonReentrant whenNotPaused onlyWhitelisted {\n        _liquidate(\n            _collateralPoolId,\n            _positionAddress,\n            _debtShareToBeLiquidated,\n            _maxDebtShareToBeLiquidated,\n            _collateralRecipient,\n            _data,\n            msg.sender\n        );\n    }\n\n    function setBookKeeper(address _bookKeeper) external onlyOwner isLive {\n        require(IBookKeeper(_bookKeeper).totalStablecoinIssued() >= 0, \"LiquidationEngine/invalid-bookKeeper\"); // Sanity Check Call\n        bookKeeper = IBookKeeper(_bookKeeper);\n    }\n\n    function cage() external override onlyOwnerOrShowStopper {\n        if (live == 1) {\n            live = 0;\n            emit LogCage();\n        }\n    }\n\n\n    // --- pause ---\n    /// @dev access: OWNER_ROLE, GOV_ROLE\n    function pause() external override onlyOwnerOrGov {\n        _pause();\n    }\n    /// @dev access: OWNER_ROLE, GOV_ROLE\n    function unpause() external override onlyOwnerOrGov {\n        _unpause();\n    }\n\n    // solhint-disable function-max-lines\n    function _liquidate(\n        bytes32 _collateralPoolId,\n        address _positionAddress,\n        uint256 _debtShareToBeLiquidated, // [wad]\n        uint256 _maxDebtShareToBeLiquidated, // [wad]\n        address _collateralRecipient,\n        bytes calldata _data,\n        address sender\n    ) internal isLive {\n        require(_debtShareToBeLiquidated != 0, \"LiquidationEngine/zero-debt-value-to-be-liquidated\");\n        require(_maxDebtShareToBeLiquidated != 0, \"LiquidationEngine/zero-max-debt-value-to-be-liquidated\");\n        require(_isPriceOk(_collateralPoolId), \"LiquidationEngine/price-is-not-healthy\");\n\n        LocalVars memory _vars;\n\n        (_vars.positionLockedCollateral, _vars.positionDebtShare) = bookKeeper.positions(_collateralPoolId, _positionAddress);\n        // 1. Check if the position is underwater\n        CollateralPoolLocalVars memory _collateralPoolLocalVars;\n        _collateralPoolLocalVars.strategy = ICollateralPoolConfig(bookKeeper.collateralPoolConfig()).getStrategy(_collateralPoolId);\n        _collateralPoolLocalVars.priceWithSafetyMargin = ICollateralPoolConfig(bookKeeper.collateralPoolConfig()).getPriceWithSafetyMargin(\n            _collateralPoolId\n        ); // [ray]\n        _collateralPoolLocalVars.debtAccumulatedRate = ICollateralPoolConfig(bookKeeper.collateralPoolConfig()).getDebtAccumulatedRate(\n            _collateralPoolId\n        ); // [ray]\n\n        ILiquidationStrategy _strategy = ILiquidationStrategy(_collateralPoolLocalVars.strategy);\n        require(address(_strategy) != address(0), \"LiquidationEngine/not-set-strategy\");\n\n        // (positionLockedCollateral [wad] * priceWithSafetyMargin [ray]) [rad]\n        // (positionDebtShare [wad] * debtAccumulatedRate [ray]) [rad]\n        require(\n            _collateralPoolLocalVars.priceWithSafetyMargin > 0 &&\n                _vars.positionLockedCollateral * _collateralPoolLocalVars.priceWithSafetyMargin <\n                _vars.positionDebtShare * _collateralPoolLocalVars.debtAccumulatedRate,\n            \"LiquidationEngine/position-is-safe\"\n        );\n\n        _vars.systemDebtEngineStablecoinBefore = bookKeeper.stablecoin(address(systemDebtEngine));\n\n        _strategy.execute(\n            _collateralPoolId,\n            _vars.positionDebtShare,\n            _vars.positionLockedCollateral,\n            _positionAddress,\n            _debtShareToBeLiquidated,\n            _maxDebtShareToBeLiquidated,\n            sender,\n            _collateralRecipient,\n            _data\n        );\n\n        (_vars.newPositionLockedCollateral, _vars.newPositionDebtShare) = bookKeeper.positions(_collateralPoolId, _positionAddress);\n        require(_vars.newPositionDebtShare < _vars.positionDebtShare, \"LiquidationEngine/debt-not-liquidated\");\n\n        // (positionDebtShare [wad] - newPositionDebtShare [wad]) * debtAccumulatedRate [ray]\n\n        _vars.wantStablecoinValueFromLiquidation =\n            (_vars.positionDebtShare - _vars.newPositionDebtShare) * _collateralPoolLocalVars.debtAccumulatedRate; // [rad]\n        require(\n            bookKeeper.stablecoin(address(systemDebtEngine)) - _vars.systemDebtEngineStablecoinBefore >= _vars.wantStablecoinValueFromLiquidation,\n            \"LiquidationEngine/payment-not-received\"\n        );\n\n        // If collateral has been depleted from liquidation whilst there is remaining debt in the position\n        if (_vars.newPositionLockedCollateral == 0 && _vars.newPositionDebtShare > 0) {\n            // Overflow check\n            require(_vars.newPositionDebtShare < 2 ** 255, \"LiquidationEngine/overflow\");\n            // Record the bad debt to the system and close the position\n            bookKeeper.confiscatePosition(\n                _collateralPoolId,\n                _positionAddress,\n                _positionAddress,\n                address(systemDebtEngine),\n                0,\n                -int256(_vars.newPositionDebtShare)\n            );\n        }\n    }\n\n    // solhint-enable function-max-lines\n\n    function _isPriceOk(bytes32 _collateralPoolId) internal view returns (bool) {\n        IPriceFeed _priceFeed = IPriceFeed(ICollateralPoolConfig(bookKeeper.collateralPoolConfig()).getPriceFeed(_collateralPoolId));\n        return _priceFeed.isPriceOk();\n    }\n}\n",
    "sourcePath": "/Users/aleksey/SolidityProjects2/fathom-stablecoin-smart-contracts/contracts/main/stablecoin-core/LiquidationEngine.sol",
    "compiler": {
        "name": "solc",
        "version": "0.8.17+commit.8df45f5f.Emscripten.clang"
    },
    "schemaVersion": "3.4.15",
    "updatedAt": "2023-08-10T12:55:05.685Z",
    "devdoc": {
        "kind": "dev",
        "methods": {
            "batchLiquidate(bytes32[],address[],uint256[],uint256[],address[],bytes[])": {
                "details": "Can only be called by a whitelisted liquidator",
                "params": {
                    "_collateralPoolIds": "The ids of the collateral pools for the positions to be liquidated",
                    "_collateralRecipients": "The addresses to receive the liquidated collateral",
                    "_debtShareToBeLiquidateds": "The amount of debt to be liquidated for each position",
                    "_maxDebtShareToBeLiquidateds": "The maximum amount of debt that can be liquidated for each position",
                    "_positionAddresses": "The addresses of the positions to be liquidated",
                    "datas": "Extra data to be passed to each liquidation call"
                }
            },
            "blacklist(address)": {
                "details": "Can only be called by the contract owner or the governance system",
                "params": {
                    "toBeRemoved": "The address to be removed from the whitelist"
                }
            },
            "initialize(address,address)": {
                "details": "The function can only be called once after contract deployment",
                "params": {
                    "_bookKeeper": "The address of the BookKeeper contract",
                    "_systemDebtEngine": "The address of the SystemDebtEngine contract"
                }
            },
            "liquidate(bytes32,address,uint256,uint256,address,bytes)": {
                "details": "Can only be called by a whitelisted liquidator",
                "params": {
                    "_collateralPoolId": "The id of the collateral pool for the position to be liquidated",
                    "_collateralRecipient": "The address to receive the liquidated collateral",
                    "_data": "Extra data to be passed to the liquidation call",
                    "_debtShareToBeLiquidated": "The amount of debt to be liquidated",
                    "_maxDebtShareToBeLiquidated": "The maximum amount of debt that can be liquidated",
                    "_positionAddress": "The address of the position to be liquidated"
                }
            },
            "pause()": {
                "details": "access: OWNER_ROLE, GOV_ROLE"
            },
            "paused()": {
                "details": "Returns true if the contract is paused, and false otherwise."
            },
            "unpause()": {
                "details": "access: OWNER_ROLE, GOV_ROLE"
            },
            "whitelist(address)": {
                "details": "Can only be called by the contract owner or the governance system",
                "params": {
                    "toBeWhitelisted": "The address to be whitelisted"
                }
            }
        },
        "version": 1
    },
    "userdoc": {
        "kind": "user",
        "methods": {
            "batchLiquidate(bytes32[],address[],uint256[],uint256[],address[],bytes[])": {
                "notice": "Batch liquidate multiple positions"
            },
            "blacklist(address)": {
                "notice": "Remove a liquidator from the whitelist"
            },
            "initialize(address,address)": {
                "notice": "Initialize the contract"
            },
            "liquidate(bytes32,address,uint256,uint256,address,bytes)": {
                "notice": "Liquidate a position"
            },
            "whitelist(address)": {
                "notice": "Add a new liquidator to the whitelist"
            }
        },
        "notice": "A contract which is the manager for all of the liquidations of the protocol. LiquidationEngine will be the interface for the liquidator to trigger any positions into the liquidation process.",
        "version": 1
    }
}