{
  "contractName": "MockVault",
  "abi": [
    {
      "inputs": [
        {
          "internalType": "bytes32",
          "name": "_collateralPoolId",
          "type": "bytes32"
        },
        {
          "internalType": "address",
          "name": "_collateralToken",
          "type": "address"
        },
        {
          "internalType": "address",
          "name": "_collateralAdapter",
          "type": "address"
        }
      ],
      "stateMutability": "nonpayable",
      "type": "constructor"
    },
    {
      "anonymous": false,
      "inputs": [
        {
          "indexed": false,
          "internalType": "uint256",
          "name": "amount",
          "type": "uint256"
        }
      ],
      "name": "Deposit",
      "type": "event"
    },
    {
      "anonymous": false,
      "inputs": [
        {
          "indexed": false,
          "internalType": "uint256",
          "name": "amount",
          "type": "uint256"
        }
      ],
      "name": "Withdraw",
      "type": "event"
    },
    {
      "inputs": [],
      "name": "collateralAdapter",
      "outputs": [
        {
          "internalType": "address",
          "name": "",
          "type": "address"
        }
      ],
      "stateMutability": "view",
      "type": "function"
    },
    {
      "inputs": [],
      "name": "collateralPoolId",
      "outputs": [
        {
          "internalType": "bytes32",
          "name": "",
          "type": "bytes32"
        }
      ],
      "stateMutability": "view",
      "type": "function"
    },
    {
      "inputs": [],
      "name": "collateralToken",
      "outputs": [
        {
          "internalType": "address",
          "name": "",
          "type": "address"
        }
      ],
      "stateMutability": "view",
      "type": "function"
    },
    {
      "inputs": [
        {
          "internalType": "uint256",
          "name": "_amount",
          "type": "uint256"
        }
      ],
      "name": "deposit",
      "outputs": [],
      "stateMutability": "nonpayable",
      "type": "function"
    },
    {
      "inputs": [
        {
          "internalType": "uint256",
          "name": "_amount",
          "type": "uint256"
        }
      ],
      "name": "withdraw",
      "outputs": [],
      "stateMutability": "nonpayable",
      "type": "function"
    }
  ],
  "bytecode": "0x608060405234801561001057600080fd5b506040516106f23803806106f283398101604081905261002f91610082565b600092909255600180546001600160a01b039283166001600160a01b031991821617909155600280549290931691161790556100be565b80516001600160a01b038116811461007d57600080fd5b919050565b60008060006060848603121561009757600080fd5b835192506100a760208501610066565b91506100b560408501610066565b90509250925092565b610625806100cd6000396000f3fe608060405234801561001057600080fd5b50600436106100575760003560e01c8063246786e21461005c5780632e1a7d4d1461008c578063b2016bd4146100a1578063b6b55f25146100b4578063dca07dc5146100c7575b600080fd5b60025461006f906001600160a01b031681565b6040516001600160a01b0390911681526020015b60405180910390f35b61009f61009a36600461053a565b6100de565b005b60015461006f906001600160a01b031681565b61009f6100c236600461053a565b610144565b6100d060005481565b604051908152602001610083565b6002546001600160a01b031633146101385760405162461bcd60e51b81526020600482015260186024820152772b30bab63a17b1b0b63632b916b737ba16b0b230b83a32b960411b60448201526064015b60405180910390fd5b610141816101e8565b50565b6002546001600160a01b031633146101995760405162461bcd60e51b81526020600482015260186024820152772b30bab63a17b1b0b63632b916b737ba16b0b230b83a32b960411b604482015260640161012f565b6001546101b1906001600160a01b031633308461022f565b6040518181527f4d6ce1e535dbade1c23defba91e23b8f791ce5edc0cc320257a2b364e4e38426906020015b60405180910390a150565b6001546101ff906001600160a01b031633836102a0565b6040518181527f5b6b431d4476a211bb7d41c20d1aab9ae2321deee0d20be3d9fc9b1093fa6e3d906020016101dd565b6040516001600160a01b038085166024830152831660448201526064810182905261029a9085906323b872dd60e01b906084015b60408051601f198184030181529190526020810180516001600160e01b03166001600160e01b0319909316929092179091526102d5565b50505050565b6040516001600160a01b0383166024820152604481018290526102d090849063a9059cbb60e01b90606401610263565b505050565b600061032a826040518060400160405280602081526020017f5361666545524332303a206c6f772d6c6576656c2063616c6c206661696c6564815250856001600160a01b03166103aa9092919063ffffffff16565b905080516000148061034b57508080602001905181019061034b9190610553565b6102d05760405162461bcd60e51b815260206004820152602a60248201527f5361666545524332303a204552433230206f7065726174696f6e20646964206e6044820152691bdd081cdd58d8d9595960b21b606482015260840161012f565b60606103b984846000856103c1565b949350505050565b6060824710156104225760405162461bcd60e51b815260206004820152602660248201527f416464726573733a20696e73756666696369656e742062616c616e636520666f6044820152651c8818d85b1b60d21b606482015260840161012f565b600080866001600160a01b0316858760405161043e91906105a0565b60006040518083038185875af1925050503d806000811461047b576040519150601f19603f3d011682016040523d82523d6000602084013e610480565b606091505b50915091506104918783838761049c565b979650505050505050565b6060831561050b578251600003610504576001600160a01b0385163b6105045760405162461bcd60e51b815260206004820152601d60248201527f416464726573733a2063616c6c20746f206e6f6e2d636f6e7472616374000000604482015260640161012f565b50816103b9565b6103b983838151156105205781518083602001fd5b8060405162461bcd60e51b815260040161012f91906105bc565b60006020828403121561054c57600080fd5b5035919050565b60006020828403121561056557600080fd5b8151801515811461057557600080fd5b9392505050565b60005b8381101561059757818101518382015260200161057f565b50506000910152565b600082516105b281846020870161057c565b9190910192915050565b60208152600082518060208401526105db81604085016020870161057c565b601f01601f1916919091016040019291505056fea264697066735822122007adb227a003bdd42f0adfb26516d1d40ca11c709da3be86a40e04fb4ad8c8f464736f6c63430008110033",
  "immutableReferences": {},
  "source": "// SPDX-License-Identifier: AGPL-3.0-or-later\n\npragma solidity 0.8.17;\n\nimport \"@openzeppelin/contracts/token/ERC20/utils/SafeERC20.sol\";\n\nimport \"../../main/interfaces/IVault.sol\";\n\ncontract MockVault is IVault {\n    using SafeERC20 for IERC20;\n\n    bytes32 public collateralPoolId;\n    address public collateralToken;\n    address public collateralAdapter;\n\n    event Deposit(uint256 amount);\n    event Withdraw(uint256 amount);\n\n    modifier onlyAdapter() {\n        require(msg.sender == collateralAdapter, \"Vault/caller-not-adapter\");\n        _;\n    }\n\n    constructor(bytes32 _collateralPoolId, address _collateralToken, address _collateralAdapter) {\n        collateralPoolId = _collateralPoolId;\n        collateralToken = _collateralToken;\n        collateralAdapter = _collateralAdapter;\n    }\n\n    function deposit(uint256 _amount) external onlyAdapter {\n        IERC20(collateralToken).safeTransferFrom(msg.sender, address(this), _amount);\n        emit Deposit(_amount);\n    }\n\n    function withdraw(uint256 _amount) external onlyAdapter {\n        _withdraw(_amount);\n    }\n\n    function _withdraw(uint256 _amount) internal {\n        IERC20(collateralToken).safeTransfer(msg.sender, _amount);\n        emit Withdraw(_amount);\n    }\n}\n",
  "sourcePath": "/Users/aleksey/SolidityProjects2/fathom-stablecoin-smart-contracts/contracts/tests/mocks/MockVault.sol",
  "compiler": {
    "name": "solc",
    "version": "0.8.17+commit.8df45f5f.Emscripten.clang"
  },
  "schemaVersion": "3.4.15",
  "updatedAt": "2023-08-10T12:55:05.827Z",
  "devdoc": {
    "kind": "dev",
    "methods": {},
    "version": 1
  },
  "userdoc": {
    "kind": "user",
    "methods": {},
    "version": 1
  }
}