{
  "contractName": "MockCollateralTokenAdapter",
  "abi": [
    {
      "anonymous": false,
      "inputs": [
        {
          "indexed": false,
          "internalType": "uint8",
          "name": "version",
          "type": "uint8"
        }
      ],
      "name": "Initialized",
      "type": "event"
    },
    {
      "anonymous": false,
      "inputs": [],
      "name": "LogCage",
      "type": "event"
    },
    {
      "anonymous": false,
      "inputs": [
        {
          "indexed": false,
          "internalType": "uint256",
          "name": "_val",
          "type": "uint256"
        }
      ],
      "name": "LogDeposit",
      "type": "event"
    },
    {
      "anonymous": false,
      "inputs": [
        {
          "indexed": true,
          "internalType": "address",
          "name": "_caller",
          "type": "address"
        },
        {
          "indexed": false,
          "internalType": "address",
          "name": "_to",
          "type": "address"
        }
      ],
      "name": "LogEmergencyWithdraw",
      "type": "event"
    },
    {
      "anonymous": false,
      "inputs": [
        {
          "indexed": false,
          "internalType": "uint256",
          "name": "_val",
          "type": "uint256"
        }
      ],
      "name": "LogWithdraw",
      "type": "event"
    },
    {
      "anonymous": false,
      "inputs": [
        {
          "indexed": false,
          "internalType": "address",
          "name": "account",
          "type": "address"
        }
      ],
      "name": "Paused",
      "type": "event"
    },
    {
      "anonymous": false,
      "inputs": [
        {
          "indexed": false,
          "internalType": "address",
          "name": "account",
          "type": "address"
        }
      ],
      "name": "Unpaused",
      "type": "event"
    },
    {
      "inputs": [],
      "name": "bookKeeper",
      "outputs": [
        {
          "internalType": "contract IBookKeeper",
          "name": "",
          "type": "address"
        }
      ],
      "stateMutability": "view",
      "type": "function"
    },
    {
      "inputs": [],
      "name": "collateralPoolId",
      "outputs": [
        {
          "internalType": "bytes32",
          "name": "",
          "type": "bytes32"
        }
      ],
      "stateMutability": "view",
      "type": "function"
    },
    {
      "inputs": [],
      "name": "collateralToken",
      "outputs": [
        {
          "internalType": "address",
          "name": "",
          "type": "address"
        }
      ],
      "stateMutability": "view",
      "type": "function"
    },
    {
      "inputs": [],
      "name": "live",
      "outputs": [
        {
          "internalType": "uint256",
          "name": "",
          "type": "uint256"
        }
      ],
      "stateMutability": "view",
      "type": "function"
    },
    {
      "inputs": [],
      "name": "paused",
      "outputs": [
        {
          "internalType": "bool",
          "name": "",
          "type": "bool"
        }
      ],
      "stateMutability": "view",
      "type": "function"
    },
    {
      "inputs": [],
      "name": "positionManager",
      "outputs": [
        {
          "internalType": "contract IManager",
          "name": "",
          "type": "address"
        }
      ],
      "stateMutability": "view",
      "type": "function"
    },
    {
      "inputs": [],
      "name": "proxyWalletFactory",
      "outputs": [
        {
          "internalType": "contract IProxyRegistry",
          "name": "",
          "type": "address"
        }
      ],
      "stateMutability": "view",
      "type": "function"
    },
    {
      "inputs": [],
      "name": "totalShare",
      "outputs": [
        {
          "internalType": "uint256",
          "name": "",
          "type": "uint256"
        }
      ],
      "stateMutability": "view",
      "type": "function"
    },
    {
      "inputs": [],
      "name": "vault",
      "outputs": [
        {
          "internalType": "contract IVault",
          "name": "",
          "type": "address"
        }
      ],
      "stateMutability": "view",
      "type": "function"
    },
    {
      "inputs": [
        {
          "internalType": "address",
          "name": "",
          "type": "address"
        }
      ],
      "name": "whiteListed",
      "outputs": [
        {
          "internalType": "bool",
          "name": "",
          "type": "bool"
        }
      ],
      "stateMutability": "view",
      "type": "function"
    },
    {
      "inputs": [
        {
          "internalType": "address",
          "name": "_bookKeeper",
          "type": "address"
        },
        {
          "internalType": "bytes32",
          "name": "_collateralPoolId",
          "type": "bytes32"
        },
        {
          "internalType": "address",
          "name": "_collateralToken",
          "type": "address"
        },
        {
          "internalType": "address",
          "name": "_positionManager",
          "type": "address"
        },
        {
          "internalType": "address",
          "name": "_proxyWalletFactory",
          "type": "address"
        }
      ],
      "name": "initialize",
      "outputs": [],
      "stateMutability": "nonpayable",
      "type": "function"
    },
    {
      "inputs": [
        {
          "internalType": "address",
          "name": "toBeWhitelisted",
          "type": "address"
        }
      ],
      "name": "whitelist",
      "outputs": [],
      "stateMutability": "nonpayable",
      "type": "function"
    },
    {
      "inputs": [
        {
          "internalType": "address",
          "name": "toBeRemoved",
          "type": "address"
        }
      ],
      "name": "blacklist",
      "outputs": [],
      "stateMutability": "nonpayable",
      "type": "function"
    },
    {
      "inputs": [],
      "name": "cage",
      "outputs": [],
      "stateMutability": "nonpayable",
      "type": "function"
    },
    {
      "inputs": [],
      "name": "pause",
      "outputs": [],
      "stateMutability": "nonpayable",
      "type": "function"
    },
    {
      "inputs": [],
      "name": "unpause",
      "outputs": [],
      "stateMutability": "nonpayable",
      "type": "function"
    },
    {
      "inputs": [
        {
          "internalType": "address",
          "name": "_vault",
          "type": "address"
        }
      ],
      "name": "setVault",
      "outputs": [],
      "stateMutability": "nonpayable",
      "type": "function"
    },
    {
      "inputs": [
        {
          "internalType": "address",
          "name": "_positionAddress",
          "type": "address"
        },
        {
          "internalType": "uint256",
          "name": "_amount",
          "type": "uint256"
        },
        {
          "internalType": "bytes",
          "name": "_data",
          "type": "bytes"
        }
      ],
      "name": "deposit",
      "outputs": [],
      "stateMutability": "nonpayable",
      "type": "function"
    },
    {
      "inputs": [
        {
          "internalType": "address",
          "name": "_usr",
          "type": "address"
        },
        {
          "internalType": "uint256",
          "name": "_amount",
          "type": "uint256"
        },
        {
          "internalType": "bytes",
          "name": "",
          "type": "bytes"
        }
      ],
      "name": "withdraw",
      "outputs": [],
      "stateMutability": "nonpayable",
      "type": "function"
    },
    {
      "inputs": [
        {
          "internalType": "address",
          "name": "_to",
          "type": "address"
        }
      ],
      "name": "emergencyWithdraw",
      "outputs": [],
      "stateMutability": "nonpayable",
      "type": "function"
    },
    {
      "inputs": [],
      "name": "netAssetValuation",
      "outputs": [
        {
          "internalType": "uint256",
          "name": "",
          "type": "uint256"
        }
      ],
      "stateMutability": "view",
      "type": "function"
    },
    {
      "inputs": [],
      "name": "netAssetPerShare",
      "outputs": [
        {
          "internalType": "uint256",
          "name": "",
          "type": "uint256"
        }
      ],
      "stateMutability": "view",
      "type": "function"
    }
  ],
  "bytecode": "0x608060405234801561001057600080fd5b506125e8806100206000396000f3fe608060405234801561001057600080fd5b50600436106101425760003560e01c80638217b846116100b8578063dca07dc51161007c578063dca07dc51461026d578063e3b3932a14610276578063e959278014610289578063f9f92be414610291578063fa0fca84146102a4578063fbfa77cf146102c757600080fd5b80638217b846146102295780638456cb5914610231578063957aa58c146102395780639b19251a14610242578063b2016bd41461025557600080fd5b806349bdc2b81161010a57806349bdc2b8146101be5780635c975abb146101d15780636817031b146101e857806369245009146101fb5780636ff1c9bc14610203578063791b98bc1461021657600080fd5b8063026c4207146101475780631704edb41461016357806326a15d181461018e57806331f09265146101a35780633f4ba83a146101b6575b600080fd5b610150609e5481565b6040519081526020015b60405180910390f35b609d54610176906001600160a01b031681565b6040516001600160a01b03909116815260200161015a565b6101a161019c366004612280565b6102da565b005b6101a16101b13660046122e8565b610462565b6101a1610552565b6101a16101cc3660046122e8565b61079d565b60335460ff165b604051901515815260200161015a565b6101a16101f6366004612371565b61087f565b6101a1610a7b565b6101a1610211366004612371565b610c2c565b609c54610176906001600160a01b031681565b609e54610150565b6101a1610e90565b61015060975481565b6101a1610250366004612371565b6110d8565b6098546101769061010090046001600160a01b031681565b610150609a5481565b609954610176906001600160a01b031681565b61015061139f565b6101a161029f366004612371565b6113d1565b6101d86102b2366004612371565b60a06020526000908152604090205460ff1681565b609b54610176906001600160a01b031681565b600054610100900460ff16158080156102fa5750600054600160ff909116105b806103145750303b158015610314575060005460ff166001145b61037c5760405162461bcd60e51b815260206004820152602e60248201527f496e697469616c697a61626c653a20636f6e747261637420697320616c72656160448201526d191e481a5b9a5d1a585b1a5e995960921b60648201526084015b60405180910390fd5b6000805460ff19166001179055801561039f576000805461ff0019166101001790555b6103a7611633565b6103af611662565b60988054610100600160a81b0319166101006001600160a01b0387811691909102919091179091556001609755609980546001600160a01b031990811689841617909155609a879055609c80548216868416179055609d8054909116918416919091179055801561045a576000805461ff0019169055604051600181527f7f26b83ff96e1f2b6a682f133852f6798a09c465da95921460cefb38474024989060200160405180910390a15b505050505050565b61046a611691565b6104726116ea565b609d5460405163052e207160e31b81523360048201526001600160a01b0390911690632971038890602401602060405180830381865afa1580156104ba573d6000803e3d6000fd5b505050506040513d601f19601f820116820180604052508101906104de919061238e565b806104f8575033600090815260a0602052604090205460ff165b6105385760405162461bcd60e51b815260206004820152601160248201527008541c9bde1e53dc95da1a5d19531a5cdd607a1b6044820152606401610373565b6105428484611730565b61054c6001606555565b50505050565b6099546040805163c8cc243f60e01b815290516000926001600160a01b03169163c8cc243f9160048083019260209291908290030181865afa15801561059c573d6000803e3d6000fd5b505050506040513d601f19601f820116820180604052508101906105c091906123b0565b9050806001600160a01b03166391d14854826001600160a01b031663e58378bb6040518163ffffffff1660e01b8152600401602060405180830381865afa15801561060f573d6000803e3d6000fd5b505050506040513d601f19601f8201168201806040525081019061063391906123cd565b6040516001600160e01b031960e084901b1681526004810191909152336024820152604401602060405180830381865afa158015610675573d6000803e3d6000fd5b505050506040513d601f19601f82011682018060405250810190610699919061238e565b806107765750806001600160a01b03166391d14854826001600160a01b031663b536818a6040518163ffffffff1660e01b8152600401602060405180830381865afa1580156106ec573d6000803e3d6000fd5b505050506040513d601f19601f8201168201806040525081019061071091906123cd565b6040516001600160e01b031960e084901b1681526004810191909152336024820152604401602060405180830381865afa158015610752573d6000803e3d6000fd5b505050506040513d601f19601f82011682018060405250810190610776919061238e565b6107925760405162461bcd60e51b8152600401610373906123e6565b61079a6119a0565b50565b6107a5611691565b6107ad6116ea565b609d5460405163052e207160e31b81523360048201526001600160a01b0390911690632971038890602401602060405180830381865afa1580156107f5573d6000803e3d6000fd5b505050506040513d601f19601f82011682018060405250810190610819919061238e565b80610833575033600090815260a0602052604090205460ff165b6108735760405162461bcd60e51b815260206004820152601160248201527008541c9bde1e53dc95da1a5d19531a5cdd607a1b6044820152606401610373565b610542848484846119f2565b6099546040805163c8cc243f60e01b815290516000926001600160a01b03169163c8cc243f9160048083019260209291908290030181865afa1580156108c9573d6000803e3d6000fd5b505050506040513d601f19601f820116820180604052508101906108ed91906123b0565b9050806001600160a01b03166391d14854826001600160a01b031663e58378bb6040518163ffffffff1660e01b8152600401602060405180830381865afa15801561093c573d6000803e3d6000fd5b505050506040513d601f19601f8201168201806040525081019061096091906123cd565b6040516001600160e01b031960e084901b1681526004810191909152336024820152604401602060405180830381865afa1580156109a2573d6000803e3d6000fd5b505050506040513d601f19601f820116820180604052508101906109c6919061238e565b6109e25760405162461bcd60e51b81526004016103739061241d565b60985460ff161515600103610a4a5760405162461bcd60e51b815260206004820152602860248201527f436f6c6c61746572616c546f6b656e416461707465722f5661756c742d7365746044820152672d616c726561647960c01b6064820152608401610373565b506098805460ff19166001179055609b80546001600160a01b039092166001600160a01b0319909216919091179055565b610a83611691565b6099546040805163c8cc243f60e01b815290516000926001600160a01b03169163c8cc243f9160048083019260209291908290030181865afa158015610acd573d6000803e3d6000fd5b505050506040513d601f19601f82011682018060405250810190610af191906123b0565b9050806001600160a01b03166391d14854826001600160a01b031663e58378bb6040518163ffffffff1660e01b8152600401602060405180830381865afa158015610b40573d6000803e3d6000fd5b505050506040513d601f19601f82011682018060405250810190610b6491906123cd565b6040516001600160e01b031960e084901b1681526004810191909152336024820152604401602060405180830381865afa158015610ba6573d6000803e3d6000fd5b505050506040513d601f19601f82011682018060405250810190610bca919061238e565b610be65760405162461bcd60e51b81526004016103739061241d565b609754600103610c1f57600060978190556040517fbf689b4aae670d200b1d2b971ace2e0c3bef88a9c5e93f36705c7b86eab630b99190a15b50610c2a6001606555565b565b610c34611691565b609754600003610e8657609954609a54604051633e2f890b60e21b815260048101919091523360248201526000916001600160a01b03169063f8be242c90604401602060405180830381865afa158015610c92573d6000803e3d6000fd5b505050506040513d601f19601f82011682018060405250810190610cb691906123cd565b9050600160ff1b8110610d1e5760405162461bcd60e51b815260206004820152602a60248201527f436f6c6c61746572616c546f6b656e416461707465722f636f6c6c61746572616044820152696c2d6f766572666c6f7760b01b6064820152608401610373565b6000610d3182610d2c61139f565b611bd2565b9050610d3f609e5482611bf8565b609e55609954609a546001600160a01b039091169063d295927a9033610d6486612478565b6040516001600160e01b031960e086901b16815260048101939093526001600160a01b0390911660248301526044820152606401600060405180830381600087803b158015610db257600080fd5b505af1158015610dc6573d6000803e3d6000fd5b5050609b54604051632e1a7d4d60e01b8152600481018690526001600160a01b039091169250632e1a7d4d9150602401600060405180830381600087803b158015610e1057600080fd5b505af1158015610e24573d6000803e3d6000fd5b5050609854610e45925061010090046001600160a01b031690508484611c54565b6040516001600160a01b038416815233907f6ba7f365fdc489ae6b61ea2021626b6df9cff6f0280e8e1658e5d7f87794f0c89060200160405180910390a250505b61079a6001606555565b6099546040805163c8cc243f60e01b815290516000926001600160a01b03169163c8cc243f9160048083019260209291908290030181865afa158015610eda573d6000803e3d6000fd5b505050506040513d601f19601f82011682018060405250810190610efe91906123b0565b9050806001600160a01b03166391d14854826001600160a01b031663e58378bb6040518163ffffffff1660e01b8152600401602060405180830381865afa158015610f4d573d6000803e3d6000fd5b505050506040513d601f19601f82011682018060405250810190610f7191906123cd565b6040516001600160e01b031960e084901b1681526004810191909152336024820152604401602060405180830381865afa158015610fb3573d6000803e3d6000fd5b505050506040513d601f19601f82011682018060405250810190610fd7919061238e565b806110b45750806001600160a01b03166391d14854826001600160a01b031663b536818a6040518163ffffffff1660e01b8152600401602060405180830381865afa15801561102a573d6000803e3d6000fd5b505050506040513d601f19601f8201168201806040525081019061104e91906123cd565b6040516001600160e01b031960e084901b1681526004810191909152336024820152604401602060405180830381865afa158015611090573d6000803e3d6000fd5b505050506040513d601f19601f820116820180604052508101906110b4919061238e565b6110d05760405162461bcd60e51b8152600401610373906123e6565b61079a611dc1565b6099546040805163c8cc243f60e01b815290516000926001600160a01b03169163c8cc243f9160048083019260209291908290030181865afa158015611122573d6000803e3d6000fd5b505050506040513d601f19601f8201168201806040525081019061114691906123b0565b9050806001600160a01b03166391d14854826001600160a01b031663e58378bb6040518163ffffffff1660e01b8152600401602060405180830381865afa158015611195573d6000803e3d6000fd5b505050506040513d601f19601f820116820180604052508101906111b991906123cd565b6040516001600160e01b031960e084901b1681526004810191909152336024820152604401602060405180830381865afa1580156111fb573d6000803e3d6000fd5b505050506040513d601f19601f8201168201806040525081019061121f919061238e565b806112fc5750806001600160a01b03166391d14854826001600160a01b031663b536818a6040518163ffffffff1660e01b8152600401602060405180830381865afa158015611272573d6000803e3d6000fd5b505050506040513d601f19601f8201168201806040525081019061129691906123cd565b6040516001600160e01b031960e084901b1681526004810191909152336024820152604401602060405180830381865afa1580156112d8573d6000803e3d6000fd5b505050506040513d601f19601f820116820180604052508101906112fc919061238e565b6113185760405162461bcd60e51b8152600401610373906123e6565b6001600160a01b03821661137a5760405162461bcd60e51b8152602060048201526024808201527f416e6b72436f6c616461707465722f77686974656c6973742d696e76616c69646044820152634164647360e01b6064820152608401610373565b506001600160a01b0316600090815260a060205260409020805460ff19166001179055565b6000609e546000036113b85750670de0b6b3a764000090565b6113cc6113c4609e5490565b609e54611bd2565b905090565b6099546040805163c8cc243f60e01b815290516000926001600160a01b03169163c8cc243f9160048083019260209291908290030181865afa15801561141b573d6000803e3d6000fd5b505050506040513d601f19601f8201168201806040525081019061143f91906123b0565b9050806001600160a01b03166391d14854826001600160a01b031663e58378bb6040518163ffffffff1660e01b8152600401602060405180830381865afa15801561148e573d6000803e3d6000fd5b505050506040513d601f19601f820116820180604052508101906114b291906123cd565b6040516001600160e01b031960e084901b1681526004810191909152336024820152604401602060405180830381865afa1580156114f4573d6000803e3d6000fd5b505050506040513d601f19601f82011682018060405250810190611518919061238e565b806115f55750806001600160a01b03166391d14854826001600160a01b031663b536818a6040518163ffffffff1660e01b8152600401602060405180830381865afa15801561156b573d6000803e3d6000fd5b505050506040513d601f19601f8201168201806040525081019061158f91906123cd565b6040516001600160e01b031960e084901b1681526004810191909152336024820152604401602060405180830381865afa1580156115d1573d6000803e3d6000fd5b505050506040513d601f19601f820116820180604052508101906115f5919061238e565b6116115760405162461bcd60e51b8152600401610373906123e6565b506001600160a01b0316600090815260a060205260409020805460ff19169055565b600054610100900460ff1661165a5760405162461bcd60e51b815260040161037390612494565b610c2a611dfe565b600054610100900460ff166116895760405162461bcd60e51b815260040161037390612494565b610c2a611e31565b6002606554036116e35760405162461bcd60e51b815260206004820152601f60248201527f5265656e7472616e637947756172643a207265656e7472616e742063616c6c006044820152606401610373565b6002606555565b60335460ff1615610c2a5760405162461bcd60e51b815260206004820152601060248201526f14185d5cd8589b194e881c185d5cd95960821b6044820152606401610373565b80156119625760006117498261174461139f565b611e58565b90506000811361176b5760405162461bcd60e51b8152600401610373906124df565b609954609a54604051633e2f890b60e21b8152600481019190915233602482015282916001600160a01b03169063f8be242c90604401602060405180830381865afa1580156117be573d6000803e3d6000fd5b505050506040513d601f19601f820116820180604052508101906117e291906123cd565b101561184e5760405162461bcd60e51b815260206004820152603560248201527f436f6c6c61746572616c546f6b656e416461707465722f696e73756666696369604482015274195b9d0818dbdb1b185d195c985b08185b5bdd5b9d605a1b6064820152608401610373565b609954609a546001600160a01b039091169063d295927a903361187085612478565b6040516001600160e01b031960e086901b16815260048101939093526001600160a01b0390911660248301526044820152606401600060405180830381600087803b1580156118be57600080fd5b505af11580156118d2573d6000803e3d6000fd5b505050506118e2609e5482611bf8565b609e55609b54604051632e1a7d4d60e01b8152600481018490526001600160a01b0390911690632e1a7d4d90602401600060405180830381600087803b15801561192b57600080fd5b505af115801561193f573d6000803e3d6000fd5b5050609854611960925061010090046001600160a01b031690508484611c54565b505b6040518181527f879a83fc17750905b8aef4ef85e6701b84a50e15d4463dc3c2e7fb0f9dbcf75d9060200160405180910390a15050565b6001606555565b6119a8611e75565b6033805460ff191690557f5db9ee0a495bf2e6ff9c91a7834c1ba4fdd244a5e8aa4e537bd38aeae4b073aa335b6040516001600160a01b03909116815260200160405180910390a1565b609754600114611a445760405162461bcd60e51b815260206004820152601f60248201527f436f6c6c61746572616c546f6b656e416461707465722f6e6f742d6c697665006044820152606401610373565b8215611b99576000611a5884610d2c61139f565b905060008113611a7a5760405162461bcd60e51b8152600401610373906124df565b609854611a979061010090046001600160a01b0316333087611ebe565b609954609a5460405163694ac93d60e11b815260048101919091526001600160a01b038781166024830152604482018490529091169063d295927a90606401600060405180830381600087803b158015611af057600080fd5b505af1158015611b04573d6000803e3d6000fd5b50505050611b14609e5482612034565b609e55609b54609854611b39916001600160a01b036101009092048216911686612089565b609b5460405163b6b55f2560e01b8152600481018690526001600160a01b039091169063b6b55f2590602401600060405180830381600087803b158015611b7f57600080fd5b505af1158015611b93573d6000803e3d6000fd5b50505050505b6040518381527ff641ad64267ca71156d13749ad746155df3095d9afeb604fe3b53016ce5fc8ba9060200160405180910390a150505050565b600081611be784670de0b6b3a76400006121ed565b611bf19190612524565b9392505050565b600082611c058382612546565b9150811115611c4e5760405162461bcd60e51b815260206004820152601560248201527464732d6d6174682d7375622d756e646572666c6f7760581b6044820152606401610373565b92915050565b6001600160a01b0383163b611cb65760405162461bcd60e51b815260206004820152602260248201527f736166655472616e736665723a206e6f6e2d636f6e7472616374206164647265604482015261737360f01b6064820152608401610373565b604080516001600160a01b038481166024830152604480830185905283518084039091018152606490920183526020820180516001600160e01b031663a9059cbb60e01b1790529151600092839290871691611d129190612559565b6000604051808303816000865af19150503d8060008114611d4f576040519150601f19603f3d011682016040523d82523d6000602084013e611d54565b606091505b5091509150818015611d7e575080511580611d7e575080806020019051810190611d7e919061238e565b611dba5760405162461bcd60e51b815260206004820152600d60248201526c10b9b0b332aa3930b739b332b960991b6044820152606401610373565b5050505050565b611dc96116ea565b6033805460ff191660011790557f62e78cea01bee320cd4e420270b5ea74000d11b0c9f74754ebdbfc544b05a2586119d53390565b600054610100900460ff16611e255760405162461bcd60e51b815260040161037390612494565b6033805460ff19169055565b600054610100900460ff166119995760405162461bcd60e51b815260040161037390612494565b6000611bf1611e6f84670de0b6b3a76400006121ed565b83612254565b60335460ff16610c2a5760405162461bcd60e51b815260206004820152601460248201527314185d5cd8589b194e881b9bdd081c185d5cd95960621b6044820152606401610373565b6001600160a01b0384163b611f245760405162461bcd60e51b815260206004820152602660248201527f736166655472616e7366657246726f6d3a206e6f6e2d636f6e7472616374206160448201526564647265737360d01b6064820152608401610373565b604080516001600160a01b0385811660248301528481166044830152606480830185905283518084039091018152608490920183526020820180516001600160e01b03166323b872dd60e01b1790529151600092839290881691611f889190612559565b6000604051808303816000865af19150503d8060008114611fc5576040519150601f19603f3d011682016040523d82523d6000602084013e611fca565b606091505b5091509150818015611ff4575080511580611ff4575080806020019051810190611ff4919061238e565b61045a5760405162461bcd60e51b815260206004820152601160248201527021736166655472616e7366657246726f6d60781b6044820152606401610373565b6000826120418382612588565b9150811015611c4e5760405162461bcd60e51b815260206004820152601460248201527364732d6d6174682d6164642d6f766572666c6f7760601b6044820152606401610373565b6001600160a01b0383163b6120ea5760405162461bcd60e51b815260206004820152602160248201527f73616665417070726f76653a206e6f6e2d636f6e7472616374206164647265736044820152607360f81b6064820152608401610373565b604080516001600160a01b038481166024830152604480830185905283518084039091018152606490920183526020820180516001600160e01b031663095ea7b360e01b17905291516000928392908716916121469190612559565b6000604051808303816000865af19150503d8060008114612183576040519150601f19603f3d011682016040523d82523d6000602084013e612188565b606091505b50915091508180156121b25750805115806121b25750808060200190518101906121b2919061238e565b611dba5760405162461bcd60e51b815260206004820152600c60248201526b2173616665417070726f766560a01b6044820152606401610373565b600081158061221157508282612203818361259b565b925061220f9083612524565b145b611c4e5760405162461bcd60e51b815260206004820152601460248201527364732d6d6174682d6d756c2d6f766572666c6f7760601b6044820152606401610373565b600081611be784612266856001611bf8565b612034565b6001600160a01b038116811461079a57600080fd5b600080600080600060a0868803121561229857600080fd5b85356122a38161226b565b94506020860135935060408601356122ba8161226b565b925060608601356122ca8161226b565b915060808601356122da8161226b565b809150509295509295909350565b600080600080606085870312156122fe57600080fd5b84356123098161226b565b935060208501359250604085013567ffffffffffffffff8082111561232d57600080fd5b818701915087601f83011261234157600080fd5b81358181111561235057600080fd5b88602082850101111561236257600080fd5b95989497505060200194505050565b60006020828403121561238357600080fd5b8135611bf18161226b565b6000602082840312156123a057600080fd5b81518015158114611bf157600080fd5b6000602082840312156123c257600080fd5b8151611bf18161226b565b6000602082840312156123df57600080fd5b5051919050565b60208082526017908201527f21286f776e6572526f6c65206f7220676f76526f6c6529000000000000000000604082015260600190565b60208082526025908201527f436f6c6c61746572616c546f6b656e416461707465722f6e6f742d617574686f6040820152641c9a5e995960da1b606082015260800190565b634e487b7160e01b600052601160045260246000fd5b6000600160ff1b820161248d5761248d612462565b5060000390565b6020808252602b908201527f496e697469616c697a61626c653a20636f6e7472616374206973206e6f74206960408201526a6e697469616c697a696e6760a81b606082015260800190565b60208082526025908201527f436f6c6c61746572616c546f6b656e416461707465722f73686172652d6f766560408201526472666c6f7760d81b606082015260800190565b60008261254157634e487b7160e01b600052601260045260246000fd5b500490565b81810381811115611c4e57611c4e612462565b6000825160005b8181101561257a5760208186018101518583015201612560565b506000920191825250919050565b80820180821115611c4e57611c4e612462565b8082028115828204841417611c4e57611c4e61246256fea264697066735822122009c1ac7873524013cf27ae4b5e6a1465c80409f5113be8f2a13d1e0e0afa129164736f6c63430008110033",
  "immutableReferences": {},
  "source": "// SPDX-License-Identifier: AGPL-3.0-or-later\npragma solidity 0.8.17;\n\nimport \"@openzeppelin/contracts-upgradeable/security/PausableUpgradeable.sol\";\nimport \"@openzeppelin/contracts-upgradeable/security/ReentrancyGuardUpgradeable.sol\";\n\nimport \"../../main/interfaces/IBookKeeper.sol\";\nimport \"../../main/interfaces/ICollateralAdapter.sol\";\nimport \"../../main/interfaces/ICagable.sol\";\nimport \"../../main/interfaces/IManager.sol\";\nimport \"../../main/interfaces/IProxyRegistry.sol\";\nimport \"../../main/utils/SafeToken.sol\";\nimport \"../../main/interfaces/IVault.sol\";\n\ncontract MockCollateralTokenAdapterMath {\n    uint256 internal constant WAD = 10 ** 18;\n    uint256 internal constant RAY = 10 ** 27;\n\n    function add(uint256 _x, uint256 _y) internal pure returns (uint256 _z) {\n        require((_z = _x + _y) >= _x, \"ds-math-add-overflow\");\n    }\n\n    function sub(uint256 _x, uint256 _y) internal pure returns (uint256 _z) {\n        require((_z = _x - _y) <= _x, \"ds-math-sub-underflow\");\n    }\n\n    function mul(uint256 _x, uint256 _y) internal pure returns (uint256 _z) {\n        require(_y == 0 || (_z = _x * _y) / _y == _x, \"ds-math-mul-overflow\");\n    }\n\n    function div(uint256 _x, uint256 _y) internal pure returns (uint256 _z) {\n        require(_y > 0, \"ds-math-div-by-zero\");\n        _z = _x / _y;\n    }\n\n    function divup(uint256 _x, uint256 _y) internal pure returns (uint256 _z) {\n        _z = add(_x, sub(_y, 1)) / _y;\n    }\n\n    function wmul(uint256 _x, uint256 _y) internal pure returns (uint256 _z) {\n        _z = mul(_x, _y) / WAD;\n    }\n\n    function wdiv(uint256 _x, uint256 _y) internal pure returns (uint256 _z) {\n        _z = mul(_x, WAD) / _y;\n    }\n\n    function wdivup(uint256 _x, uint256 _y) internal pure returns (uint256 _z) {\n        _z = divup(mul(_x, WAD), _y);\n    }\n\n    function rmul(uint256 _x, uint256 _y) internal pure returns (uint256 _z) {\n        _z = mul(_x, _y) / RAY;\n    }\n\n    function rmulup(uint256 _x, uint256 _y) internal pure returns (uint256 _z) {\n        _z = divup(mul(_x, _y), RAY);\n    }\n\n    function rdiv(uint256 _x, uint256 _y) internal pure returns (uint256 _z) {\n        _z = mul(_x, RAY) / _y;\n    }\n}\n\n/// @dev receives WXDC from users and deposit in Vault.\ncontract MockCollateralTokenAdapter is MockCollateralTokenAdapterMath, ICollateralAdapter, PausableUpgradeable, ReentrancyGuardUpgradeable, ICagable {\n    using SafeToken for address;\n\n    uint256 public live;\n    bool internal flagVault;\n\n    address public collateralToken;\n    IBookKeeper public bookKeeper;\n    bytes32 public override collateralPoolId;\n\n    IVault public vault;\n    IManager public positionManager;\n    IProxyRegistry public proxyWalletFactory;\n\n    /// @dev Total CollateralTokens that has been staked in WAD\n    uint256 public totalShare;\n\n    /// @dev deprecated but needs to be kept to minimize storage layout confusion\n    bytes32 deprecated;\n\n    mapping(address => bool) public whiteListed;\n\n    event LogDeposit(uint256 _val);\n    event LogWithdraw(uint256 _val);\n    event LogEmergencyWithdraw(address indexed _caller, address _to);\n\n    modifier onlyOwner() {\n        IAccessControlConfig _accessControlConfig = IAccessControlConfig(bookKeeper.accessControlConfig());\n        require(_accessControlConfig.hasRole(_accessControlConfig.OWNER_ROLE(), msg.sender), \"CollateralTokenAdapter/not-authorized\");\n        _;\n    }\n\n    modifier onlyProxyWalletOrWhiteListed() {\n        require(IProxyRegistry(proxyWalletFactory).isProxy(msg.sender) || whiteListed[msg.sender], \"!ProxyOrWhiteList\");\n        _;\n    }\n\n    modifier onlyOwnerOrGov() {\n        IAccessControlConfig _accessControlConfig = IAccessControlConfig(bookKeeper.accessControlConfig());\n        require(\n            _accessControlConfig.hasRole(_accessControlConfig.OWNER_ROLE(), msg.sender) ||\n                _accessControlConfig.hasRole(_accessControlConfig.GOV_ROLE(), msg.sender),\n            \"!(ownerRole or govRole)\"\n        );\n        _;\n    }\n\n    modifier onlyCollateralManager() {\n        IAccessControlConfig _accessControlConfig = IAccessControlConfig(bookKeeper.accessControlConfig());\n        require(_accessControlConfig.hasRole(_accessControlConfig.COLLATERAL_MANAGER_ROLE(), msg.sender), \"!collateralManager\");\n        _;\n    }\n\n    function initialize(\n        address _bookKeeper,\n        bytes32 _collateralPoolId,\n        address _collateralToken,\n        address _positionManager,\n        address _proxyWalletFactory\n    ) external initializer {\n        // 1. Initialized all dependencies\n        PausableUpgradeable.__Pausable_init();\n        ReentrancyGuardUpgradeable.__ReentrancyGuard_init();\n        collateralToken = _collateralToken;\n\n        live = 1;\n\n        bookKeeper = IBookKeeper(_bookKeeper);\n        collateralPoolId = _collateralPoolId;\n\n        positionManager = IManager(_positionManager);\n\n        proxyWalletFactory = IProxyRegistry(_proxyWalletFactory);\n    }\n\n    function whitelist(address toBeWhitelisted) external onlyOwnerOrGov {\n        require(toBeWhitelisted != address(0), \"AnkrColadapter/whitelist-invalidAdds\");\n        whiteListed[toBeWhitelisted] = true;\n    }\n\n    function blacklist(address toBeRemoved) external onlyOwnerOrGov {\n        whiteListed[toBeRemoved] = false;\n    }\n\n    function cage() external override nonReentrant onlyOwner {\n        if (live == 1) {\n            live = 0;\n            emit LogCage();\n        }\n    }\n    /// @dev access: OWNER_ROLE, GOV_ROLE\n    function pause() external onlyOwnerOrGov {\n        _pause();\n    }\n    /// @dev access: OWNER_ROLE, GOV_ROLE\n    function unpause() external onlyOwnerOrGov {\n        _unpause();\n    }\n\n    function setVault(address _vault) external onlyOwner {\n        require(true != flagVault, \"CollateralTokenAdapter/Vault-set-already\");\n        flagVault = true;\n        vault = IVault(_vault);\n    }\n\n    /// @param _positionAddress The address that holding states of the position\n    /// @param _amount The XDC amount that being used as a collateral and to be staked to AnkrStakingPool\n    /// @param _data The extra data that may needs to execute the deposit\n    function deposit(\n        address _positionAddress,\n        uint256 _amount,\n        bytes calldata _data\n    ) external override nonReentrant whenNotPaused onlyProxyWalletOrWhiteListed {\n        _deposit(_positionAddress, _amount, _data);\n    }\n\n    /// @dev Withdraw WXDC from Vault\n    /// @param _usr The address that holding states of the position\n    /// @param _amount The WXDC col amount in Vault to be returned to proxyWallet and then to user\n    function withdraw(\n        address _usr,\n        uint256 _amount,\n        bytes calldata /* _data */\n    ) external override nonReentrant whenNotPaused onlyProxyWalletOrWhiteListed {\n        _withdraw(_usr, _amount);\n    }\n\n    /// @dev EMERGENCY WHEN COLLATERAL TOKEN ADAPTER CAGED ONLY. Withdraw COLLATERAL from VAULT A after redeemStablecoin\n    function emergencyWithdraw(address _to) external nonReentrant {\n        if (live == 0) {\n            uint256 _amount = bookKeeper.collateralToken(collateralPoolId, msg.sender);\n            require(_amount < 2 ** 255, \"CollateralTokenAdapter/collateral-overflow\");\n            //deduct totalShare\n            uint256 _share = wdiv(_amount, netAssetPerShare()); // [wad]\n            totalShare = sub(totalShare, _share);\n\n            //deduct emergency withdrawl amount of FXD\n            bookKeeper.addCollateral(collateralPoolId, msg.sender, -int256(_amount));\n            //withdraw WXDC from Vault\n            vault.withdraw(_amount);\n            //Transfer WXDC to msg.sender\n            address(collateralToken).safeTransfer(_to, _amount);\n            emit LogEmergencyWithdraw(msg.sender, _to);\n        }\n    }\n\n    /// @dev Ignore collateralTokens that have been directly transferred\n    function netAssetValuation() public view returns (uint256) {\n        return totalShare;\n    }\n\n    /// @dev Return Net Assets per Share in wad\n    function netAssetPerShare() public view returns (uint256) {\n        if (totalShare == 0) return WAD;\n        else return wdiv(netAssetValuation(), totalShare);\n    }\n\n    /// @dev Lock XDC in the vault\n    /// deposit collateral tokens to staking contract, and update BookKeeper\n    /// @param _positionAddress The position address to be updated\n    /// @param _amount The amount to be deposited\n    function _deposit(address _positionAddress, uint256 _amount, bytes calldata /* _data */) private {\n        require(live == 1, \"CollateralTokenAdapter/not-live\");\n\n        if (_amount > 0) {\n            uint256 _share = wdiv(_amount, netAssetPerShare()); // [wad]\n            // Overflow check for int256(wad) cast below\n            // Also enforces a non-zero wad\n            require(int256(_share) > 0, \"CollateralTokenAdapter/share-overflow\");\n            //transfer WXDC from proxyWallet to adapter\n            address(collateralToken).safeTransferFrom(msg.sender, address(this), _amount);\n            //bookKeeping\n            bookKeeper.addCollateral(collateralPoolId, _positionAddress, int256(_share));\n            totalShare = add(totalShare, _share);\n\n            // safeApprove to Vault\n            address(collateralToken).safeApprove(address(vault), _amount);\n            //deposit WXDC to Vault\n            vault.deposit(_amount);\n        }\n        emit LogDeposit(_amount); // wxdc\n    }\n\n    /// @dev withdraw collateral tokens from staking contract, and update BookKeeper\n    /// @param _usr The position address to be updated\n    /// @param _amount The amount to be withdrawn\n    function _withdraw(address _usr, uint256 _amount) private {\n        if (_amount > 0) {\n            uint256 _share = wdivup(_amount, netAssetPerShare()); // [wad]\n            // Overflow check for int256(wad) cast below\n            // Also enforces a non-zero wad\n            require(int256(_share) > 0, \"CollateralTokenAdapter/share-overflow\");\n            require(bookKeeper.collateralToken(collateralPoolId, msg.sender) >= _share, \"CollateralTokenAdapter/insufficient collateral amount\");\n\n            bookKeeper.addCollateral(collateralPoolId, msg.sender, -int256(_share));\n            totalShare = sub(totalShare, _share);\n\n            //withdraw WXDC from Vault\n            vault.withdraw(_amount);\n            //Transfer WXDC to proxyWallet\n            address(collateralToken).safeTransfer(_usr, _amount);\n        }\n        emit LogWithdraw(_amount);\n    }\n}\n",
  "sourcePath": "/Users/aleksey/SolidityProjects2/fathom-stablecoin-smart-contracts/contracts/tests/mocks/MockCollateralTokenAdapter.sol",
  "compiler": {
    "name": "solc",
    "version": "0.8.17+commit.8df45f5f.Emscripten.clang"
  },
  "schemaVersion": "3.4.15",
  "updatedAt": "2023-08-10T12:55:05.813Z",
  "devdoc": {
    "details": "receives WXDC from users and deposit in Vault.",
    "kind": "dev",
    "methods": {
      "deposit(address,uint256,bytes)": {
        "params": {
          "_amount": "The XDC amount that being used as a collateral and to be staked to AnkrStakingPool",
          "_data": "The extra data that may needs to execute the deposit",
          "_positionAddress": "The address that holding states of the position"
        }
      },
      "emergencyWithdraw(address)": {
        "details": "EMERGENCY WHEN COLLATERAL TOKEN ADAPTER CAGED ONLY. Withdraw COLLATERAL from VAULT A after redeemStablecoin"
      },
      "netAssetPerShare()": {
        "details": "Return Net Assets per Share in wad"
      },
      "netAssetValuation()": {
        "details": "Ignore collateralTokens that have been directly transferred"
      },
      "pause()": {
        "details": "access: OWNER_ROLE, GOV_ROLE"
      },
      "paused()": {
        "details": "Returns true if the contract is paused, and false otherwise."
      },
      "unpause()": {
        "details": "access: OWNER_ROLE, GOV_ROLE"
      },
      "withdraw(address,uint256,bytes)": {
        "details": "Withdraw WXDC from Vault",
        "params": {
          "_amount": "The WXDC col amount in Vault to be returned to proxyWallet and then to user",
          "_usr": "The address that holding states of the position"
        }
      }
    },
    "stateVariables": {
      "deprecated": {
        "details": "deprecated but needs to be kept to minimize storage layout confusion"
      },
      "totalShare": {
        "details": "Total CollateralTokens that has been staked in WAD"
      }
    },
    "version": 1
  },
  "userdoc": {
    "kind": "user",
    "methods": {},
    "version": 1
  }
}