{
  "contractName": "MockFlashLendingCallee",
  "abi": [
    {
      "inputs": [
        {
          "internalType": "address",
          "name": "caller",
          "type": "address"
        },
        {
          "internalType": "uint256",
          "name": "debtValueToRepay",
          "type": "uint256"
        },
        {
          "internalType": "uint256",
          "name": "collateralAmountToLiquidate",
          "type": "uint256"
        },
        {
          "internalType": "bytes",
          "name": "",
          "type": "bytes"
        }
      ],
      "name": "flashLendingCall",
      "outputs": [],
      "stateMutability": "nonpayable",
      "type": "function"
    }
  ],
  "bytecode": "0x608060405234801561001057600080fd5b50610113806100206000396000f3fe6080604052348015600f57600080fd5b506004361060285760003560e01c8063af7bd14214602d575b600080fd5b603f60383660046041565b5050505050565b005b600080600080600060808688031215605857600080fd5b85356001600160a01b0381168114606e57600080fd5b94506020860135935060408601359250606086013567ffffffffffffffff80821115609857600080fd5b818801915088601f83011260ab57600080fd5b81358181111560b957600080fd5b89602082850101111560ca57600080fd5b969995985093965060200194939250505056fea2646970667358221220af9ea391bf2c78949e6361b35c7fb27d746eb8a2fdf244a3c5c0760b731ba08164736f6c63430008110033",
  "immutableReferences": {},
  "source": "// SPDX-License-Identifier: AGPL-3.0-or-later\npragma solidity 0.8.17;\n\nimport \"../../main/interfaces/IFlashLendingCallee.sol\";\n\ncontract MockFlashLendingCallee is IFlashLendingCallee {\n    function flashLendingCall(\n        address caller,\n        uint256 debtValueToRepay, // [rad]\n        uint256 collateralAmountToLiquidate, // [wad]\n        bytes calldata\n    ) external override {}\n}\n",
  "sourcePath": "/Users/aleksey/SolidityProjects2/fathom-stablecoin-smart-contracts/contracts/tests/mocks/MockFlashLendingCallee.sol",
  "compiler": {
    "name": "solc",
    "version": "0.8.17+commit.8df45f5f.Emscripten.clang"
  },
  "schemaVersion": "3.4.15",
  "updatedAt": "2023-08-10T12:55:05.824Z",
  "devdoc": {
    "kind": "dev",
    "methods": {},
    "version": 1
  },
  "userdoc": {
    "kind": "user",
    "methods": {},
    "version": 1
  }
}