{
  "contractName": "MockSimplePriceFeed",
  "abi": [
    {
      "anonymous": false,
      "inputs": [
        {
          "indexed": false,
          "internalType": "uint8",
          "name": "version",
          "type": "uint8"
        }
      ],
      "name": "Initialized",
      "type": "event"
    },
    {
      "anonymous": false,
      "inputs": [
        {
          "indexed": true,
          "internalType": "address",
          "name": "_caller",
          "type": "address"
        },
        {
          "indexed": false,
          "internalType": "uint256",
          "name": "_price",
          "type": "uint256"
        },
        {
          "indexed": true,
          "internalType": "uint256",
          "name": "_lastUpdate",
          "type": "uint256"
        }
      ],
      "name": "LogSetPrice",
      "type": "event"
    },
    {
      "anonymous": false,
      "inputs": [
        {
          "indexed": true,
          "internalType": "address",
          "name": "_caller",
          "type": "address"
        },
        {
          "indexed": false,
          "internalType": "uint256",
          "name": "_second",
          "type": "uint256"
        }
      ],
      "name": "LogSetPriceLife",
      "type": "event"
    },
    {
      "anonymous": false,
      "inputs": [
        {
          "indexed": false,
          "internalType": "address",
          "name": "account",
          "type": "address"
        }
      ],
      "name": "Paused",
      "type": "event"
    },
    {
      "anonymous": false,
      "inputs": [
        {
          "indexed": true,
          "internalType": "bytes32",
          "name": "role",
          "type": "bytes32"
        },
        {
          "indexed": true,
          "internalType": "bytes32",
          "name": "previousAdminRole",
          "type": "bytes32"
        },
        {
          "indexed": true,
          "internalType": "bytes32",
          "name": "newAdminRole",
          "type": "bytes32"
        }
      ],
      "name": "RoleAdminChanged",
      "type": "event"
    },
    {
      "anonymous": false,
      "inputs": [
        {
          "indexed": true,
          "internalType": "bytes32",
          "name": "role",
          "type": "bytes32"
        },
        {
          "indexed": true,
          "internalType": "address",
          "name": "account",
          "type": "address"
        },
        {
          "indexed": true,
          "internalType": "address",
          "name": "sender",
          "type": "address"
        }
      ],
      "name": "RoleGranted",
      "type": "event"
    },
    {
      "anonymous": false,
      "inputs": [
        {
          "indexed": true,
          "internalType": "bytes32",
          "name": "role",
          "type": "bytes32"
        },
        {
          "indexed": true,
          "internalType": "address",
          "name": "account",
          "type": "address"
        },
        {
          "indexed": true,
          "internalType": "address",
          "name": "sender",
          "type": "address"
        }
      ],
      "name": "RoleRevoked",
      "type": "event"
    },
    {
      "anonymous": false,
      "inputs": [
        {
          "indexed": false,
          "internalType": "address",
          "name": "account",
          "type": "address"
        }
      ],
      "name": "Unpaused",
      "type": "event"
    },
    {
      "inputs": [],
      "name": "DEFAULT_ADMIN_ROLE",
      "outputs": [
        {
          "internalType": "bytes32",
          "name": "",
          "type": "bytes32"
        }
      ],
      "stateMutability": "view",
      "type": "function"
    },
    {
      "inputs": [],
      "name": "accessControlConfig",
      "outputs": [
        {
          "internalType": "contract IAccessControlConfig",
          "name": "",
          "type": "address"
        }
      ],
      "stateMutability": "view",
      "type": "function"
    },
    {
      "inputs": [
        {
          "internalType": "bytes32",
          "name": "role",
          "type": "bytes32"
        }
      ],
      "name": "getRoleAdmin",
      "outputs": [
        {
          "internalType": "bytes32",
          "name": "",
          "type": "bytes32"
        }
      ],
      "stateMutability": "view",
      "type": "function"
    },
    {
      "inputs": [
        {
          "internalType": "bytes32",
          "name": "role",
          "type": "bytes32"
        },
        {
          "internalType": "address",
          "name": "account",
          "type": "address"
        }
      ],
      "name": "grantRole",
      "outputs": [],
      "stateMutability": "nonpayable",
      "type": "function"
    },
    {
      "inputs": [
        {
          "internalType": "bytes32",
          "name": "role",
          "type": "bytes32"
        },
        {
          "internalType": "address",
          "name": "account",
          "type": "address"
        }
      ],
      "name": "hasRole",
      "outputs": [
        {
          "internalType": "bool",
          "name": "",
          "type": "bool"
        }
      ],
      "stateMutability": "view",
      "type": "function"
    },
    {
      "inputs": [],
      "name": "lastUpdate",
      "outputs": [
        {
          "internalType": "uint256",
          "name": "",
          "type": "uint256"
        }
      ],
      "stateMutability": "view",
      "type": "function"
    },
    {
      "inputs": [],
      "name": "paused",
      "outputs": [
        {
          "internalType": "bool",
          "name": "",
          "type": "bool"
        }
      ],
      "stateMutability": "view",
      "type": "function"
    },
    {
      "inputs": [],
      "name": "poolId",
      "outputs": [
        {
          "internalType": "bytes32",
          "name": "",
          "type": "bytes32"
        }
      ],
      "stateMutability": "view",
      "type": "function"
    },
    {
      "inputs": [],
      "name": "price",
      "outputs": [
        {
          "internalType": "uint256",
          "name": "",
          "type": "uint256"
        }
      ],
      "stateMutability": "view",
      "type": "function"
    },
    {
      "inputs": [],
      "name": "priceLife",
      "outputs": [
        {
          "internalType": "uint256",
          "name": "",
          "type": "uint256"
        }
      ],
      "stateMutability": "view",
      "type": "function"
    },
    {
      "inputs": [
        {
          "internalType": "bytes32",
          "name": "role",
          "type": "bytes32"
        },
        {
          "internalType": "address",
          "name": "account",
          "type": "address"
        }
      ],
      "name": "renounceRole",
      "outputs": [],
      "stateMutability": "nonpayable",
      "type": "function"
    },
    {
      "inputs": [
        {
          "internalType": "bytes32",
          "name": "role",
          "type": "bytes32"
        },
        {
          "internalType": "address",
          "name": "account",
          "type": "address"
        }
      ],
      "name": "revokeRole",
      "outputs": [],
      "stateMutability": "nonpayable",
      "type": "function"
    },
    {
      "inputs": [
        {
          "internalType": "bytes4",
          "name": "interfaceId",
          "type": "bytes4"
        }
      ],
      "name": "supportsInterface",
      "outputs": [
        {
          "internalType": "bool",
          "name": "",
          "type": "bool"
        }
      ],
      "stateMutability": "view",
      "type": "function"
    },
    {
      "inputs": [
        {
          "internalType": "address",
          "name": "_accessControlConfig",
          "type": "address"
        }
      ],
      "name": "initialize",
      "outputs": [],
      "stateMutability": "nonpayable",
      "type": "function"
    },
    {
      "inputs": [
        {
          "internalType": "uint256",
          "name": "_price",
          "type": "uint256"
        }
      ],
      "name": "setPrice",
      "outputs": [],
      "stateMutability": "nonpayable",
      "type": "function"
    },
    {
      "inputs": [
        {
          "internalType": "uint256",
          "name": "_second",
          "type": "uint256"
        }
      ],
      "name": "setPriceLife",
      "outputs": [],
      "stateMutability": "nonpayable",
      "type": "function"
    },
    {
      "inputs": [
        {
          "internalType": "bytes32",
          "name": "_poolId",
          "type": "bytes32"
        }
      ],
      "name": "setPoolId",
      "outputs": [],
      "stateMutability": "nonpayable",
      "type": "function"
    },
    {
      "inputs": [],
      "name": "pause",
      "outputs": [],
      "stateMutability": "nonpayable",
      "type": "function"
    },
    {
      "inputs": [],
      "name": "unpause",
      "outputs": [],
      "stateMutability": "nonpayable",
      "type": "function"
    },
    {
      "inputs": [],
      "name": "readPrice",
      "outputs": [
        {
          "internalType": "uint256",
          "name": "",
          "type": "uint256"
        }
      ],
      "stateMutability": "view",
      "type": "function"
    },
    {
      "inputs": [],
      "name": "peekPrice",
      "outputs": [
        {
          "internalType": "uint256",
          "name": "",
          "type": "uint256"
        },
        {
          "internalType": "bool",
          "name": "",
          "type": "bool"
        }
      ],
      "stateMutability": "view",
      "type": "function"
    },
    {
      "inputs": [],
      "name": "isPriceOk",
      "outputs": [
        {
          "internalType": "bool",
          "name": "",
          "type": "bool"
        }
      ],
      "stateMutability": "view",
      "type": "function"
    },
    {
      "inputs": [],
      "name": "isPriceFresh",
      "outputs": [
        {
          "internalType": "bool",
          "name": "",
          "type": "bool"
        }
      ],
      "stateMutability": "view",
      "type": "function"
    }
  ],
  "bytecode": "0x608060405234801561001057600080fd5b506114aa806100206000396000f3fe608060405234801561001057600080fd5b506004361061014d5760003560e01c80637e91400f116100c3578063c04637111161007c578063c04637111461026c578063c4d66de814610275578063c8cc243f14610288578063d51a786b146102b3578063d547741f146102c6578063ef36ee47146102d957600080fd5b80637e91400f146102255780638456cb591461022d57806391b7f5ed1461023557806391d1485414610248578063a035b1fe1461025b578063a217fddf1461026457600080fd5b806336568abe1161011557806336568abe146101e55780633e0dc34e146101f85780633f4ba83a146102015780634779db56146102095780635af639c3146102115780635c975abb1461021a57600080fd5b80630184a92a1461015257806301ffc9a71461016f578063140d272014610182578063248a9ca31461019f5780632f2ff15d146101d0575b600080fd5b61015a6102ec565b60405190151581526020015b60405180910390f35b61015a61017d3660046111e6565b6102fb565b61018a610332565b60408051928352901515602083015201610166565b6101c26101ad366004611210565b60009081526097602052604090206001015490565b604051908152602001610166565b6101e36101de366004611245565b610348565b005b6101e36101f3366004611245565b610372565b6101c260cc5481565b6101e36103f5565b61015a610603565b6101c260cd5481565b60335460ff1661015a565b60ca546101c2565b6101e361061d565b6101e3610243366004611210565b610829565b61015a610256366004611245565b610981565b6101c260ca5481565b6101c2600081565b6101c260cb5481565b6101e3610283366004611271565b6109ac565b60c95461029b906001600160a01b031681565b6040516001600160a01b039091168152602001610166565b6101e36102c1366004611210565b60cc55565b6101e36102d4366004611245565b610ae8565b6101e36102e7366004611210565b610b0d565b60006102f6610cc1565b905090565b60006001600160e01b03198216637965db0b60e01b148061032c57506301ffc9a760e01b6001600160e01b03198316145b92915050565b60008060ca54610340610cc1565b915091509091565b60008281526097602052604090206001015461036381610d37565b61036d8383610d44565b505050565b6001600160a01b03811633146103e75760405162461bcd60e51b815260206004820152602f60248201527f416363657373436f6e74726f6c3a2063616e206f6e6c792072656e6f756e636560448201526e103937b632b9903337b91039b2b63360891b60648201526084015b60405180910390fd5b6103f18282610dca565b5050565b60c9546040805163e58378bb60e01b815290516001600160a01b03909216916391d1485491839163e58378bb916004808201926020929091908290030181865afa158015610447573d6000803e3d6000fd5b505050506040513d601f19601f8201168201806040525081019061046b919061128c565b6040516001600160e01b031960e084901b1681526004810191909152336024820152604401602060405180830381865afa1580156104ad573d6000803e3d6000fd5b505050506040513d601f19601f820116820180604052508101906104d191906112a5565b806105b3575060c95460408051635a9b40c560e11b815290516001600160a01b03909216916391d1485491839163b536818a916004808201926020929091908290030181865afa158015610529573d6000803e3d6000fd5b505050506040513d601f19601f8201168201806040525081019061054d919061128c565b6040516001600160e01b031960e084901b1681526004810191909152336024820152604401602060405180830381865afa15801561058f573d6000803e3d6000fd5b505050506040513d601f19601f820116820180604052508101906105b391906112a5565b6105f95760405162461bcd60e51b815260206004820152601760248201527621286f776e6572526f6c65206f7220676f76526f6c652960481b60448201526064016103de565b610601610e31565b565b600060cd544261061391906112dd565b60cb541015905090565b60c9546040805163e58378bb60e01b815290516001600160a01b03909216916391d1485491839163e58378bb916004808201926020929091908290030181865afa15801561066f573d6000803e3d6000fd5b505050506040513d601f19601f82011682018060405250810190610693919061128c565b6040516001600160e01b031960e084901b1681526004810191909152336024820152604401602060405180830381865afa1580156106d5573d6000803e3d6000fd5b505050506040513d601f19601f820116820180604052508101906106f991906112a5565b806107db575060c95460408051635a9b40c560e11b815290516001600160a01b03909216916391d1485491839163b536818a916004808201926020929091908290030181865afa158015610751573d6000803e3d6000fd5b505050506040513d601f19601f82011682018060405250810190610775919061128c565b6040516001600160e01b031960e084901b1681526004810191909152336024820152604401602060405180830381865afa1580156107b7573d6000803e3d6000fd5b505050506040513d601f19601f820116820180604052508101906107db91906112a5565b6108215760405162461bcd60e51b815260206004820152601760248201527621286f776e6572526f6c65206f7220676f76526f6c652960481b60448201526064016103de565b610601610e83565b60c9546040805163e58378bb60e01b815290516001600160a01b03909216916391d1485491839163e58378bb916004808201926020929091908290030181865afa15801561087b573d6000803e3d6000fd5b505050506040513d601f19601f8201168201806040525081019061089f919061128c565b6040516001600160e01b031960e084901b1681526004810191909152336024820152604401602060405180830381865afa1580156108e1573d6000803e3d6000fd5b505050506040513d601f19601f8201168201806040525081019061090591906112a5565b61093e5760405162461bcd60e51b815260206004820152600a602482015269216f776e6572526f6c6560b01b60448201526064016103de565b60ca8190554260cb81905560405182815233907f0c1bf5d6a7e7580edc1650a8e69b1d64c5fc49d95f46e11527f49bce8caaed2f9060200160405180910390a350565b60009182526097602090815260408084206001600160a01b0393909316845291905290205460ff1690565b600054610100900460ff16158080156109cc5750600054600160ff909116105b806109e65750303b1580156109e6575060005460ff166001145b610a495760405162461bcd60e51b815260206004820152602e60248201527f496e697469616c697a61626c653a20636f6e747261637420697320616c72656160448201526d191e481a5b9a5d1a585b1a5e995960921b60648201526084016103de565b6000805460ff191660011790558015610a6c576000805461ff0019166101001790555b610a74610ec0565b610a7c610eef565b6301e1338060cd5560c980546001600160a01b0319166001600160a01b03841617905580156103f1576000805461ff0019169055604051600181527f7f26b83ff96e1f2b6a682f133852f6798a09c465da95921460cefb38474024989060200160405180910390a15050565b600082815260976020526040902060010154610b0381610d37565b61036d8383610dca565b60c9546040805163e58378bb60e01b815290516001600160a01b03909216916391d1485491839163e58378bb916004808201926020929091908290030181865afa158015610b5f573d6000803e3d6000fd5b505050506040513d601f19601f82011682018060405250810190610b83919061128c565b6040516001600160e01b031960e084901b1681526004810191909152336024820152604401602060405180830381865afa158015610bc5573d6000803e3d6000fd5b505050506040513d601f19601f82011682018060405250810190610be991906112a5565b610c225760405162461bcd60e51b815260206004820152600a602482015269216f776e6572526f6c6560b01b60448201526064016103de565b610e108110158015610c3857506301e133808111155b610c845760405162461bcd60e51b815260206004820152601e60248201527f53696d706c655072696365466565642f6261642d70726963652d6c696665000060448201526064016103de565b60cd81905560405181815233907f472c5e14bb804bd7b201c5c27f2ea820980b37ef7611806e7b3f6db6758f32e09060200160405180910390a250565b6000306001600160a01b0316634779db566040518163ffffffff1660e01b8152600401602060405180830381865afa158015610d01573d6000803e3d6000fd5b505050506040513d601f19601f82011682018060405250810190610d2591906112a5565b80156102f657505060335460ff161590565b610d418133610f16565b50565b610d4e8282610981565b6103f15760008281526097602090815260408083206001600160a01b03851684529091529020805460ff19166001179055610d863390565b6001600160a01b0316816001600160a01b0316837f2f8788117e7eff1d82e926ec794901d17c78024a50270940304540a733656f0d60405160405180910390a45050565b610dd48282610981565b156103f15760008281526097602090815260408083206001600160a01b0385168085529252808320805460ff1916905551339285917ff6391f5c32d9c69d2a47ea670b442974b53935d1edc7fd64eb21e047a839171b9190a45050565b610e39610f6f565b6033805460ff191690557f5db9ee0a495bf2e6ff9c91a7834c1ba4fdd244a5e8aa4e537bd38aeae4b073aa335b6040516001600160a01b03909116815260200160405180910390a1565b610e8b610fb8565b6033805460ff191660011790557f62e78cea01bee320cd4e420270b5ea74000d11b0c9f74754ebdbfc544b05a258610e663390565b600054610100900460ff16610ee75760405162461bcd60e51b81526004016103de906112f0565b610601610ffe565b600054610100900460ff166106015760405162461bcd60e51b81526004016103de906112f0565b610f208282610981565b6103f157610f2d81611031565b610f38836020611043565b604051602001610f4992919061135f565b60408051601f198184030181529082905262461bcd60e51b82526103de916004016113d4565b60335460ff166106015760405162461bcd60e51b815260206004820152601460248201527314185d5cd8589b194e881b9bdd081c185d5cd95960621b60448201526064016103de565b60335460ff16156106015760405162461bcd60e51b815260206004820152601060248201526f14185d5cd8589b194e881c185d5cd95960821b60448201526064016103de565b600054610100900460ff166110255760405162461bcd60e51b81526004016103de906112f0565b6033805460ff19169055565b606061032c6001600160a01b03831660145b60606000611052836002611407565b61105d90600261141e565b67ffffffffffffffff81111561107557611075611431565b6040519080825280601f01601f19166020018201604052801561109f576020820181803683370190505b509050600360fc1b816000815181106110ba576110ba611447565b60200101906001600160f81b031916908160001a905350600f60fb1b816001815181106110e9576110e9611447565b60200101906001600160f81b031916908160001a905350600061110d846002611407565b61111890600161141e565b90505b6001811115611190576f181899199a1a9b1b9c1cb0b131b232b360811b85600f166010811061114c5761114c611447565b1a60f81b82828151811061116257611162611447565b60200101906001600160f81b031916908160001a90535060049490941c936111898161145d565b905061111b565b5083156111df5760405162461bcd60e51b815260206004820181905260248201527f537472696e67733a20686578206c656e67746820696e73756666696369656e7460448201526064016103de565b9392505050565b6000602082840312156111f857600080fd5b81356001600160e01b0319811681146111df57600080fd5b60006020828403121561122257600080fd5b5035919050565b80356001600160a01b038116811461124057600080fd5b919050565b6000806040838503121561125857600080fd5b8235915061126860208401611229565b90509250929050565b60006020828403121561128357600080fd5b6111df82611229565b60006020828403121561129e57600080fd5b5051919050565b6000602082840312156112b757600080fd5b815180151581146111df57600080fd5b634e487b7160e01b600052601160045260246000fd5b8181038181111561032c5761032c6112c7565b6020808252602b908201527f496e697469616c697a61626c653a20636f6e7472616374206973206e6f74206960408201526a6e697469616c697a696e6760a81b606082015260800190565b60005b8381101561135657818101518382015260200161133e565b50506000910152565b7f416363657373436f6e74726f6c3a206163636f756e742000000000000000000081526000835161139781601785016020880161133b565b7001034b99036b4b9b9b4b733903937b6329607d1b60179184019182015283516113c881602884016020880161133b565b01602801949350505050565b60208152600082518060208401526113f381604085016020870161133b565b601f01601f19169190910160400192915050565b808202811582820484141761032c5761032c6112c7565b8082018082111561032c5761032c6112c7565b634e487b7160e01b600052604160045260246000fd5b634e487b7160e01b600052603260045260246000fd5b60008161146c5761146c6112c7565b50600019019056fea26469706673582212202c55df795bc7aafdfdd08dcb5d0c74bfb9efd8de917721bd0e1be6865a0c0db164736f6c63430008110033",
  "immutableReferences": {},
  "source": "// SPDX-License-Identifier: AGPL-3.0-or-later\npragma solidity 0.8.17;\n\nimport \"@openzeppelin/contracts-upgradeable/security/PausableUpgradeable.sol\";\nimport \"@openzeppelin/contracts-upgradeable/access/AccessControlUpgradeable.sol\";\n\nimport \"../../main/interfaces/IPriceFeed.sol\";\nimport \"../../main/interfaces/IAccessControlConfig.sol\";\n\ncontract MockSimplePriceFeed is PausableUpgradeable, AccessControlUpgradeable, IPriceFeed {\n    IAccessControlConfig public accessControlConfig;\n\n    uint256 public price;\n    uint256 public lastUpdate;\n    bytes32 public poolId;\n\n    uint256 public priceLife;\n\n    function initialize(address _accessControlConfig) external initializer {\n        PausableUpgradeable.__Pausable_init();\n        AccessControlUpgradeable.__AccessControl_init();\n\n        priceLife = 365 days; // [seconds] how old the price is considered stale, default 1 day\n\n        accessControlConfig = IAccessControlConfig(_accessControlConfig);\n    }\n\n    modifier onlyOwner() {\n        require(accessControlConfig.hasRole(accessControlConfig.OWNER_ROLE(), msg.sender), \"!ownerRole\");\n        _;\n    }\n\n    modifier onlyOwnerOrGov() {\n        require(\n            accessControlConfig.hasRole(accessControlConfig.OWNER_ROLE(), msg.sender) ||\n                accessControlConfig.hasRole(accessControlConfig.GOV_ROLE(), msg.sender),\n            \"!(ownerRole or govRole)\"\n        );\n        _;\n    }\n\n    event LogSetPrice(address indexed _caller, uint256 _price, uint256 indexed _lastUpdate);\n\n    /// @dev access: OWNER_ROLE\n    function setPrice(uint256 _price) external onlyOwner {\n        price = _price;\n        lastUpdate = block.timestamp;\n        emit LogSetPrice(msg.sender, price, lastUpdate);\n    }\n\n    function setPriceLife(uint256 _second) external onlyOwner {\n        require(_second >= 1 hours && _second <= 365 days, \"SimplePriceFeed/bad-price-life\");\n        priceLife = _second;\n        emit LogSetPriceLife(msg.sender, _second);\n    }\n\n    function setPoolId(bytes32 _poolId) external {\n        poolId = _poolId;\n    }\n    /// @dev access: OWNER_ROLE, GOV_ROLE\n    function pause() external onlyOwnerOrGov {\n        _pause();\n    }\n    /// @dev access: OWNER_ROLE, GOV_ROLE\n    function unpause() external onlyOwnerOrGov {\n        _unpause();\n    }\n\n    function readPrice() external view override returns (uint256) {\n        return price;\n    }\n\n    function peekPrice() external view override returns (uint256, bool) {\n        return (price, _isPriceOk());\n    }\n\n    function isPriceOk() external view override returns (bool) {\n        return _isPriceOk();\n    }\n\n    function isPriceFresh() external view override returns (bool) {\n        return lastUpdate >= block.timestamp - priceLife;\n    }\n\n    function _isPriceOk() internal view returns (bool) {\n        return this.isPriceFresh() && !paused();\n    }\n}\n",
  "sourcePath": "/Users/aleksey/SolidityProjects2/fathom-stablecoin-smart-contracts/contracts/tests/mocks/MockSimplePriceFeed.sol",
  "compiler": {
    "name": "solc",
    "version": "0.8.17+commit.8df45f5f.Emscripten.clang"
  },
  "schemaVersion": "3.4.15",
  "updatedAt": "2023-08-10T12:55:05.824Z",
  "devdoc": {
    "kind": "dev",
    "methods": {
      "getRoleAdmin(bytes32)": {
        "details": "Returns the admin role that controls `role`. See {grantRole} and {revokeRole}. To change a role's admin, use {_setRoleAdmin}."
      },
      "grantRole(bytes32,address)": {
        "details": "Grants `role` to `account`. If `account` had not been already granted `role`, emits a {RoleGranted} event. Requirements: - the caller must have ``role``'s admin role. May emit a {RoleGranted} event."
      },
      "hasRole(bytes32,address)": {
        "details": "Returns `true` if `account` has been granted `role`."
      },
      "pause()": {
        "details": "access: OWNER_ROLE, GOV_ROLE"
      },
      "paused()": {
        "details": "Returns true if the contract is paused, and false otherwise."
      },
      "renounceRole(bytes32,address)": {
        "details": "Revokes `role` from the calling account. Roles are often managed via {grantRole} and {revokeRole}: this function's purpose is to provide a mechanism for accounts to lose their privileges if they are compromised (such as when a trusted device is misplaced). If the calling account had been revoked `role`, emits a {RoleRevoked} event. Requirements: - the caller must be `account`. May emit a {RoleRevoked} event."
      },
      "revokeRole(bytes32,address)": {
        "details": "Revokes `role` from `account`. If `account` had been granted `role`, emits a {RoleRevoked} event. Requirements: - the caller must have ``role``'s admin role. May emit a {RoleRevoked} event."
      },
      "setPrice(uint256)": {
        "details": "access: OWNER_ROLE"
      },
      "supportsInterface(bytes4)": {
        "details": "See {IERC165-supportsInterface}."
      },
      "unpause()": {
        "details": "access: OWNER_ROLE, GOV_ROLE"
      }
    },
    "version": 1
  },
  "userdoc": {
    "kind": "user",
    "methods": {},
    "version": 1
  }
}