{
  "contractName": "MockedDexRouter",
  "abi": [
    {
      "inputs": [
        {
          "internalType": "uint256",
          "name": "amountIn",
          "type": "uint256"
        },
        {
          "internalType": "uint256",
          "name": "",
          "type": "uint256"
        },
        {
          "internalType": "address[]",
          "name": "path",
          "type": "address[]"
        },
        {
          "internalType": "address",
          "name": "",
          "type": "address"
        },
        {
          "internalType": "uint256",
          "name": "",
          "type": "uint256"
        }
      ],
      "name": "swapExactTokensForTokens",
      "outputs": [
        {
          "internalType": "uint256[]",
          "name": "amounts",
          "type": "uint256[]"
        }
      ],
      "stateMutability": "nonpayable",
      "type": "function"
    }
  ],
  "bytecode": "0x608060405234801561001057600080fd5b506106b9806100206000396000f3fe608060405234801561001057600080fd5b506004361061002b5760003560e01c806338ed173914610030575b600080fd5b61004361003e366004610502565b610059565b60405161005091906105a4565b60405180910390f35b606060006100983087876001818110610074576100746105e8565b905060200201602081019061008991906105fe565b6001600160a01b031690610181565b90506100d933308a898960008181106100b3576100b36105e8565b90506020020160208101906100c891906105fe565b6001600160a01b03169291906101f6565b6101163382888860018181106100f1576100f16105e8565b905060200201602081019061010691906105fe565b6001600160a01b03169190610379565b6040805160028082526060820183529091602083019080368337019050509150878260008151811061014a5761014a6105e8565b602002602001018181525050808260018151811061016a5761016a6105e8565b602002602001018181525050509695505050505050565b6040516370a0823160e01b81526001600160a01b038281166004830152600091908416906370a0823190602401602060405180830381865afa1580156101cb573d6000803e3d6000fd5b505050506040513d601f19601f820116820180604052508101906101ef9190610619565b9392505050565b6001600160a01b0384163b6102615760405162461bcd60e51b815260206004820152602660248201527f736166655472616e7366657246726f6d3a206e6f6e2d636f6e7472616374206160448201526564647265737360d01b60648201526084015b60405180910390fd5b604080516001600160a01b0385811660248301528481166044830152606480830185905283518084039091018152608490920183526020820180516001600160e01b03166323b872dd60e01b17905291516000928392908816916102c59190610632565b6000604051808303816000865af19150503d8060008114610302576040519150601f19603f3d011682016040523d82523d6000602084013e610307565b606091505b50915091508180156103315750805115806103315750808060200190518101906103319190610661565b6103715760405162461bcd60e51b815260206004820152601160248201527021736166655472616e7366657246726f6d60781b6044820152606401610258565b505050505050565b6001600160a01b0383163b6103db5760405162461bcd60e51b815260206004820152602260248201527f736166655472616e736665723a206e6f6e2d636f6e7472616374206164647265604482015261737360f01b6064820152608401610258565b604080516001600160a01b038481166024830152604480830185905283518084039091018152606490920183526020820180516001600160e01b031663a9059cbb60e01b17905291516000928392908716916104379190610632565b6000604051808303816000865af19150503d8060008114610474576040519150601f19603f3d011682016040523d82523d6000602084013e610479565b606091505b50915091508180156104a35750805115806104a35750808060200190518101906104a39190610661565b6104df5760405162461bcd60e51b815260206004820152600d60248201526c10b9b0b332aa3930b739b332b960991b6044820152606401610258565b5050505050565b80356001600160a01b03811681146104fd57600080fd5b919050565b60008060008060008060a0878903121561051b57600080fd5b8635955060208701359450604087013567ffffffffffffffff8082111561054157600080fd5b818901915089601f83011261055557600080fd5b81358181111561056457600080fd5b8a60208260051b850101111561057957600080fd5b602083019650809550505050610591606088016104e6565b9150608087013590509295509295509295565b6020808252825182820181905260009190848201906040850190845b818110156105dc578351835292840192918401916001016105c0565b50909695505050505050565b634e487b7160e01b600052603260045260246000fd5b60006020828403121561061057600080fd5b6101ef826104e6565b60006020828403121561062b57600080fd5b5051919050565b6000825160005b818110156106535760208186018101518583015201610639565b506000920191825250919050565b60006020828403121561067357600080fd5b815180151581146101ef57600080fdfea264697066735822122057c02f6278b564e2cf3ede3bbbc3f31caf41a212ba0dcc7e57b4da3c137aa83e64736f6c63430008110033",
  "immutableReferences": {},
  "source": "// SPDX-License-Identifier: AGPL-3.0-or-later\n\nimport \"../../main/utils/SafeToken.sol\";\npragma solidity 0.8.17;\n\ncontract MockedDexRouter {\n    using SafeToken for address;\n\n    function swapExactTokensForTokens(\n        uint256 amountIn,\n        uint256,\n        address[] calldata path,\n        address,\n        uint256\n    ) external returns (uint256[] memory amounts) {\n        uint256 amountToSend = path[1].balanceOf(address(this));\n        path[0].safeTransferFrom(msg.sender, address(this), amountIn);\n        path[1].safeTransfer(msg.sender, amountToSend);\n        amounts = new uint256[](2);\n        amounts[0] = amountIn;\n        amounts[1] = amountToSend;\n    }\n}\n",
  "sourcePath": "/Users/aleksey/SolidityProjects2/fathom-stablecoin-smart-contracts/contracts/tests/mocks/MockedDexRouter.sol",
  "compiler": {
    "name": "solc",
    "version": "0.8.17+commit.8df45f5f.Emscripten.clang"
  },
  "schemaVersion": "3.4.15",
  "updatedAt": "2023-08-10T12:55:05.832Z",
  "devdoc": {
    "kind": "dev",
    "methods": {},
    "version": 1
  },
  "userdoc": {
    "kind": "user",
    "methods": {},
    "version": 1
  }
}