{
    "contractName": "PluginPriceOracle",
    "abi": [
        {
            "anonymous": false,
            "inputs": [
                {
                    "indexed": false,
                    "internalType": "uint8",
                    "name": "version",
                    "type": "uint8"
                }
            ],
            "name": "Initialized",
            "type": "event"
        },
        {
            "inputs": [],
            "name": "accessControlConfig",
            "outputs": [
                {
                    "internalType": "contract IAccessControlConfig",
                    "name": "",
                    "type": "address"
                }
            ],
            "stateMutability": "view",
            "type": "function"
        },
        {
            "inputs": [],
            "name": "oracle",
            "outputs": [
                {
                    "internalType": "contract IPluginInvokeOracle",
                    "name": "",
                    "type": "address"
                }
            ],
            "stateMutability": "view",
            "type": "function"
        },
        {
            "inputs": [
                {
                    "internalType": "address",
                    "name": "_accessControlConfig",
                    "type": "address"
                },
                {
                    "internalType": "address",
                    "name": "_oracle",
                    "type": "address"
                }
            ],
            "name": "initialize",
            "outputs": [],
            "stateMutability": "nonpayable",
            "type": "function"
        },
        {
            "inputs": [
                {
                    "internalType": "address",
                    "name": "_accessControlConfig",
                    "type": "address"
                }
            ],
            "name": "setAccessControlConfig",
            "outputs": [],
            "stateMutability": "nonpayable",
            "type": "function"
        },
        {
            "inputs": [
                {
                    "internalType": "address",
                    "name": "_oracle",
                    "type": "address"
                }
            ],
            "name": "setOracle",
            "outputs": [],
            "stateMutability": "nonpayable",
            "type": "function"
        },
        {
            "inputs": [],
            "name": "getPrice",
            "outputs": [
                {
                    "internalType": "uint256",
                    "name": "price",
                    "type": "uint256"
                },
                {
                    "internalType": "uint256",
                    "name": "lastUpdated",
                    "type": "uint256"
                }
            ],
            "stateMutability": "view",
            "type": "function"
        }
    ],
    "bytecode": "0x608060405234801561001057600080fd5b506109e0806100206000396000f3fe608060405234801561001057600080fd5b50600436106100625760003560e01c8063485cc955146100675780637adbf9731461007c5780637dc0d1d01461008f57806398d5fdca146100c5578063c8cc243f146100e2578063ec500099146100f5575b600080fd5b61007a6100753660046108f5565b610108565b005b61007a61008a366004610928565b610368565b6000546100a8906201000090046001600160a01b031681565b6040516001600160a01b0390911681526020015b60405180910390f35b6100cd610558565b604080519283526020830191909152016100bc565b6001546100a8906001600160a01b031681565b61007a610103366004610928565b610659565b600054610100900460ff16158080156101285750600054600160ff909116105b806101425750303b158015610142575060005460ff166001145b6101aa5760405162461bcd60e51b815260206004820152602e60248201527f496e697469616c697a61626c653a20636f6e747261637420697320616c72656160448201526d191e481a5b9a5d1a585b1a5e995960921b60648201526084015b60405180910390fd5b6000805460ff1916600117905580156101cd576000805461ff0019166101001790555b6001600160a01b0383166102235760405162461bcd60e51b815260206004820152601f60248201527f506c7567696e50726963654f7261636c653a205a45524f5f414444524553530060448201526064016101a1565b82600160006101000a8154816001600160a01b0302191690836001600160a01b031602179055506000826001600160a01b03166350d25bcd6040518163ffffffff1660e01b8152600401602060405180830381865afa15801561028a573d6000803e3d6000fd5b505050506040513d601f19601f820116820180604052508101906102ae919061094a565b136102fb5760405162461bcd60e51b815260206004820181905260248201527f506c7567696e50726963654f7261636c652f696e76616c69642d6f7261636c6560448201526064016101a1565b6000805462010000600160b01b031916620100006001600160a01b038516021790558015610363576000805461ff0019169055604051600181527f7f26b83ff96e1f2b6a682f133852f6798a09c465da95921460cefb38474024989060200160405180910390a15b505050565b6001546040805163e58378bb60e01b815290516001600160a01b03909216916391d1485491839163e58378bb916004808201926020929091908290030181865afa1580156103ba573d6000803e3d6000fd5b505050506040513d601f19601f820116820180604052508101906103de919061094a565b6040516001600160e01b031960e084901b1681526004810191909152336024820152604401602060405180830381865afa158015610420573d6000803e3d6000fd5b505050506040513d601f19601f820116820180604052508101906104449190610963565b61047d5760405162461bcd60e51b815260206004820152600a602482015269216f776e6572526f6c6560b01b60448201526064016101a1565b6000816001600160a01b03166350d25bcd6040518163ffffffff1660e01b8152600401602060405180830381865afa1580156104bd573d6000803e3d6000fd5b505050506040513d601f19601f820116820180604052508101906104e1919061094a565b1361052e5760405162461bcd60e51b815260206004820181905260248201527f506c7567696e50726963654f7261636c652f696e76616c69642d6f7261636c6560448201526064016101a1565b600080546001600160a01b03909216620100000262010000600160b01b0319909216919091179055565b6000806105da600060029054906101000a90046001600160a01b03166001600160a01b03166350d25bcd6040518163ffffffff1660e01b8152600401602060405180830381865afa1580156105b1573d6000803e3d6000fd5b505050506040513d601f19601f820116820180604052508101906105d5919061094a565b6108c1565b9150600060029054906101000a90046001600160a01b03166001600160a01b0316638205bf6a6040518163ffffffff1660e01b8152600401602060405180830381865afa15801561062f573d6000803e3d6000fd5b505050506040513d601f19601f82011682018060405250810190610653919061094a565b90509091565b6001546040805163e58378bb60e01b815290516001600160a01b03909216916391d1485491839163e58378bb916004808201926020929091908290030181865afa1580156106ab573d6000803e3d6000fd5b505050506040513d601f19601f820116820180604052508101906106cf919061094a565b6040516001600160e01b031960e084901b1681526004810191909152336024820152604401602060405180830381865afa158015610711573d6000803e3d6000fd5b505050506040513d601f19601f820116820180604052508101906107359190610963565b61076e5760405162461bcd60e51b815260206004820152600a602482015269216f776e6572526f6c6560b01b60448201526064016101a1565b806001600160a01b03166391d14854826001600160a01b031663e58378bb6040518163ffffffff1660e01b8152600401602060405180830381865afa1580156107bb573d6000803e3d6000fd5b505050506040513d601f19601f820116820180604052508101906107df919061094a565b6040516001600160e01b031960e084901b1681526004810191909152336024820152604401602060405180830381865afa158015610821573d6000803e3d6000fd5b505050506040513d601f19601f820116820180604052508101906108459190610963565b61089f5760405162461bcd60e51b815260206004820152602560248201527f506c7567696e50726963654f7261636c652f6d736773656e6465722d6e6f742d60448201526437bbb732b960d91b60648201526084016101a1565b600180546001600160a01b0319166001600160a01b0392909216919091179055565b60006108d3655af3107a400083610985565b92915050565b80356001600160a01b03811681146108f057600080fd5b919050565b6000806040838503121561090857600080fd5b610911836108d9565b915061091f602084016108d9565b90509250929050565b60006020828403121561093a57600080fd5b610943826108d9565b9392505050565b60006020828403121561095c57600080fd5b5051919050565b60006020828403121561097557600080fd5b8151801515811461094357600080fd5b80820281158282048414176108d357634e487b7160e01b600052601160045260246000fdfea26469706673582212205a3a93b3d4e5bd9da5566105c7673dcab226e55c9ce4a1c32a2220e2fcbde1fb64736f6c63430008110033",
    "immutableReferences": {},
    "source": "// SPDX-License-Identifier: AGPL-3.0-or-later\npragma solidity 0.8.17;\n\nimport \"@openzeppelin/contracts-upgradeable/proxy/utils/Initializable.sol\";\n\nimport \"../interfaces/IFathomCentralizedOracle.sol\";\nimport \"../interfaces/IAccessControlConfig.sol\";\nimport \"../apis/interfaces/IPluginInvokeOracle.sol\";\n\ncontract PluginPriceOracle is Initializable, IFathomCentralizedOracle {\n    uint256 internal constant DECIMALS_CONVERSION_NUM = 1e14;\n\n    IPluginInvokeOracle public oracle;\n    IAccessControlConfig public accessControlConfig;\n\n    modifier onlyOwner() {\n        require(accessControlConfig.hasRole(accessControlConfig.OWNER_ROLE(), msg.sender), \"!ownerRole\");\n        _;\n    }\n\n    function initialize(address _accessControlConfig, address _oracle) external initializer {\n        require(_accessControlConfig != address(0), \"PluginPriceOracle: ZERO_ADDRESS\");\n        accessControlConfig = IAccessControlConfig(_accessControlConfig);\n        require(IPluginInvokeOracle(_oracle).latestAnswer() > 0, \"PluginPriceOracle/invalid-oracle\");\n        oracle = IPluginInvokeOracle(_oracle);\n    }\n\n    function setAccessControlConfig(address _accessControlConfig) external onlyOwner {\n        require(\n            IAccessControlConfig(_accessControlConfig).hasRole(IAccessControlConfig(_accessControlConfig).OWNER_ROLE(), msg.sender),\n            \"PluginPriceOracle/msgsender-not-owner\"\n        );\n        accessControlConfig = IAccessControlConfig(_accessControlConfig);\n    }\n\n    function setOracle(address _oracle) external onlyOwner {\n        require(IPluginInvokeOracle(_oracle).latestAnswer() > 0, \"PluginPriceOracle/invalid-oracle\");\n        oracle = IPluginInvokeOracle(_oracle);\n    }\n\n    function getPrice() external view returns (uint256 price, uint256 lastUpdated) {\n        price = _toWad(uint256(oracle.latestAnswer()));\n        lastUpdated = oracle.latestTimestamp();\n    }\n\n    /// price from plugin oracle returns multiplied y 10000 and we want it in wad\n    function _toWad(uint256 amount) private pure returns (uint256) {\n        return amount * DECIMALS_CONVERSION_NUM;\n    }\n}\n",
    "sourcePath": "/Users/aleksey/SolidityProjects2/fathom-stablecoin-smart-contracts/contracts/main/price-oracles/PluginPriceOracle.sol",
    "compiler": {
        "name": "solc",
        "version": "0.8.17+commit.8df45f5f.Emscripten.clang"
    },
    "schemaVersion": "3.4.15",
    "updatedAt": "2023-08-10T12:55:05.438Z",
    "devdoc": {
        "kind": "dev",
        "methods": {},
        "version": 1
    },
    "userdoc": {
        "kind": "user",
        "methods": {},
        "version": 1
    }
}