{
  "contractName": "PluginOracleMock",
  "abi": [
    {
      "inputs": [
        {
          "internalType": "uint256",
          "name": "_price",
          "type": "uint256"
        }
      ],
      "stateMutability": "nonpayable",
      "type": "constructor"
    },
    {
      "inputs": [],
      "name": "price",
      "outputs": [
        {
          "internalType": "uint256",
          "name": "",
          "type": "uint256"
        }
      ],
      "stateMutability": "view",
      "type": "function"
    },
    {
      "inputs": [],
      "name": "requestId",
      "outputs": [
        {
          "internalType": "uint256",
          "name": "",
          "type": "uint256"
        }
      ],
      "stateMutability": "view",
      "type": "function"
    },
    {
      "inputs": [
        {
          "internalType": "uint256",
          "name": "_price",
          "type": "uint256"
        }
      ],
      "name": "setPrice",
      "outputs": [],
      "stateMutability": "nonpayable",
      "type": "function"
    },
    {
      "inputs": [
        {
          "internalType": "address",
          "name": "",
          "type": "address"
        }
      ],
      "name": "requestData",
      "outputs": [
        {
          "internalType": "uint256",
          "name": "",
          "type": "uint256"
        }
      ],
      "stateMutability": "nonpayable",
      "type": "function"
    },
    {
      "inputs": [
        {
          "internalType": "uint256",
          "name": "",
          "type": "uint256"
        }
      ],
      "name": "showPrice",
      "outputs": [
        {
          "internalType": "uint256",
          "name": "",
          "type": "uint256"
        },
        {
          "internalType": "uint256",
          "name": "",
          "type": "uint256"
        }
      ],
      "stateMutability": "view",
      "type": "function"
    },
    {
      "inputs": [],
      "name": "latestAnswer",
      "outputs": [
        {
          "internalType": "int256",
          "name": "",
          "type": "int256"
        }
      ],
      "stateMutability": "view",
      "type": "function"
    },
    {
      "inputs": [],
      "name": "latestTimestamp",
      "outputs": [
        {
          "internalType": "uint256",
          "name": "",
          "type": "uint256"
        }
      ],
      "stateMutability": "view",
      "type": "function"
    },
    {
      "inputs": [],
      "name": "latestRound",
      "outputs": [
        {
          "internalType": "uint256",
          "name": "",
          "type": "uint256"
        }
      ],
      "stateMutability": "view",
      "type": "function"
    },
    {
      "inputs": [
        {
          "internalType": "uint256",
          "name": "",
          "type": "uint256"
        }
      ],
      "name": "getAnswer",
      "outputs": [
        {
          "internalType": "int256",
          "name": "",
          "type": "int256"
        }
      ],
      "stateMutability": "view",
      "type": "function"
    },
    {
      "inputs": [
        {
          "internalType": "uint256",
          "name": "",
          "type": "uint256"
        }
      ],
      "name": "getTimestamp",
      "outputs": [
        {
          "internalType": "uint256",
          "name": "",
          "type": "uint256"
        }
      ],
      "stateMutability": "view",
      "type": "function"
    },
    {
      "inputs": [
        {
          "internalType": "uint256",
          "name": "",
          "type": "uint256"
        }
      ],
      "name": "depositPLI",
      "outputs": [
        {
          "internalType": "bool",
          "name": "",
          "type": "bool"
        }
      ],
      "stateMutability": "pure",
      "type": "function"
    }
  ],
  "bytecode": "0x608060405234801561001057600080fd5b506040516102a93803806102a983398101604081905261002f91610037565b600055610050565b60006020828403121561004957600080fd5b5051919050565b61024a8061005f6000396000f3fe608060405234801561001057600080fd5b50600436106100a85760003560e01c806391b7f5ed1161007157806391b7f5ed1461010b5780639dd4cc5d14610120578063a035b1fe14610133578063b5ab58dc1461013c578063b633620c14610151578063d378d5eb1461016457600080fd5b80626d6cae146100ad57806350d25bcd146100c957806364bb057f146100d1578063668a0f02146100fd5780638205bf6a14610105575b600080fd5b6100b660015481565b6040519081526020015b60405180910390f35b6000546100b6565b6100e86100df3660046101a4565b50600054904290565b604080519283526020830191909152016100c0565b6001546100b6565b426100b6565b61011e6101193660046101a4565b600055565b005b6100b661012e3660046101bd565b610188565b6100b660005481565b6100b661014a3660046101a4565b5060005490565b6100b661015f3660046101a4565b504290565b6101786101723660046101a4565b50600190565b60405190151581526020016100c0565b6000600160008154610199906101ed565b918290555092915050565b6000602082840312156101b657600080fd5b5035919050565b6000602082840312156101cf57600080fd5b81356001600160a01b03811681146101e657600080fd5b9392505050565b60006001820161020d57634e487b7160e01b600052601160045260246000fd5b506001019056fea26469706673582212204b96acfc9ce3e71f8ca51919d3061e5bef655c8ef3e7cc1eed825f232e84cd7564736f6c63430008110033",
  "immutableReferences": {},
  "source": "// SPDX-License-Identifier: AGPL-3.0-or-later\npragma solidity 0.8.17;\n\nimport \"../../main/apis/interfaces/IPluginInvokeOracle.sol\";\n\ncontract PluginOracleMock is IPluginInvokeOracle {\n    uint256 public price;\n    uint256 public requestId;\n\n    constructor(uint256 _price) {\n        price = _price;\n    }\n\n    function setPrice(uint256 _price) external {\n        price = _price;\n    }\n\n    function requestData(address) external override returns (uint256) {\n        return ++requestId;\n    }\n\n    function showPrice(uint256) external view override returns (uint256, uint256) {\n        return (price, block.timestamp);\n    }\n\n    function latestAnswer() external view override returns (int256) {\n        return int256(price);\n    }\n\n    function latestTimestamp() external view override returns (uint256) {\n        return block.timestamp;\n    }\n\n    function latestRound() external view override returns (uint256) {\n        return requestId;\n    }\n\n    function getAnswer(uint256) external view override returns (int256) {\n        return int256(price);\n    }\n\n    function getTimestamp(uint256) external view override returns (uint256) {\n        return block.timestamp;\n    }\n\n    function depositPLI(uint256) external pure returns (bool) {\n        return true;\n    }\n}\n",
  "sourcePath": "/Users/aleksey/SolidityProjects2/fathom-stablecoin-smart-contracts/contracts/tests/mocks/PluginOracleMock.sol",
  "compiler": {
    "name": "solc",
    "version": "0.8.17+commit.8df45f5f.Emscripten.clang"
  },
  "schemaVersion": "3.4.15",
  "updatedAt": "2023-08-10T12:55:05.834Z",
  "devdoc": {
    "kind": "dev",
    "methods": {},
    "version": 1
  },
  "userdoc": {
    "kind": "user",
    "methods": {},
    "version": 1
  }
}