{
    "contractName": "ProxyActionsStorage",
    "abi": [
        {
            "anonymous": false,
            "inputs": [
                {
                    "indexed": false,
                    "internalType": "uint8",
                    "name": "version",
                    "type": "uint8"
                }
            ],
            "name": "Initialized",
            "type": "event"
        },
        {
            "inputs": [],
            "name": "bookKeeper",
            "outputs": [
                {
                    "internalType": "contract IBookKeeper",
                    "name": "",
                    "type": "address"
                }
            ],
            "stateMutability": "view",
            "type": "function"
        },
        {
            "inputs": [],
            "name": "proxyAction",
            "outputs": [
                {
                    "internalType": "address",
                    "name": "",
                    "type": "address"
                }
            ],
            "stateMutability": "view",
            "type": "function"
        },
        {
            "inputs": [
                {
                    "internalType": "address",
                    "name": "_proxyAction",
                    "type": "address"
                },
                {
                    "internalType": "address",
                    "name": "_bookKeeper",
                    "type": "address"
                }
            ],
            "name": "initialize",
            "outputs": [],
            "stateMutability": "nonpayable",
            "type": "function"
        },
        {
            "inputs": [
                {
                    "internalType": "address",
                    "name": "_proxyAction",
                    "type": "address"
                }
            ],
            "name": "setProxyAction",
            "outputs": [],
            "stateMutability": "nonpayable",
            "type": "function"
        }
    ],
    "bytecode": "0x608060405234801561001057600080fd5b5061052c806100206000396000f3fe608060405234801561001057600080fd5b506004361061004c5760003560e01c80632eeef99014610051578063485cc95514610066578063830185d514610079578063e3b3932a146100ae575b600080fd5b61006461005f366004610441565b6100c1565b005b610064610074366004610465565b610271565b600054610092906201000090046001600160a01b031681565b6040516001600160a01b03909116815260200160405180910390f35b600154610092906001600160a01b031681565b6001546040805163c8cc243f60e01b815290516000926001600160a01b03169163c8cc243f9160048083019260209291908290030181865afa15801561010b573d6000803e3d6000fd5b505050506040513d601f19601f8201168201806040525081019061012f919061049e565b9050806001600160a01b03166391d14854826001600160a01b031663e58378bb6040518163ffffffff1660e01b8152600401602060405180830381865afa15801561017e573d6000803e3d6000fd5b505050506040513d601f19601f820116820180604052508101906101a291906104bb565b6040516001600160e01b031960e084901b1681526004810191909152336024820152604401602060405180830381865afa1580156101e4573d6000803e3d6000fd5b505050506040513d601f19601f8201168201806040525081019061020891906104d4565b6102465760405162461bcd60e51b815260206004820152600a602482015269216f776e6572526f6c6560b01b60448201526064015b60405180910390fd5b50600080546001600160a01b03909216620100000262010000600160b01b0319909216919091179055565b600054610100900460ff16158080156102915750600054600160ff909116105b806102ab5750303b1580156102ab575060005460ff166001145b61030e5760405162461bcd60e51b815260206004820152602e60248201527f496e697469616c697a61626c653a20636f6e747261637420697320616c72656160448201526d191e481a5b9a5d1a585b1a5e995960921b606482015260840161023d565b6000805460ff191660011790558015610331576000805461ff0019166101001790555b6001600160a01b0383161580159061035157506001600160a01b03821615155b61039d5760405162461bcd60e51b815260206004820181905260248201527f50726f7879416374696f6e7353746f726167652f7a65726f2d61646472657373604482015260640161023d565b6000805462010000600160b01b031916620100006001600160a01b038681169190910291909117909155600180546001600160a01b0319169184169190911790558015610424576000805461ff0019169055604051600181527f7f26b83ff96e1f2b6a682f133852f6798a09c465da95921460cefb38474024989060200160405180910390a15b505050565b6001600160a01b038116811461043e57600080fd5b50565b60006020828403121561045357600080fd5b813561045e81610429565b9392505050565b6000806040838503121561047857600080fd5b823561048381610429565b9150602083013561049381610429565b809150509250929050565b6000602082840312156104b057600080fd5b815161045e81610429565b6000602082840312156104cd57600080fd5b5051919050565b6000602082840312156104e657600080fd5b8151801515811461045e57600080fdfea2646970667358221220931db033b48e121a2ef4b631b45321e7730cde281509c65d6f113dcaa648037164736f6c63430008110033",
    "immutableReferences": {},
    "source": "// SPDX-License-Identifier: AGPL-3.0-or-later\npragma solidity 0.8.17;\n\nimport \"@openzeppelin/contracts-upgradeable/proxy/utils/Initializable.sol\";\n\nimport \"../interfaces/IBookKeeper.sol\";\n\ncontract ProxyActionsStorage is Initializable {\n    address public proxyAction;\n    IBookKeeper public bookKeeper;\n\n    modifier onlyOwnerOrGov() {\n        IAccessControlConfig _accessControlConfig = IAccessControlConfig(bookKeeper.accessControlConfig());\n        require(\n            _accessControlConfig.hasRole(_accessControlConfig.OWNER_ROLE(), msg.sender) ||\n                _accessControlConfig.hasRole(_accessControlConfig.GOV_ROLE(), msg.sender),\n            \"!(ownerRole or govRole)\"\n        );\n        _;\n    }\n\n    modifier onlyOwner() {\n        IAccessControlConfig _accessControlConfig = IAccessControlConfig(bookKeeper.accessControlConfig());\n        require(_accessControlConfig.hasRole(_accessControlConfig.OWNER_ROLE(), msg.sender), \"!ownerRole\");\n        _;\n    }\n\n    function initialize(address _proxyAction, address _bookKeeper) external initializer {\n        require(_proxyAction != address(0) && _bookKeeper != address(0), \"ProxyActionsStorage/zero-address\");\n\n        proxyAction = _proxyAction;\n        bookKeeper = IBookKeeper(_bookKeeper);\n    }\n\n    function setProxyAction(address _proxyAction) external onlyOwner {\n        proxyAction = _proxyAction;\n    }\n}\n",
    "sourcePath": "/Users/aleksey/SolidityProjects2/fathom-stablecoin-smart-contracts/contracts/main/proxy-wallet/ProxyActionsStorage.sol",
    "compiler": {
        "name": "solc",
        "version": "0.8.17+commit.8df45f5f.Emscripten.clang"
    },
    "schemaVersion": "3.4.15",
    "updatedAt": "2023-08-10T12:55:05.650Z",
    "devdoc": {
        "kind": "dev",
        "methods": {},
        "version": 1
    },
    "userdoc": {
        "kind": "user",
        "methods": {},
        "version": 1
    }
}