{
    "contractName": "ProxyWalletFactory",
    "abi": [
        {
            "anonymous": false,
            "inputs": [
                {
                    "indexed": false,
                    "internalType": "uint8",
                    "name": "version",
                    "type": "uint8"
                }
            ],
            "name": "Initialized",
            "type": "event"
        },
        {
            "anonymous": false,
            "inputs": [
                {
                    "indexed": true,
                    "internalType": "address",
                    "name": "_sender",
                    "type": "address"
                },
                {
                    "indexed": true,
                    "internalType": "address",
                    "name": "_owner",
                    "type": "address"
                },
                {
                    "indexed": false,
                    "internalType": "address",
                    "name": "_proxy",
                    "type": "address"
                }
            ],
            "name": "LogCreated",
            "type": "event"
        },
        {
            "anonymous": false,
            "inputs": [
                {
                    "indexed": true,
                    "internalType": "address",
                    "name": "previousOwner",
                    "type": "address"
                },
                {
                    "indexed": true,
                    "internalType": "address",
                    "name": "newOwner",
                    "type": "address"
                }
            ],
            "name": "OwnershipTransferred",
            "type": "event"
        },
        {
            "inputs": [
                {
                    "internalType": "address",
                    "name": "",
                    "type": "address"
                }
            ],
            "name": "isProxy",
            "outputs": [
                {
                    "internalType": "bool",
                    "name": "",
                    "type": "bool"
                }
            ],
            "stateMutability": "view",
            "type": "function"
        },
        {
            "inputs": [],
            "name": "owner",
            "outputs": [
                {
                    "internalType": "address",
                    "name": "",
                    "type": "address"
                }
            ],
            "stateMutability": "view",
            "type": "function"
        },
        {
            "inputs": [],
            "name": "proxyActionStorage",
            "outputs": [
                {
                    "internalType": "address",
                    "name": "",
                    "type": "address"
                }
            ],
            "stateMutability": "view",
            "type": "function"
        },
        {
            "inputs": [],
            "name": "proxyWalletRegistry",
            "outputs": [
                {
                    "internalType": "address",
                    "name": "",
                    "type": "address"
                }
            ],
            "stateMutability": "view",
            "type": "function"
        },
        {
            "inputs": [],
            "name": "renounceOwnership",
            "outputs": [],
            "stateMutability": "nonpayable",
            "type": "function"
        },
        {
            "inputs": [
                {
                    "internalType": "address",
                    "name": "newOwner",
                    "type": "address"
                }
            ],
            "name": "transferOwnership",
            "outputs": [],
            "stateMutability": "nonpayable",
            "type": "function"
        },
        {
            "inputs": [
                {
                    "internalType": "address",
                    "name": "_proxyActionStorage",
                    "type": "address"
                },
                {
                    "internalType": "address",
                    "name": "_proxyWalletRegistry",
                    "type": "address"
                }
            ],
            "name": "initialize",
            "outputs": [],
            "stateMutability": "nonpayable",
            "type": "function"
        },
        {
            "inputs": [
                {
                    "internalType": "address",
                    "name": "_owner",
                    "type": "address"
                }
            ],
            "name": "build",
            "outputs": [
                {
                    "internalType": "address payable",
                    "name": "_proxy",
                    "type": "address"
                }
            ],
            "stateMutability": "nonpayable",
            "type": "function"
        }
    ],
    "bytecode": "0x608060405234801561001057600080fd5b50610fbf806100206000396000f3fe608060405234801561001057600080fd5b50600436106100885760003560e01c8063715018a61161005b578063715018a6146101185780638da5cb5b14610120578063f2fde38b14610131578063f3701da21461014457600080fd5b8063181ec0ed1461008d57806329710388146100bd5780634192be46146100f0578063485cc95514610103575b600080fd5b6066546100a0906001600160a01b031681565b6040516001600160a01b0390911681526020015b60405180910390f35b6100e06100cb366004610671565b60656020526000908152604090205460ff1681565b60405190151581526020016100b4565b6067546100a0906001600160a01b031681565b610116610111366004610693565b610157565b005b61011661034b565b6033546001600160a01b03166100a0565b61011661013f366004610671565b61035f565b6100a0610152366004610671565b6103d8565b600054610100900460ff16158080156101775750600054600160ff909116105b806101915750303b158015610191575060005460ff166001145b6101f95760405162461bcd60e51b815260206004820152602e60248201527f496e697469616c697a61626c653a20636f6e747261637420697320616c72656160448201526d191e481a5b9a5d1a585b1a5e995960921b60648201526084015b60405180910390fd5b6000805460ff19166001179055801561021c576000805461ff0019166101001790555b61022461053d565b6001600160a01b03831661027a5760405162461bcd60e51b815260206004820152601f60248201527f50726f787957616c6c6574466163746f72792f7a65726f2d73746f726167650060448201526064016101f0565b6001600160a01b0382166102d05760405162461bcd60e51b815260206004820181905260248201527f50726f787957616c6c6574466163746f72792f7a65726f2d526567697374727960448201526064016101f0565b606680546001600160a01b038086166001600160a01b03199283161790925560678054928516929091169190911790558015610346576000805461ff0019169055604051600181527f7f26b83ff96e1f2b6a682f133852f6798a09c465da95921460cefb38474024989060200160405180910390a15b505050565b61035361056c565b61035d60006105c6565b565b61036761056c565b6001600160a01b0381166103cc5760405162461bcd60e51b815260206004820152602660248201527f4f776e61626c653a206e6577206f776e657220697320746865207a65726f206160448201526564647265737360d01b60648201526084016101f0565b6103d5816105c6565b50565b6067546000906001600160a01b0316331461042c5760405162461bcd60e51b81526020600482015260146024820152732170726f787957616c6c6574526567697374727960601b60448201526064016101f0565b6066546040516001600160a01b039091169061044790610648565b6001600160a01b039091168152602001604051809103906000f080158015610473573d6000803e3d6000fd5b506040516001600160a01b0380831682529192509083169033907f68cf49be04e201e0c4095ee941820b40aa527a51dc1f97715a5647cd35a7f5369060200160405180910390a36040516313af403560e01b81526001600160a01b0383811660048301528216906313af403590602401600060405180830381600087803b1580156104fd57600080fd5b505af1158015610511573d6000803e3d6000fd5b5050506001600160a01b0382166000908152606560205260409020805460ff1916600117905550919050565b600054610100900460ff166105645760405162461bcd60e51b81526004016101f0906106c6565b61035d610618565b6033546001600160a01b0316331461035d5760405162461bcd60e51b815260206004820181905260248201527f4f776e61626c653a2063616c6c6572206973206e6f7420746865206f776e657260448201526064016101f0565b603380546001600160a01b038381166001600160a01b0319831681179093556040519116919082907f8be0079c531659141344cd1fd0a4f28419497f9722a3daafe3b4186f6b6457e090600090a35050565b600054610100900460ff1661063f5760405162461bcd60e51b81526004016101f0906106c6565b61035d336105c6565b6108788061071283390190565b80356001600160a01b038116811461066c57600080fd5b919050565b60006020828403121561068357600080fd5b61068c82610655565b9392505050565b600080604083850312156106a657600080fd5b6106af83610655565b91506106bd60208401610655565b90509250929050565b6020808252602b908201527f496e697469616c697a61626c653a20636f6e7472616374206973206e6f74206960408201526a6e697469616c697a696e6760a81b60608201526080019056fe608060405234801561001057600080fd5b5060405161087838038061087883398101604081905261002f91610092565b600180546001600160a01b031916339081179091556040517fce241d7ca1f669fee44b6fc00b8eba2df3bb514eed0f6f668f8f89096e81ed9490600090a2600280546001600160a01b0319166001600160a01b03929092169190911790556100c2565b6000602082840312156100a457600080fd5b81516001600160a01b03811681146100bb57600080fd5b9392505050565b6107a7806100d16000396000f3fe6080604052600436106100595760003560e01c806309c5eabe1461006557806313af40351461008e5780636b27e8f9146100b05780637a9e5e4b146100e85780638da5cb5b14610108578063bf7e214f1461012857600080fd5b3661006057005b600080fd5b61007861007336600461058a565b610148565b604051610085919061063b565b60405180910390f35b34801561009a57600080fd5b506100ae6100a93660046106a1565b6102dd565b005b3480156100bc57600080fd5b506002546100d0906001600160a01b031681565b6040516001600160a01b039091168152602001610085565b3480156100f457600080fd5b506100ae6101033660046106a1565b6103b9565b34801561011457600080fd5b506001546100d0906001600160a01b031681565b34801561013457600080fd5b506000546100d0906001600160a01b031681565b6060610160336000356001600160e01b031916610497565b6101855760405162461bcd60e51b815260040161017c906106c5565b60405180910390fd5b6002546040805163830185d560e01b8152905160048035936024359334936000936001600160a01b039093169263830185d5928082019260209290918290030181865afa1580156101da573d6000803e3d6000fd5b505050506040513d601f19601f820116820180604052508101906101fe91906106fc565b905085516000036102515760405162461bcd60e51b815260206004820152601a60248201527f70726f78792d77616c6c65742d646174612d7265717569726564000000000000604482015260640161017c565b600080875160208901846113885a03f43d6040519650601f19601f6020830101168701604052808752806000602089013e811560018103610293578160208901fd5b505050508183336001600160a01b03166000356001600160e01b0319166001600160e01b031916846000366040516102cd93929190610719565b60405180910390a4505050919050565b6102f3336000356001600160e01b031916610497565b61030f5760405162461bcd60e51b815260040161017c906106c5565b6001600160a01b03811661036f5760405162461bcd60e51b815260206004820152602160248201527f466174686f6d417574682f7365742d7a65726f2d616464726573732d6f776e656044820152603960f91b606482015260840161017c565b600180546001600160a01b0319166001600160a01b0383169081179091556040517fce241d7ca1f669fee44b6fc00b8eba2df3bb514eed0f6f668f8f89096e81ed9490600090a250565b6103cf336000356001600160e01b031916610497565b6103eb5760405162461bcd60e51b815260040161017c906106c5565b6001600160a01b03811661044f5760405162461bcd60e51b815260206004820152602560248201527f466174686f6d417574682f7365742d7a65726f2d616464726573732d617574686044820152646f7269747960d81b606482015260840161017c565b600080546001600160a01b0319166001600160a01b038316908117825560405190917f1abebea81bfa2637f28358c371278fb15ede7ea8dd28d2e03b112ff6d936ada491a250565b6000306001600160a01b038416036104b15750600161056e565b6001546001600160a01b03908116908416036104cf5750600161056e565b6000546001600160a01b03166104e75750600061056e565b60005460405163b700961360e01b81526001600160a01b0385811660048301523060248301526001600160e01b0319851660448301529091169063b700961390606401602060405180830381865afa158015610547573d6000803e3d6000fd5b505050506040513d601f19601f8201168201806040525081019061056b919061074f565b90505b92915050565b634e487b7160e01b600052604160045260246000fd5b60006020828403121561059c57600080fd5b813567ffffffffffffffff808211156105b457600080fd5b818401915084601f8301126105c857600080fd5b8135818111156105da576105da610574565b604051601f8201601f19908116603f0116810190838211818310171561060257610602610574565b8160405282815287602084870101111561061b57600080fd5b826020860160208301376000928101602001929092525095945050505050565b600060208083528351808285015260005b818110156106685785810183015185820160400152820161064c565b506000604082860101526040601f19601f8301168501019250505092915050565b6001600160a01b038116811461069e57600080fd5b50565b6000602082840312156106b357600080fd5b81356106be81610689565b9392505050565b60208082526018908201527f666174686f6d2d617574682d756e617574686f72697a65640000000000000000604082015260600190565b60006020828403121561070e57600080fd5b81516106be81610689565b83815260406020820152816040820152818360608301376000818301606090810191909152601f909201601f1916010192915050565b60006020828403121561076157600080fd5b815180151581146106be57600080fdfea26469706673582212206f9a428c9071d3c137f16224df781aea859010ccfd2add983d675a748da6ba1064736f6c63430008110033a2646970667358221220d47911641c0c7c5b97cc4efbdeb02122ab1c398e15acedb2bcda846598857ae964736f6c63430008110033",
    "immutableReferences": {},
    "source": "// SPDX-License-Identifier: AGPL-3.0-or-later\npragma solidity 0.8.17;\n\nimport \"@openzeppelin/contracts-upgradeable/access/OwnableUpgradeable.sol\";\n\nimport \"./ProxyWallet.sol\";\n\n/// @dev This factory deploys new proxy instances through build(). Deployed proxy addresses are logged\ncontract ProxyWalletFactory is OwnableUpgradeable {\n    mapping(address => bool) public isProxy;\n    address public proxyActionStorage;\n    address public proxyWalletRegistry;\n\n    event LogCreated(address indexed _sender, address indexed _owner, address _proxy);\n\n    modifier onlyRegistry() {\n        require(msg.sender == proxyWalletRegistry, \"!proxyWalletRegistry\");\n        _;\n    }\n\n    function initialize(address _proxyActionStorage, address _proxyWalletRegistry) external initializer {\n        OwnableUpgradeable.__Ownable_init();\n\n        require(_proxyActionStorage != address(0), \"ProxyWalletFactory/zero-storage\");\n        require(_proxyWalletRegistry != address(0), \"ProxyWalletFactory/zero-Registry\");\n\n        proxyActionStorage = _proxyActionStorage;\n        proxyWalletRegistry = _proxyWalletRegistry;\n    }\n\n    /// @dev Deploys a new proxy instance and sets custom owner of proxy\n    function build(address _owner) public onlyRegistry returns (address payable _proxy) {\n        _proxy = payable(address(new ProxyWallet(proxyActionStorage)));\n        emit LogCreated(msg.sender, _owner, address(_proxy));\n        ProxyWallet(_proxy).setOwner(_owner);\n        isProxy[_proxy] = true;\n    }\n}\n",
    "sourcePath": "/Users/aleksey/SolidityProjects2/fathom-stablecoin-smart-contracts/contracts/main/proxy-wallet/ProxyWalletFactory.sol",
    "compiler": {
        "name": "solc",
        "version": "0.8.17+commit.8df45f5f.Emscripten.clang"
    },
    "schemaVersion": "3.4.15",
    "updatedAt": "2023-08-10T12:55:05.654Z",
    "devdoc": {
        "details": "This factory deploys new proxy instances through build(). Deployed proxy addresses are logged",
        "kind": "dev",
        "methods": {
            "build(address)": {
                "details": "Deploys a new proxy instance and sets custom owner of proxy"
            },
            "owner()": {
                "details": "Returns the address of the current owner."
            },
            "renounceOwnership()": {
                "details": "Leaves the contract without owner. It will not be possible to call `onlyOwner` functions. Can only be called by the current owner. NOTE: Renouncing ownership will leave the contract without an owner, thereby disabling any functionality that is only available to the owner."
            },
            "transferOwnership(address)": {
                "details": "Transfers ownership of the contract to a new account (`newOwner`). Can only be called by the current owner."
            }
        },
        "version": 1
    },
    "userdoc": {
        "kind": "user",
        "methods": {},
        "version": 1
    }
}