{
    "contractName": "ShowStopper",
    "abi": [
        {
            "anonymous": false,
            "inputs": [
                {
                    "indexed": false,
                    "internalType": "uint8",
                    "name": "version",
                    "type": "uint8"
                }
            ],
            "name": "Initialized",
            "type": "event"
        },
        {
            "anonymous": false,
            "inputs": [
                {
                    "indexed": true,
                    "internalType": "bytes32",
                    "name": "collateralPoolId",
                    "type": "bytes32"
                },
                {
                    "indexed": true,
                    "internalType": "address",
                    "name": "positionAddress",
                    "type": "address"
                },
                {
                    "indexed": false,
                    "internalType": "uint256",
                    "name": "amount",
                    "type": "uint256"
                },
                {
                    "indexed": false,
                    "internalType": "uint256",
                    "name": "debtShare",
                    "type": "uint256"
                }
            ],
            "name": "LogAccumulateBadDebt",
            "type": "event"
        },
        {
            "anonymous": false,
            "inputs": [
                {
                    "indexed": true,
                    "internalType": "address",
                    "name": "ownerAddress",
                    "type": "address"
                },
                {
                    "indexed": false,
                    "internalType": "uint256",
                    "name": "amount",
                    "type": "uint256"
                }
            ],
            "name": "LogAccumulateStablecoin",
            "type": "event"
        },
        {
            "anonymous": false,
            "inputs": [
                {
                    "indexed": false,
                    "internalType": "uint256",
                    "name": "_cageCoolDown",
                    "type": "uint256"
                }
            ],
            "name": "LogCage",
            "type": "event"
        },
        {
            "anonymous": false,
            "inputs": [
                {
                    "indexed": true,
                    "internalType": "bytes32",
                    "name": "collateralPoolId",
                    "type": "bytes32"
                }
            ],
            "name": "LogCageCollateralPool",
            "type": "event"
        },
        {
            "anonymous": false,
            "inputs": [
                {
                    "indexed": true,
                    "internalType": "bytes32",
                    "name": "collateralPoolId",
                    "type": "bytes32"
                }
            ],
            "name": "LogFinalizeCashPrice",
            "type": "event"
        },
        {
            "anonymous": false,
            "inputs": [],
            "name": "LogFinalizeDebt",
            "type": "event"
        },
        {
            "anonymous": false,
            "inputs": [
                {
                    "indexed": true,
                    "internalType": "bytes32",
                    "name": "collateralPoolId",
                    "type": "bytes32"
                },
                {
                    "indexed": true,
                    "internalType": "address",
                    "name": "positionAddress",
                    "type": "address"
                },
                {
                    "indexed": false,
                    "internalType": "uint256",
                    "name": "lockedCollateral",
                    "type": "uint256"
                }
            ],
            "name": "LogRedeemLockedCollateral",
            "type": "event"
        },
        {
            "anonymous": false,
            "inputs": [
                {
                    "indexed": true,
                    "internalType": "bytes32",
                    "name": "collateralPoolId",
                    "type": "bytes32"
                },
                {
                    "indexed": true,
                    "internalType": "address",
                    "name": "ownerAddress",
                    "type": "address"
                },
                {
                    "indexed": false,
                    "internalType": "uint256",
                    "name": "amount",
                    "type": "uint256"
                }
            ],
            "name": "LogRedeemStablecoin",
            "type": "event"
        },
        {
            "anonymous": false,
            "inputs": [
                {
                    "indexed": true,
                    "internalType": "address",
                    "name": "caller",
                    "type": "address"
                },
                {
                    "indexed": false,
                    "internalType": "address",
                    "name": "_bookKeeper",
                    "type": "address"
                }
            ],
            "name": "LogSetBookKeeper",
            "type": "event"
        },
        {
            "anonymous": false,
            "inputs": [
                {
                    "indexed": true,
                    "internalType": "address",
                    "name": "caller",
                    "type": "address"
                },
                {
                    "indexed": false,
                    "internalType": "uint256",
                    "name": "_cageCoolDown",
                    "type": "uint256"
                }
            ],
            "name": "LogSetCageCoolDown",
            "type": "event"
        },
        {
            "anonymous": false,
            "inputs": [
                {
                    "indexed": true,
                    "internalType": "address",
                    "name": "caller",
                    "type": "address"
                },
                {
                    "indexed": false,
                    "internalType": "address",
                    "name": "_liquidationEngine",
                    "type": "address"
                }
            ],
            "name": "LogSetLiquidationEngine",
            "type": "event"
        },
        {
            "anonymous": false,
            "inputs": [
                {
                    "indexed": true,
                    "internalType": "address",
                    "name": "caller",
                    "type": "address"
                },
                {
                    "indexed": false,
                    "internalType": "address",
                    "name": "_priceOracle",
                    "type": "address"
                }
            ],
            "name": "LogSetPriceOracle",
            "type": "event"
        },
        {
            "anonymous": false,
            "inputs": [
                {
                    "indexed": true,
                    "internalType": "address",
                    "name": "caller",
                    "type": "address"
                },
                {
                    "indexed": false,
                    "internalType": "address",
                    "name": "_systemDebtEngine",
                    "type": "address"
                }
            ],
            "name": "LogSetSystemDebtEngine",
            "type": "event"
        },
        {
            "inputs": [
                {
                    "internalType": "bytes32",
                    "name": "",
                    "type": "bytes32"
                }
            ],
            "name": "badDebtAccumulator",
            "outputs": [
                {
                    "internalType": "uint256",
                    "name": "",
                    "type": "uint256"
                }
            ],
            "stateMutability": "view",
            "type": "function"
        },
        {
            "inputs": [],
            "name": "bookKeeper",
            "outputs": [
                {
                    "internalType": "contract IBookKeeper",
                    "name": "",
                    "type": "address"
                }
            ],
            "stateMutability": "view",
            "type": "function"
        },
        {
            "inputs": [],
            "name": "cageCoolDown",
            "outputs": [
                {
                    "internalType": "uint256",
                    "name": "",
                    "type": "uint256"
                }
            ],
            "stateMutability": "view",
            "type": "function"
        },
        {
            "inputs": [
                {
                    "internalType": "bytes32",
                    "name": "",
                    "type": "bytes32"
                }
            ],
            "name": "cagePrice",
            "outputs": [
                {
                    "internalType": "uint256",
                    "name": "",
                    "type": "uint256"
                }
            ],
            "stateMutability": "view",
            "type": "function"
        },
        {
            "inputs": [],
            "name": "cagedTimestamp",
            "outputs": [
                {
                    "internalType": "uint256",
                    "name": "",
                    "type": "uint256"
                }
            ],
            "stateMutability": "view",
            "type": "function"
        },
        {
            "inputs": [],
            "name": "debt",
            "outputs": [
                {
                    "internalType": "uint256",
                    "name": "",
                    "type": "uint256"
                }
            ],
            "stateMutability": "view",
            "type": "function"
        },
        {
            "inputs": [
                {
                    "internalType": "bytes32",
                    "name": "",
                    "type": "bytes32"
                }
            ],
            "name": "finalCashPrice",
            "outputs": [
                {
                    "internalType": "uint256",
                    "name": "",
                    "type": "uint256"
                }
            ],
            "stateMutability": "view",
            "type": "function"
        },
        {
            "inputs": [],
            "name": "liquidationEngine",
            "outputs": [
                {
                    "internalType": "contract ILiquidationEngine",
                    "name": "",
                    "type": "address"
                }
            ],
            "stateMutability": "view",
            "type": "function"
        },
        {
            "inputs": [],
            "name": "live",
            "outputs": [
                {
                    "internalType": "uint256",
                    "name": "",
                    "type": "uint256"
                }
            ],
            "stateMutability": "view",
            "type": "function"
        },
        {
            "inputs": [],
            "name": "priceOracle",
            "outputs": [
                {
                    "internalType": "contract IPriceOracle",
                    "name": "",
                    "type": "address"
                }
            ],
            "stateMutability": "view",
            "type": "function"
        },
        {
            "inputs": [
                {
                    "internalType": "bytes32",
                    "name": "",
                    "type": "bytes32"
                },
                {
                    "internalType": "address",
                    "name": "",
                    "type": "address"
                }
            ],
            "name": "redeemedStablecoinAmount",
            "outputs": [
                {
                    "internalType": "uint256",
                    "name": "",
                    "type": "uint256"
                }
            ],
            "stateMutability": "view",
            "type": "function"
        },
        {
            "inputs": [
                {
                    "internalType": "address",
                    "name": "",
                    "type": "address"
                }
            ],
            "name": "stablecoinAccumulator",
            "outputs": [
                {
                    "internalType": "uint256",
                    "name": "",
                    "type": "uint256"
                }
            ],
            "stateMutability": "view",
            "type": "function"
        },
        {
            "inputs": [],
            "name": "systemDebtEngine",
            "outputs": [
                {
                    "internalType": "contract ISystemDebtEngine",
                    "name": "",
                    "type": "address"
                }
            ],
            "stateMutability": "view",
            "type": "function"
        },
        {
            "inputs": [
                {
                    "internalType": "bytes32",
                    "name": "",
                    "type": "bytes32"
                }
            ],
            "name": "totalDebtShare",
            "outputs": [
                {
                    "internalType": "uint256",
                    "name": "",
                    "type": "uint256"
                }
            ],
            "stateMutability": "view",
            "type": "function"
        },
        {
            "inputs": [
                {
                    "internalType": "address",
                    "name": "_bookKeeper",
                    "type": "address"
                }
            ],
            "name": "initialize",
            "outputs": [],
            "stateMutability": "nonpayable",
            "type": "function"
        },
        {
            "inputs": [
                {
                    "internalType": "address",
                    "name": "_bookKeeper",
                    "type": "address"
                }
            ],
            "name": "setBookKeeper",
            "outputs": [],
            "stateMutability": "nonpayable",
            "type": "function"
        },
        {
            "inputs": [
                {
                    "internalType": "address",
                    "name": "_liquidationEngine",
                    "type": "address"
                }
            ],
            "name": "setLiquidationEngine",
            "outputs": [],
            "stateMutability": "nonpayable",
            "type": "function"
        },
        {
            "inputs": [
                {
                    "internalType": "address",
                    "name": "_systemDebtEngine",
                    "type": "address"
                }
            ],
            "name": "setSystemDebtEngine",
            "outputs": [],
            "stateMutability": "nonpayable",
            "type": "function"
        },
        {
            "inputs": [
                {
                    "internalType": "address",
                    "name": "_priceOracle",
                    "type": "address"
                }
            ],
            "name": "setPriceOracle",
            "outputs": [],
            "stateMutability": "nonpayable",
            "type": "function"
        },
        {
            "inputs": [
                {
                    "internalType": "uint256",
                    "name": "_cageCoolDown",
                    "type": "uint256"
                }
            ],
            "name": "cage",
            "outputs": [],
            "stateMutability": "nonpayable",
            "type": "function"
        },
        {
            "inputs": [
                {
                    "internalType": "bytes32",
                    "name": "_collateralPoolId",
                    "type": "bytes32"
                }
            ],
            "name": "cagePool",
            "outputs": [],
            "stateMutability": "nonpayable",
            "type": "function"
        },
        {
            "inputs": [
                {
                    "internalType": "bytes32",
                    "name": "_collateralPoolId",
                    "type": "bytes32"
                },
                {
                    "internalType": "address",
                    "name": "_positionAddress",
                    "type": "address"
                }
            ],
            "name": "accumulateBadDebt",
            "outputs": [],
            "stateMutability": "nonpayable",
            "type": "function"
        },
        {
            "inputs": [],
            "name": "finalizeDebt",
            "outputs": [],
            "stateMutability": "nonpayable",
            "type": "function"
        },
        {
            "inputs": [
                {
                    "internalType": "bytes32",
                    "name": "_collateralPoolId",
                    "type": "bytes32"
                }
            ],
            "name": "finalizeCashPrice",
            "outputs": [],
            "stateMutability": "nonpayable",
            "type": "function"
        },
        {
            "inputs": [
                {
                    "internalType": "uint256",
                    "name": "_amount",
                    "type": "uint256"
                }
            ],
            "name": "accumulateStablecoin",
            "outputs": [],
            "stateMutability": "nonpayable",
            "type": "function"
        },
        {
            "inputs": [
                {
                    "internalType": "bytes32",
                    "name": "_collateralPoolId",
                    "type": "bytes32"
                },
                {
                    "internalType": "uint256",
                    "name": "_amount",
                    "type": "uint256"
                }
            ],
            "name": "redeemStablecoin",
            "outputs": [],
            "stateMutability": "nonpayable",
            "type": "function"
        },
        {
            "inputs": [
                {
                    "internalType": "bytes32",
                    "name": "_collateralPoolId",
                    "type": "bytes32"
                },
                {
                    "internalType": "address",
                    "name": "_positionAddress",
                    "type": "address"
                },
                {
                    "internalType": "address",
                    "name": "_collateralReceiver",
                    "type": "address"
                },
                {
                    "internalType": "bytes",
                    "name": "",
                    "type": "bytes"
                }
            ],
            "name": "redeemLockedCollateral",
            "outputs": [],
            "stateMutability": "nonpayable",
            "type": "function"
        }
    ],
    "bytecode": "0x608060405234801561001057600080fd5b50612bb7806100206000396000f3fe608060405234801561001057600080fd5b50600436106101a85760003560e01c8063530e784f116100f9578063acb5f84711610097578063c4d66de811610071578063c4d66de8146103a8578063e3b3932a146103bb578063ef45eb98146103d4578063f25e7ee5146103e757600080fd5b8063acb5f8471461035f578063be0c4a1114610368578063bfb934c41461038857600080fd5b80637e0972f5116100d35780637e0972f51461031d5780638557198914610330578063957aa58c14610343578063a2f91af21461034c57600080fd5b8063530e784f146102e25780636920c9cb146102f557806372bac359146102fd57600080fd5b80632630c12f116101665780633b4a5210116101405780633b4a5210146102a057806340a29d18146102a957806344bf3c72146102bc5780634d298abd146102cf57600080fd5b80632630c12f14610237578063267750c11461026257806328e49a421461028d57600080fd5b80621a0fda146101ad57806307d8bd88146101e0578063088d23a9146101f5578063094ad0cb146102085780630c91102d1461021b5780630dca59c11461022e575b600080fd5b6101cd6101bb3660046128cb565b600c6020526000908152604090205481565b6040519081526020015b60405180910390f35b6101f36101ee3660046128cb565b610407565b005b6101f36102033660046128e8565b6106b5565b6101f3610216366004612901565b610c7b565b6101f36102293660046128e8565b611027565b6101cd60075481565b60035461024a906001600160a01b031681565b6040516001600160a01b0390911681526020016101d7565b6101cd610270366004612901565b600d60209081526000928352604080842090915290825290205481565b60025461024a906001600160a01b031681565b6101cd60065481565b6101f36102b7366004612931565b6112a4565b60015461024a906001600160a01b031681565b6101f36102dd3660046128cb565b611528565b6101f36102f03660046128cb565b611769565b6101f361199e565b6101cd61030b3660046128e8565b60096020526000908152604090205481565b6101f361032b3660046128cb565b611be7565b6101f361033e3660046128e8565b611e1c565b6101cd60045481565b6101f361035a3660046128e8565b611fab565b6101cd60055481565b6101cd6103763660046128e8565b600a6020526000908152604090205481565b6101cd6103963660046128e8565b60086020526000908152604090205481565b6101f36103b63660046128cb565b61237d565b60005461024a906201000090046001600160a01b031681565b6101f36103e2366004612953565b61255e565b6101cd6103f53660046128e8565b600b6020526000908152604090205481565b60008060029054906101000a90046001600160a01b03166001600160a01b031663c8cc243f6040518163ffffffff1660e01b8152600401602060405180830381865afa15801561045b573d6000803e3d6000fd5b505050506040513d601f19601f8201168201806040525081019061047f91906129f2565b9050806001600160a01b03166391d14854826001600160a01b031663e58378bb6040518163ffffffff1660e01b8152600401602060405180830381865afa1580156104ce573d6000803e3d6000fd5b505050506040513d601f19601f820116820180604052508101906104f29190612a0f565b6040516001600160e01b031960e084901b1681526004810191909152336024820152604401602060405180830381865afa158015610534573d6000803e3d6000fd5b505050506040513d601f19601f820116820180604052508101906105589190612a28565b61057d5760405162461bcd60e51b815260040161057490612a4a565b60405180910390fd5b60045460011461059f5760405162461bcd60e51b815260040161057490612a6e565b6000826001600160a01b0316636f3a3bfc6040518163ffffffff1660e01b81526004016020604051808303816000875af11580156105e1573d6000803e3d6000fd5b505050506040513d601f19601f820116820180604052508101906106059190612a0f565b10156106535760405162461bcd60e51b815260206004820152601e60248201527f53686f7753746f707065722f696e76616c69642d626f6f6b4b656570657200006044820152606401610574565b6000805462010000600160b01b031916620100006001600160a01b0385169081029190911790915560405190815233907f2dbdc2d9ab1d00dae4c8616a09875d464749cf2b95c105a3e590740214eed3b7906020015b60405180910390a25050565b60008060029054906101000a90046001600160a01b03166001600160a01b031663c8cc243f6040518163ffffffff1660e01b8152600401602060405180830381865afa158015610709573d6000803e3d6000fd5b505050506040513d601f19601f8201168201806040525081019061072d91906129f2565b9050806001600160a01b03166391d14854826001600160a01b031663e58378bb6040518163ffffffff1660e01b8152600401602060405180830381865afa15801561077c573d6000803e3d6000fd5b505050506040513d601f19601f820116820180604052508101906107a09190612a0f565b6040516001600160e01b031960e084901b1681526004810191909152336024820152604401602060405180830381865afa1580156107e2573d6000803e3d6000fd5b505050506040513d601f19601f820116820180604052508101906108069190612a28565b6108225760405162461bcd60e51b815260040161057490612a4a565b600454156108425760405162461bcd60e51b815260040161057490612a9c565b600082815260086020526040902054156108c45760405162461bcd60e51b815260206004820152603960248201527f53686f7753746f707065722f636167652d70726963652d636f6c6c617465726160448201527f6c2d706f6f6c2d69642d616c72656164792d646566696e6564000000000000006064820152608401610574565b60008060029054906101000a90046001600160a01b03166001600160a01b031663d86824616040518163ffffffff1660e01b8152600401602060405180830381865afa158015610918573d6000803e3d6000fd5b505050506040513d601f19601f8201168201806040525081019061093c91906129f2565b6001600160a01b0316637a8bd02e846040518263ffffffff1660e01b815260040161096991815260200190565b602060405180830381865afa158015610986573d6000803e3d6000fd5b505050506040513d601f19601f820116820180604052508101906109aa9190612a0f565b905060008060029054906101000a90046001600160a01b03166001600160a01b031663d86824616040518163ffffffff1660e01b8152600401602060405180830381865afa158015610a00573d6000803e3d6000fd5b505050506040513d601f19601f82011682018060405250810190610a2491906129f2565b6001600160a01b0316638c0adf62856040518263ffffffff1660e01b8152600401610a5191815260200190565b602060405180830381865afa158015610a6e573d6000803e3d6000fd5b505050506040513d601f19601f82011682018060405250810190610a9291906129f2565b9050600081905082600a600087815260200190815260200160002081905550806001600160a01b0316630184a92a6040518163ffffffff1660e01b8152600401602060405180830381865afa158015610aef573d6000803e3d6000fd5b505050506040513d601f19601f82011682018060405250810190610b139190612a28565b1515600114610b645760405162461bcd60e51b815260206004820152601860248201527f53686f7753746f707065722f70726963652d6e6f742d6f6b00000000000000006044820152606401610574565b600354604080516313a3dd4f60e31b81529051610c3a926001600160a01b031691639d1eea789160048083019260209291908290030181865afa158015610baf573d6000803e3d6000fd5b505050506040513d601f19601f82011682018060405250810190610bd39190612a0f565b826001600160a01b0316637e91400f6040518163ffffffff1660e01b8152600401602060405180830381865afa158015610c11573d6000803e3d6000fd5b505050506040513d601f19601f82011682018060405250810190610c359190612a0f565b61285b565b60008681526008602052604080822092909255905186917fbd1c95632282a2358063f487ff1e4525000d7c339f7afebf6744f972d0a98ba191a25050505050565b6000828152600860205260408120549003610cf65760405162461bcd60e51b815260206004820152603560248201527f53686f7753746f707065722f636167652d70726963652d636f6c6c61746572616044820152741b0b5c1bdbdb0b5a590b5b9bdd0b5919599a5b9959605a1b6064820152608401610574565b60008060029054906101000a90046001600160a01b03166001600160a01b031663d86824616040518163ffffffff1660e01b8152600401602060405180830381865afa158015610d4a573d6000803e3d6000fd5b505050506040513d601f19601f82011682018060405250810190610d6e91906129f2565b6001600160a01b031663a09b0fe0846040518263ffffffff1660e01b8152600401610d9b91815260200190565b602060405180830381865afa158015610db8573d6000803e3d6000fd5b505050506040513d601f19601f82011682018060405250810190610ddc9190612a0f565b60008054604051630a76216560e21b8152600481018790526001600160a01b038681166024830152939450919283926201000090920416906329d88594906044016040805180830381865afa158015610e39573d6000803e3d6000fd5b505050506040513d601f19601f82011682018060405250810190610e5d9190612acc565b915091506000610e84610e708386612881565b600088815260086020526040902054612881565b90506000610e92848361289a565b6000888152600960205260409020549091508190610eb1908490612b06565b610ebb9190612b19565b600088815260096020526040902055600160ff1b81108015610ee05750600160ff1b83105b610f235760405162461bcd60e51b815260206004820152601460248201527353686f7753746f707065722f6f766572666c6f7760601b6044820152606401610574565b6000546002546001600160a01b036201000090920482169163b1df2594918a918a91309116610f5187612b2c565b610f5a8a612b2c565b6040516001600160e01b031960e089901b16815260048101969096526001600160a01b039485166024870152928416604486015292166064840152608483019190915260a482015260c401600060405180830381600087803b158015610fbf57600080fd5b505af1158015610fd3573d6000803e3d6000fd5b505060408051848152602081018790526001600160a01b038a1693508a92507f293e4e60f641b49922533fbeeac17db015a503c90dbb303eb7a873cf88d9539f91015b60405180910390a350505050505050565b6007546000036110715760405162461bcd60e51b815260206004820152601560248201527453686f7753746f707065722f646562742d7a65726f60581b6044820152606401610574565b6000818152600b6020526040902054156110f35760405162461bcd60e51b815260206004820152603f60248201527f53686f7753746f707065722f66696e616c2d636173682d70726963652d636f6c60448201527f6c61746572616c2d706f6f6c2d69642d616c72656164792d646566696e6564006064820152608401610574565b60008060029054906101000a90046001600160a01b03166001600160a01b031663d86824616040518163ffffffff1660e01b8152600401602060405180830381865afa158015611147573d6000803e3d6000fd5b505050506040513d601f19601f8201168201806040525081019061116b91906129f2565b6001600160a01b031663a09b0fe0836040518263ffffffff1660e01b815260040161119891815260200190565b602060405180830381865afa1580156111b5573d6000803e3d6000fd5b505050506040513d601f19601f820116820180604052508101906111d99190612a0f565b6000838152600a60205260408120549192509061120e906111fa9084612881565b600085815260086020526040902054612881565b90506b033b2e3c9fd0803ce800000060075461122a9190612b48565b6000848152600960205260409020546b033b2e3c9fd0803ce8000000906112519084612b19565b61125b9190612b6a565b6112659190612b48565b6000848152600b602052604080822092909255905184917fe3784a448612e2ede1104caa7905e411b93502dd4dc33d032bf343c5917b43c891a2505050565b806000036112ee5760405162461bcd60e51b815260206004820152601760248201527653686f7753746f707065722f616d6f756e742d7a65726f60481b6044820152606401610574565b6000828152600b602052604081205490036113715760405162461bcd60e51b815260206004820152603b60248201527f53686f7753746f707065722f66696e616c2d636173682d70726963652d636f6c60448201527f6c61746572616c2d706f6f6c2d69642d6e6f742d646566696e656400000000006064820152608401610574565b600060029054906101000a90046001600160a01b03166001600160a01b031663b5d993298330336113b586600b60008a815260200190815260200160002054612881565b6040516001600160e01b031960e087901b16815260048101949094526001600160a01b039283166024850152911660448301526064820152608401600060405180830381600087803b15801561140a57600080fd5b505af115801561141e573d6000803e3d6000fd5b5050506000838152600d602090815260408083203384529091528120805484935090919061144d908490612b06565b9091555050336000818152600c6020908152604080832054868452600d83528184209484529390915290205411156114ed5760405162461bcd60e51b815260206004820152603760248201527f53686f7753746f707065722f696e73756666696369656e742d737461626c656360448201527f6f696e2d616363756d756c61746f722d62616c616e63650000000000000000006064820152608401610574565b604051818152339083907f276115163114a9fc56b72ce487409e28a2d9dc521d5edb93623d4ae286c548539060200160405180910390a35050565b60008060029054906101000a90046001600160a01b03166001600160a01b031663c8cc243f6040518163ffffffff1660e01b8152600401602060405180830381865afa15801561157c573d6000803e3d6000fd5b505050506040513d601f19601f820116820180604052508101906115a091906129f2565b9050806001600160a01b03166391d14854826001600160a01b031663e58378bb6040518163ffffffff1660e01b8152600401602060405180830381865afa1580156115ef573d6000803e3d6000fd5b505050506040513d601f19601f820116820180604052508101906116139190612a0f565b6040516001600160e01b031960e084901b1681526004810191909152336024820152604401602060405180830381865afa158015611655573d6000803e3d6000fd5b505050506040513d601f19601f820116820180604052508101906116799190612a28565b6116955760405162461bcd60e51b815260040161057490612a4a565b6004546001146116b75760405162461bcd60e51b815260040161057490612a6e565b6001600160a01b0382166117195760405162461bcd60e51b815260206004820152602360248201527f53686f7753746f707065722f7a65726f2d6c69717569646174696f6e2d656e67604482015262696e6560e81b6064820152608401610574565b600180546001600160a01b0319166001600160a01b03841690811790915560405190815233907f599e6dd25180262019a2297440c3ca5d90e3fdb763a03e04e1ab11bb0ead154b906020016106a9565b60008060029054906101000a90046001600160a01b03166001600160a01b031663c8cc243f6040518163ffffffff1660e01b8152600401602060405180830381865afa1580156117bd573d6000803e3d6000fd5b505050506040513d601f19601f820116820180604052508101906117e191906129f2565b9050806001600160a01b03166391d14854826001600160a01b031663e58378bb6040518163ffffffff1660e01b8152600401602060405180830381865afa158015611830573d6000803e3d6000fd5b505050506040513d601f19601f820116820180604052508101906118549190612a0f565b6040516001600160e01b031960e084901b1681526004810191909152336024820152604401602060405180830381865afa158015611896573d6000803e3d6000fd5b505050506040513d601f19601f820116820180604052508101906118ba9190612a28565b6118d65760405162461bcd60e51b815260040161057490612a4a565b6004546001146118f85760405162461bcd60e51b815260040161057490612a6e565b6001600160a01b03821661194e5760405162461bcd60e51b815260206004820152601d60248201527f53686f7753746f707065722f7a65726f2d70726963652d6f7261636c650000006044820152606401610574565b600380546001600160a01b0319166001600160a01b03841690811790915560405190815233907f23a4a5c78e3d84f844d749b85830c9b1f4c9d4c036c10b4a2343afb46f0f0fe8906020016106a9565b600454156119be5760405162461bcd60e51b815260040161057490612a9c565b60075415611a0e5760405162461bcd60e51b815260206004820152601960248201527f53686f7753746f707065722f646562742d6e6f742d7a65726f000000000000006044820152606401610574565b60005460025460405163b4ac08bb60e01b81526001600160a01b03918216600482015262010000909204169063b4ac08bb90602401602060405180830381865afa158015611a60573d6000803e3d6000fd5b505050506040513d601f19601f82011682018060405250810190611a849190612a0f565b15611ad15760405162461bcd60e51b815260206004820152601c60248201527f53686f7753746f707065722f737572706c75732d6e6f742d7a65726f000000006044820152606401610574565b600654600554611ae19190612b06565b421015611b405760405162461bcd60e51b815260206004820152602760248201527f53686f7753746f707065722f636167652d636f6f6c2d646f776e2d6e6f742d666044820152661a5b9a5cda195960ca1b6064820152608401610574565b600060029054906101000a90046001600160a01b03166001600160a01b0316636f3a3bfc6040518163ffffffff1660e01b81526004016020604051808303816000875af1158015611b95573d6000803e3d6000fd5b505050506040513d601f19601f82011682018060405250810190611bb99190612a0f565b6007556040517f0e3725bc56837c9af795ff76d008a9b5e8d0c95f11f3df03ff9c9225370b4bd290600090a1565b60008060029054906101000a90046001600160a01b03166001600160a01b031663c8cc243f6040518163ffffffff1660e01b8152600401602060405180830381865afa158015611c3b573d6000803e3d6000fd5b505050506040513d601f19601f82011682018060405250810190611c5f91906129f2565b9050806001600160a01b03166391d14854826001600160a01b031663e58378bb6040518163ffffffff1660e01b8152600401602060405180830381865afa158015611cae573d6000803e3d6000fd5b505050506040513d601f19601f82011682018060405250810190611cd29190612a0f565b6040516001600160e01b031960e084901b1681526004810191909152336024820152604401602060405180830381865afa158015611d14573d6000803e3d6000fd5b505050506040513d601f19601f82011682018060405250810190611d389190612a28565b611d545760405162461bcd60e51b815260040161057490612a4a565b600454600114611d765760405162461bcd60e51b815260040161057490612a6e565b6001600160a01b038216611dcc5760405162461bcd60e51b815260206004820152601c60248201527f53686f7753746f707065722f7a65726f2d646562742d656e67696e65000000006044820152606401610574565b600280546001600160a01b0319166001600160a01b03841690811790915560405190815233907f28c02b7fb4c1c94c7b73df5dd0863593970575d3a1faf5271e73ee27155c4021906020016106a9565b80600003611e665760405162461bcd60e51b815260206004820152601760248201527653686f7753746f707065722f616d6f756e742d7a65726f60481b6044820152606401610574565b600754600003611eb05760405162461bcd60e51b815260206004820152601560248201527453686f7753746f707065722f646562742d7a65726f60581b6044820152606401610574565b6000546002546001600160a01b0362010000909204821691638c15785491339116611ee76b033b2e3c9fd0803ce800000086612b6a565b6040516001600160e01b031960e086901b1681526001600160a01b0393841660048201529290911660248301526044820152606401600060405180830381600087803b158015611f3657600080fd5b505af1158015611f4a573d6000803e3d6000fd5b5050336000908152600c602052604081208054859450909250611f6e908490612b06565b909155505060405181815233907fc50ee2f6bfb3dfbf11848560b2f455c3b655a6046bd89eda50b5b2ffcd6fc1f99060200160405180910390a250565b60008060029054906101000a90046001600160a01b03166001600160a01b031663c8cc243f6040518163ffffffff1660e01b8152600401602060405180830381865afa158015611fff573d6000803e3d6000fd5b505050506040513d601f19601f8201168201806040525081019061202391906129f2565b9050806001600160a01b03166391d14854826001600160a01b031663e58378bb6040518163ffffffff1660e01b8152600401602060405180830381865afa158015612072573d6000803e3d6000fd5b505050506040513d601f19601f820116820180604052508101906120969190612a0f565b6040516001600160e01b031960e084901b1681526004810191909152336024820152604401602060405180830381865afa1580156120d8573d6000803e3d6000fd5b505050506040513d601f19601f820116820180604052508101906120fc9190612a28565b6121185760405162461bcd60e51b815260040161057490612a4a565b60045460011461213a5760405162461bcd60e51b815260040161057490612a6e565b62093a80821015801561215057506277f8808211155b61219c5760405162461bcd60e51b815260206004820152601d60248201527f53686f7753746f707065722f696e76616c69642d636f6f6c2d646f776e0000006044820152606401610574565b60006004818155600684905542600555815460408051636924500960e01b81529051620100009092046001600160a01b03169363692450099382810193919282900301818387803b1580156121f057600080fd5b505af1158015612204573d6000803e3d6000fd5b50505050600160009054906101000a90046001600160a01b03166001600160a01b031663692450096040518163ffffffff1660e01b8152600401600060405180830381600087803b15801561225857600080fd5b505af115801561226c573d6000803e3d6000fd5b50505050600260009054906101000a90046001600160a01b03166001600160a01b031663692450096040518163ffffffff1660e01b8152600401600060405180830381600087803b1580156122c057600080fd5b505af11580156122d4573d6000803e3d6000fd5b50505050600360009054906101000a90046001600160a01b03166001600160a01b031663692450096040518163ffffffff1660e01b8152600401600060405180830381600087803b15801561232857600080fd5b505af115801561233c573d6000803e3d6000fd5b505050507fbd7f37500fcf13e0914700b825e78151526de20af9d53e64a3b2303d008319578260405161237191815260200190565b60405180910390a15050565b600054610100900460ff161580801561239d5750600054600160ff909116105b806123b75750303b1580156123b7575060005460ff166001145b61241a5760405162461bcd60e51b815260206004820152602e60248201527f496e697469616c697a61626c653a20636f6e747261637420697320616c72656160448201526d191e481a5b9a5d1a585b1a5e995960921b6064820152608401610574565b6000805460ff19166001179055801561243d576000805461ff0019166101001790555b6000826001600160a01b0316636f3a3bfc6040518163ffffffff1660e01b81526004016020604051808303816000875af115801561247f573d6000803e3d6000fd5b505050506040513d601f19601f820116820180604052508101906124a39190612a0f565b10156124f15760405162461bcd60e51b815260206004820152601e60248201527f53686f7753746f707065722f696e76616c69642d626f6f6b4b656570657200006044820152606401610574565b6000805462010000600160b01b031916620100006001600160a01b038516021790556001600455801561255a576000805461ff0019169055604051600181527f7f26b83ff96e1f2b6a682f133852f6798a09c465da95921460cefb384740249890602001612371565b5050565b6004541561257e5760405162461bcd60e51b815260040161057490612a9c565b6001600160a01b03841633148061260f575060005460405163d9ea915560e01b81526001600160a01b038681166004830152336024830152620100009092049091169063d9ea915590604401602060405180830381865afa1580156125e7573d6000803e3d6000fd5b505050506040513d601f19601f8201168201806040525081019061260b9190612a0f565b6001145b61265b5760405162461bcd60e51b815260206004820152601760248201527f53686f7753746f707065722f6e6f742d616c6c6f7765640000000000000000006044820152606401610574565b60008054604051630a76216560e21b8152600481018890526001600160a01b038781166024830152839262010000900416906329d88594906044016040805180830381865afa1580156126b2573d6000803e3d6000fd5b505050506040513d601f19601f820116820180604052508101906126d69190612acc565b915091508060001461272a5760405162461bcd60e51b815260206004820152601e60248201527f53686f7753746f707065722f6465627453686172652d6e6f742d7a65726f00006044820152606401610574565b600160ff1b82106127745760405162461bcd60e51b815260206004820152601460248201527353686f7753746f707065722f6f766572666c6f7760601b6044820152606401610574565b6000546002546001600160a01b036201000090920482169163b1df2594918a918a918a91166127a288612b2c565b60405160e087901b6001600160e01b031916815260048101959095526001600160a01b039384166024860152918316604485015290911660648301526084820152600060a482015260c401600060405180830381600087803b15801561280757600080fd5b505af115801561281b573d6000803e3d6000fd5b50505050846001600160a01b0316877ff2ac336db333e2ae75aa12cd2daa676109d3c95bf5b1cd3a952048f7f799cffb8460405161101691815260200190565b600081612870670de0b6b3a764000085612b6a565b61287a9190612b48565b9392505050565b60006b033b2e3c9fd0803ce80000006128708385612b6a565b6000818311156128aa578161287a565b50815b92915050565b6001600160a01b03811681146128c857600080fd5b50565b6000602082840312156128dd57600080fd5b813561287a816128b3565b6000602082840312156128fa57600080fd5b5035919050565b6000806040838503121561291457600080fd5b823591506020830135612926816128b3565b809150509250929050565b6000806040838503121561294457600080fd5b50508035926020909101359150565b60008060008060006080868803121561296b57600080fd5b85359450602086013561297d816128b3565b9350604086013561298d816128b3565b9250606086013567ffffffffffffffff808211156129aa57600080fd5b818801915088601f8301126129be57600080fd5b8135818111156129cd57600080fd5b8960208285010111156129df57600080fd5b9699959850939650602001949392505050565b600060208284031215612a0457600080fd5b815161287a816128b3565b600060208284031215612a2157600080fd5b5051919050565b600060208284031215612a3a57600080fd5b8151801515811461287a57600080fd5b6020808252600a9082015269216f776e6572526f6c6560b01b604082015260600190565b60208082526014908201527353686f7753746f707065722f6e6f742d6c69766560601b604082015260600190565b60208082526016908201527553686f7753746f707065722f7374696c6c2d6c69766560501b604082015260600190565b60008060408385031215612adf57600080fd5b505080516020909101519092909150565b634e487b7160e01b600052601160045260246000fd5b808201808211156128ad576128ad612af0565b818103818111156128ad576128ad612af0565b6000600160ff1b8201612b4157612b41612af0565b5060000390565b600082612b6557634e487b7160e01b600052601260045260246000fd5b500490565b80820281158282048414176128ad576128ad612af056fea26469706673582212201e806ebc4920dd17937f8668b568b909dc2afc41c437d85a7ed0450c466be7c664736f6c63430008110033",
    "immutableReferences": {},
    "source": "// SPDX-License-Identifier: AGPL-3.0-or-later\npragma solidity 0.8.17;\n\nimport \"@openzeppelin/contracts-upgradeable/proxy/utils/Initializable.sol\";\n\nimport \"../interfaces/IBookKeeper.sol\";\nimport \"../interfaces/IShowStopper.sol\";\nimport \"../interfaces/ILiquidationEngine.sol\";\nimport \"../interfaces/IPriceFeed.sol\";\nimport \"../interfaces/IPriceOracle.sol\";\nimport \"../interfaces/ISystemDebtEngine.sol\";\nimport \"../interfaces/IGenericTokenAdapter.sol\";\nimport \"../interfaces/ICagable.sol\";\nimport \"../utils/CommonMath.sol\";\n\n/**\n * @title ShowStopper Contract\n * @dev The ShowStopper contract is a system component that handles the emergency shutdown process.\n * It allows the system owner to initiate an emergency shutdown, pause certain system functions,\n * calculate and settle bad debt, and finalize the total debt of the system after the shutdown.\n * It also calculates the redeemStablecoin price of each collateral pool and allows users to redeem their stablecoins for collateral tokens.\n */\ncontract ShowStopper is CommonMath, IShowStopper, Initializable {\n    IBookKeeper public bookKeeper; // CDP Engine\n    ILiquidationEngine public liquidationEngine;\n    ISystemDebtEngine public systemDebtEngine; // Debt Engine\n    IPriceOracle public priceOracle;\n\n    uint256 public override live; // Active Flag\n    uint256 public cagedTimestamp; // Time of cage                   [unix epoch time]\n    uint256 public cageCoolDown; // Processing Cooldown Length             [seconds]\n    uint256 public debt; // Total outstanding stablecoin following processing [rad]\n\n    mapping(bytes32 => uint256) public cagePrice; // Cage price              [ray]\n    mapping(bytes32 => uint256) public badDebtAccumulator; // Collateral badDebtAccumulator    [wad]\n    mapping(bytes32 => uint256) public totalDebtShare; // Total debt per collateralPoolId      [wad]\n    mapping(bytes32 => uint256) public finalCashPrice; // Final redeemStablecoin price        [ray]\n\n    mapping(address => uint256) public stablecoinAccumulator; //    [wad]\n    mapping(bytes32 => mapping(address => uint256)) public redeemedStablecoinAmount; //    [wad]\n\n    event LogCage(uint256 _cageCoolDown);\n    event LogCageCollateralPool(bytes32 indexed collateralPoolId);\n\n    event LogAccumulateBadDebt(bytes32 indexed collateralPoolId, address indexed positionAddress, uint256 amount, uint256 debtShare);\n    event LogRedeemLockedCollateral(bytes32 indexed collateralPoolId, address indexed positionAddress, uint256 lockedCollateral);\n    event LogFinalizeDebt();\n    event LogFinalizeCashPrice(bytes32 indexed collateralPoolId);\n    event LogAccumulateStablecoin(address indexed ownerAddress, uint256 amount);\n    event LogRedeemStablecoin(bytes32 indexed collateralPoolId, address indexed ownerAddress, uint256 amount);\n\n    event LogSetBookKeeper(address indexed caller, address _bookKeeper);\n    event LogSetLiquidationEngine(address indexed caller, address _liquidationEngine);\n    event LogSetSystemDebtEngine(address indexed caller, address _systemDebtEngine);\n    event LogSetPriceOracle(address indexed caller, address _priceOracle);\n    event LogSetCageCoolDown(address indexed caller, uint256 _cageCoolDown);\n\n    modifier onlyOwner() {\n        IAccessControlConfig _accessControlConfig = IAccessControlConfig(bookKeeper.accessControlConfig());\n        require(_accessControlConfig.hasRole(_accessControlConfig.OWNER_ROLE(), msg.sender), \"!ownerRole\");\n        _;\n    }\n\n    function initialize(address _bookKeeper) external initializer {\n        require(IBookKeeper(_bookKeeper).totalStablecoinIssued() >= 0, \"ShowStopper/invalid-bookKeeper\"); // Sanity Check Call\n        bookKeeper = IBookKeeper(_bookKeeper);\n        live = 1;\n    }\n\n    function setBookKeeper(address _bookKeeper) external onlyOwner {\n        require(live == 1, \"ShowStopper/not-live\");\n        require(IBookKeeper(_bookKeeper).totalStablecoinIssued() >= 0, \"ShowStopper/invalid-bookKeeper\"); // Sanity Check Call\n        bookKeeper = IBookKeeper(_bookKeeper);\n        emit LogSetBookKeeper(msg.sender, _bookKeeper);\n    }\n\n    function setLiquidationEngine(address _liquidationEngine) external onlyOwner {\n        require(live == 1, \"ShowStopper/not-live\");\n        require(_liquidationEngine != address(0), \"ShowStopper/zero-liquidation-engine\");\n\n        liquidationEngine = ILiquidationEngine(_liquidationEngine);\n        emit LogSetLiquidationEngine(msg.sender, _liquidationEngine);\n    }\n\n    function setSystemDebtEngine(address _systemDebtEngine) external onlyOwner {\n        require(live == 1, \"ShowStopper/not-live\");\n        require(_systemDebtEngine != address(0), \"ShowStopper/zero-debt-engine\");\n\n        systemDebtEngine = ISystemDebtEngine(_systemDebtEngine);\n        emit LogSetSystemDebtEngine(msg.sender, _systemDebtEngine);\n    }\n\n    function setPriceOracle(address _priceOracle) external onlyOwner {\n        require(live == 1, \"ShowStopper/not-live\");\n        require(_priceOracle != address(0), \"ShowStopper/zero-price-oracle\");\n\n        priceOracle = IPriceOracle(_priceOracle);\n        emit LogSetPriceOracle(msg.sender, _priceOracle);\n    }\n\n    /**\n    * @notice Initiates the process of emergency shutdown (cage).\n    * @dev This function can only be called by the contract owner.\n    * @param _cageCoolDown Length of the cooldown period for the emergency shutdown, in seconds.\n    *\n    * The cage function starts the emergency shutdown process, which includes the following steps:\n    *  - Start a cooldown period for the emergency shutdown.\n    *  - Pause BookKeeper: locking/unlocking collateral and mint/repay Fathom Stablecoin will not be allowed for any positions.\n    *  - Pause LiquidationEngine: positions will not be liquidated.\n    *  - Pause SystemDebtEngine: no accrual of new debt, no system debt settlement.\n    *  - Pause PriceOracle: no new price updates, no liquidation trigger.\n    */\n    function cage(uint256 _cageCoolDown) external onlyOwner {\n        require(live == 1, \"ShowStopper/not-live\");\n        require(_cageCoolDown >= 1 weeks  && _cageCoolDown <= 13 weeks, \"ShowStopper/invalid-cool-down\" );\n\n        live = 0;\n        cageCoolDown = _cageCoolDown;\n        cagedTimestamp = block.timestamp;\n        ICagable(address(bookKeeper)).cage();\n        ICagable(address(liquidationEngine)).cage();\n        ICagable(address(systemDebtEngine)).cage();\n        ICagable(address(priceOracle)).cage();\n        emit LogCage(_cageCoolDown);\n    }\n\n    /**\n     * @notice Sets the cage price of a specific collateral pool using the latest price from the PriceOracle.\n     * @dev This function can only be called by the contract owner after the system has been caged (emergency shutdown initiated).\n     * @param _collateralPoolId The ID of the collateral pool to set the cage price for.\n     */\n    function cagePool(bytes32 _collateralPoolId) external onlyOwner {\n        require(live == 0, \"ShowStopper/still-live\");\n        require(cagePrice[_collateralPoolId] == 0, \"ShowStopper/cage-price-collateral-pool-id-already-defined\");\n\n        uint256 _totalDebtShare = ICollateralPoolConfig(bookKeeper.collateralPoolConfig()).getTotalDebtShare(_collateralPoolId);\n        address _priceFeedAddress = ICollateralPoolConfig(bookKeeper.collateralPoolConfig()).getPriceFeed(_collateralPoolId);\n        IPriceFeed _priceFeed = IPriceFeed(_priceFeedAddress);\n        totalDebtShare[_collateralPoolId] = _totalDebtShare;\n        require(_priceFeed.isPriceOk() == true, \"ShowStopper/price-not-ok\");\n        cagePrice[_collateralPoolId] = wdiv(priceOracle.stableCoinReferencePrice(), _priceFeed.readPrice());\n        emit LogCageCollateralPool(_collateralPoolId);\n    }\n\n    /**\n     * @notice Inspects a specified position and calculates the current badDebtAccumulator for the collateral pool it belongs to.\n     * @dev The badDebtAccumulator will be used to determine the stablecoin redemption price and ensure all bad debt is covered.\n     * @param _collateralPoolId The ID of the collateral pool that the position belongs to.\n     * @param _positionAddress The address of the position to inspect for bad debt.\n     */\n    function accumulateBadDebt(bytes32 _collateralPoolId, address _positionAddress) external {\n        require(cagePrice[_collateralPoolId] != 0, \"ShowStopper/cage-price-collateral-pool-id-not-defined\");\n        uint256 _debtAccumulatedRate = ICollateralPoolConfig(bookKeeper.collateralPoolConfig()).getDebtAccumulatedRate(\n            _collateralPoolId\n        ); // [ray]\n        (uint256 _lockedCollateralAmount, uint256 _debtShare) = bookKeeper.positions(_collateralPoolId, _positionAddress);\n        uint256 _debtAmount = rmul(rmul(_debtShare, _debtAccumulatedRate), cagePrice[_collateralPoolId]); // find the amount of debt in the unit of collateralToken\n        uint256 _amount = min(_lockedCollateralAmount, _debtAmount); // if debt > lockedCollateralAmount, that's mean bad debt occur\n        badDebtAccumulator[_collateralPoolId] = badDebtAccumulator[_collateralPoolId] + _debtAmount - _amount; // accumulate bad debt in badDebtAccumulator (if there is any)\n\n        require(_amount < 2 ** 255 && _debtShare < 2 ** 255, \"ShowStopper/overflow\");\n\n        bookKeeper.confiscatePosition(\n            _collateralPoolId,\n            _positionAddress,\n            address(this),\n            address(systemDebtEngine),\n            -int256(_amount),\n            -int256(_debtShare)\n        );\n        emit LogAccumulateBadDebt(_collateralPoolId, _positionAddress, _amount, _debtShare);\n    }\n\n    /**\n     * @notice Finalizes the total debt of the system after the emergency shutdown.\n     * @dev This function should be called after all positions have undergone `accumulateBadDebt` or `snip` to settle all debt,\n     * system surplus must be zero, and the emergency shutdown cooldown period has passed.\n     * The total debt will be equivalent to the total stablecoin issued, reflecting the correct value after the emergency shutdown.\n     */\n    function finalizeDebt() external {\n        require(live == 0, \"ShowStopper/still-live\");\n        require(debt == 0, \"ShowStopper/debt-not-zero\");\n        require(bookKeeper.stablecoin(address(systemDebtEngine)) == 0, \"ShowStopper/surplus-not-zero\");\n        require(block.timestamp >= cagedTimestamp + cageCoolDown, \"ShowStopper/cage-cool-down-not-finished\");\n        debt = bookKeeper.totalStablecoinIssued();\n        emit LogFinalizeDebt();\n    }\n\n    /**\n     * @notice Calculates the redeemStablecoin price of a specific collateral pool.\n     * @dev The redeemStablecoin price is the price at which Fathom Stablecoin holders can redeem their stablecoins for collateral tokens.\n     * The price takes into account the deficit/surplus of the collateral pool and ensures all bad debt is covered.\n     * @param _collateralPoolId The ID of the collateral pool to calculate the redeemStablecoin price for.\n     */\n    function finalizeCashPrice(bytes32 _collateralPoolId) external {\n        require(debt != 0, \"ShowStopper/debt-zero\");\n        require(finalCashPrice[_collateralPoolId] == 0, \"ShowStopper/final-cash-price-collateral-pool-id-already-defined\");\n\n        uint256 _debtAccumulatedRate = ICollateralPoolConfig(bookKeeper.collateralPoolConfig()).getDebtAccumulatedRate(\n            _collateralPoolId\n        ); // [ray]\n        uint256 _wad = rmul(rmul(totalDebtShare[_collateralPoolId], _debtAccumulatedRate), cagePrice[_collateralPoolId]);\n\n        finalCashPrice[_collateralPoolId] = ((_wad - badDebtAccumulator[_collateralPoolId]) * RAY) / (debt / RAY);\n\n        emit LogFinalizeCashPrice(_collateralPoolId);\n    }\n\n    /**\n     * @notice Accumulates the deposited stablecoin of the caller into a stablecoinAccumulator to be redeemed into collateral tokens later.\n     * @dev The caller's stablecoin will be locked until they redeem the stablecoins for collateral tokens.\n     * @param _amount The amount of stablecoin to accumulate.\n     */\n    function accumulateStablecoin(uint256 _amount) external {\n        require(_amount != 0, \"ShowStopper/amount-zero\");\n        require(debt != 0, \"ShowStopper/debt-zero\");\n        bookKeeper.moveStablecoin(msg.sender, address(systemDebtEngine), _amount * RAY);\n        stablecoinAccumulator[msg.sender] += _amount;\n        emit LogAccumulateStablecoin(msg.sender, _amount);\n    }\n\n    /**\n     * @notice Redeems stablecoin from the stablecoinAccumulator for collateral tokens of a specific collateral pool.\n     * @dev The stablecoin will be redeemed at the corresponding finalCashPrice of the collateral pool.\n     * @param _collateralPoolId The ID of the collateral pool to redeem stablecoin from.\n     * @param _amount The amount of stablecoin to redeem.\n     */\n    function redeemStablecoin(bytes32 _collateralPoolId, uint256 _amount) external {\n        require(_amount != 0, \"ShowStopper/amount-zero\");\n        require(finalCashPrice[_collateralPoolId] != 0, \"ShowStopper/final-cash-price-collateral-pool-id-not-defined\");\n        bookKeeper.moveCollateral(_collateralPoolId, address(this), msg.sender, rmul(_amount, finalCashPrice[_collateralPoolId]));\n        redeemedStablecoinAmount[_collateralPoolId][msg.sender] += _amount;\n        require(\n            redeemedStablecoinAmount[_collateralPoolId][msg.sender] <= stablecoinAccumulator[msg.sender],\n            \"ShowStopper/insufficient-stablecoin-accumulator-balance\"\n        );\n        emit LogRedeemStablecoin(_collateralPoolId, msg.sender, _amount);\n    }\n\n    /**\n     * @notice Redeems locked collateral from a position that has been safely settled after the emergency shutdown.\n     * @dev The position must have no debt and should have gone through the `accumulateBadDebt` or `smip` process already.\n     * @param _collateralPoolId The ID of the collateral pool that the position belongs to.\n     * @param _positionAddress The address of the position to redeem locked collateral from.\n     * @param _collateralReceiver The address to receive the redeemed collateral tokens.\n     */\n    function redeemLockedCollateral(\n        bytes32 _collateralPoolId,\n        address _positionAddress,\n        address _collateralReceiver,\n        bytes calldata /* _data */\n    ) external override {\n        require(live == 0, \"ShowStopper/still-live\");\n        require(_positionAddress == msg.sender || bookKeeper.positionWhitelist(_positionAddress, msg.sender) == 1, \"ShowStopper/not-allowed\");\n        (uint256 _lockedCollateralAmount, uint256 _debtShare) = bookKeeper.positions(_collateralPoolId, _positionAddress);\n        require(_debtShare == 0, \"ShowStopper/debtShare-not-zero\");\n        require(_lockedCollateralAmount < 2 ** 255, \"ShowStopper/overflow\");\n        bookKeeper.confiscatePosition(\n            _collateralPoolId,\n            _positionAddress,\n            _collateralReceiver,\n            address(systemDebtEngine),\n            -int256(_lockedCollateralAmount),\n            0\n        );\n        emit LogRedeemLockedCollateral(_collateralPoolId, _collateralReceiver, _lockedCollateralAmount);\n    }\n}\n",
    "sourcePath": "/Users/aleksey/SolidityProjects2/fathom-stablecoin-smart-contracts/contracts/main/stablecoin-core/ShowStopper.sol",
    "compiler": {
        "name": "solc",
        "version": "0.8.17+commit.8df45f5f.Emscripten.clang"
    },
    "schemaVersion": "3.4.15",
    "updatedAt": "2023-08-10T12:55:05.698Z",
    "devdoc": {
        "details": "The ShowStopper contract is a system component that handles the emergency shutdown process. It allows the system owner to initiate an emergency shutdown, pause certain system functions, calculate and settle bad debt, and finalize the total debt of the system after the shutdown. It also calculates the redeemStablecoin price of each collateral pool and allows users to redeem their stablecoins for collateral tokens.",
        "kind": "dev",
        "methods": {
            "accumulateBadDebt(bytes32,address)": {
                "details": "The badDebtAccumulator will be used to determine the stablecoin redemption price and ensure all bad debt is covered.",
                "params": {
                    "_collateralPoolId": "The ID of the collateral pool that the position belongs to.",
                    "_positionAddress": "The address of the position to inspect for bad debt."
                }
            },
            "accumulateStablecoin(uint256)": {
                "details": "The caller's stablecoin will be locked until they redeem the stablecoins for collateral tokens.",
                "params": {
                    "_amount": "The amount of stablecoin to accumulate."
                }
            },
            "cage(uint256)": {
                "details": "This function can only be called by the contract owner.",
                "params": {
                    "_cageCoolDown": "Length of the cooldown period for the emergency shutdown, in seconds. The cage function starts the emergency shutdown process, which includes the following steps:  - Start a cooldown period for the emergency shutdown.  - Pause BookKeeper: locking/unlocking collateral and mint/repay Fathom Stablecoin will not be allowed for any positions.  - Pause LiquidationEngine: positions will not be liquidated.  - Pause SystemDebtEngine: no accrual of new debt, no system debt settlement.  - Pause PriceOracle: no new price updates, no liquidation trigger."
                }
            },
            "cagePool(bytes32)": {
                "details": "This function can only be called by the contract owner after the system has been caged (emergency shutdown initiated).",
                "params": {
                    "_collateralPoolId": "The ID of the collateral pool to set the cage price for."
                }
            },
            "finalizeCashPrice(bytes32)": {
                "details": "The redeemStablecoin price is the price at which Fathom Stablecoin holders can redeem their stablecoins for collateral tokens. The price takes into account the deficit/surplus of the collateral pool and ensures all bad debt is covered.",
                "params": {
                    "_collateralPoolId": "The ID of the collateral pool to calculate the redeemStablecoin price for."
                }
            },
            "finalizeDebt()": {
                "details": "This function should be called after all positions have undergone `accumulateBadDebt` or `snip` to settle all debt, system surplus must be zero, and the emergency shutdown cooldown period has passed. The total debt will be equivalent to the total stablecoin issued, reflecting the correct value after the emergency shutdown."
            },
            "redeemLockedCollateral(bytes32,address,address,bytes)": {
                "details": "The position must have no debt and should have gone through the `accumulateBadDebt` or `smip` process already.",
                "params": {
                    "_collateralPoolId": "The ID of the collateral pool that the position belongs to.",
                    "_collateralReceiver": "The address to receive the redeemed collateral tokens.",
                    "_positionAddress": "The address of the position to redeem locked collateral from."
                }
            },
            "redeemStablecoin(bytes32,uint256)": {
                "details": "The stablecoin will be redeemed at the corresponding finalCashPrice of the collateral pool.",
                "params": {
                    "_amount": "The amount of stablecoin to redeem.",
                    "_collateralPoolId": "The ID of the collateral pool to redeem stablecoin from."
                }
            }
        },
        "title": "ShowStopper Contract",
        "version": 1
    },
    "userdoc": {
        "kind": "user",
        "methods": {
            "accumulateBadDebt(bytes32,address)": {
                "notice": "Inspects a specified position and calculates the current badDebtAccumulator for the collateral pool it belongs to."
            },
            "accumulateStablecoin(uint256)": {
                "notice": "Accumulates the deposited stablecoin of the caller into a stablecoinAccumulator to be redeemed into collateral tokens later."
            },
            "cage(uint256)": {
                "notice": "Initiates the process of emergency shutdown (cage)."
            },
            "cagePool(bytes32)": {
                "notice": "Sets the cage price of a specific collateral pool using the latest price from the PriceOracle."
            },
            "finalizeCashPrice(bytes32)": {
                "notice": "Calculates the redeemStablecoin price of a specific collateral pool."
            },
            "finalizeDebt()": {
                "notice": "Finalizes the total debt of the system after the emergency shutdown."
            },
            "redeemLockedCollateral(bytes32,address,address,bytes)": {
                "notice": "Redeems locked collateral from a position that has been safely settled after the emergency shutdown."
            },
            "redeemStablecoin(bytes32,uint256)": {
                "notice": "Redeems stablecoin from the stablecoinAccumulator for collateral tokens of a specific collateral pool."
            }
        },
        "version": 1
    }
}