{
    "contractName": "SlidingWindowDexOracle",
    "abi": [
        {
            "anonymous": false,
            "inputs": [
                {
                    "indexed": false,
                    "internalType": "uint8",
                    "name": "version",
                    "type": "uint8"
                }
            ],
            "name": "Initialized",
            "type": "event"
        },
        {
            "inputs": [],
            "name": "RESOLUTION",
            "outputs": [
                {
                    "internalType": "uint8",
                    "name": "",
                    "type": "uint8"
                }
            ],
            "stateMutability": "view",
            "type": "function"
        },
        {
            "inputs": [],
            "name": "factory",
            "outputs": [
                {
                    "internalType": "address",
                    "name": "",
                    "type": "address"
                }
            ],
            "stateMutability": "view",
            "type": "function"
        },
        {
            "inputs": [],
            "name": "granularity",
            "outputs": [
                {
                    "internalType": "uint8",
                    "name": "",
                    "type": "uint8"
                }
            ],
            "stateMutability": "view",
            "type": "function"
        },
        {
            "inputs": [
                {
                    "internalType": "address",
                    "name": "",
                    "type": "address"
                },
                {
                    "internalType": "uint256",
                    "name": "",
                    "type": "uint256"
                }
            ],
            "name": "pairObservations",
            "outputs": [
                {
                    "internalType": "uint256",
                    "name": "timestamp",
                    "type": "uint256"
                },
                {
                    "internalType": "uint256",
                    "name": "price0Cumulative",
                    "type": "uint256"
                },
                {
                    "internalType": "uint256",
                    "name": "price1Cumulative",
                    "type": "uint256"
                }
            ],
            "stateMutability": "view",
            "type": "function"
        },
        {
            "inputs": [],
            "name": "periodSize",
            "outputs": [
                {
                    "internalType": "uint256",
                    "name": "",
                    "type": "uint256"
                }
            ],
            "stateMutability": "view",
            "type": "function"
        },
        {
            "inputs": [],
            "name": "windowSize",
            "outputs": [
                {
                    "internalType": "uint256",
                    "name": "",
                    "type": "uint256"
                }
            ],
            "stateMutability": "view",
            "type": "function"
        },
        {
            "inputs": [
                {
                    "internalType": "address",
                    "name": "_factory",
                    "type": "address"
                },
                {
                    "internalType": "uint256",
                    "name": "_windowSize",
                    "type": "uint256"
                },
                {
                    "internalType": "uint8",
                    "name": "_granularity",
                    "type": "uint8"
                }
            ],
            "name": "initialize",
            "outputs": [],
            "stateMutability": "nonpayable",
            "type": "function"
        },
        {
            "inputs": [
                {
                    "internalType": "address",
                    "name": "tokenA",
                    "type": "address"
                },
                {
                    "internalType": "address",
                    "name": "tokenB",
                    "type": "address"
                }
            ],
            "name": "update",
            "outputs": [],
            "stateMutability": "nonpayable",
            "type": "function"
        },
        {
            "inputs": [
                {
                    "internalType": "address",
                    "name": "tokenA",
                    "type": "address"
                },
                {
                    "internalType": "address",
                    "name": "tokenB",
                    "type": "address"
                }
            ],
            "name": "getPrice",
            "outputs": [
                {
                    "internalType": "uint256",
                    "name": "price",
                    "type": "uint256"
                },
                {
                    "internalType": "uint256",
                    "name": "blockTimestampLast",
                    "type": "uint256"
                }
            ],
            "stateMutability": "view",
            "type": "function"
        },
        {
            "inputs": [
                {
                    "internalType": "uint256",
                    "name": "timestamp",
                    "type": "uint256"
                }
            ],
            "name": "observationIndexOf",
            "outputs": [
                {
                    "internalType": "uint8",
                    "name": "index",
                    "type": "uint8"
                }
            ],
            "stateMutability": "view",
            "type": "function"
        },
        {
            "inputs": [
                {
                    "internalType": "address",
                    "name": "pair",
                    "type": "address"
                }
            ],
            "name": "getFirstObservationInWindow",
            "outputs": [
                {
                    "components": [
                        {
                            "internalType": "uint256",
                            "name": "timestamp",
                            "type": "uint256"
                        },
                        {
                            "internalType": "uint256",
                            "name": "price0Cumulative",
                            "type": "uint256"
                        },
                        {
                            "internalType": "uint256",
                            "name": "price1Cumulative",
                            "type": "uint256"
                        }
                    ],
                    "internalType": "struct SlidingWindowDexOracle.Observation",
                    "name": "firstObservation",
                    "type": "tuple"
                }
            ],
            "stateMutability": "view",
            "type": "function"
        },
        {
            "inputs": [
                {
                    "internalType": "address",
                    "name": "pair",
                    "type": "address"
                }
            ],
            "name": "currentCumulativePrice",
            "outputs": [
                {
                    "internalType": "uint256",
                    "name": "price0Cumulative",
                    "type": "uint256"
                },
                {
                    "internalType": "uint256",
                    "name": "price1Cumulative",
                    "type": "uint256"
                }
            ],
            "stateMutability": "view",
            "type": "function"
        }
    ],
    "bytecode": "0x608060405234801561001057600080fd5b50611259806100206000396000f3fe608060405234801561001057600080fd5b50600436106100b45760003560e01c8063b49dc74111610071578063b49dc7411461016c578063bfcc8e4214610181578063c45a0155146101af578063c640752d146101e0578063dbaad32f146101f3578063e4463eb21461020657600080fd5b806303c9e721146100b9578063541dd7ef146100f3578063552f888a1461011b578063556f0dc7146101355780638a14117a14610142578063ac41865a14610159575b600080fd5b6100cc6100c7366004610e2c565b61020f565b60408051825181526020808401519082015291810151908201526060015b60405180910390f35b610106610101366004610e2c565b6102d0565b604080519283526020830191909152016100ea565b610123607081565b60405160ff90911681526020016100ea565b6002546101239060ff1681565b61014b60015481565b6040519081526020016100ea565b610106610167366004610e49565b6104b8565b61017f61017a366004610e91565b6107a3565b005b61019461018f366004610ed3565b610a33565b604080519384526020840192909252908201526060016100ea565b6000546101c8906201000090046001600160a01b031681565b6040516001600160a01b0390911681526020016100ea565b61017f6101ee366004610e49565b610a75565b610123610201366004610eff565b610bb0565b61014b60035481565b61023360405180606001604052806000815260200160008152602001600081525090565b600061023e42610bb0565b60025490915060009060ff16610255836001610f2e565b61025f9190610f63565b6001600160a01b038516600090815260046020526040902080549192509060ff831690811061029057610290610f85565b9060005260206000209060030201604051806060016040529081600082015481526020016001820154815260200160028201548152505092505050919050565b600080806102e364010000000042610f9b565b9050836001600160a01b0316635909c0d56040518163ffffffff1660e01b8152600401602060405180830381865afa158015610323573d6000803e3d6000fd5b505050506040513d601f19601f820116820180604052508101906103479190610faf565b9250836001600160a01b0316635a3d54936040518163ffffffff1660e01b8152600401602060405180830381865afa158015610387573d6000803e3d6000fd5b505050506040513d601f19601f820116820180604052508101906103ab9190610faf565b91506000806000866001600160a01b0316630902f1ac6040518163ffffffff1660e01b8152600401606060405180830381865afa1580156103f0573d6000803e3d6000fd5b505050506040513d601f19601f820116820180604052508101906104149190610fe4565b9250925092508363ffffffff168163ffffffff16146104af5760006104398286611029565b90508063ffffffff1661045e846001600160701b0316866001600160701b0316610bdb565b610468919061104d565b6104729088611064565b96508063ffffffff16610497856001600160701b0316856001600160701b0316610bdb565b6104a1919061104d565b6104ab9087611064565b9550505b50505050915091565b600080826001600160a01b0316846001600160a01b0316036104f55760405162461bcd60e51b81526004016104ec90611077565b60405180910390fd5b60008054610513906201000090046001600160a01b03168686610beb565b905060006105208261020f565b805190915060009061053290426110b9565b90506001548111156105a45760405162461bcd60e51b815260206004820152603560248201527f536c6964696e6757696e646f774465784f7261636c652f6d697373696e672d6860448201527434b9ba37b934b1b0b616b7b139b2b93b30ba34b7b760591b60648201526084016104ec565b6003546105b290600261104d565b6001546105bf91906110b9565b8110156106255760405162461bcd60e51b815260206004820152602e60248201527f536c6964696e6757696e646f774465784f7261636c652f756e6578706563746560448201526d190b5d1a5b594b595b185c1cd95960921b60648201526084016104ec565b600080610631856102d0565b9150915060006106418a8a610ccd565b50905060008a6001600160a01b031663313ce5676040518163ffffffff1660e01b8152600401602060405180830381865afa158015610684573d6000803e3d6000fd5b505050506040513d601f19601f820116820180604052508101906106a891906110cc565b60ff16905060008a6001600160a01b031663313ce5676040518163ffffffff1660e01b8152600401602060405180830381865afa1580156106ed573d6000803e3d6000fd5b505050506040513d601f19601f8201168201806040525081019061071191906110cc565b60ff1690506000836001600160a01b03168d6001600160a01b031614610751578688604001518661074291906110b9565b61074c91906110e9565b61076c565b8688602001518761076291906110b9565b61076c91906110e9565b9050607061078e61077e85600a6111e1565b610788908461104d565b84610dc5565b901c9d429d509b505050505050505050505050565b600054610100900460ff16158080156107c35750600054600160ff909116105b806107dd5750303b1580156107dd575060005460ff166001145b6108405760405162461bcd60e51b815260206004820152602e60248201527f496e697469616c697a61626c653a20636f6e747261637420697320616c72656160448201526d191e481a5b9a5d1a585b1a5e995960921b60648201526084016104ec565b6000805460ff191660011790558015610863576000805461ff0019166101001790555b6001600160a01b0384166108c55760405162461bcd60e51b815260206004820152602360248201527f536c6964696e6757696e646f774465784f7261636c652f7a65726f2d666163746044820152626f727960e81b60648201526084016104ec565b60018260ff161161092b5760405162461bcd60e51b815260206004820152602a60248201527f536c6964696e6757696e646f774465784f7261636c652f696e76616c69642d6760448201526972616e756c617269747960b01b60648201526084016104ec565b8260ff831661093a81836110e9565b6003819055610949919061104d565b146109b15760405162461bcd60e51b815260206004820152603260248201527f536c6964696e6757696e646f774465784f7261636c652f77696e646f772d6e6f604482015271742d6576656e6c792d646976697369626c6560701b60648201526084016104ec565b6000805462010000600160b01b031916620100006001600160a01b0387160217905560018390556002805460ff191660ff84161790558015610a2d576000805461ff0019169055604051600181527f7f26b83ff96e1f2b6a682f133852f6798a09c465da95921460cefb38474024989060200160405180910390a15b50505050565b60046020528160005260406000208181548110610a4f57600080fd5b600091825260209091206003909102018054600182015460029092015490935090915083565b806001600160a01b0316826001600160a01b031603610aa65760405162461bcd60e51b81526004016104ec90611077565b60008054610ac4906201000090046001600160a01b03168484610beb565b6001600160a01b0381166000908152600460205260409020549091505b60025460ff16811015610b21576001600160a01b038216600090815260046020526040812080546001018155905280610b19816111ed565b915050610ae1565b506000610b2d42610bb0565b6001600160a01b03831660009081526004602052604081208054929350909160ff8416908110610b5f57610b5f610f85565b6000918252602082206003909102018054909250610b7d90426110b9565b9050600354811115610ba857600080610b95866102d0565b4286556001860191909155600285015550505b505050505050565b60008060035483610bc191906110e9565b600254909150610bd49060ff1682610f9b565b9392505050565b6000610bd482607085901b6110e9565b60405163e6a4390560e01b81526001600160a01b0383811660048301528281166024830152600091829186169063e6a4390590604401602060405180830381865afa158015610c3e573d6000803e3d6000fd5b505050506040513d601f19601f82011682018060405250810190610c629190611206565b90506001600160a01b038116610cc55760405162461bcd60e51b815260206004820152602260248201527f466174686f6d537761704c6962726172793a20706169722d6e6f742d65786973604482015261747360f01b60648201526084016104ec565b949350505050565b600080826001600160a01b0316846001600160a01b031603610d405760405162461bcd60e51b815260206004820152602660248201527f466174686f6d537761704c6962726172793a204944454e544943414c5f41444460448201526552455353455360d01b60648201526084016104ec565b826001600160a01b0316846001600160a01b031610610d60578284610d63565b83835b90925090506001600160a01b038216610dbe5760405162461bcd60e51b815260206004820152601f60248201527f466174686f6d537761704c6962726172793a205a45524f5f414444524553530060448201526064016104ec565b9250929050565b600060128210610df457610dda6012836110b9565b610de590600a6111e1565b610def90846110e9565b610bd4565b610dff8260126110b9565b610e0a90600a6111e1565b610bd4908461104d565b6001600160a01b0381168114610e2957600080fd5b50565b600060208284031215610e3e57600080fd5b8135610bd481610e14565b60008060408385031215610e5c57600080fd5b8235610e6781610e14565b91506020830135610e7781610e14565b809150509250929050565b60ff81168114610e2957600080fd5b600080600060608486031215610ea657600080fd5b8335610eb181610e14565b9250602084013591506040840135610ec881610e82565b809150509250925092565b60008060408385031215610ee657600080fd5b8235610ef181610e14565b946020939093013593505050565b600060208284031215610f1157600080fd5b5035919050565b634e487b7160e01b600052601160045260246000fd5b60ff8181168382160190811115610f4757610f47610f18565b92915050565b634e487b7160e01b600052601260045260246000fd5b600060ff831680610f7657610f76610f4d565b8060ff84160691505092915050565b634e487b7160e01b600052603260045260246000fd5b600082610faa57610faa610f4d565b500690565b600060208284031215610fc157600080fd5b5051919050565b80516001600160701b0381168114610fdf57600080fd5b919050565b600080600060608486031215610ff957600080fd5b61100284610fc8565b925061101060208501610fc8565b9150604084015163ffffffff81168114610ec857600080fd5b63ffffffff82811682821603908082111561104657611046610f18565b5092915050565b8082028115828204841417610f4757610f47610f18565b80820180821115610f4757610f47610f18565b60208082526022908201527f536c6964696e6757696e646f774465784f7261636c652f73616d652d746f6b656040820152616e7360f01b606082015260800190565b81810381811115610f4757610f47610f18565b6000602082840312156110de57600080fd5b8151610bd481610e82565b6000826110f8576110f8610f4d565b500490565b600181815b8085111561113857816000190482111561111e5761111e610f18565b8085161561112b57918102915b93841c9390800290611102565b509250929050565b60008261114f57506001610f47565b8161115c57506000610f47565b8160018114611172576002811461117c57611198565b6001915050610f47565b60ff84111561118d5761118d610f18565b50506001821b610f47565b5060208310610133831016604e8410600b84101617156111bb575081810a610f47565b6111c583836110fd565b80600019048211156111d9576111d9610f18565b029392505050565b6000610bd48383611140565b6000600182016111ff576111ff610f18565b5060010190565b60006020828403121561121857600080fd5b8151610bd481610e1456fea2646970667358221220d808ba845c47fc952d8e04b31a6656cb918d7468189378c326fc9ea7baf35f5864736f6c63430008110033",
    "immutableReferences": {},
    "source": "// SPDX-License-Identifier: AGPL-3.0-or-later\npragma solidity 0.8.17;\n\nimport \"@openzeppelin/contracts-upgradeable/proxy/utils/Initializable.sol\";\n\nimport \"./lib/FathomSwapLibrary.sol\";\nimport \"../apis/interfaces/IFathomSwapPair.sol\";\nimport \"../apis/interfaces/IFathomSwapFactory.sol\";\nimport \"../interfaces/IFathomDEXOracle.sol\";\nimport \"../interfaces/IToken.sol\";\n\n// sliding window oracle that uses observations collected over a window to provide moving price averages in the past\n// `windowSize` with a precision of `windowSize / granularity`\ncontract SlidingWindowDexOracle is Initializable, IFathomDEXOracle {\n    struct Observation {\n        uint256 timestamp;\n        uint256 price0Cumulative;\n        uint256 price1Cumulative;\n    }\n\n    address public factory;\n    // the desired amount of time over which the moving average should be computed, e.g. 24 hours\n    uint256 public windowSize;\n    // the number of observations stored for each pair, i.e. how many price observations are stored for the window.\n    // as granularity increases from 1, more frequent updates are needed, but moving averages become more precise.\n    // averages are computed over intervals with sizes in the range:\n    //   [windowSize - (windowSize / granularity) * 2, windowSize]\n    // e.g. if the window size is 24 hours, and the granularity is 24, the oracle will return the average price for\n    //   the period:\n    //   [now - [22 hours, 24 hours], now]\n    uint8 public granularity;\n    // this is redundant with granularity and windowSize, but stored for gas savings & informational purposes.\n    uint256 public periodSize;\n\n    // mapping from pair address to a list of price observations of that pair\n    mapping(address => Observation[]) public pairObservations;\n\n    uint8 public constant RESOLUTION = 112;\n\n    function initialize(address _factory, uint256 _windowSize, uint8 _granularity) external initializer {\n        require(_factory != address(0), \"SlidingWindowDexOracle/zero-factory\");\n        require(_granularity > 1, \"SlidingWindowDexOracle/invalid-granularity\");\n        require((periodSize = _windowSize / _granularity) * _granularity == _windowSize, \"SlidingWindowDexOracle/window-not-evenly-divisible\");\n\n        factory = _factory;\n        windowSize = _windowSize;\n        granularity = _granularity;\n    }\n\n    // update the cumulative price for the observation at the current timestamp. each observation is updated at most\n    // once per epoch period.\n    function update(address tokenA, address tokenB) external {\n        require(tokenA != tokenB, \"SlidingWindowDexOracle/same-tokens\");\n\n        address pair = FathomSwapLibrary.pairFor(factory, tokenA, tokenB);\n\n        // populate the array with empty observations (first call only)\n        for (uint256 i = pairObservations[pair].length; i < granularity; i++) {\n            pairObservations[pair].push();\n        }\n\n        // get the observation for the current period\n        uint8 observationIndex = observationIndexOf(block.timestamp);\n        Observation storage observation = pairObservations[pair][observationIndex];\n\n        // we only want to commit updates once per period (i.e. windowSize / granularity)\n        uint256 timeElapsed = block.timestamp - observation.timestamp;\n        if (timeElapsed > periodSize) {\n            (uint256 price0Cumulative, uint256 price1Cumulative) = currentCumulativePrice(pair);\n            observation.timestamp = block.timestamp;\n            observation.price0Cumulative = price0Cumulative;\n            observation.price1Cumulative = price1Cumulative;\n        }\n    }\n\n    // range [now - [windowSize, windowSize - periodSize * 2], now]\n    // update must have been called for the bucket corresponding to timestamp `now - windowSize`\n    function getPrice(address tokenA, address tokenB) external view override returns (uint256 price, uint256 blockTimestampLast) {\n        require(tokenA != tokenB, \"SlidingWindowDexOracle/same-tokens\");\n\n        address pair = FathomSwapLibrary.pairFor(factory, tokenA, tokenB);\n        Observation memory firstObservation = getFirstObservationInWindow(pair);\n\n        uint256 timeElapsed = block.timestamp - firstObservation.timestamp;\n        require(timeElapsed <= windowSize, \"SlidingWindowDexOracle/missing-historical-observation\");\n        // should never happen.\n        require(timeElapsed >= windowSize - periodSize * 2, \"SlidingWindowDexOracle/unexpected-time-elapsed\");\n\n        (uint256 price0Cumulative, uint256 price1Cumulative) = currentCumulativePrice(pair);\n        (address token0, ) = FathomSwapLibrary.sortTokens(tokenA, tokenB);\n\n        uint256 decimalsA = IToken(tokenA).decimals();\n        uint256 decimalsB = IToken(tokenB).decimals();\n        uint256 rawPrice = tokenA == token0\n            ? ((price0Cumulative - firstObservation.price0Cumulative) / timeElapsed)\n            : ((price1Cumulative - firstObservation.price1Cumulative) / timeElapsed);\n\n        price = (_toDecimals18(rawPrice * (10 ** decimalsA), decimalsB)) >> RESOLUTION;\n        blockTimestampLast = block.timestamp;\n    }\n\n    // returns the index of the observation corresponding to the given timestamp\n    function observationIndexOf(uint256 timestamp) public view returns (uint8 index) {\n        uint256 epochPeriod = timestamp / periodSize;\n        return uint8(epochPeriod % granularity);\n    }\n\n    // returns the observation from the oldest epoch (at the beginning of the window) relative to the current time\n    function getFirstObservationInWindow(address pair) public view returns (Observation memory firstObservation) {\n        uint8 observationIndex = observationIndexOf(block.timestamp);\n        uint8 firstObservationIndex = (observationIndex + 1) % granularity;\n        firstObservation = pairObservations[pair][firstObservationIndex];\n    }\n\n    function currentCumulativePrice(address pair) public view returns (uint256 price0Cumulative, uint256 price1Cumulative) {\n        uint32 blockTimestamp = uint32(block.timestamp % 2 ** 32);\n        price0Cumulative = IFathomSwapPair(pair).price0CumulativeLast();\n        price1Cumulative = IFathomSwapPair(pair).price1CumulativeLast();\n\n        // if time has elapsed since the last update on the pair, mock the accumulated price values\n        (uint112 reserve0, uint112 reserve1, uint32 blockTimestampLast) = IFathomSwapPair(pair).getReserves();\n        if (blockTimestampLast != blockTimestamp) {\n            uint32 timeElapsed = blockTimestamp - blockTimestampLast;\n            price0Cumulative += _fraction(reserve1, reserve0) * timeElapsed;\n            price1Cumulative += _fraction(reserve0, reserve1) * timeElapsed;\n        }\n    }\n\n    function _fraction(uint256 a, uint256 b) private pure returns (uint256 result) {\n        result = (a << RESOLUTION) / b;\n    }\n\n    function _toDecimals18(uint256 _amount, uint _fromDecimals) private pure returns (uint256 result) {\n        result = _fromDecimals < 18 ? _amount * (10 ** (18 - _fromDecimals)) : _amount / (10 ** (_fromDecimals - 18));\n    }\n}\n",
    "sourcePath": "/Users/aleksey/SolidityProjects2/fathom-stablecoin-smart-contracts/contracts/main/price-oracles/SlidingWindowDexOracle.sol",
    "compiler": {
        "name": "solc",
        "version": "0.8.17+commit.8df45f5f.Emscripten.clang"
    },
    "schemaVersion": "3.4.15",
    "updatedAt": "2023-08-10T12:55:05.445Z",
    "devdoc": {
        "kind": "dev",
        "methods": {},
        "version": 1
    },
    "userdoc": {
        "kind": "user",
        "methods": {},
        "version": 1
    }
}