{
    "contractName": "StablecoinAdapter",
    "abi": [
        {
            "anonymous": false,
            "inputs": [
                {
                    "indexed": false,
                    "internalType": "uint8",
                    "name": "version",
                    "type": "uint8"
                }
            ],
            "name": "Initialized",
            "type": "event"
        },
        {
            "anonymous": false,
            "inputs": [],
            "name": "LogCage",
            "type": "event"
        },
        {
            "anonymous": false,
            "inputs": [
                {
                    "indexed": false,
                    "internalType": "address",
                    "name": "account",
                    "type": "address"
                }
            ],
            "name": "Paused",
            "type": "event"
        },
        {
            "anonymous": false,
            "inputs": [
                {
                    "indexed": false,
                    "internalType": "address",
                    "name": "account",
                    "type": "address"
                }
            ],
            "name": "Unpaused",
            "type": "event"
        },
        {
            "inputs": [],
            "name": "bookKeeper",
            "outputs": [
                {
                    "internalType": "contract IBookKeeper",
                    "name": "",
                    "type": "address"
                }
            ],
            "stateMutability": "view",
            "type": "function"
        },
        {
            "inputs": [],
            "name": "live",
            "outputs": [
                {
                    "internalType": "uint256",
                    "name": "",
                    "type": "uint256"
                }
            ],
            "stateMutability": "view",
            "type": "function"
        },
        {
            "inputs": [],
            "name": "paused",
            "outputs": [
                {
                    "internalType": "bool",
                    "name": "",
                    "type": "bool"
                }
            ],
            "stateMutability": "view",
            "type": "function"
        },
        {
            "inputs": [],
            "name": "stablecoin",
            "outputs": [
                {
                    "internalType": "contract IStablecoin",
                    "name": "",
                    "type": "address"
                }
            ],
            "stateMutability": "view",
            "type": "function"
        },
        {
            "inputs": [
                {
                    "internalType": "address",
                    "name": "_bookKeeper",
                    "type": "address"
                },
                {
                    "internalType": "address",
                    "name": "_stablecoin",
                    "type": "address"
                }
            ],
            "name": "initialize",
            "outputs": [],
            "stateMutability": "nonpayable",
            "type": "function"
        },
        {
            "inputs": [],
            "name": "cage",
            "outputs": [],
            "stateMutability": "nonpayable",
            "type": "function"
        },
        {
            "inputs": [
                {
                    "internalType": "address",
                    "name": "usr",
                    "type": "address"
                },
                {
                    "internalType": "uint256",
                    "name": "wad",
                    "type": "uint256"
                },
                {
                    "internalType": "bytes",
                    "name": "",
                    "type": "bytes"
                }
            ],
            "name": "deposit",
            "outputs": [],
            "stateMutability": "nonpayable",
            "type": "function"
        },
        {
            "inputs": [
                {
                    "internalType": "address",
                    "name": "usr",
                    "type": "address"
                },
                {
                    "internalType": "uint256",
                    "name": "rad",
                    "type": "uint256"
                },
                {
                    "internalType": "bytes",
                    "name": "",
                    "type": "bytes"
                }
            ],
            "name": "depositRAD",
            "outputs": [],
            "stateMutability": "nonpayable",
            "type": "function"
        },
        {
            "inputs": [
                {
                    "internalType": "address",
                    "name": "usr",
                    "type": "address"
                },
                {
                    "internalType": "uint256",
                    "name": "wad",
                    "type": "uint256"
                },
                {
                    "internalType": "bytes",
                    "name": "",
                    "type": "bytes"
                }
            ],
            "name": "withdraw",
            "outputs": [],
            "stateMutability": "nonpayable",
            "type": "function"
        },
        {
            "inputs": [],
            "name": "pause",
            "outputs": [],
            "stateMutability": "nonpayable",
            "type": "function"
        },
        {
            "inputs": [],
            "name": "unpause",
            "outputs": [],
            "stateMutability": "nonpayable",
            "type": "function"
        }
    ],
    "bytecode": "0x608060405234801561001057600080fd5b506112a5806100206000396000f3fe608060405234801561001057600080fd5b50600436106100a95760003560e01c8063653623ab11610071578063653623ab1461010c578063692450091461011f5780638456cb5914610127578063957aa58c1461012f578063e3b3932a14610146578063e9cbd8221461017157600080fd5b806331f09265146100ae5780633f4ba83a146100c3578063485cc955146100cb57806349bdc2b8146100de5780635c975abb146100f1575b600080fd5b6100c16100bc36600461109b565b610184565b005b6100c16102f2565b6100c16100d9366004611124565b610567565b6100c16100ec36600461109b565b610778565b60335460ff1660405190151581526020015b60405180910390f35b6100c161011a36600461109b565b61084f565b6100c1610931565b6100c1610bdc565b61013860995481565b604051908152602001610103565b609754610159906001600160a01b031681565b6040516001600160a01b039091168152602001610103565b609854610159906001600160a01b031681565b61018c610e4e565b610194610ea7565b6099546001146101eb5760405162461bcd60e51b815260206004820152601a60248201527f537461626c65636f696e416461707465722f6e6f742d6c69766500000000000060448201526064015b60405180910390fd5b6097546001600160a01b0316638c15785433306102146b033b2e3c9fd0803ce800000088611173565b6040516001600160e01b031960e086901b1681526001600160a01b0393841660048201529290911660248301526044820152606401600060405180830381600087803b15801561026357600080fd5b505af1158015610277573d6000803e3d6000fd5b50506098546040516340c10f1960e01b81526001600160a01b0388811660048301526024820188905290911692506340c10f1991506044015b600060405180830381600087803b1580156102ca57600080fd5b505af11580156102de573d6000803e3d6000fd5b505050506102ec6001606555565b50505050565b6097546040805163c8cc243f60e01b815290516000926001600160a01b03169163c8cc243f9160048083019260209291908290030181865afa15801561033c573d6000803e3d6000fd5b505050506040513d601f19601f820116820180604052508101906103609190611190565b9050806001600160a01b03166391d14854826001600160a01b031663e58378bb6040518163ffffffff1660e01b8152600401602060405180830381865afa1580156103af573d6000803e3d6000fd5b505050506040513d601f19601f820116820180604052508101906103d391906111b4565b6040516001600160e01b031960e084901b1681526004810191909152336024820152604401602060405180830381865afa158015610415573d6000803e3d6000fd5b505050506040513d601f19601f8201168201806040525081019061043991906111cd565b806105165750806001600160a01b03166391d14854826001600160a01b031663b536818a6040518163ffffffff1660e01b8152600401602060405180830381865afa15801561048c573d6000803e3d6000fd5b505050506040513d601f19601f820116820180604052508101906104b091906111b4565b6040516001600160e01b031960e084901b1681526004810191909152336024820152604401602060405180830381865afa1580156104f2573d6000803e3d6000fd5b505050506040513d601f19601f8201168201806040525081019061051691906111cd565b61055c5760405162461bcd60e51b815260206004820152601760248201527621286f776e6572526f6c65206f7220676f76526f6c652960481b60448201526064016101e2565b610564610ef6565b50565b600054610100900460ff16158080156105875750600054600160ff909116105b806105a15750303b1580156105a1575060005460ff166001145b6106045760405162461bcd60e51b815260206004820152602e60248201527f496e697469616c697a61626c653a20636f6e747261637420697320616c72656160448201526d191e481a5b9a5d1a585b1a5e995960921b60648201526084016101e2565b6000805460ff191660011790558015610627576000805461ff0019166101001790555b61062f610f48565b610637610f77565b6001600160a01b0383166106985760405162461bcd60e51b815260206004820152602260248201527f537461626c65636f696e416461707465722f7a65726f2d626f6f6b2d6b65657060448201526132b960f11b60648201526084016101e2565b6001600160a01b0382166106f85760405162461bcd60e51b815260206004820152602160248201527f537461626c65636f696e416461707465722f7a65726f2d737461626c65636f696044820152603760f91b60648201526084016101e2565b6001609955609780546001600160a01b038086166001600160a01b03199283161790925560988054928516929091169190911790558015610773576000805461ff0019169055604051600181527f7f26b83ff96e1f2b6a682f133852f6798a09c465da95921460cefb38474024989060200160405180910390a15b505050565b610780610e4e565b610788610ea7565b6097546001600160a01b0316638c15785430866107b16b033b2e3c9fd0803ce800000088611173565b6040516001600160e01b031960e086901b1681526001600160a01b0393841660048201529290911660248301526044820152606401600060405180830381600087803b15801561080057600080fd5b505af1158015610814573d6000803e3d6000fd5b5050609854604051632770a7eb60e21b8152336004820152602481018790526001600160a01b039091169250639dc29fac91506044016102b0565b610857610e4e565b61085f610ea7565b6097546040516323055e1560e21b81523060048201526001600160a01b0386811660248301526044820186905290911690638c15785490606401600060405180830381600087803b1580156108b357600080fd5b505af11580156108c7573d6000803e3d6000fd5b50506098546001600160a01b03169150639dc29fac9050336108f56b033b2e3c9fd0803ce8000000876111ef565b610900906001611211565b6040516001600160e01b031960e085901b1681526001600160a01b03909216600483015260248201526044016102b0565b6097546040805163c8cc243f60e01b815290516000926001600160a01b03169163c8cc243f9160048083019260209291908290030181865afa15801561097b573d6000803e3d6000fd5b505050506040513d601f19601f8201168201806040525081019061099f9190611190565b9050806001600160a01b03166391d14854826001600160a01b031663e58378bb6040518163ffffffff1660e01b8152600401602060405180830381865afa1580156109ee573d6000803e3d6000fd5b505050506040513d601f19601f82011682018060405250810190610a1291906111b4565b6040516001600160e01b031960e084901b1681526004810191909152336024820152604401602060405180830381865afa158015610a54573d6000803e3d6000fd5b505050506040513d601f19601f82011682018060405250810190610a7891906111cd565b80610b555750806001600160a01b03166391d14854826001600160a01b031663d7a47a696040518163ffffffff1660e01b8152600401602060405180830381865afa158015610acb573d6000803e3d6000fd5b505050506040513d601f19601f82011682018060405250810190610aef91906111b4565b6040516001600160e01b031960e084901b1681526004810191909152336024820152604401602060405180830381865afa158015610b31573d6000803e3d6000fd5b505050506040513d601f19601f82011682018060405250810190610b5591906111cd565b610ba15760405162461bcd60e51b815260206004820152601f60248201527f21286f776e6572526f6c65206f722073686f7753746f70706572526f6c65290060448201526064016101e2565b60995460010361056457600060998190556040517fbf689b4aae670d200b1d2b971ace2e0c3bef88a9c5e93f36705c7b86eab630b99190a150565b6097546040805163c8cc243f60e01b815290516000926001600160a01b03169163c8cc243f9160048083019260209291908290030181865afa158015610c26573d6000803e3d6000fd5b505050506040513d601f19601f82011682018060405250810190610c4a9190611190565b9050806001600160a01b03166391d14854826001600160a01b031663e58378bb6040518163ffffffff1660e01b8152600401602060405180830381865afa158015610c99573d6000803e3d6000fd5b505050506040513d601f19601f82011682018060405250810190610cbd91906111b4565b6040516001600160e01b031960e084901b1681526004810191909152336024820152604401602060405180830381865afa158015610cff573d6000803e3d6000fd5b505050506040513d601f19601f82011682018060405250810190610d2391906111cd565b80610e005750806001600160a01b03166391d14854826001600160a01b031663b536818a6040518163ffffffff1660e01b8152600401602060405180830381865afa158015610d76573d6000803e3d6000fd5b505050506040513d601f19601f82011682018060405250810190610d9a91906111b4565b6040516001600160e01b031960e084901b1681526004810191909152336024820152604401602060405180830381865afa158015610ddc573d6000803e3d6000fd5b505050506040513d601f19601f82011682018060405250810190610e0091906111cd565b610e465760405162461bcd60e51b815260206004820152601760248201527621286f776e6572526f6c65206f7220676f76526f6c652960481b60448201526064016101e2565b610564610fa6565b600260655403610ea05760405162461bcd60e51b815260206004820152601f60248201527f5265656e7472616e637947756172643a207265656e7472616e742063616c6c0060448201526064016101e2565b6002606555565b60335460ff1615610eed5760405162461bcd60e51b815260206004820152601060248201526f14185d5cd8589b194e881c185d5cd95960821b60448201526064016101e2565b565b6001606555565b610efe610fe3565b6033805460ff191690557f5db9ee0a495bf2e6ff9c91a7834c1ba4fdd244a5e8aa4e537bd38aeae4b073aa335b6040516001600160a01b03909116815260200160405180910390a1565b600054610100900460ff16610f6f5760405162461bcd60e51b81526004016101e290611224565b610eed61102c565b600054610100900460ff16610f9e5760405162461bcd60e51b81526004016101e290611224565b610eed61105f565b610fae610ea7565b6033805460ff191660011790557f62e78cea01bee320cd4e420270b5ea74000d11b0c9f74754ebdbfc544b05a258610f2b3390565b60335460ff16610eed5760405162461bcd60e51b815260206004820152601460248201527314185d5cd8589b194e881b9bdd081c185d5cd95960621b60448201526064016101e2565b600054610100900460ff166110535760405162461bcd60e51b81526004016101e290611224565b6033805460ff19169055565b600054610100900460ff16610eef5760405162461bcd60e51b81526004016101e290611224565b6001600160a01b038116811461056457600080fd5b600080600080606085870312156110b157600080fd5b84356110bc81611086565b935060208501359250604085013567ffffffffffffffff808211156110e057600080fd5b818701915087601f8301126110f457600080fd5b81358181111561110357600080fd5b88602082850101111561111557600080fd5b95989497505060200194505050565b6000806040838503121561113757600080fd5b823561114281611086565b9150602083013561115281611086565b809150509250929050565b634e487b7160e01b600052601160045260246000fd5b808202811582820484141761118a5761118a61115d565b92915050565b6000602082840312156111a257600080fd5b81516111ad81611086565b9392505050565b6000602082840312156111c657600080fd5b5051919050565b6000602082840312156111df57600080fd5b815180151581146111ad57600080fd5b60008261120c57634e487b7160e01b600052601260045260246000fd5b500490565b8082018082111561118a5761118a61115d565b6020808252602b908201527f496e697469616c697a61626c653a20636f6e7472616374206973206e6f74206960408201526a6e697469616c697a696e6760a81b60608201526080019056fea26469706673582212205d05d521a7533b9a2306b514269dd994568ad8d9818d5714a4b0abd81ce3761a64736f6c63430008110033",
    "immutableReferences": {},
    "source": "// SPDX-License-Identifier: AGPL-3.0-or-later\npragma solidity 0.8.17;\n\nimport \"@openzeppelin/contracts-upgradeable/security/PausableUpgradeable.sol\";\nimport \"@openzeppelin/contracts-upgradeable/security/ReentrancyGuardUpgradeable.sol\";\n\nimport \"../../interfaces/IStablecoin.sol\";\nimport \"../../interfaces/IBookKeeper.sol\";\nimport \"../../interfaces/IStablecoinAdapter.sol\";\nimport \"../../interfaces/ICagable.sol\";\nimport \"../../interfaces/IPausable.sol\";\nimport \"../../utils/CommonMath.sol\";\n\n/**\n * @title Stablecoin Adapter contract\n * @dev Handles deposit and withdrawal of stablecoins, along with emergency shutdown (caging) functionality.\n */\n\ncontract StablecoinAdapter is CommonMath, PausableUpgradeable, ReentrancyGuardUpgradeable, IStablecoinAdapter, ICagable, IPausable {\n    IBookKeeper public override bookKeeper; // CDP Engine\n    IStablecoin public override stablecoin; // Stablecoin Token\n    uint256 public live; // Active Flag\n\n    modifier onlyOwnerOrGov() {\n        IAccessControlConfig _accessControlConfig = IAccessControlConfig(bookKeeper.accessControlConfig());\n        require(\n            _accessControlConfig.hasRole(_accessControlConfig.OWNER_ROLE(), msg.sender) ||\n                _accessControlConfig.hasRole(_accessControlConfig.GOV_ROLE(), msg.sender),\n            \"!(ownerRole or govRole)\"\n        );\n        _;\n    }\n\n    modifier onlyOwnerOrShowStopper() {\n        IAccessControlConfig _accessControlConfig = IAccessControlConfig(bookKeeper.accessControlConfig());\n        require(\n            _accessControlConfig.hasRole(_accessControlConfig.OWNER_ROLE(), msg.sender) ||\n                _accessControlConfig.hasRole(_accessControlConfig.SHOW_STOPPER_ROLE(), msg.sender),\n            \"!(ownerRole or showStopperRole)\"\n        );\n        _;\n    }\n\n    function initialize(address _bookKeeper, address _stablecoin) external initializer {\n        PausableUpgradeable.__Pausable_init();\n        ReentrancyGuardUpgradeable.__ReentrancyGuard_init();\n\n        require(_bookKeeper != address(0), \"StablecoinAdapter/zero-book-keeper\");\n        require(_stablecoin != address(0), \"StablecoinAdapter/zero-stablecoin\");\n\n        live = 1;\n        bookKeeper = IBookKeeper(_bookKeeper);\n        stablecoin = IStablecoin(_stablecoin);\n    }\n\n    function cage() external override onlyOwnerOrShowStopper {\n        if (live == 1) {\n            live = 0;\n            emit LogCage();\n        }\n    }\n\n    /**\n     * @notice Deposits stablecoin from msg.sender into the BookKeeper.\n     * @param usr Address of the user to credit the deposit to.\n     * @param wad Amount to deposit. [wad]\n     */\n    function deposit(address usr, uint256 wad, bytes calldata /* data */) external override nonReentrant whenNotPaused {\n        bookKeeper.moveStablecoin(address(this), usr, wad * RAY);\n        stablecoin.burn(msg.sender, wad);\n    }\n    /**\n     * @notice Deposits stablecoin from msg.sender into the BookKeeper in RAD.\n     * @param usr Address of the user to credit the deposit to.\n     * @param rad Amount to deposit. [rad]\n     */\n    function depositRAD(address usr, uint256 rad, bytes calldata /* data */) external override nonReentrant whenNotPaused {\n        bookKeeper.moveStablecoin(address(this), usr, rad);\n        stablecoin.burn(msg.sender, (rad / RAY) + 1);\n    }\n    /**\n     * @notice Withdraws stablecoin to a specified user.\n     * @param usr Address of the user to withdraw stablecoin to.\n     * @param wad Amount to withdraw. [wad]\n     */\n    function withdraw(address usr, uint256 wad, bytes calldata /* data */) external override nonReentrant whenNotPaused {\n        require(live == 1, \"StablecoinAdapter/not-live\");\n        bookKeeper.moveStablecoin(msg.sender, address(this), wad * RAY);\n        stablecoin.mint(usr, wad);\n    }\n    /// @dev access: OWNER_ROLE, GOV_ROLE\n    function pause() external override onlyOwnerOrGov {\n        _pause();\n    }\n    /// @dev access: OWNER_ROLE, GOV_ROLE\n    function unpause() external override onlyOwnerOrGov {\n        _unpause();\n    }\n}\n",
    "sourcePath": "/Users/aleksey/SolidityProjects2/fathom-stablecoin-smart-contracts/contracts/main/stablecoin-core/adapters/StablecoinAdapter.sol",
    "compiler": {
        "name": "solc",
        "version": "0.8.17+commit.8df45f5f.Emscripten.clang"
    },
    "schemaVersion": "3.4.15",
    "updatedAt": "2023-08-10T12:55:05.743Z",
    "devdoc": {
        "details": "Handles deposit and withdrawal of stablecoins, along with emergency shutdown (caging) functionality.",
        "kind": "dev",
        "methods": {
            "deposit(address,uint256,bytes)": {
                "params": {
                    "usr": "Address of the user to credit the deposit to.",
                    "wad": "Amount to deposit. [wad]"
                }
            },
            "depositRAD(address,uint256,bytes)": {
                "params": {
                    "rad": "Amount to deposit. [rad]",
                    "usr": "Address of the user to credit the deposit to."
                }
            },
            "pause()": {
                "details": "access: OWNER_ROLE, GOV_ROLE"
            },
            "paused()": {
                "details": "Returns true if the contract is paused, and false otherwise."
            },
            "unpause()": {
                "details": "access: OWNER_ROLE, GOV_ROLE"
            },
            "withdraw(address,uint256,bytes)": {
                "params": {
                    "usr": "Address of the user to withdraw stablecoin to.",
                    "wad": "Amount to withdraw. [wad]"
                }
            }
        },
        "title": "Stablecoin Adapter contract",
        "version": 1
    },
    "userdoc": {
        "kind": "user",
        "methods": {
            "deposit(address,uint256,bytes)": {
                "notice": "Deposits stablecoin from msg.sender into the BookKeeper."
            },
            "depositRAD(address,uint256,bytes)": {
                "notice": "Deposits stablecoin from msg.sender into the BookKeeper in RAD."
            },
            "withdraw(address,uint256,bytes)": {
                "notice": "Withdraws stablecoin to a specified user."
            }
        },
        "version": 1
    }
}