{
    "contractName": "StabilityFeeCollector",
    "abi": [
        {
            "anonymous": false,
            "inputs": [
                {
                    "indexed": false,
                    "internalType": "uint8",
                    "name": "version",
                    "type": "uint8"
                }
            ],
            "name": "Initialized",
            "type": "event"
        },
        {
            "anonymous": false,
            "inputs": [
                {
                    "indexed": true,
                    "internalType": "address",
                    "name": "_caller",
                    "type": "address"
                },
                {
                    "indexed": false,
                    "internalType": "address",
                    "name": "_data",
                    "type": "address"
                }
            ],
            "name": "LogSetSystemDebtEngine",
            "type": "event"
        },
        {
            "anonymous": false,
            "inputs": [
                {
                    "indexed": false,
                    "internalType": "address",
                    "name": "account",
                    "type": "address"
                }
            ],
            "name": "Paused",
            "type": "event"
        },
        {
            "anonymous": false,
            "inputs": [
                {
                    "indexed": false,
                    "internalType": "address",
                    "name": "account",
                    "type": "address"
                }
            ],
            "name": "Unpaused",
            "type": "event"
        },
        {
            "inputs": [],
            "name": "bookKeeper",
            "outputs": [
                {
                    "internalType": "contract IBookKeeper",
                    "name": "",
                    "type": "address"
                }
            ],
            "stateMutability": "view",
            "type": "function"
        },
        {
            "inputs": [],
            "name": "paused",
            "outputs": [
                {
                    "internalType": "bool",
                    "name": "",
                    "type": "bool"
                }
            ],
            "stateMutability": "view",
            "type": "function"
        },
        {
            "inputs": [],
            "name": "systemDebtEngine",
            "outputs": [
                {
                    "internalType": "address",
                    "name": "",
                    "type": "address"
                }
            ],
            "stateMutability": "view",
            "type": "function"
        },
        {
            "inputs": [
                {
                    "internalType": "address",
                    "name": "_bookKeeper",
                    "type": "address"
                },
                {
                    "internalType": "address",
                    "name": "_systemDebtEngine",
                    "type": "address"
                }
            ],
            "name": "initialize",
            "outputs": [],
            "stateMutability": "nonpayable",
            "type": "function"
        },
        {
            "inputs": [],
            "name": "pause",
            "outputs": [],
            "stateMutability": "nonpayable",
            "type": "function"
        },
        {
            "inputs": [],
            "name": "unpause",
            "outputs": [],
            "stateMutability": "nonpayable",
            "type": "function"
        },
        {
            "inputs": [
                {
                    "internalType": "address",
                    "name": "_systemDebtEngine",
                    "type": "address"
                }
            ],
            "name": "setSystemDebtEngine",
            "outputs": [],
            "stateMutability": "nonpayable",
            "type": "function"
        },
        {
            "inputs": [
                {
                    "internalType": "bytes32",
                    "name": "_collateralPool",
                    "type": "bytes32"
                }
            ],
            "name": "collect",
            "outputs": [
                {
                    "internalType": "uint256",
                    "name": "_debtAccumulatedRate",
                    "type": "uint256"
                }
            ],
            "stateMutability": "nonpayable",
            "type": "function"
        }
    ],
    "bytecode": "0x608060405234801561001057600080fd5b50611370806100206000396000f3fe608060405234801561001057600080fd5b50600436106100885760003560e01c80635c975abb1161005b5780635c975abb146100fb5780637e0972f5146101115780638456cb5914610124578063e3b3932a1461012c57600080fd5b806328e49a421461008d5780633f4ba83a146100bd578063485cc955146100c7578063497777d5146100da575b600080fd5b6098546100a0906001600160a01b031681565b6040516001600160a01b0390911681526020015b60405180910390f35b6100c561013f565b005b6100c56100d536600461114b565b6103b9565b6100ed6100e8366004611184565b610592565b6040519081526020016100b4565b60335460ff1660405190151581526020016100b4565b6100c561011f36600461119d565b6105be565b6100c56107bb565b6097546100a0906001600160a01b031681565b6097546040805163c8cc243f60e01b815290516000926001600160a01b03169163c8cc243f9160048083019260209291908290030181865afa158015610189573d6000803e3d6000fd5b505050506040513d601f19601f820116820180604052508101906101ad91906111ba565b9050806001600160a01b03166391d14854826001600160a01b031663e58378bb6040518163ffffffff1660e01b8152600401602060405180830381865afa1580156101fc573d6000803e3d6000fd5b505050506040513d601f19601f8201168201806040525081019061022091906111d7565b6040516001600160e01b031960e084901b1681526004810191909152336024820152604401602060405180830381865afa158015610262573d6000803e3d6000fd5b505050506040513d601f19601f8201168201806040525081019061028691906111f0565b806103635750806001600160a01b03166391d14854826001600160a01b031663b536818a6040518163ffffffff1660e01b8152600401602060405180830381865afa1580156102d9573d6000803e3d6000fd5b505050506040513d601f19601f820116820180604052508101906102fd91906111d7565b6040516001600160e01b031960e084901b1681526004810191909152336024820152604401602060405180830381865afa15801561033f573d6000803e3d6000fd5b505050506040513d601f19601f8201168201806040525081019061036391906111f0565b6103ae5760405162461bcd60e51b815260206004820152601760248201527621286f776e6572526f6c65206f7220676f76526f6c652960481b60448201526064015b60405180910390fd5b6103b6610a2d565b50565b600054610100900460ff16158080156103d95750600054600160ff909116105b806103f35750303b1580156103f3575060005460ff166001145b6104565760405162461bcd60e51b815260206004820152602e60248201527f496e697469616c697a61626c653a20636f6e747261637420697320616c72656160448201526d191e481a5b9a5d1a585b1a5e995960921b60648201526084016103a5565b6000805460ff191660011790558015610479576000805461ff0019166101001790555b610481610a7f565b610489610ab0565b6001600160a01b0383166104ee5760405162461bcd60e51b815260206004820152602660248201527f53746162696c697479466565436f6c6c6563746f722f7a65726f2d626f6f6b2d60448201526535b2b2b832b960d11b60648201526084016103a5565b609780546001600160a01b0319166001600160a01b0385811691909117909155821661052c5760405162461bcd60e51b81526004016103a590611212565b609880546001600160a01b0319166001600160a01b038416179055801561058d576000805461ff0019169055604051600181527f7f26b83ff96e1f2b6a682f133852f6798a09c465da95921460cefb38474024989060200160405180910390a15b505050565b600061059c610adf565b6105a4610b25565b6105ad82610b7e565b90506105b96001606555565b919050565b6097546040805163c8cc243f60e01b815290516000926001600160a01b03169163c8cc243f9160048083019260209291908290030181865afa158015610608573d6000803e3d6000fd5b505050506040513d601f19601f8201168201806040525081019061062c91906111ba565b9050806001600160a01b03166391d14854826001600160a01b031663e58378bb6040518163ffffffff1660e01b8152600401602060405180830381865afa15801561067b573d6000803e3d6000fd5b505050506040513d601f19601f8201168201806040525081019061069f91906111d7565b6040516001600160e01b031960e084901b1681526004810191909152336024820152604401602060405180830381865afa1580156106e1573d6000803e3d6000fd5b505050506040513d601f19601f8201168201806040525081019061070591906111f0565b61073e5760405162461bcd60e51b815260206004820152600a602482015269216f776e6572526f6c6560b01b60448201526064016103a5565b6001600160a01b0382166107645760405162461bcd60e51b81526004016103a590611212565b609880546001600160a01b0319166001600160a01b03841690811790915560405190815233907f28c02b7fb4c1c94c7b73df5dd0863593970575d3a1faf5271e73ee27155c40219060200160405180910390a25050565b6097546040805163c8cc243f60e01b815290516000926001600160a01b03169163c8cc243f9160048083019260209291908290030181865afa158015610805573d6000803e3d6000fd5b505050506040513d601f19601f8201168201806040525081019061082991906111ba565b9050806001600160a01b03166391d14854826001600160a01b031663e58378bb6040518163ffffffff1660e01b8152600401602060405180830381865afa158015610878573d6000803e3d6000fd5b505050506040513d601f19601f8201168201806040525081019061089c91906111d7565b6040516001600160e01b031960e084901b1681526004810191909152336024820152604401602060405180830381865afa1580156108de573d6000803e3d6000fd5b505050506040513d601f19601f8201168201806040525081019061090291906111f0565b806109df5750806001600160a01b03166391d14854826001600160a01b031663b536818a6040518163ffffffff1660e01b8152600401602060405180830381865afa158015610955573d6000803e3d6000fd5b505050506040513d601f19601f8201168201806040525081019061097991906111d7565b6040516001600160e01b031960e084901b1681526004810191909152336024820152604401602060405180830381865afa1580156109bb573d6000803e3d6000fd5b505050506040513d601f19601f820116820180604052508101906109df91906111f0565b610a255760405162461bcd60e51b815260206004820152601760248201527621286f776e6572526f6c65206f7220676f76526f6c652960481b60448201526064016103a5565b6103b6610f3f565b610a35610f7c565b6033805460ff191690557f5db9ee0a495bf2e6ff9c91a7834c1ba4fdd244a5e8aa4e537bd38aeae4b073aa335b6040516001600160a01b03909116815260200160405180910390a1565b600054610100900460ff16610aa65760405162461bcd60e51b81526004016103a590611266565b610aae610fc5565b565b600054610100900460ff16610ad75760405162461bcd60e51b81526004016103a590611266565b610aae610ff8565b60335460ff1615610aae5760405162461bcd60e51b815260206004820152601060248201526f14185d5cd8589b194e881c185d5cd95960821b60448201526064016103a5565b600260655403610b775760405162461bcd60e51b815260206004820152601f60248201527f5265656e7472616e637947756172643a207265656e7472616e742063616c6c0060448201526064016103a5565b6002606555565b600080609760009054906101000a90046001600160a01b03166001600160a01b031663d86824616040518163ffffffff1660e01b8152600401602060405180830381865afa158015610bd4573d6000803e3d6000fd5b505050506040513d601f19601f82011682018060405250810190610bf891906111ba565b604051630504d87f60e51b8152600481018590529091506000906001600160a01b0383169063a09b0fe090602401602060405180830381865afa158015610c43573d6000803e3d6000fd5b505050506040513d601f19601f82011682018060405250810190610c6791906111d7565b604051631fea158d60e01b8152600481018690529091506000906001600160a01b03841690631fea158d90602401602060405180830381865afa158015610cb2573d6000803e3d6000fd5b505050506040513d601f19601f82011682018060405250810190610cd691906111d7565b60405163bbd112a560e01b8152600481018790529091506000906001600160a01b0385169063bbd112a590602401602060405180830381865afa158015610d21573d6000803e3d6000fd5b505050506040513d601f19601f82011682018060405250810190610d4591906111d7565b905080421015610dad5760405162461bcd60e51b815260206004820152602d60248201527f53746162696c697479466565436f6c6c6563746f722f696e76616c69642d626c60448201526c06f636b2e74696d657374616d7609c1b60648201526084016103a5565b6098546001600160a01b0316610e1e5760405162461bcd60e51b815260206004820152603060248201527f53746162696c697479466565436f6c6c6563746f722f73797374656d2d64656260448201526f1d0b595b99da5b994b5b9bdd0b5cd95d60821b60648201526084016103a5565b610e47610e4183610e2f84426112c7565b6b033b2e3c9fd0803ce800000061101f565b846110dd565b6097546098549196506001600160a01b03908116916390d5363991899116610e6f8988611107565b6040516001600160e01b031960e086901b16815260048101939093526001600160a01b0390911660248301526044820152606401600060405180830381600087803b158015610ebd57600080fd5b505af1158015610ed1573d6000803e3d6000fd5b505060405163739f5c9760e11b8152600481018990526001600160a01b038716925063e73eb92e9150602401600060405180830381600087803b158015610f1757600080fd5b505af1158015610f2b573d6000803e3d6000fd5b5050505050505050919050565b6001606555565b610f47610adf565b6033805460ff191660011790557f62e78cea01bee320cd4e420270b5ea74000d11b0c9f74754ebdbfc544b05a258610a623390565b60335460ff16610aae5760405162461bcd60e51b815260206004820152601460248201527314185d5cd8589b194e881b9bdd081c185d5cd95960621b60448201526064016103a5565b600054610100900460ff16610fec5760405162461bcd60e51b81526004016103a590611266565b6033805460ff19169055565b600054610100900460ff16610f385760405162461bcd60e51b81526004016103a590611266565b60008380156110bf5760018416801561103a5785925061103e565b8392505b50600283046002850494505b84156110b957858602868782041461106157600080fd5b8181018181101561107157600080fd5b85900496505060018516156110ae57858302838782041415871515161561109757600080fd5b818101818110156110a757600080fd5b8590049350505b60028504945061104a565b506110d5565b8380156110cf57600092506110d3565b8392505b505b509392505050565b60006b033b2e3c9fd0803ce80000006110f683856112da565b61110091906112f1565b9392505050565b60006111138284611313565b905060008312158015611127575060008212155b61113057600080fd5b92915050565b6001600160a01b03811681146103b657600080fd5b6000806040838503121561115e57600080fd5b823561116981611136565b9150602083013561117981611136565b809150509250929050565b60006020828403121561119657600080fd5b5035919050565b6000602082840312156111af57600080fd5b813561110081611136565b6000602082840312156111cc57600080fd5b815161110081611136565b6000602082840312156111e957600080fd5b5051919050565b60006020828403121561120257600080fd5b8151801515811461110057600080fd5b60208082526034908201527f53746162696c697479466565436f6c6c6563746f722f6261642d73797374656d6040820152732d646562742d656e67696e652d6164647265737360601b606082015260800190565b6020808252602b908201527f496e697469616c697a61626c653a20636f6e7472616374206973206e6f74206960408201526a6e697469616c697a696e6760a81b606082015260800190565b634e487b7160e01b600052601160045260246000fd5b81810381811115611130576111306112b1565b8082028115828204841417611130576111306112b1565b60008261130e57634e487b7160e01b600052601260045260246000fd5b500490565b8181036000831280158383131683831282161715611333576113336112b1565b509291505056fea264697066735822122057442fe589e37da9dba4f6e9377550dcfb03dbc6412204da6da802847fea7c3664736f6c63430008110033",
    "immutableReferences": {},
    "source": "// SPDX-License-Identifier: AGPL-3.0-or-later\npragma solidity 0.8.17;\n\nimport \"@openzeppelin/contracts-upgradeable/security/PausableUpgradeable.sol\";\nimport \"@openzeppelin/contracts-upgradeable/security/ReentrancyGuardUpgradeable.sol\";\n\nimport \"../interfaces/IBookKeeper.sol\";\nimport \"../interfaces/IStabilityFeeCollector.sol\";\nimport \"../interfaces/IPausable.sol\";\nimport \"../utils/CommonMath.sol\";\n\n/**\n * @title StabilityFeeCollector\n * @notice A contract that acts as a collector for the stability fee.\n * The stability fee is a fee that is collected from the minter of Fathom Stablecoin on a per-seconds basis.\n * This fee is accumulated in the system as a surplus to settle any bad debt.\n * The contract is Pausable, meaning it can be paused by the owner or governance to prevent fee collection temporarily.\n * Stability fees are collected for each collateral pool separately.\n */\ncontract StabilityFeeCollector is CommonMath, PausableUpgradeable, ReentrancyGuardUpgradeable, IStabilityFeeCollector, IPausable {\n    struct CollateralPool {\n        uint256 stabilityFeeRate; // Collateral-specific, per-second stability fee debtAccumulatedRate or mint interest debtAccumulatedRate [ray]\n        uint256 lastAccumulationTime; // Time of last call to `collect` [unix epoch time]\n    }\n\n    IBookKeeper public bookKeeper;\n    address public systemDebtEngine;\n\n    event LogSetSystemDebtEngine(address indexed _caller, address _data);\n\n    modifier onlyOwner() {\n        IAccessControlConfig _accessControlConfig = IAccessControlConfig(bookKeeper.accessControlConfig());\n        require(_accessControlConfig.hasRole(_accessControlConfig.OWNER_ROLE(), msg.sender), \"!ownerRole\");\n        _;\n    }\n\n    modifier onlyOwnerOrGov() {\n        IAccessControlConfig _accessControlConfig = IAccessControlConfig(bookKeeper.accessControlConfig());\n        require(\n            _accessControlConfig.hasRole(_accessControlConfig.OWNER_ROLE(), msg.sender) ||\n                _accessControlConfig.hasRole(_accessControlConfig.GOV_ROLE(), msg.sender),\n            \"!(ownerRole or govRole)\"\n        );\n        _;\n    }\n\n    function initialize(address _bookKeeper, address _systemDebtEngine) external initializer {\n        PausableUpgradeable.__Pausable_init();\n        ReentrancyGuardUpgradeable.__ReentrancyGuard_init();\n\n        require(_bookKeeper != address(0), \"StabilityFeeCollector/zero-book-keeper\");\n        bookKeeper = IBookKeeper(_bookKeeper);\n        \n        require(_systemDebtEngine != address(0), \"StabilityFeeCollector/bad-system-debt-engine-address\");\n        systemDebtEngine = _systemDebtEngine;\n    }\n    /// @dev access: OWNER_ROLE, GOV_ROLE\n    function pause() external override onlyOwnerOrGov {\n        _pause();\n    }\n    /// @dev access: OWNER_ROLE, GOV_ROLE\n    function unpause() external override onlyOwnerOrGov {\n        _unpause();\n    }\n\n    function setSystemDebtEngine(address _systemDebtEngine) external onlyOwner {\n        require(_systemDebtEngine != address(0), \"StabilityFeeCollector/bad-system-debt-engine-address\");\n        systemDebtEngine = _systemDebtEngine;\n        emit LogSetSystemDebtEngine(msg.sender, _systemDebtEngine);\n    }\n\n    /**\n     * @dev Collects the stability fee of the specified collateral pool.\n     * This function can be called by anyone.\n     * It updates the `debtAccumulatedRate` of the specified collateral pool based on\n     * the global and per-pool stability fee rates with respect to the last block that `collect` was called.\n     * @param _collateralPool Collateral pool ID for which to collect the stability fee.\n     * @return _debtAccumulatedRate Updated debtAccumulatedRate for the specified collateral pool.\n     */\n    function collect(bytes32 _collateralPool) external override whenNotPaused nonReentrant returns (uint256 _debtAccumulatedRate) {\n        _debtAccumulatedRate = _collect(_collateralPool);\n    }\n    /**\n     * @dev Internal function to collect the stability fee of the specified collateral pool.\n     * This function updates the `debtAccumulatedRate` of the specified collateral pool based on\n     * the global and per-pool stability fee rates with respect to the last block that `collect` was called.\n     * @param _collateralPoolId Collateral pool ID for which to collect the stability fee.\n     * @return _debtAccumulatedRate Updated debtAccumulatedRate for the specified collateral pool.\n     */\n    function _collect(bytes32 _collateralPoolId) internal returns (uint256 _debtAccumulatedRate) {\n        ICollateralPoolConfig _config = ICollateralPoolConfig(bookKeeper.collateralPoolConfig());\n        \n        uint256 _previousDebtAccumulatedRate = _config.getDebtAccumulatedRate(_collateralPoolId);\n        uint256 _stabilityFeeRate = _config.getStabilityFeeRate(_collateralPoolId);\n        uint256 _lastAccumulationTime = _config.getLastAccumulationTime(_collateralPoolId);\n        require(block.timestamp >= _lastAccumulationTime, \"StabilityFeeCollector/invalid-block.timestamp\");\n        require(systemDebtEngine != address(0), \"StabilityFeeCollector/system-debt-engine-not-set\");\n\n        _debtAccumulatedRate = rmul(rpow(_stabilityFeeRate, block.timestamp - _lastAccumulationTime, RAY), _previousDebtAccumulatedRate);\n\n        bookKeeper.accrueStabilityFee(_collateralPoolId, systemDebtEngine, diff(_debtAccumulatedRate, _previousDebtAccumulatedRate));\n        _config.updateLastAccumulationTime(_collateralPoolId);\n    }\n}\n",
    "sourcePath": "/Users/aleksey/SolidityProjects2/fathom-stablecoin-smart-contracts/contracts/main/stablecoin-core/StabilityFeeCollector.sol",
    "compiler": {
        "name": "solc",
        "version": "0.8.17+commit.8df45f5f.Emscripten.clang"
    },
    "schemaVersion": "3.4.15",
    "updatedAt": "2023-08-10T12:55:05.706Z",
    "devdoc": {
        "kind": "dev",
        "methods": {
            "collect(bytes32)": {
                "details": "Collects the stability fee of the specified collateral pool. This function can be called by anyone. It updates the `debtAccumulatedRate` of the specified collateral pool based on the global and per-pool stability fee rates with respect to the last block that `collect` was called.",
                "params": {
                    "_collateralPool": "Collateral pool ID for which to collect the stability fee."
                },
                "returns": {
                    "_debtAccumulatedRate": "Updated debtAccumulatedRate for the specified collateral pool."
                }
            },
            "pause()": {
                "details": "access: OWNER_ROLE, GOV_ROLE"
            },
            "paused()": {
                "details": "Returns true if the contract is paused, and false otherwise."
            },
            "unpause()": {
                "details": "access: OWNER_ROLE, GOV_ROLE"
            }
        },
        "title": "StabilityFeeCollector",
        "version": 1
    },
    "userdoc": {
        "kind": "user",
        "methods": {},
        "notice": "A contract that acts as a collector for the stability fee. The stability fee is a fee that is collected from the minter of Fathom Stablecoin on a per-seconds basis. This fee is accumulated in the system as a surplus to settle any bad debt. The contract is Pausable, meaning it can be paused by the owner or governance to prevent fee collection temporarily. Stability fees are collected for each collateral pool separately.",
        "version": 1
    }
}