{
  "contractName": "StableswapMultipleSwapsMock",
  "abi": [
    {
      "inputs": [
        {
          "internalType": "address",
          "name": "_stableswap",
          "type": "address"
        },
        {
          "internalType": "address",
          "name": "_token",
          "type": "address"
        },
        {
          "internalType": "uint256",
          "name": "_tokenAmount",
          "type": "uint256"
        }
      ],
      "name": "twoStablecoinToTokenSwapAtSameBlock",
      "outputs": [],
      "stateMutability": "nonpayable",
      "type": "function"
    },
    {
      "inputs": [
        {
          "internalType": "address",
          "name": "_stableswap",
          "type": "address"
        },
        {
          "internalType": "address",
          "name": "_token",
          "type": "address"
        },
        {
          "internalType": "uint256",
          "name": "_tokenAmount",
          "type": "uint256"
        }
      ],
      "name": "twoTokenToStablecoinSwapAtSameBlock",
      "outputs": [],
      "stateMutability": "nonpayable",
      "type": "function"
    }
  ],
  "bytecode": "0x608060405234801561001057600080fd5b50610747806100206000396000f3fe608060405234801561001057600080fd5b50600436106100365760003560e01c80639fc344991461003b578063faf4463c14610050575b600080fd5b61004e6100493660046105bc565b610063565b005b61004e61005e3660046105bc565b610312565b6001600160a01b0382166323b872dd333061007f8560046105f8565b6040516001600160e01b031960e086901b1681526001600160a01b03938416600482015292909116602483015260448201526064016020604051808303816000875af11580156100d3573d6000803e3d6000fd5b505050506040513d601f19601f820116820180604052508101906100f79190610623565b506001600160a01b03821663095ea7b3846101138460046105f8565b6040516001600160e01b031960e085901b1681526001600160a01b03909216600483015260248201526044016020604051808303816000875af115801561015e573d6000803e3d6000fd5b505050506040513d601f19601f820116820180604052508101906101829190610623565b506040513060248201526044810182905260009081906001600160a01b0386169060640160408051601f198184030181529181526020820180516001600160e01b03166381e28cc760e01b179052516101db9190610669565b6000604051808303816000865af19150503d8060008114610218576040519150601f19603f3d011682016040523d82523d6000602084013e61021d565b606091505b509150915061024582826040518060600160405280602c81526020016106b9602c913961054d565b506040513060248201526044810184905260009081906001600160a01b0388169060640160408051601f198184030181529181526020820180516001600160e01b03166381e28cc760e01b1790525161029e9190610669565b6000604051808303816000865af19150503d80600081146102db576040519150601f19603f3d011682016040523d82523d6000602084013e6102e0565b606091505b509150915061030882826040518060600160405280602d81526020016106e5602d913961054d565b5050505050505050565b6001600160a01b0382166323b872dd333061032e8560046105f8565b6040516001600160e01b031960e086901b1681526001600160a01b03938416600482015292909116602483015260448201526064016020604051808303816000875af1158015610382573d6000803e3d6000fd5b505050506040513d601f19601f820116820180604052508101906103a69190610623565b506001600160a01b03821663095ea7b3846103c28460046105f8565b6040516001600160e01b031960e085901b1681526001600160a01b03909216600483015260248201526044016020604051808303816000875af115801561040d573d6000803e3d6000fd5b505050506040513d601f19601f820116820180604052508101906104319190610623565b506040513060248201526044810182905260009081906001600160a01b0386169060640160408051601f198184030181529181526020820180516001600160e01b03166320429ee760e11b1790525161048a9190610669565b6000604051808303816000865af19150503d80600081146104c7576040519150601f19603f3d011682016040523d82523d6000602084013e6104cc565b606091505b50915091506104f482826040518060600160405280602c81526020016106b9602c913961054d565b506040513060248201526044810184905260009081906001600160a01b0388169060640160408051601f198184030181529181526020820180516001600160e01b03166320429ee760e11b1790525161029e9190610669565b6060831561055c575081610566565b610566838361056d565b9392505050565b81511561057d5781518083602001fd5b8060405162461bcd60e51b81526004016105979190610685565b60405180910390fd5b80356001600160a01b03811681146105b757600080fd5b919050565b6000806000606084860312156105d157600080fd5b6105da846105a0565b92506105e8602085016105a0565b9150604084013590509250925092565b808202811582820484141761061d57634e487b7160e01b600052601160045260246000fd5b92915050565b60006020828403121561063557600080fd5b8151801515811461056657600080fd5b60005b83811015610660578181015183820152602001610648565b50506000910152565b6000825161067b818460208701610645565b9190910192915050565b60208152600082518060208401526106a4816040850160208701610645565b601f01601f1916919091016040019291505056fe6e6f206572726f72206d65737361676520627562626c6564207570202d20666f7220666972737420737761706e6f206572726f72206d65737361676520627562626c6564207570202d20666f72207365636f6e642073776170a2646970667358221220fcaaed28784ce569fe21f2d095f95171b040d0df77be559bb2fc9ead36ee711f64736f6c63430008110033",
  "immutableReferences": {},
  "source": "// SPDX-License-Identifier: AGPL-3.0-or-later\npragma solidity 0.8.17;\nimport \"../main/interfaces/IStableSwapModule.sol\";\nimport \"@openzeppelin/contracts/token/ERC20/IERC20.sol\";\nimport \"@openzeppelin/contracts/utils/Address.sol\";\n\ncontract StableswapMultipleSwapsMock {\n    //@notice: A mock feature to test whether twoStableswaps can happen in same block.\n    //@notice: The decentralizedState in StableSwapModule.sol contract  must be true for this swap to fail\n    function twoStablecoinToTokenSwapAtSameBlock(address _stableswap, address _token, uint256 _tokenAmount) public {\n        IERC20(_token).transferFrom(msg.sender, address(this), 4 * _tokenAmount);\n        IERC20(_token).approve(_stableswap, 4 * _tokenAmount);\n        (bool success1, bytes memory result1) = _stableswap.call(\n            abi.encodeWithSignature(\"swapStablecoinToToken(address,uint256)\", address(this), _tokenAmount)\n        );\n        Address.verifyCallResult(success1, result1, \"no error message bubbled up - for first swap\");\n        (bool success2, bytes memory result2) = _stableswap.call(\n            abi.encodeWithSignature(\"swapStablecoinToToken(address,uint256)\", address(this), _tokenAmount)\n        );\n        Address.verifyCallResult(success2, result2, \"no error message bubbled up - for second swap\");\n    }\n\n    //@notice: A mock feature to test whether twoStableswaps can happen in same block.\n    //@notice: The decentralizedState in StableSwapModule.sol contract  must be true for this swap to fail\n    function twoTokenToStablecoinSwapAtSameBlock(address _stableswap, address _token, uint256 _tokenAmount) public {\n        IERC20(_token).transferFrom(msg.sender, address(this), 4 * _tokenAmount);\n        IERC20(_token).approve(_stableswap, 4 * _tokenAmount);\n        (bool success1, bytes memory result1) = _stableswap.call(\n            abi.encodeWithSignature(\"swapTokenToStablecoin(address,uint256)\", address(this), _tokenAmount)\n        );\n        Address.verifyCallResult(success1, result1, \"no error message bubbled up - for first swap\");\n        (bool success2, bytes memory result2) = _stableswap.call(\n            abi.encodeWithSignature(\"swapTokenToStablecoin(address,uint256)\", address(this), _tokenAmount)\n        );\n        Address.verifyCallResult(success2, result2, \"no error message bubbled up - for second swap\");\n    }\n}\n",
  "sourcePath": "/Users/aleksey/SolidityProjects2/fathom-stablecoin-smart-contracts/contracts/tests/StableswapMultipleSwapsMock.sol",
  "compiler": {
    "name": "solc",
    "version": "0.8.17+commit.8df45f5f.Emscripten.clang"
  },
  "schemaVersion": "3.4.15",
  "updatedAt": "2023-08-10T12:55:05.800Z",
  "devdoc": {
    "kind": "dev",
    "methods": {},
    "version": 1
  },
  "userdoc": {
    "kind": "user",
    "methods": {},
    "version": 1
  }
}