{
    "contractName": "SystemDebtEngine",
    "abi": [
        {
            "anonymous": false,
            "inputs": [
                {
                    "indexed": false,
                    "internalType": "uint8",
                    "name": "version",
                    "type": "uint8"
                }
            ],
            "name": "Initialized",
            "type": "event"
        },
        {
            "anonymous": false,
            "inputs": [],
            "name": "LogCage",
            "type": "event"
        },
        {
            "anonymous": false,
            "inputs": [
                {
                    "indexed": true,
                    "internalType": "address",
                    "name": "_caller",
                    "type": "address"
                },
                {
                    "indexed": false,
                    "internalType": "uint256",
                    "name": "_data",
                    "type": "uint256"
                }
            ],
            "name": "LogSetSurplusBuffer",
            "type": "event"
        },
        {
            "anonymous": false,
            "inputs": [
                {
                    "indexed": false,
                    "internalType": "address",
                    "name": "account",
                    "type": "address"
                }
            ],
            "name": "Paused",
            "type": "event"
        },
        {
            "anonymous": false,
            "inputs": [
                {
                    "indexed": false,
                    "internalType": "address",
                    "name": "account",
                    "type": "address"
                }
            ],
            "name": "Unpaused",
            "type": "event"
        },
        {
            "inputs": [],
            "name": "bookKeeper",
            "outputs": [
                {
                    "internalType": "contract IBookKeeper",
                    "name": "",
                    "type": "address"
                }
            ],
            "stateMutability": "view",
            "type": "function"
        },
        {
            "inputs": [],
            "name": "live",
            "outputs": [
                {
                    "internalType": "uint256",
                    "name": "",
                    "type": "uint256"
                }
            ],
            "stateMutability": "view",
            "type": "function"
        },
        {
            "inputs": [],
            "name": "paused",
            "outputs": [
                {
                    "internalType": "bool",
                    "name": "",
                    "type": "bool"
                }
            ],
            "stateMutability": "view",
            "type": "function"
        },
        {
            "inputs": [],
            "name": "surplusBuffer",
            "outputs": [
                {
                    "internalType": "uint256",
                    "name": "",
                    "type": "uint256"
                }
            ],
            "stateMutability": "view",
            "type": "function"
        },
        {
            "inputs": [
                {
                    "internalType": "address",
                    "name": "_bookKeeper",
                    "type": "address"
                }
            ],
            "name": "initialize",
            "outputs": [],
            "stateMutability": "nonpayable",
            "type": "function"
        },
        {
            "inputs": [
                {
                    "internalType": "bytes32",
                    "name": "_collateralPoolId",
                    "type": "bytes32"
                },
                {
                    "internalType": "address",
                    "name": "_to",
                    "type": "address"
                },
                {
                    "internalType": "uint256",
                    "name": "_amount",
                    "type": "uint256"
                }
            ],
            "name": "withdrawCollateralSurplus",
            "outputs": [],
            "stateMutability": "nonpayable",
            "type": "function"
        },
        {
            "inputs": [
                {
                    "internalType": "address",
                    "name": "_to",
                    "type": "address"
                },
                {
                    "internalType": "uint256",
                    "name": "_value",
                    "type": "uint256"
                }
            ],
            "name": "withdrawStablecoinSurplus",
            "outputs": [],
            "stateMutability": "nonpayable",
            "type": "function"
        },
        {
            "inputs": [
                {
                    "internalType": "uint256",
                    "name": "_data",
                    "type": "uint256"
                }
            ],
            "name": "setSurplusBuffer",
            "outputs": [],
            "stateMutability": "nonpayable",
            "type": "function"
        },
        {
            "inputs": [
                {
                    "internalType": "uint256",
                    "name": "_value",
                    "type": "uint256"
                }
            ],
            "name": "settleSystemBadDebt",
            "outputs": [],
            "stateMutability": "nonpayable",
            "type": "function"
        },
        {
            "inputs": [],
            "name": "cage",
            "outputs": [],
            "stateMutability": "nonpayable",
            "type": "function"
        },
        {
            "inputs": [],
            "name": "pause",
            "outputs": [],
            "stateMutability": "nonpayable",
            "type": "function"
        },
        {
            "inputs": [],
            "name": "unpause",
            "outputs": [],
            "stateMutability": "nonpayable",
            "type": "function"
        }
    ],
    "bytecode": "0x608060405234801561001057600080fd5b50611968806100206000396000f3fe608060405234801561001057600080fd5b50600436106100b45760003560e01c80638456cb59116100715780638456cb5914610123578063957aa58c1461012b5780639f476ee114610134578063c4d66de814610147578063e2e11f921461015a578063e3b3932a1461016d57600080fd5b80632a608d5b146100b95780633a153cad146100d55780633f4ba83a146100ea5780635c975abb146100f25780636924500914610108578063815110ec14610110575b600080fd5b6100c260985481565b6040519081526020015b60405180910390f35b6100e86100e3366004611764565b610198565b005b6100e86104d8565b60335460ff1660405190151581526020016100cc565b6100e861074d565b6100e861011e366004611790565b610b31565b6100e8610cfa565b6100c260995481565b6100e8610142366004611790565b610f6c565b6100e86101553660046117a9565b611186565b6100e86101683660046117cd565b611320565b609754610180906001600160a01b031681565b6040516001600160a01b0390911681526020016100cc565b6097546040805163c8cc243f60e01b815290516000926001600160a01b03169163c8cc243f9160048083019260209291908290030181865afa1580156101e2573d6000803e3d6000fd5b505050506040513d601f19601f820116820180604052508101906102069190611805565b9050806001600160a01b03166391d14854826001600160a01b031663e58378bb6040518163ffffffff1660e01b8152600401602060405180830381865afa158015610255573d6000803e3d6000fd5b505050506040513d601f19601f820116820180604052508101906102799190611822565b6040516001600160e01b031960e084901b1681526004810191909152336024820152604401602060405180830381865afa1580156102bb573d6000803e3d6000fd5b505050506040513d601f19601f820116820180604052508101906102df919061183b565b6103045760405162461bcd60e51b81526004016102fb9061185d565b60405180910390fd5b60975460405163e137ddc560e01b81523060048201526001600160a01b039091169063e137ddc590602401602060405180830381865afa15801561034c573d6000803e3d6000fd5b505050506040513d601f19601f820116820180604052508101906103709190611822565b156103d05760405162461bcd60e51b815260206004820152602a60248201527f53797374656d44656274456e67696e652f73797374656d2d6261642d646562746044820152692d72656d61696e696e6760b01b60648201526084016102fb565b60985460975460405163b4ac08bb60e01b815230600482015284916001600160a01b03169063b4ac08bb90602401602060405180830381865afa15801561041b573d6000803e3d6000fd5b505050506040513d601f19601f8201168201806040525081019061043f9190611822565b6104499190611881565b10156104675760405162461bcd60e51b81526004016102fb906118a2565b6097546040516323055e1560e21b81523060048201526001600160a01b0385811660248301526044820185905290911690638c15785490606401600060405180830381600087803b1580156104bb57600080fd5b505af11580156104cf573d6000803e3d6000fd5b50505050505050565b6097546040805163c8cc243f60e01b815290516000926001600160a01b03169163c8cc243f9160048083019260209291908290030181865afa158015610522573d6000803e3d6000fd5b505050506040513d601f19601f820116820180604052508101906105469190611805565b9050806001600160a01b03166391d14854826001600160a01b031663e58378bb6040518163ffffffff1660e01b8152600401602060405180830381865afa158015610595573d6000803e3d6000fd5b505050506040513d601f19601f820116820180604052508101906105b99190611822565b6040516001600160e01b031960e084901b1681526004810191909152336024820152604401602060405180830381865afa1580156105fb573d6000803e3d6000fd5b505050506040513d601f19601f8201168201806040525081019061061f919061183b565b806106fc5750806001600160a01b03166391d14854826001600160a01b031663b536818a6040518163ffffffff1660e01b8152600401602060405180830381865afa158015610672573d6000803e3d6000fd5b505050506040513d601f19601f820116820180604052508101906106969190611822565b6040516001600160e01b031960e084901b1681526004810191909152336024820152604401602060405180830381865afa1580156106d8573d6000803e3d6000fd5b505050506040513d601f19601f820116820180604052508101906106fc919061183b565b6107425760405162461bcd60e51b815260206004820152601760248201527621286f776e6572526f6c65206f7220676f76526f6c652960481b60448201526064016102fb565b61074a6114fc565b50565b6097546040805163c8cc243f60e01b815290516000926001600160a01b03169163c8cc243f9160048083019260209291908290030181865afa158015610797573d6000803e3d6000fd5b505050506040513d601f19601f820116820180604052508101906107bb9190611805565b9050806001600160a01b03166391d14854826001600160a01b031663e58378bb6040518163ffffffff1660e01b8152600401602060405180830381865afa15801561080a573d6000803e3d6000fd5b505050506040513d601f19601f8201168201806040525081019061082e9190611822565b6040516001600160e01b031960e084901b1681526004810191909152336024820152604401602060405180830381865afa158015610870573d6000803e3d6000fd5b505050506040513d601f19601f82011682018060405250810190610894919061183b565b806109715750806001600160a01b03166391d14854826001600160a01b031663d7a47a696040518163ffffffff1660e01b8152600401602060405180830381865afa1580156108e7573d6000803e3d6000fd5b505050506040513d601f19601f8201168201806040525081019061090b9190611822565b6040516001600160e01b031960e084901b1681526004810191909152336024820152604401602060405180830381865afa15801561094d573d6000803e3d6000fd5b505050506040513d601f19601f82011682018060405250810190610971919061183b565b6109bd5760405162461bcd60e51b815260206004820152601f60248201527f21286f776e6572526f6c65206f722073686f7753746f70706572526f6c65290060448201526064016102fb565b60995460010361074a57600060995560975460405163b4ac08bb60e01b81523060048201526001600160a01b039091169063815110ec90610ab590839063b4ac08bb90602401602060405180830381865afa158015610a20573d6000803e3d6000fd5b505050506040513d601f19601f82011682018060405250810190610a449190611822565b60975460405163e137ddc560e01b81523060048201526001600160a01b039091169063e137ddc590602401602060405180830381865afa158015610a8c573d6000803e3d6000fd5b505050506040513d601f19601f82011682018060405250810190610ab09190611822565b61154e565b6040518263ffffffff1660e01b8152600401610ad391815260200190565b600060405180830381600087803b158015610aed57600080fd5b505af1158015610b01573d6000803e3d6000fd5b50506040517fbf689b4aae670d200b1d2b971ace2e0c3bef88a9c5e93f36705c7b86eab630b9925060009150a150565b610b39611569565b610b416115b1565b60975460405163b4ac08bb60e01b81523060048201526001600160a01b039091169063b4ac08bb90602401602060405180830381865afa158015610b89573d6000803e3d6000fd5b505050506040513d601f19601f82011682018060405250810190610bad9190611822565b811115610bcc5760405162461bcd60e51b81526004016102fb906118a2565b60975460405163e137ddc560e01b81523060048201526001600160a01b039091169063e137ddc590602401602060405180830381865afa158015610c14573d6000803e3d6000fd5b505050506040513d601f19601f82011682018060405250810190610c389190611822565b811115610c925760405162461bcd60e51b815260206004820152602260248201527f53797374656d44656274456e67696e652f696e73756666696369656e742d6465604482015261189d60f21b60648201526084016102fb565b609754604051632054443b60e21b8152600481018390526001600160a01b039091169063815110ec90602401600060405180830381600087803b158015610cd857600080fd5b505af1158015610cec573d6000803e3d6000fd5b5050505061074a6001606555565b6097546040805163c8cc243f60e01b815290516000926001600160a01b03169163c8cc243f9160048083019260209291908290030181865afa158015610d44573d6000803e3d6000fd5b505050506040513d601f19601f82011682018060405250810190610d689190611805565b9050806001600160a01b03166391d14854826001600160a01b031663e58378bb6040518163ffffffff1660e01b8152600401602060405180830381865afa158015610db7573d6000803e3d6000fd5b505050506040513d601f19601f82011682018060405250810190610ddb9190611822565b6040516001600160e01b031960e084901b1681526004810191909152336024820152604401602060405180830381865afa158015610e1d573d6000803e3d6000fd5b505050506040513d601f19601f82011682018060405250810190610e41919061183b565b80610f1e5750806001600160a01b03166391d14854826001600160a01b031663b536818a6040518163ffffffff1660e01b8152600401602060405180830381865afa158015610e94573d6000803e3d6000fd5b505050506040513d601f19601f82011682018060405250810190610eb89190611822565b6040516001600160e01b031960e084901b1681526004810191909152336024820152604401602060405180830381865afa158015610efa573d6000803e3d6000fd5b505050506040513d601f19601f82011682018060405250810190610f1e919061183b565b610f645760405162461bcd60e51b815260206004820152601760248201527621286f776e6572526f6c65206f7220676f76526f6c652960481b60448201526064016102fb565b61074a611611565b610f74611569565b6097546040805163c8cc243f60e01b815290516000926001600160a01b03169163c8cc243f9160048083019260209291908290030181865afa158015610fbe573d6000803e3d6000fd5b505050506040513d601f19601f82011682018060405250810190610fe29190611805565b9050806001600160a01b03166391d14854826001600160a01b031663e58378bb6040518163ffffffff1660e01b8152600401602060405180830381865afa158015611031573d6000803e3d6000fd5b505050506040513d601f19601f820116820180604052508101906110559190611822565b6040516001600160e01b031960e084901b1681526004810191909152336024820152604401602060405180830381865afa158015611097573d6000803e3d6000fd5b505050506040513d601f19601f820116820180604052508101906110bb919061183b565b6110d75760405162461bcd60e51b81526004016102fb9061185d565b722cd76fe086b93ce2f768a00b22a000000000008210156111485760405162461bcd60e51b815260206004820152602560248201527f53797374656d44656274456e67696e652f696e76616c6964537572706c7573426044820152643ab33332b960d91b60648201526084016102fb565b609882905560405182815233907feaca31db5ec55952725e2af54ff43f309aaf27d51c896d4d7e8ffae6e30854019060200160405180910390a25050565b600054610100900460ff16158080156111a65750600054600160ff909116105b806111c05750303b1580156111c0575060005460ff166001145b6112235760405162461bcd60e51b815260206004820152602e60248201527f496e697469616c697a61626c653a20636f6e747261637420697320616c72656160448201526d191e481a5b9a5d1a585b1a5e995960921b60648201526084016102fb565b6000805460ff191660011790558015611246576000805461ff0019166101001790555b61124e61164e565b61125661167d565b6001600160a01b0382166112b65760405162461bcd60e51b815260206004820152602160248201527f53797374656d44656274456e67696e652f7a65726f2d626f6f6b2d6b656570656044820152603960f91b60648201526084016102fb565b609780546001600160a01b0319166001600160a01b0384161790556001609955801561131c576000805461ff0019169055604051600181527f7f26b83ff96e1f2b6a682f133852f6798a09c465da95921460cefb38474024989060200160405180910390a15b5050565b6097546040805163c8cc243f60e01b815290516000926001600160a01b03169163c8cc243f9160048083019260209291908290030181865afa15801561136a573d6000803e3d6000fd5b505050506040513d601f19601f8201168201806040525081019061138e9190611805565b9050806001600160a01b03166391d14854826001600160a01b031663e58378bb6040518163ffffffff1660e01b8152600401602060405180830381865afa1580156113dd573d6000803e3d6000fd5b505050506040513d601f19601f820116820180604052508101906114019190611822565b6040516001600160e01b031960e084901b1681526004810191909152336024820152604401602060405180830381865afa158015611443573d6000803e3d6000fd5b505050506040513d601f19601f82011682018060405250810190611467919061183b565b6114835760405162461bcd60e51b81526004016102fb9061185d565b60975460405163b5d9932960e01b8152600481018690523060248201526001600160a01b038581166044830152606482018590529091169063b5d9932990608401600060405180830381600087803b1580156114de57600080fd5b505af11580156114f2573d6000803e3d6000fd5b5050505050505050565b6115046116ac565b6033805460ff191690557f5db9ee0a495bf2e6ff9c91a7834c1ba4fdd244a5e8aa4e537bd38aeae4b073aa335b6040516001600160a01b03909116815260200160405180910390a1565b60008183111561155e5781611560565b825b90505b92915050565b60335460ff16156115af5760405162461bcd60e51b815260206004820152601060248201526f14185d5cd8589b194e881c185d5cd95960821b60448201526064016102fb565b565b6002606554036116035760405162461bcd60e51b815260206004820152601f60248201527f5265656e7472616e637947756172643a207265656e7472616e742063616c6c0060448201526064016102fb565b6002606555565b6001606555565b611619611569565b6033805460ff191660011790557f62e78cea01bee320cd4e420270b5ea74000d11b0c9f74754ebdbfc544b05a2586115313390565b600054610100900460ff166116755760405162461bcd60e51b81526004016102fb906118e7565b6115af6116f5565b600054610100900460ff166116a45760405162461bcd60e51b81526004016102fb906118e7565b6115af611728565b60335460ff166115af5760405162461bcd60e51b815260206004820152601460248201527314185d5cd8589b194e881b9bdd081c185d5cd95960621b60448201526064016102fb565b600054610100900460ff1661171c5760405162461bcd60e51b81526004016102fb906118e7565b6033805460ff19169055565b600054610100900460ff1661160a5760405162461bcd60e51b81526004016102fb906118e7565b6001600160a01b038116811461074a57600080fd5b6000806040838503121561177757600080fd5b82356117828161174f565b946020939093013593505050565b6000602082840312156117a257600080fd5b5035919050565b6000602082840312156117bb57600080fd5b81356117c68161174f565b9392505050565b6000806000606084860312156117e257600080fd5b8335925060208401356117f48161174f565b929592945050506040919091013590565b60006020828403121561181757600080fd5b81516117c68161174f565b60006020828403121561183457600080fd5b5051919050565b60006020828403121561184d57600080fd5b815180151581146117c657600080fd5b6020808252600a9082015269216f776e6572526f6c6560b01b604082015260600190565b8181038181111561156357634e487b7160e01b600052601160045260246000fd5b60208082526025908201527f53797374656d44656274456e67696e652f696e73756666696369656e742d737560408201526472706c757360d81b606082015260800190565b6020808252602b908201527f496e697469616c697a61626c653a20636f6e7472616374206973206e6f74206960408201526a6e697469616c697a696e6760a81b60608201526080019056fea2646970667358221220e6029c7f7146ead1250902d95bc7a5ca11cf9a9b198b8c4c958f515e26caca7064736f6c63430008110033",
    "immutableReferences": {},
    "source": "// SPDX-License-Identifier: AGPL-3.0-or-later\npragma solidity 0.8.17;\n\nimport \"@openzeppelin/contracts-upgradeable/security/PausableUpgradeable.sol\";\nimport \"@openzeppelin/contracts-upgradeable/security/ReentrancyGuardUpgradeable.sol\";\n\nimport \"../interfaces/IBookKeeper.sol\";\nimport \"../interfaces/ISystemDebtEngine.sol\";\nimport \"../interfaces/IGenericTokenAdapter.sol\";\nimport \"../interfaces/ICagable.sol\";\nimport \"../interfaces/IPausable.sol\";\nimport \"../utils/CommonMath.sol\";\n\n/**\n * @title SystemDebtEngine\n * @notice A contract that manages the bad debt and surplus of the system.\n * The SystemDebtEngine acts as the debitor or debtor when a position is liquidated.\n * The debt recorded in the name of SystemDebtEngine will be considered as system bad debt unless it is cleared by liquidation.\n * The stability fee will be accrued and kept within the SystemDebtEngine, which acts as the holder of the surplus and uses it to settle bad debt.\n * The contract is Pausable, meaning it can be paused by the owner or governance to temporarily prevent certain actions.\n * It is also protected against reentrancy attacks using the ReentrancyGuard modifier.\n * The contract has an active flag, live, which allows for system shutdown.\n */\n\ncontract SystemDebtEngine is CommonMath, PausableUpgradeable, ReentrancyGuardUpgradeable, ISystemDebtEngine, ICagable, IPausable {\n    IBookKeeper public bookKeeper; // CDP Engine\n    uint256 public override surplusBuffer; // Surplus buffer         [rad]\n    uint256 public live; // Active Flag\n\n    event LogSetSurplusBuffer(address indexed _caller, uint256 _data);\n\n    modifier onlyOwner() {\n        IAccessControlConfig _accessControlConfig = IAccessControlConfig(bookKeeper.accessControlConfig());\n        require(_accessControlConfig.hasRole(_accessControlConfig.OWNER_ROLE(), msg.sender), \"!ownerRole\");\n        _;\n    }\n\n    modifier onlyOwnerOrGov() {\n        IAccessControlConfig _accessControlConfig = IAccessControlConfig(bookKeeper.accessControlConfig());\n        require(\n            _accessControlConfig.hasRole(_accessControlConfig.OWNER_ROLE(), msg.sender) ||\n                _accessControlConfig.hasRole(_accessControlConfig.GOV_ROLE(), msg.sender),\n            \"!(ownerRole or govRole)\"\n        );\n        _;\n    }\n\n    modifier onlyOwnerOrShowStopper() {\n        IAccessControlConfig _accessControlConfig = IAccessControlConfig(bookKeeper.accessControlConfig());\n        require(\n            _accessControlConfig.hasRole(_accessControlConfig.OWNER_ROLE(), msg.sender) ||\n                _accessControlConfig.hasRole(_accessControlConfig.SHOW_STOPPER_ROLE(), msg.sender),\n            \"!(ownerRole or showStopperRole)\"\n        );\n        _;\n    }\n\n    function initialize(address _bookKeeper) external initializer {\n        PausableUpgradeable.__Pausable_init();\n        ReentrancyGuardUpgradeable.__ReentrancyGuard_init();\n\n        require(_bookKeeper != address(0), \"SystemDebtEngine/zero-book-keeper\");\n        bookKeeper = IBookKeeper(_bookKeeper);\n        live = 1;\n    }\n    /**\n    * @notice Withdraw collateral surplus from a collateral pool\n    * @dev This function allows the contract owner to withdraw a surplus amount of collateral from a specific collateral pool.\n    *      The surplus is the excess collateral that is not currently being used as collateral for any outstanding debt.\n    * @param _collateralPoolId The identifier of the collateral pool from which the surplus collateral will be withdrawn.\n    * @param _to The address to which the surplus collateral will be transferred.\n    * @param _amount The amount of surplus collateral to be withdrawn. [wad] \n    * @dev Reverts if the caller is not the contract owner.\n    */\n    function withdrawCollateralSurplus(\n        bytes32 _collateralPoolId,\n        address _to,\n        uint256 _amount // [wad]\n    ) external onlyOwner {\n        bookKeeper.moveCollateral(_collateralPoolId, address(this), _to, _amount);\n    }\n    /**\n    * @notice Withdraw stablecoin surplus from the SystemDebtEngine\n    * @dev This function allows the contract owner to withdraw a surplus amount of stablecoin from the SystemDebtEngine.\n    *      The surplus is the excess stablecoin that is not currently being used to settle bad debt.\n    *      Before withdrawing the surplus, the function checks that there is no remaining system bad debt.\n    *      Additionally, the function ensures that after the withdrawal, the remaining stablecoin balance in the SystemDebtEngine\n    *      is greater than or equal to the defined surplus buffer.\n    * @param _to The address to which the surplus stablecoin will be transferred.\n    * @param _value The amount of surplus stablecoin to be withdrawn.\n    * @dev Reverts if the caller is not the contract owner or if the system bad debt is still remaining.\n    *      Also reverts if the remaining stablecoin balance after withdrawal would be less than the surplus buffer.\n    */\n    function withdrawStablecoinSurplus(address _to, uint256 _value) external onlyOwner {\n        require(bookKeeper.systemBadDebt(address(this)) == 0, \"SystemDebtEngine/system-bad-debt-remaining\");\n        require(bookKeeper.stablecoin(address(this)) - _value >= surplusBuffer, \"SystemDebtEngine/insufficient-surplus\");\n        bookKeeper.moveStablecoin(address(this), _to, _value);\n    }\n    /**\n    * @notice Set the surplus buffer\n    * @dev This function is used to set the surplus buffer, which represents the minimum amount of surplus stablecoin\n    *      that should be maintained in the SystemDebtEngine.\n    * @param _data The new value for the surplus buffer.\n    * @dev Reverts if the provided surplus buffer value is less than 10^45.\n    *      The surplus buffer should be set to a value large enough to cover potential bad debt settlements.\n    *      It acts as a safety measure to ensure the system remains solvent.\n    */\n    function setSurplusBuffer(uint256 _data) external whenNotPaused onlyOwner {\n        require(_data >= 10 ** 45, \"SystemDebtEngine/invalidSurplusBuffer\");\n        surplusBuffer = _data;\n        emit LogSetSurplusBuffer(msg.sender, _data);\n    }\n\n    /**\n     * @notice Settle system bad debt as SystemDebtEngine.\n     * This function could be called by anyone to settle the system bad debt when there is available surplus.\n     * The stablecoin held by SystemDebtEngine (which is the surplus) will be deducted to compensate the incurred bad debt.\n     * @param _value The amount of stablecoin to be used for settling the bad debt. \n     * @dev This function allows the system to settle its bad debt using the available surplus. \n     *      It requires that the caller passes an amount of stablecoin they want to use for settling the debt.\n     *      If the available surplus is sufficient, the specified amount of stablecoin is deducted from the surplus, \n     *      and the corresponding bad debt is settled. \n     *      If the surplus is not enough to cover the specified amount of debt, the function will revert.\n     *      It is essential to settle bad debt to maintain the stability and integrity of the system.\n     */\n    function settleSystemBadDebt(uint256 _value) external override whenNotPaused nonReentrant {\n        require(_value <= bookKeeper.stablecoin(address(this)), \"SystemDebtEngine/insufficient-surplus\");\n        require(_value <= bookKeeper.systemBadDebt(address(this)), \"SystemDebtEngine/insufficient-debt\");\n        bookKeeper.settleSystemBadDebt(_value);\n    }\n    /**\n     * @notice Enable the contract for the emergency shutdown\n     * @dev This function is used to stop the operation of the contract for the emergency shutdown.\n     *      It can be called by the contract owner or a role designated as 'ShowStopper'.\n     *      If the contract is live (active), the function will deactivate the contract and stop its operations. \n     *      Before shutting down, the function attempts to settle any existing bad debt using available surplus. \n     *      After successful shutdown, the contract will no longer perform its functions until it is uncaged.\n     */\n    function cage() external override onlyOwnerOrShowStopper {\n        if (live == 1) {\n            live = 0;\n            bookKeeper.settleSystemBadDebt(min(bookKeeper.stablecoin(address(this)), bookKeeper.systemBadDebt(address(this))));\n            emit LogCage();\n        }\n    }\n    /// @dev access: OWNER_ROLE, GOV_ROLE\n    function pause() external override onlyOwnerOrGov {\n        _pause();\n    }\n    /// @dev access: OWNER_ROLE, GOV_ROLE\n    function unpause() external override onlyOwnerOrGov {\n        _unpause();\n    }\n}\n",
    "sourcePath": "/Users/aleksey/SolidityProjects2/fathom-stablecoin-smart-contracts/contracts/main/stablecoin-core/SystemDebtEngine.sol",
    "compiler": {
        "name": "solc",
        "version": "0.8.17+commit.8df45f5f.Emscripten.clang"
    },
    "schemaVersion": "3.4.15",
    "updatedAt": "2023-08-10T12:55:05.731Z",
    "devdoc": {
        "kind": "dev",
        "methods": {
            "cage()": {
                "details": "This function is used to stop the operation of the contract for the emergency shutdown.      It can be called by the contract owner or a role designated as 'ShowStopper'.      If the contract is live (active), the function will deactivate the contract and stop its operations.       Before shutting down, the function attempts to settle any existing bad debt using available surplus.       After successful shutdown, the contract will no longer perform its functions until it is uncaged."
            },
            "pause()": {
                "details": "access: OWNER_ROLE, GOV_ROLE"
            },
            "paused()": {
                "details": "Returns true if the contract is paused, and false otherwise."
            },
            "setSurplusBuffer(uint256)": {
                "details": "This function is used to set the surplus buffer, which represents the minimum amount of surplus stablecoin      that should be maintained in the SystemDebtEngine.Reverts if the provided surplus buffer value is less than 10^45.      The surplus buffer should be set to a value large enough to cover potential bad debt settlements.      It acts as a safety measure to ensure the system remains solvent.",
                "params": {
                    "_data": "The new value for the surplus buffer."
                }
            },
            "settleSystemBadDebt(uint256)": {
                "details": "This function allows the system to settle its bad debt using the available surplus.       It requires that the caller passes an amount of stablecoin they want to use for settling the debt.      If the available surplus is sufficient, the specified amount of stablecoin is deducted from the surplus,       and the corresponding bad debt is settled.       If the surplus is not enough to cover the specified amount of debt, the function will revert.      It is essential to settle bad debt to maintain the stability and integrity of the system.",
                "params": {
                    "_value": "The amount of stablecoin to be used for settling the bad debt. "
                }
            },
            "unpause()": {
                "details": "access: OWNER_ROLE, GOV_ROLE"
            },
            "withdrawCollateralSurplus(bytes32,address,uint256)": {
                "details": "This function allows the contract owner to withdraw a surplus amount of collateral from a specific collateral pool.      The surplus is the excess collateral that is not currently being used as collateral for any outstanding debt.Reverts if the caller is not the contract owner.",
                "params": {
                    "_amount": "The amount of surplus collateral to be withdrawn. [wad] ",
                    "_collateralPoolId": "The identifier of the collateral pool from which the surplus collateral will be withdrawn.",
                    "_to": "The address to which the surplus collateral will be transferred."
                }
            },
            "withdrawStablecoinSurplus(address,uint256)": {
                "details": "This function allows the contract owner to withdraw a surplus amount of stablecoin from the SystemDebtEngine.      The surplus is the excess stablecoin that is not currently being used to settle bad debt.      Before withdrawing the surplus, the function checks that there is no remaining system bad debt.      Additionally, the function ensures that after the withdrawal, the remaining stablecoin balance in the SystemDebtEngine      is greater than or equal to the defined surplus buffer.Reverts if the caller is not the contract owner or if the system bad debt is still remaining.      Also reverts if the remaining stablecoin balance after withdrawal would be less than the surplus buffer.",
                "params": {
                    "_to": "The address to which the surplus stablecoin will be transferred.",
                    "_value": "The amount of surplus stablecoin to be withdrawn."
                }
            }
        },
        "title": "SystemDebtEngine",
        "version": 1
    },
    "userdoc": {
        "kind": "user",
        "methods": {
            "cage()": {
                "notice": "Enable the contract for the emergency shutdown"
            },
            "setSurplusBuffer(uint256)": {
                "notice": "Set the surplus buffer"
            },
            "settleSystemBadDebt(uint256)": {
                "notice": "Settle system bad debt as SystemDebtEngine. This function could be called by anyone to settle the system bad debt when there is available surplus. The stablecoin held by SystemDebtEngine (which is the surplus) will be deducted to compensate the incurred bad debt."
            },
            "withdrawCollateralSurplus(bytes32,address,uint256)": {
                "notice": "Withdraw collateral surplus from a collateral pool"
            },
            "withdrawStablecoinSurplus(address,uint256)": {
                "notice": "Withdraw stablecoin surplus from the SystemDebtEngine"
            }
        },
        "notice": "A contract that manages the bad debt and surplus of the system. The SystemDebtEngine acts as the debitor or debtor when a position is liquidated. The debt recorded in the name of SystemDebtEngine will be considered as system bad debt unless it is cleared by liquidation. The stability fee will be accrued and kept within the SystemDebtEngine, which acts as the holder of the surplus and uses it to settle bad debt. The contract is Pausable, meaning it can be paused by the owner or governance to temporarily prevent certain actions. It is also protected against reentrancy attacks using the ReentrancyGuard modifier. The contract has an active flag, live, which allows for system shutdown.",
        "version": 1
    }
}