{
  "contractName": "TokenAdapter",
  "abi": [
    {
      "anonymous": false,
      "inputs": [
        {
          "indexed": false,
          "internalType": "uint8",
          "name": "version",
          "type": "uint8"
        }
      ],
      "name": "Initialized",
      "type": "event"
    },
    {
      "anonymous": false,
      "inputs": [],
      "name": "LogCage",
      "type": "event"
    },
    {
      "anonymous": false,
      "inputs": [
        {
          "indexed": false,
          "internalType": "address",
          "name": "account",
          "type": "address"
        }
      ],
      "name": "Paused",
      "type": "event"
    },
    {
      "anonymous": false,
      "inputs": [
        {
          "indexed": false,
          "internalType": "address",
          "name": "account",
          "type": "address"
        }
      ],
      "name": "Unpaused",
      "type": "event"
    },
    {
      "inputs": [],
      "name": "bookKeeper",
      "outputs": [
        {
          "internalType": "contract IBookKeeper",
          "name": "",
          "type": "address"
        }
      ],
      "stateMutability": "view",
      "type": "function"
    },
    {
      "inputs": [],
      "name": "collateralPoolId",
      "outputs": [
        {
          "internalType": "bytes32",
          "name": "",
          "type": "bytes32"
        }
      ],
      "stateMutability": "view",
      "type": "function"
    },
    {
      "inputs": [],
      "name": "collateralToken",
      "outputs": [
        {
          "internalType": "address",
          "name": "",
          "type": "address"
        }
      ],
      "stateMutability": "view",
      "type": "function"
    },
    {
      "inputs": [],
      "name": "decimals",
      "outputs": [
        {
          "internalType": "uint256",
          "name": "",
          "type": "uint256"
        }
      ],
      "stateMutability": "view",
      "type": "function"
    },
    {
      "inputs": [],
      "name": "live",
      "outputs": [
        {
          "internalType": "uint256",
          "name": "",
          "type": "uint256"
        }
      ],
      "stateMutability": "view",
      "type": "function"
    },
    {
      "inputs": [],
      "name": "paused",
      "outputs": [
        {
          "internalType": "bool",
          "name": "",
          "type": "bool"
        }
      ],
      "stateMutability": "view",
      "type": "function"
    },
    {
      "inputs": [
        {
          "internalType": "address",
          "name": "_bookKeeper",
          "type": "address"
        },
        {
          "internalType": "bytes32",
          "name": "collateralPoolId_",
          "type": "bytes32"
        },
        {
          "internalType": "address",
          "name": "collateralToken_",
          "type": "address"
        }
      ],
      "name": "initialize",
      "outputs": [],
      "stateMutability": "nonpayable",
      "type": "function"
    },
    {
      "inputs": [],
      "name": "cage",
      "outputs": [],
      "stateMutability": "nonpayable",
      "type": "function"
    },
    {
      "inputs": [
        {
          "internalType": "address",
          "name": "usr",
          "type": "address"
        },
        {
          "internalType": "uint256",
          "name": "wad",
          "type": "uint256"
        },
        {
          "internalType": "bytes",
          "name": "",
          "type": "bytes"
        }
      ],
      "name": "deposit",
      "outputs": [],
      "stateMutability": "nonpayable",
      "type": "function"
    },
    {
      "inputs": [
        {
          "internalType": "address",
          "name": "usr",
          "type": "address"
        },
        {
          "internalType": "uint256",
          "name": "wad",
          "type": "uint256"
        },
        {
          "internalType": "bytes",
          "name": "",
          "type": "bytes"
        }
      ],
      "name": "withdraw",
      "outputs": [],
      "stateMutability": "nonpayable",
      "type": "function"
    },
    {
      "inputs": [
        {
          "internalType": "address",
          "name": "_to",
          "type": "address"
        }
      ],
      "name": "emergencyWithdraw",
      "outputs": [],
      "stateMutability": "nonpayable",
      "type": "function"
    },
    {
      "inputs": [],
      "name": "pause",
      "outputs": [],
      "stateMutability": "nonpayable",
      "type": "function"
    },
    {
      "inputs": [],
      "name": "unpause",
      "outputs": [],
      "stateMutability": "nonpayable",
      "type": "function"
    }
  ],
  "bytecode": "0x608060405234801561001057600080fd5b50611647806100206000396000f3fe608060405234801561001057600080fd5b50600436106100cf5760003560e01c80636ff1c9bc1161008c578063b2016bd411610066578063b2016bd414610162578063d26b3e6e1461018d578063dca07dc5146101a0578063e3b3932a146101a957600080fd5b80636ff1c9bc1461013e5780638456cb5914610151578063957aa58c1461015957600080fd5b8063313ce567146100d457806331f09265146100f05780633f4ba83a1461010557806349bdc2b81461010d5780635c975abb146101205780636924500914610136575b600080fd5b6100dd609a5481565b6040519081526020015b60405180910390f35b6101036100fe366004611403565b6101bc565b005b6101036102cc565b61010361011b366004611403565b610541565b60335460ff1660405190151581526020016100e7565b61010361066e565b61010361014c36600461148c565b610919565b610103610a50565b6100dd609b5481565b609954610175906001600160a01b031681565b6040516001600160a01b0390911681526020016100e7565b61010361019b3660046114b0565b610cc2565b6100dd60985481565b609754610175906001600160a01b031681565b6101c4610ecb565b6101cc610f24565b600160ff1b831061021c5760405162461bcd60e51b8152602060048201526015602482015274546f6b656e416461707465722f6f766572666c6f7760581b60448201526064015b60405180910390fd5b6097546098546001600160a01b039091169063d295927a903361023e876114f2565b6040516001600160e01b031960e086901b16815260048101939093526001600160a01b0390911660248301526044820152606401600060405180830381600087803b15801561028c57600080fd5b505af11580156102a0573d6000803e3d6000fd5b50506099546102bc92506001600160a01b031690508585610f6c565b6102c66001606555565b50505050565b6097546040805163c8cc243f60e01b815290516000926001600160a01b03169163c8cc243f9160048083019260209291908290030181865afa158015610316573d6000803e3d6000fd5b505050506040513d601f19601f8201168201806040525081019061033a919061151c565b9050806001600160a01b03166391d14854826001600160a01b031663e58378bb6040518163ffffffff1660e01b8152600401602060405180830381865afa158015610389573d6000803e3d6000fd5b505050506040513d601f19601f820116820180604052508101906103ad9190611539565b6040516001600160e01b031960e084901b1681526004810191909152336024820152604401602060405180830381865afa1580156103ef573d6000803e3d6000fd5b505050506040513d601f19601f820116820180604052508101906104139190611552565b806104f05750806001600160a01b03166391d14854826001600160a01b031663b536818a6040518163ffffffff1660e01b8152600401602060405180830381865afa158015610466573d6000803e3d6000fd5b505050506040513d601f19601f8201168201806040525081019061048a9190611539565b6040516001600160e01b031960e084901b1681526004810191909152336024820152604401602060405180830381865afa1580156104cc573d6000803e3d6000fd5b505050506040513d601f19601f820116820180604052508101906104f09190611552565b6105365760405162461bcd60e51b815260206004820152601760248201527621286f776e6572526f6c65206f7220676f76526f6c652960481b6044820152606401610213565b61053e6110e0565b50565b610549610ecb565b610551610f24565b609b5460011461059b5760405162461bcd60e51b8152602060048201526015602482015274546f6b656e416461707465722f6e6f742d6c69766560581b6044820152606401610213565b60008312156105e45760405162461bcd60e51b8152602060048201526015602482015274546f6b656e416461707465722f6f766572666c6f7760581b6044820152606401610213565b60975460985460405163694ac93d60e11b815260048101919091526001600160a01b038681166024830152604482018690529091169063d295927a90606401600060405180830381600087803b15801561063d57600080fd5b505af1158015610651573d6000803e3d6000fd5b50506099546102bc92506001600160a01b03169050333086611132565b6097546040805163c8cc243f60e01b815290516000926001600160a01b03169163c8cc243f9160048083019260209291908290030181865afa1580156106b8573d6000803e3d6000fd5b505050506040513d601f19601f820116820180604052508101906106dc919061151c565b9050806001600160a01b03166391d14854826001600160a01b031663e58378bb6040518163ffffffff1660e01b8152600401602060405180830381865afa15801561072b573d6000803e3d6000fd5b505050506040513d601f19601f8201168201806040525081019061074f9190611539565b6040516001600160e01b031960e084901b1681526004810191909152336024820152604401602060405180830381865afa158015610791573d6000803e3d6000fd5b505050506040513d601f19601f820116820180604052508101906107b59190611552565b806108925750806001600160a01b03166391d14854826001600160a01b031663d7a47a696040518163ffffffff1660e01b8152600401602060405180830381865afa158015610808573d6000803e3d6000fd5b505050506040513d601f19601f8201168201806040525081019061082c9190611539565b6040516001600160e01b031960e084901b1681526004810191909152336024820152604401602060405180830381865afa15801561086e573d6000803e3d6000fd5b505050506040513d601f19601f820116820180604052508101906108929190611552565b6108de5760405162461bcd60e51b815260206004820152601f60248201527f21286f776e6572526f6c65206f722073686f7753746f70706572526f6c6529006044820152606401610213565b609b5460010361053e576000609b8190556040517fbf689b4aae670d200b1d2b971ace2e0c3bef88a9c5e93f36705c7b86eab630b99190a150565b610921610ecb565b609b54600003610a4657609754609854604051633e2f890b60e21b815260048101919091523360248201526000916001600160a01b03169063f8be242c90604401602060405180830381865afa15801561097f573d6000803e3d6000fd5b505050506040513d601f19601f820116820180604052508101906109a39190611539565b6097546098549192506001600160a01b03169063d295927a90336109c6856114f2565b6040516001600160e01b031960e086901b16815260048101939093526001600160a01b0390911660248301526044820152606401600060405180830381600087803b158015610a1457600080fd5b505af1158015610a28573d6000803e3d6000fd5b5050609954610a4492506001600160a01b031690508383610f6c565b505b61053e6001606555565b6097546040805163c8cc243f60e01b815290516000926001600160a01b03169163c8cc243f9160048083019260209291908290030181865afa158015610a9a573d6000803e3d6000fd5b505050506040513d601f19601f82011682018060405250810190610abe919061151c565b9050806001600160a01b03166391d14854826001600160a01b031663e58378bb6040518163ffffffff1660e01b8152600401602060405180830381865afa158015610b0d573d6000803e3d6000fd5b505050506040513d601f19601f82011682018060405250810190610b319190611539565b6040516001600160e01b031960e084901b1681526004810191909152336024820152604401602060405180830381865afa158015610b73573d6000803e3d6000fd5b505050506040513d601f19601f82011682018060405250810190610b979190611552565b80610c745750806001600160a01b03166391d14854826001600160a01b031663b536818a6040518163ffffffff1660e01b8152600401602060405180830381865afa158015610bea573d6000803e3d6000fd5b505050506040513d601f19601f82011682018060405250810190610c0e9190611539565b6040516001600160e01b031960e084901b1681526004810191909152336024820152604401602060405180830381865afa158015610c50573d6000803e3d6000fd5b505050506040513d601f19601f82011682018060405250810190610c749190611552565b610cba5760405162461bcd60e51b815260206004820152601760248201527621286f776e6572526f6c65206f7220676f76526f6c652960481b6044820152606401610213565b61053e6112b0565b600054610100900460ff1615808015610ce25750600054600160ff909116105b80610cfc5750303b158015610cfc575060005460ff166001145b610d5f5760405162461bcd60e51b815260206004820152602e60248201527f496e697469616c697a61626c653a20636f6e747261637420697320616c72656160448201526d191e481a5b9a5d1a585b1a5e995960921b6064820152608401610213565b6000805460ff191660011790558015610d82576000805461ff0019166101001790555b610d8a6112ed565b610d9261131c565b6001609b55609780546001600160a01b038087166001600160a01b03199283161790925560988590556099805492851692909116821790556040805163313ce56760e01b8152905163313ce567916004818101926020929091908290030181865afa158015610e05573d6000803e3d6000fd5b505050506040513d601f19601f82011682018060405250810190610e299190611574565b60ff16609a819055601214610e805760405162461bcd60e51b815260206004820152601f60248201527f546f6b656e416461707465722f6261642d746f6b656e2d646563696d616c73006044820152606401610213565b80156102c6576000805461ff0019169055604051600181527f7f26b83ff96e1f2b6a682f133852f6798a09c465da95921460cefb38474024989060200160405180910390a150505050565b600260655403610f1d5760405162461bcd60e51b815260206004820152601f60248201527f5265656e7472616e637947756172643a207265656e7472616e742063616c6c006044820152606401610213565b6002606555565b60335460ff1615610f6a5760405162461bcd60e51b815260206004820152601060248201526f14185d5cd8589b194e881c185d5cd95960821b6044820152606401610213565b565b6001600160a01b0383163b610fce5760405162461bcd60e51b815260206004820152602260248201527f736166655472616e736665723a206e6f6e2d636f6e7472616374206164647265604482015261737360f01b6064820152608401610213565b604080516001600160a01b038481166024830152604480830185905283518084039091018152606490920183526020820180516001600160e01b031663a9059cbb60e01b179052915160009283929087169161102a9190611597565b6000604051808303816000865af19150503d8060008114611067576040519150601f19603f3d011682016040523d82523d6000602084013e61106c565b606091505b50915091508180156110965750805115806110965750808060200190518101906110969190611552565b6110d25760405162461bcd60e51b815260206004820152600d60248201526c10b9b0b332aa3930b739b332b960991b6044820152606401610213565b5050505050565b6001606555565b6110e861134b565b6033805460ff191690557f5db9ee0a495bf2e6ff9c91a7834c1ba4fdd244a5e8aa4e537bd38aeae4b073aa335b6040516001600160a01b03909116815260200160405180910390a1565b6001600160a01b0384163b6111985760405162461bcd60e51b815260206004820152602660248201527f736166655472616e7366657246726f6d3a206e6f6e2d636f6e7472616374206160448201526564647265737360d01b6064820152608401610213565b604080516001600160a01b0385811660248301528481166044830152606480830185905283518084039091018152608490920183526020820180516001600160e01b03166323b872dd60e01b17905291516000928392908816916111fc9190611597565b6000604051808303816000865af19150503d8060008114611239576040519150601f19603f3d011682016040523d82523d6000602084013e61123e565b606091505b50915091508180156112685750805115806112685750808060200190518101906112689190611552565b6112a85760405162461bcd60e51b815260206004820152601160248201527021736166655472616e7366657246726f6d60781b6044820152606401610213565b505050505050565b6112b8610f24565b6033805460ff191660011790557f62e78cea01bee320cd4e420270b5ea74000d11b0c9f74754ebdbfc544b05a2586111153390565b600054610100900460ff166113145760405162461bcd60e51b8152600401610213906115c6565b610f6a611394565b600054610100900460ff166113435760405162461bcd60e51b8152600401610213906115c6565b610f6a6113c7565b60335460ff16610f6a5760405162461bcd60e51b815260206004820152601460248201527314185d5cd8589b194e881b9bdd081c185d5cd95960621b6044820152606401610213565b600054610100900460ff166113bb5760405162461bcd60e51b8152600401610213906115c6565b6033805460ff19169055565b600054610100900460ff166110d95760405162461bcd60e51b8152600401610213906115c6565b6001600160a01b038116811461053e57600080fd5b6000806000806060858703121561141957600080fd5b8435611424816113ee565b935060208501359250604085013567ffffffffffffffff8082111561144857600080fd5b818701915087601f83011261145c57600080fd5b81358181111561146b57600080fd5b88602082850101111561147d57600080fd5b95989497505060200194505050565b60006020828403121561149e57600080fd5b81356114a9816113ee565b9392505050565b6000806000606084860312156114c557600080fd5b83356114d0816113ee565b92506020840135915060408401356114e7816113ee565b809150509250925092565b6000600160ff1b820161151557634e487b7160e01b600052601160045260246000fd5b5060000390565b60006020828403121561152e57600080fd5b81516114a9816113ee565b60006020828403121561154b57600080fd5b5051919050565b60006020828403121561156457600080fd5b815180151581146114a957600080fd5b60006020828403121561158657600080fd5b815160ff811681146114a957600080fd5b6000825160005b818110156115b8576020818601810151858301520161159e565b506000920191825250919050565b6020808252602b908201527f496e697469616c697a61626c653a20636f6e7472616374206973206e6f74206960408201526a6e697469616c697a696e6760a81b60608201526080019056fea26469706673582212200a968882e756b9bcc3029bd1342850cd754d94e28be6b858231aa575426665e364736f6c63430008110033",
  "immutableReferences": {},
  "source": "// SPDX-License-Identifier: AGPL-3.0-or-later\npragma solidity 0.8.17;\n\nimport \"@openzeppelin/contracts-upgradeable/security/PausableUpgradeable.sol\";\nimport \"@openzeppelin/contracts-upgradeable/security/ReentrancyGuardUpgradeable.sol\";\n\nimport \"../../main/interfaces/IBookKeeper.sol\";\nimport \"../../main/interfaces/IToken.sol\";\nimport \"../../main/interfaces/IGenericTokenAdapter.sol\";\nimport \"../../main/interfaces/ICagable.sol\";\nimport \"../../main/utils/SafeToken.sol\";\n\ncontract TokenAdapter is PausableUpgradeable, ReentrancyGuardUpgradeable, IGenericTokenAdapter, ICagable {\n    using SafeToken for address;\n\n    modifier onlyOwner() {\n        IAccessControlConfig _accessControlConfig = IAccessControlConfig(bookKeeper.accessControlConfig());\n        require(_accessControlConfig.hasRole(_accessControlConfig.OWNER_ROLE(), msg.sender), \"!ownerRole\");\n        _;\n    }\n\n    modifier onlyOwnerOrGov() {\n        IAccessControlConfig _accessControlConfig = IAccessControlConfig(bookKeeper.accessControlConfig());\n        require(\n            _accessControlConfig.hasRole(_accessControlConfig.OWNER_ROLE(), msg.sender) ||\n                _accessControlConfig.hasRole(_accessControlConfig.GOV_ROLE(), msg.sender),\n            \"!(ownerRole or govRole)\"\n        );\n        _;\n    }\n\n    modifier onlyOwnerOrShowStopper() {\n        IAccessControlConfig _accessControlConfig = IAccessControlConfig(bookKeeper.accessControlConfig());\n        require(\n            _accessControlConfig.hasRole(_accessControlConfig.OWNER_ROLE(), msg.sender) ||\n                _accessControlConfig.hasRole(_accessControlConfig.SHOW_STOPPER_ROLE(), msg.sender),\n            \"!(ownerRole or showStopperRole)\"\n        );\n        _;\n    }\n\n    IBookKeeper public bookKeeper; // CDP Engine\n    bytes32 public override collateralPoolId; // Collateral Type\n    address public override collateralToken;\n    uint256 public override decimals;\n    uint256 public live; // Active Flag\n\n    function initialize(address _bookKeeper, bytes32 collateralPoolId_, address collateralToken_) external initializer {\n        PausableUpgradeable.__Pausable_init();\n        ReentrancyGuardUpgradeable.__ReentrancyGuard_init();\n\n        live = 1;\n        bookKeeper = IBookKeeper(_bookKeeper);\n        collateralPoolId = collateralPoolId_;\n        collateralToken = collateralToken_;\n        decimals = IToken(collateralToken).decimals();\n        require(decimals == 18, \"TokenAdapter/bad-token-decimals\");\n    }\n\n    function cage() external override onlyOwnerOrShowStopper {\n        if (live == 1) {\n            live = 0;\n            emit LogCage();\n        }\n    }\n\n    function deposit(address usr, uint256 wad, bytes calldata /* data */) external override nonReentrant whenNotPaused {\n        require(live == 1, \"TokenAdapter/not-live\");\n        require(int256(wad) >= 0, \"TokenAdapter/overflow\");\n        bookKeeper.addCollateral(collateralPoolId, usr, int256(wad));\n\n        // Move the actual token\n        address(collateralToken).safeTransferFrom(msg.sender, address(this), wad);\n    }\n\n    function withdraw(address usr, uint256 wad, bytes calldata /* data */) external override nonReentrant whenNotPaused {\n        require(wad < 2 ** 255, \"TokenAdapter/overflow\");\n        bookKeeper.addCollateral(collateralPoolId, msg.sender, -int256(wad));\n\n        address(collateralToken).safeTransfer(usr, wad);\n    }\n\n    function emergencyWithdraw(address _to) external nonReentrant {\n        if (live == 0) {\n            uint256 _amount = bookKeeper.collateralToken(collateralPoolId, msg.sender);\n            bookKeeper.addCollateral(collateralPoolId, msg.sender, -int256(_amount));\n\n            address(collateralToken).safeTransfer(_to, _amount);\n        }\n    }\n    /// @dev access: OWNER_ROLE, GOV_ROLE\n    function pause() external onlyOwnerOrGov {\n        _pause();\n    }\n    /// @dev access: OWNER_ROLE, GOV_ROLE\n    function unpause() external onlyOwnerOrGov {\n        _unpause();\n    }\n}\n",
  "sourcePath": "/Users/aleksey/SolidityProjects2/fathom-stablecoin-smart-contracts/contracts/tests/mocks/TokenAdapter.sol",
  "compiler": {
    "name": "solc",
    "version": "0.8.17+commit.8df45f5f.Emscripten.clang"
  },
  "schemaVersion": "3.4.15",
  "updatedAt": "2023-08-10T12:55:05.838Z",
  "devdoc": {
    "kind": "dev",
    "methods": {
      "pause()": {
        "details": "access: OWNER_ROLE, GOV_ROLE"
      },
      "paused()": {
        "details": "Returns true if the contract is paused, and false otherwise."
      },
      "unpause()": {
        "details": "access: OWNER_ROLE, GOV_ROLE"
      }
    },
    "version": 1
  },
  "userdoc": {
    "kind": "user",
    "methods": {},
    "version": 1
  }
}