{
    "contractName": "Vault",
    "abi": [
        {
            "inputs": [
                {
                    "internalType": "bytes32",
                    "name": "_collateralPoolId",
                    "type": "bytes32"
                },
                {
                    "internalType": "address",
                    "name": "_collateralToken",
                    "type": "address"
                },
                {
                    "internalType": "address",
                    "name": "_collateralAdapter",
                    "type": "address"
                }
            ],
            "stateMutability": "nonpayable",
            "type": "constructor"
        },
        {
            "anonymous": false,
            "inputs": [
                {
                    "indexed": false,
                    "internalType": "uint256",
                    "name": "amount",
                    "type": "uint256"
                }
            ],
            "name": "Deposit",
            "type": "event"
        },
        {
            "anonymous": false,
            "inputs": [
                {
                    "indexed": false,
                    "internalType": "uint256",
                    "name": "amount",
                    "type": "uint256"
                }
            ],
            "name": "Withdraw",
            "type": "event"
        },
        {
            "inputs": [],
            "name": "collateralAdapter",
            "outputs": [
                {
                    "internalType": "address",
                    "name": "",
                    "type": "address"
                }
            ],
            "stateMutability": "view",
            "type": "function"
        },
        {
            "inputs": [],
            "name": "collateralPoolId",
            "outputs": [
                {
                    "internalType": "bytes32",
                    "name": "",
                    "type": "bytes32"
                }
            ],
            "stateMutability": "view",
            "type": "function"
        },
        {
            "inputs": [],
            "name": "collateralToken",
            "outputs": [
                {
                    "internalType": "address",
                    "name": "",
                    "type": "address"
                }
            ],
            "stateMutability": "view",
            "type": "function"
        },
        {
            "inputs": [
                {
                    "internalType": "uint256",
                    "name": "_amount",
                    "type": "uint256"
                }
            ],
            "name": "deposit",
            "outputs": [],
            "stateMutability": "nonpayable",
            "type": "function"
        },
        {
            "inputs": [
                {
                    "internalType": "uint256",
                    "name": "_amount",
                    "type": "uint256"
                }
            ],
            "name": "withdraw",
            "outputs": [],
            "stateMutability": "nonpayable",
            "type": "function"
        }
    ],
    "bytecode": "0x60c060405234801561001057600080fd5b506040516108a43803806108a483398101604081905261002f91610166565b826100815760405162461bcd60e51b815260206004820152601a60248201527f5661756c742f7a65726f2d636f6c6c61746572616c2d706f6f6c00000000000060448201526064015b60405180910390fd5b6001600160a01b0382166100d75760405162461bcd60e51b815260206004820152601b60248201527f5661756c742f7a65726f2d636f6c6c61746572616c2d746f6b656e00000000006044820152606401610078565b6001600160a01b03811661012d5760405162461bcd60e51b815260206004820152601d60248201527f5661756c742f7a65726f2d636f6c6c61746572616c2d616461707465720000006044820152606401610078565b6000929092556001600160a01b039081166080521660a0526101a2565b80516001600160a01b038116811461016157600080fd5b919050565b60008060006060848603121561017b57600080fd5b8351925061018b6020850161014a565b91506101996040850161014a565b90509250925092565b60805160a0516106c36101e160003960008181606101528181610111015261019501526000818160ba0152818161020a015261027601526106c36000f3fe608060405234801561001057600080fd5b50600436106100575760003560e01c8063246786e21461005c5780632e1a7d4d146100a0578063b2016bd4146100b5578063b6b55f25146100dc578063dca07dc5146100ef575b600080fd5b6100837f000000000000000000000000000000000000000000000000000000000000000081565b6040516001600160a01b0390911681526020015b60405180910390f35b6100b36100ae3660046105d8565b610106565b005b6100837f000000000000000000000000000000000000000000000000000000000000000081565b6100b36100ea3660046105d8565b61018a565b6100f860005481565b604051908152602001610097565b336001600160a01b037f0000000000000000000000000000000000000000000000000000000000000000161461017e5760405162461bcd60e51b81526020600482015260186024820152772b30bab63a17b1b0b63632b916b737ba16b0b230b83a32b960411b60448201526064015b60405180910390fd5b61018781610269565b50565b336001600160a01b037f000000000000000000000000000000000000000000000000000000000000000016146101fd5760405162461bcd60e51b81526020600482015260186024820152772b30bab63a17b1b0b63632b916b737ba16b0b230b83a32b960411b6044820152606401610175565b6102326001600160a01b037f0000000000000000000000000000000000000000000000000000000000000000163330846102cd565b6040518181527f4d6ce1e535dbade1c23defba91e23b8f791ce5edc0cc320257a2b364e4e38426906020015b60405180910390a150565b61029d6001600160a01b037f000000000000000000000000000000000000000000000000000000000000000016338361033e565b6040518181527f5b6b431d4476a211bb7d41c20d1aab9ae2321deee0d20be3d9fc9b1093fa6e3d9060200161025e565b6040516001600160a01b03808516602483015283166044820152606481018290526103389085906323b872dd60e01b906084015b60408051601f198184030181529190526020810180516001600160e01b03166001600160e01b031990931692909217909152610373565b50505050565b6040516001600160a01b03831660248201526044810182905261036e90849063a9059cbb60e01b90606401610301565b505050565b60006103c8826040518060400160405280602081526020017f5361666545524332303a206c6f772d6c6576656c2063616c6c206661696c6564815250856001600160a01b03166104489092919063ffffffff16565b90508051600014806103e95750808060200190518101906103e991906105f1565b61036e5760405162461bcd60e51b815260206004820152602a60248201527f5361666545524332303a204552433230206f7065726174696f6e20646964206e6044820152691bdd081cdd58d8d9595960b21b6064820152608401610175565b6060610457848460008561045f565b949350505050565b6060824710156104c05760405162461bcd60e51b815260206004820152602660248201527f416464726573733a20696e73756666696369656e742062616c616e636520666f6044820152651c8818d85b1b60d21b6064820152608401610175565b600080866001600160a01b031685876040516104dc919061063e565b60006040518083038185875af1925050503d8060008114610519576040519150601f19603f3d011682016040523d82523d6000602084013e61051e565b606091505b509150915061052f8783838761053a565b979650505050505050565b606083156105a95782516000036105a2576001600160a01b0385163b6105a25760405162461bcd60e51b815260206004820152601d60248201527f416464726573733a2063616c6c20746f206e6f6e2d636f6e74726163740000006044820152606401610175565b5081610457565b61045783838151156105be5781518083602001fd5b8060405162461bcd60e51b8152600401610175919061065a565b6000602082840312156105ea57600080fd5b5035919050565b60006020828403121561060357600080fd5b8151801515811461061357600080fd5b9392505050565b60005b8381101561063557818101518382015260200161061d565b50506000910152565b6000825161065081846020870161061a565b9190910192915050565b602081526000825180602084015261067981604085016020870161061a565b601f01601f1916919091016040019291505056fea2646970667358221220cdafbed0b335a3e378c9979d176d3ee91d224d4af9164fb05f112eecce63918d64736f6c63430008110033",
    "immutableReferences": {
        "23010": [
            {
                "length": 32,
                "start": 186
            },
            {
                "length": 32,
                "start": 522
            },
            {
                "length": 32,
                "start": 630
            }
        ],
        "23012": [
            {
                "length": 32,
                "start": 97
            },
            {
                "length": 32,
                "start": 273
            },
            {
                "length": 32,
                "start": 405
            }
        ]
    },
    "source": "// SPDX-License-Identifier: AGPL-3.0-or-later\n\npragma solidity 0.8.17;\n\nimport \"@openzeppelin/contracts/token/ERC20/utils/SafeERC20.sol\";\n\nimport \"../interfaces/IVault.sol\";\n\n/**\n * @title Vault\n * @notice A contract representing a vault that holds and manages collateral tokens.\n */\n\ncontract Vault is IVault {\n    using SafeERC20 for IERC20;\n\n    bytes32 public collateralPoolId;\n    address public immutable collateralToken;\n    address public immutable collateralAdapter;\n\n    event Deposit(uint256 amount);\n    event Withdraw(uint256 amount);\n\n    modifier onlyAdapter() {\n        require(msg.sender == collateralAdapter, \"Vault/caller-not-adapter\");\n        _;\n    }\n    /**\n     * @notice Vault constructor.\n     * @param _collateralPoolId The identifier of the collateral pool associated with the Vault.\n     * @param _collateralToken The address of the ERC20 collateral token held in the Vault.\n     * @param _collateralAdapter The address of the collateral adapter responsible for interacting with the Vault.\n     * @dev Reverts if any of the input parameters are the zero address or bytes32(0).\n     */\n    constructor(bytes32 _collateralPoolId, address _collateralToken, address _collateralAdapter) {\n        require(_collateralPoolId != bytes32(0), \"Vault/zero-collateral-pool\");\n        require(_collateralToken != address(0), \"Vault/zero-collateral-token\");\n        require(_collateralAdapter != address(0), \"Vault/zero-collateral-adapter\");\n\n        collateralPoolId = _collateralPoolId;\n        collateralToken = _collateralToken;\n        collateralAdapter = _collateralAdapter;\n    }\n    /**\n     * @notice Deposit collateral tokens into the Vault.\n     * @param _amount The amount of collateral tokens to deposit.\n     * @dev This function can only be called by the collateral token adapter, which is responsible for depositing collateral.\n     * @dev The Vault contract safely transfers the specified amount of collateral tokens from the caller (collateral token adapter)\n     *      to itself.\n     * @dev Emits a Deposit event upon a successful deposit.\n     */\n    function deposit(uint256 _amount) external onlyAdapter {\n        IERC20(collateralToken).safeTransferFrom(msg.sender, address(this), _amount);\n        emit Deposit(_amount);\n    }\n\n    /**\n     * @notice Withdraw collateral tokens from the Vault.\n     * @param _amount The amount of collateral tokens to withdraw.\n     * @dev This function can only be called by the collateral token adapter, which is responsible for managing collateral.\n     * @dev The Vault contract safely transfers the specified amount of collateral tokens from itself to the caller\n     *      (collateral token adapter).\n     * @dev Emits a Withdraw event upon a successful withdrawal.\n     */\n    function withdraw(uint256 _amount) external onlyAdapter {\n        _withdraw(_amount);\n    }\n\n    function _withdraw(uint256 _amount) internal {\n        IERC20(collateralToken).safeTransfer(msg.sender, _amount);\n        emit Withdraw(_amount);\n    }\n}\n",
    "sourcePath": "/Users/aleksey/SolidityProjects2/fathom-stablecoin-smart-contracts/contracts/main/stablecoin-core/Vault.sol",
    "compiler": {
        "name": "solc",
        "version": "0.8.17+commit.8df45f5f.Emscripten.clang"
    },
    "schemaVersion": "3.4.15",
    "updatedAt": "2023-08-10T12:55:05.735Z",
    "devdoc": {
        "kind": "dev",
        "methods": {
            "constructor": {
                "details": "Reverts if any of the input parameters are the zero address or bytes32(0).",
                "params": {
                    "_collateralAdapter": "The address of the collateral adapter responsible for interacting with the Vault.",
                    "_collateralPoolId": "The identifier of the collateral pool associated with the Vault.",
                    "_collateralToken": "The address of the ERC20 collateral token held in the Vault."
                }
            },
            "deposit(uint256)": {
                "details": "This function can only be called by the collateral token adapter, which is responsible for depositing collateral.The Vault contract safely transfers the specified amount of collateral tokens from the caller (collateral token adapter)      to itself.Emits a Deposit event upon a successful deposit.",
                "params": {
                    "_amount": "The amount of collateral tokens to deposit."
                }
            },
            "withdraw(uint256)": {
                "details": "This function can only be called by the collateral token adapter, which is responsible for managing collateral.The Vault contract safely transfers the specified amount of collateral tokens from itself to the caller      (collateral token adapter).Emits a Withdraw event upon a successful withdrawal.",
                "params": {
                    "_amount": "The amount of collateral tokens to withdraw."
                }
            }
        },
        "title": "Vault",
        "version": 1
    },
    "userdoc": {
        "kind": "user",
        "methods": {
            "constructor": {
                "notice": "Vault constructor."
            },
            "deposit(uint256)": {
                "notice": "Deposit collateral tokens into the Vault."
            },
            "withdraw(uint256)": {
                "notice": "Withdraw collateral tokens from the Vault."
            }
        },
        "notice": "A contract representing a vault that holds and manages collateral tokens.",
        "version": 1
    }
}